:020000040800F2
:1000000000000220C5430008294300082F430008D0
:10001000354300083B43000841430008000000004E
:10002000000000000000000000000000F17F000858
:1000300047430008000000004182000855430008C3
:10004000154400081544000815440008154400082C
:10005000154400081544000815440008154400081C
:10006000154400081544000815440008154400080C
:1000700015440008154400081544000815440008FC
:1000800015440008154400081544000815440008EC
:1000900015440008154400081544000815440008DC
:1000A0007143000815440008154400081544000871
:1000B00015440008154400081544000815440008BC
:1000C00015440008154400081544000815440008AC
:1000D00015440008154400088D4300081544000825
:1000E000154400081544000815440008154400088C
:1000F000154400081544000815440008154400087C
:10010000154400081544000815440008154400086B
:10011000154400081544000815440008154400085B
:10012000154400081544000815440008154400084B
:10013000154400081544000815440008154400083B
:10014000154400081544000815440008154400082B
:10015000154400081544000815440008154400081B
:10016000154400081544000815440008154400080B
:10017000154400081544000815440008000000005C
:080180001544000815440008B5
:1001900010B5054C237833B9044B13B10448AFF3C1
:1001A00000800123237010BD7000002000000000BB
:1001B00048AB000808B5034B1BB103490348AFF334
:1001C000008008BD000000007400002048AB00085B
:1001D00081F0004102E000BF83F0004330B54FEAF8
:1001E00041044FEA430594EA050F08BF90EA020F65
:1001F0001FBF54EA000C55EA020C7FEA645C7FEAF8
:10020000655C00F0E2804FEA5454D4EB5555B8BF1A
:100210006D420CDD2C4480EA020281EA030382EA8B
:10022000000083EA010180EA020281EA0303362D1D
:1002300088BF30BD11F0004F4FEA01314FF4801CF0
:100240004CEA113102D0404261EB410113F0004F02
:100250004FEA03334CEA133302D0524263EB4303B9
:1002600094EA050F00F0A780A4F10104D5F1200E57
:100270000DDB02FA0EFC22FA05F2801841F10001B2
:1002800003FA0EF2801843FA05F359410EE0A5F186
:1002900020050EF1200E012A03FA0EFC28BF4CF0B7
:1002A000020C43FA05F3C01851EBE37101F000456D
:1002B00007D54FF0000EDCF1000C7EEB00006EEB7A
:1002C0000101B1F5801F1BD3B1F5001F0CD3490804
:1002D0005FEA30004FEA3C0C04F101044FEA44525B
:1002E00012F5800F80F09A80BCF1004F08BF5FEAE2
:1002F000500C50F1000041EB045141EA050130BDC2
:100300005FEA4C0C404141EB0101013C28BFB1F5D3
:10031000801FE9D291F0000F04BF01460020B1FA1E
:1003200081F308BF2033A3F10B03B3F120020CDAF1
:100330000C3208DD02F1140CC2F10C0201FA0CF0CF
:1003400021FA02F10CE002F11402D8BFC2F1200C34
:1003500001FA02F120FA0CFCDCBF41EA0C019040EA
:10036000E41AA2BF01EB0451294330BD6FEA040433
:100370001F3C1CDA0C340EDC04F11404C4F120021E
:1003800020FA04F001FA02F340EA030021FA04F330
:1003900045EA030130BDC4F10C04C4F1200220FA87
:1003A00002F001FA04F340EA0300294630BD21FAC5
:1003B00004F0294630BD94F0000F83F4801306BF8B
:1003C00081F480110134013D4EE77FEA645C18BF7F
:1003D0007FEA655C29D094EA050F08BF90EA020F16
:1003E00005D054EA000C04BF1946104630BD91EA0E
:1003F000030F1EBF0021002030BD5FEA545C05D111
:100400004000494128BF41F0004130BD14F580044F
:100410003CBF01F5801130BD01F0004545F0FE41C3
:1004200041F470014FF0000030BD7FEA645C1ABFF8
:10043000194610467FEA655C1CBF0B46024650EA2F
:10044000013406BF52EA033591EA030F41F400215B
:1004500030BD00BF90F0000F04BF0021704730B5E1
:100460004FF4806404F132044FF000054FF00001B6
:1004700050E700BF90F0000F04BF0021704730B577
:100480004FF4806404F1320410F0004548BF40424C
:100490004FF000013EE700BF42004FEAE2014FEAA1
:1004A00031014FEA02701FBF12F07F4393F07F4F7C
:1004B00081F06051704732F07F4208BF704793F07F
:1004C0007F4F04BF41F40021704730B54FF4607492
:1004D00001F0004521F000411CE700BF50EA010295
:1004E00008BF704730B54FF000050AE050EA01023E
:1004F00008BF704730B511F0004502D5404261EBAE
:1005000041014FF4806404F132045FEA915C3FF4EE
:10051000D8AE4FF003025FEADC0C18BF03325FEA8B
:10052000DC0C18BF033202EBDC02C2F1200300FA3C
:1005300003FC20FA02F001FA03FE40EA0E0021FA61
:1005400002F11444BDE600BF70B54FF0FF0C4CF44F
:10055000E06C1CEA11541DBF1CEA135594EA0C0F01
:1005600095EA0C0F00F0DEF82C4481EA030621EA3C
:100570004C5123EA4C5350EA013518BF52EA033577
:1005800041F4801143F4801338D0A0FB02CE4FF029
:100590000005E1FB02E506F00042E0FB03E54FF059
:1005A0000006E1FB03569CF0000F18BF4EF0010E51
:1005B000A4F1FF04B6F5007F64F5407404D25FEA4D
:1005C0004E0E6D4146EB060642EAC62141EA555100
:1005D0004FEAC52040EA5E504FEACE2EB4F1FD0C42
:1005E00088BFBCF5E06F1ED8BEF1004F08BF5FEAC0
:1005F000500E50F1000041EB045170BD06F0004672
:1006000046EA010140EA020081EA0301B4EB5C041E
:10061000C2BFD4EB0C0541EA045170BD41F4801116
:100620004FF0000E013C00F3AB8014F1360FDEBF3B
:10063000002001F0004170BDC4F10004203C35DA17
:100640000C341BDC04F11404C4F1200500FA05F39A
:1006500020FA04F001FA05F240EA020001F000423B
:1006600021F0004110EBD37021FA04F642EB0601B1
:100670005EEA430E08BF20EAD37070BDC4F10C04DB
:10068000C4F1200500FA04F320FA05F001FA04F29F
:1006900040EA020001F0004110EBD37041F100018B
:1006A0005EEA430E08BF20EAD37070BDC4F1200596
:1006B00000FA05F24EEA020E20FA04F301FA05F2FE
:1006C00043EA020321FA04F001F0004121FA04F2A6
:1006D00020EA020000EBD3705EEA430E08BF20EA76
:1006E000D37070BD94F0000F0FD101F000464000B0
:1006F00041EB010111F4801F08BF013CF7D041EA32
:10070000060195F0000F18BF704703F00046520035
:1007100043EB030313F4801F08BF013DF7D043EA06
:100720000603704794EA0C0F0CEA135518BF95EABC
:100730000C0F0CD050EA410618BF52EA4306D1D143
:1007400081EA030101F000414FF0000070BD50EA62
:10075000410606BF1046194652EA430619D094EAEC
:100760000C0F02D150EA013613D195EA0C0F05D1D6
:1007700052EA03361CBF104619460AD181EA03012A
:1007800001F0004141F0FE4141F470014FF00000E2
:1007900070BD41F0FE4141F4780170BD70B54FF07D
:1007A000FF0C4CF4E06C1CEA11541DBF1CEA1355FD
:1007B00094EA0C0F95EA0C0F00F0A7F8A4EB0504DF
:1007C00081EA030E52EA03354FEA013100F08880D6
:1007D0004FEA03334FF0805545EA131343EA12639F
:1007E0004FEA022245EA111545EA10654FEA002654
:1007F0000EF000419D4208BF964244F1FD0404F50D
:10080000407402D25B084FEA3202B61A65EB030568
:100810005B084FEA32024FF480104FF4002CB6EB25
:10082000020E75EB030E22BFB61A754640EA0C00A5
:100830005B084FEA3202B6EB020E75EB030E22BFE5
:10084000B61A754640EA5C005B084FEA3202B6EB26
:10085000020E75EB030E22BFB61A754640EA9C00E5
:100860005B084FEA3202B6EB020E75EB030E22BFB5
:10087000B61A754640EADC0055EA060E18D04FEA73
:10088000051545EA16754FEA06164FEAC30343EA13
:1008900052734FEAC2025FEA1C1CC0D111F4801FE0
:1008A0000BD141EA00014FF000004FF0004CB6E7D9
:1008B00011F4801F04BF01430020B4F1FD0C88BF78
:1008C000BCF5E06F3FF6AFAEB5EB030C04BFB6EB83
:1008D000020C5FEA500C50F1000041EB045170BD76
:1008E0000EF0004E4EEA113114EB5C04C2BFD4EBA3
:1008F0000C0541EA045170BD41F480114FF0000E27
:10090000013C90E645EA060E8DE60CEA135594EAA2
:100910000C0F08BF95EA0C0F3FF43BAF94EA0C0FA5
:100920000AD150EA01347FF434AF95EA0C0F7FF41A
:1009300025AF104619462CE795EA0C0F06D152EA6E
:1009400003353FF4FDAE1046194622E750EA410652
:1009500018BF52EA43067FF4C5AE50EA41047FF463
:100960000DAF52EA43057FF4EBAE12E74FF0FF3CC8
:1009700006E000BF4FF0010C02E000BF4FF0010C99
:100980004DF804CD4FEA410C7FEA6C5C4FEA430C12
:1009900018BF7FEA6C5C1BD001B050EA410C0CBF61
:1009A00052EA430C91EA030F02BF90EA020F0020C3
:1009B000704710F1000F91EA030F58BF994208BF2A
:1009C00090422CBFD8176FEAE37040F001007047E7
:1009D0004FEA410C7FEA6C5C02D150EA013C07D13E
:1009E0004FEA430C7FEA6C5CD6D152EA033CD3D089
:1009F0005DF8040B704700BF8446104662468C4683
:100A00001946634600E000BF01B5FFF7B7FF0028B5
:100A100048BF10F1000F01BD4DF808EDFFF7F4FFDE
:100A20000CBF012000205DF808FB00BF4DF808ED69
:100A3000FFF7EAFF34BF012000205DF808FB00BF8C
:100A40004DF808EDFFF7E0FF94BF012000205DF8AE
:100A500008FB00BF4DF808EDFFF7CEFF94BF012063
:100A600000205DF808FB00BF4DF808EDFFF7C4FF5C
:100A700034BF012000205DF808FB00BF4FEA410CA5
:100A80007FEA6C5C02D150EA013C0AD14FEA430C88
:100A90007FEA6C5C02D152EA033C02D14FF00000C5
:100AA00070474FF0010070474FEA410212F5001203
:100AB00015D211D56FF47873B3EB625212D94FEAA5
:100AC000C12343F0004343EA505311F0004F23FA8F
:100AD00002F018BF404270474FF00000704750EAE4
:100AE000013005D111F0004008BF6FF000407047A1
:100AF0004FF00000704700BF4FEA4102B2F1E043FF
:100B000024BFB3F5001CDCF1FE5C0DD901F0004CF4
:100B10004FEAC0024CEA5070B2F1004F40EB830044
:100B200008BF20F00100704711F0804F21D113F170
:100B30003872BCBF01F00040704741F480114FEAA9
:100B40005252C2F11802C2F1200C10FA0CF320FA32
:100B500002F018BF40F001004FEAC1234FEAD3234F
:100B600003FA0CFC40EA0C0023FA02F34FEA4303B9
:100B7000CCE77FEA625307D150EA01331EBF4FF042
:100B8000FE4040F44000704701F0004040F0FE405D
:100B900040F40000704700BF53B94AB9002908BFAC
:100BA00000281CBF4FF0FF314FF0FF3000F070B94C
:100BB000ADF1080C6DE904CE00F006F8DDF804E0B4
:100BC000DDE9022304B070472DE9F047089E0D4689
:100BD00004460F46002B4AD18A42944665D9B2FAA0
:100BE00082F343B102FA03FCC3F120029F4020FAD2
:100BF00002F217439C404FEA1C4E1FFA8CF5B7FBDC
:100C0000FEF1220C0EFB117742EA074201FB05F0D0
:100C100090420AD91CEB020201F1FF3780F01C81DF
:100C2000904240F2198102396244121AA4B2B2FB16
:100C3000FEF00EFB102244EA024400FB05F5A5423B
:100C40000AD91CEB040400F1FF3280F00781A542B1
:100C500040F204816444023840EA0140641B0021F0
:100C60001EB1DC400023C6E90043BDE8F0878B429B
:100C700008D9002E00F0ED800021C6E900050846E5
:100C8000BDE8F087B3FA83F1002949D1AB4202D322
:100C9000824200F2F880841A65EB030201201746B5
:100CA000002EE2D0C6E90047DFE702B9FFDEB2FA64
:100CB00082F3002B40F090808A1A4FEA1C471FFAFB
:100CC0008CFE0121B2FBF7F507FB1520220C42EA4E
:100CD00000420EFB05F0904208D91CEB020205F120
:100CE000FF3802D2904200F2CB804546121AA4B2DD
:100CF000B2FBF7F007FB102244EA02440EFB00FEB1
:100D0000A64508D91CEB040400F1FF3202D2A64527
:100D100000F2BB801046A4EB0E0440EA05409FE7BA
:100D2000C1F120078B4022FA07FC4CEA030C05FABC
:100D300001F420FA07F3FD404FEA1C492343B5FBB9
:100D4000F9F81FFA8CFE09FB18551C0C44EA0544FF
:100D500008FB0EF5A54202FA01F200FA01F00BD9E8
:100D60001CEB040408F1FF3A80F08880A54240F2B1
:100D70008580A8F102086444641B9DB2B4FBF9F3BA
:100D800009FB134445EA044403FB0EFEA64508D9BB
:100D90001CEB040403F1FF356CD2A6456AD9023B73
:100DA000644443EA0843A3FB0295A4EB0E04AC425F
:100DB000C846AE4656D353D056B1B0EB080264EBEA
:100DC0000E0404FA07F7CA40CC401743C6E9007482
:100DD00018460021BDE8F087C3F1200102FA03FCA8
:100DE00020FA01F225FA01F19D402A434FEA1C47FF
:100DF0001FFA8CFEB1FBF7F007FB1015110C41EA4E
:100E0000054100FB0EF58D4204FA03F408D91CEBF2
:100E1000010100F1FF382FD28D422DD902386144F3
:100E2000491B92B2B1FBF7F507FB151142EA0142EB
:100E300005FB0EF1914208D91CEB020205F1FF38C7
:100E400016D2914214D9023D6244521A45EA004139
:100E500038E73146304608E73946E6E61046FBE615
:100E60004845A9D2B9EB020865EB0C0E013BA3E79C
:100E70004546EAE72B4694E74046D1E7D0467BE774
:100E8000023D624432E708460AE76444023842E71A
:100E9000704700BF80B487B000AF78613961FA60F5
:100EA00087ED000B7B693A691A607B69FA685A61C1
:100EB0007969D7E90023C1E9102300BF1C37BD467B
:100EC0005DF8047B70470000B0B582B000AF786079
:100ED0007B681B681B685B6A1AB27B689A807B68B8
:100EE0009B687A68B2F904201A447B689A607B6830
:100EF0001B681B6800225A627B689A687B681B69C2
:100F0000D31A1846FFF7B6FA7B68D3E91023FFF728
:100F100045FC02460B4614461D467B685B699B00F8
:100F20001846FFF7A7FA02460B4620462946FFF768
:100F300035FC02460B46104619464FF00002284B7E
:100F4000FFF702FB02460B467968C1E908237B687C
:100F5000D3E90C011EA3D3E90023FFF7F5FA0246FB
:100F60000B4614461D467B68D3E908011AA3D3E952
:100F70000023FFF7E9FA02460B4620462946FFF711
:100F80002DF902460B4614461D467B68D3E90A013B
:100F900011A3D3E90023FFF7D7FA02460B462046F8
:100FA0002946FFF71BF902460B467968C1E90C2375
:100FB0007B68D3E908237968C1E90A237B689A68CA
:100FC0007B681A6100BF0837BD46B0BDAFF3008033
:100FD0008716D9CEF753EB3FC217265305A3B23F6E
:100FE00000004E4080B582B000AF78600B46FB70C9
:100FF0007B68FA781A767B681B681B685B6A1AB292
:101000007B689A807B689B687A68B2F904201A44EE
:101010007B689A607B681B681B6800225A627B6849
:101020001B7E012B07D17B689B681846FFF722FACD
:1010300002460B4633E07B681B7E002B10D17B6899
:101040009B68002B00DA03339B101A467B68DA603A
:101050007B68DB681846FFF70DFA02460B461EE078
:101060007B681B7E022B16D17B689B684FF4B472A1
:1010700003FB02F27B685B699B0092FBF3F318466B
:10108000FFF7F8F902460B467968C1E90E237B6841
:10109000D3E90E2303E04FF000024FF0000343ECCE
:1010A000172BB0EE470AF0EE670A0837BD4680BD41
:1010B00080B483B000AF78600B46FB70FB78012BE7
:1010C00007D17B681B681B6800225A627B6800227C
:1010D0009A6000BF0C37BD465DF8047B704780B452
:1010E00085B000AFF860B9607A603B60FB68BA68B1
:1010F0005A607B68002BB8BF5B429AB2FB68DA810A
:10110000FB683A681A61FB68BA695A617B68002B10
:101110004DDAFB681B69002B05D1FB685B681B6817
:1011200000225A6318E0FB681B69042B05D1FB6899
:101130005B681A68002393630EE0FB681B69082B49
:1011400005D1FB685B681A680023D36304E0FB6881
:101150005B681A6800231364FB685B69002B06D187
:10116000FB68DA89FB685B681B685A63B7E0FB6859
:101170005B69042B07D1FB68D989FB685B681A6837
:101180000B469363ABE0FB685B69082B07D1FB68F8
:10119000D989FB685B681A680B46D3639FE0FB68DC
:1011A000D989FB685B681A680B46136497E07B6813
:1011B000002B4DDDFB681B69002B06D1FB68DA892B
:1011C000FB685B681B685A631EE0FB681B69042BA5
:1011D00007D1FB68D989FB685B681A680B46936383
:1011E00012E0FB681B69082B07D1FB68D989FB68F3
:1011F0005B681A680B46D36306E0FB68D989FB6815
:101200005B681A680B461364FB685B69002B05D1A9
:10121000FB685B681B6800225A6360E0FB685B69DF
:10122000042B05D1FB685B681A680023936356E0C2
:10123000FB685B69082B05D1FB685B681A680023B3
:10124000D3634CE0FB685B681A680023136446E0D4
:10125000FB681B69002B05D1FB685B681B680022DB
:101260005A6318E0FB681B69042B05D1FB685B68B7
:101270001A68002393630EE0FB681B69082B05D1F5
:10128000FB685B681A680023D36304E0FB685B6853
:101290001A6800231364FB685B69002B05D1FB68A7
:1012A0005B681B6800225A6319E0FB685B69042BCA
:1012B00005D1FB685B681A68002393630FE0FB6845
:1012C0005B69082B05D1FB685B681A680023D36350
:1012D00005E0FB685B681A6800231364FFE700BF42
:1012E0001437BD465DF8047B704780B485B000AF0D
:1012F000F86087ED020AC7ED010AFB68BA681A6058
:10130000FB687A685A60FB6893ED007AFB68D3ED5E
:10131000017A77EE677AFB68C3ED027AFB6893ED9A
:10132000057AFB68D3ED027A67EE277AFB68C3ED96
:10133000067AFB6893ED097AFB68D3ED076AFB68D0
:10134000D3ED027A66EEA76AFB68D3ED047A66EE07
:10135000A77A77EE277AFB68C3ED087AFB6893EDEE
:10136000087AFB689B6A07EE903AF8EEE77AB4EEEB
:10137000E77AF1EE10FA06DDFB689B6A07EE903A19
:10138000F8EEE77A02E0FB68D3ED087AFB68C3ED7C
:10139000087AFB6893ED087AFB68DB6A07EE903AFF
:1013A000F8EEE77AB4EEE77AF1EE10FA06D5FB68CC
:1013B000DB6A07EE903AF8EEE77A02E0FB68D3EDDD
:1013C000087AFB68C3ED087AFB6893ED0C7AFB683A
:1013D000D3ED026AFB68D3ED037A76EEE77A67EE27
:1013E000276AFB6893ED047AC6EE877AFB68C3ED43
:1013F0000D7AFB68D3ED107AB7EE007A37EE677A94
:10140000FB68D3ED0F7A27EE277AFB68D3ED106ADD
:10141000FB68D3ED0D7A66EEA77A77EE277AFB6844
:10142000C3ED0E7AFB689A68FB68DA60FB681A6A9B
:10143000FB685A62FB689A6BFB68DA63FB6893EDA2
:10144000067AFB68D3ED087A37EE277AFB68D3ED8E
:101450000D7A77EE277AFB68C3ED117AFB6893ED7E
:10146000117AFB68D3ED127AB4EEE77AF1EE10FA56
:1014700002DDFB689B6C01E0FB685B6CFA685364FF
:10148000FB6893ED117AFB68D3ED137AB4EEE77A3B
:10149000F1EE10FA02D5FB68DB6C01E0FB685B6CD7
:1014A000FA68536400BF1437BD465DF8047B70478B
:1014B00080B485B000AFF860B9607A60FB68074A15
:1014C0001A60BB68064A1A607B6880221A6000BFF7
:1014D0001437BD465DF8047B704700BF8C000020C8
:1014E000E000002080B400AF204B214A5A611F4B1E
:1014F000204ADA611D4B4FF000021A631B4B4FF07C
:1015000000021A64194B1C4A1A61184B4FF47A7284
:101510009A62164B194ADA62144B194A9A64134BB1
:10152000184ADA64184B194A5A61174B4FF00002F7
:10153000DA61154B4FF000021A63134B4FF00002B3
:101540001A64114B0C4A1A610F4B4FF47A729A626B
:101550000D4B0A4ADA620C4B094A9A640A4B094A53
:10156000DA6400BFBD465DF8047B7047B00500201B
:101570000000484200007A430AD7233C18FCFFFFD2
:1015800000007A4400007AC40006002000002041D8
:1015900080B52DED028B82B002AF1448FFF794FCAA
:1015A000134B93ED118A114BD3E9082310461946CA
:1015B000FFF7A2FA034600EE903AB0EE480A0D4853
:1015C000FFF793FE0B4BD3ED117AFDEEE77A0C2378
:1015D0000093082317EE902A07490848FFF77FFD7C
:1015E00000BFBD46BDEC028B80BD00BF5005002092
:1015F00000060020B00500204804002098050020C7
:1016000080B52DED028B00AF0D4B93ED008A0221CA
:101610000C48FFF7E7FC53EC102B10461946FFF778
:101620006BFA034600EE903AB0EE480A0648FFF720
:101630005CFEFFF7ADFF00BFBD46BDEC028B80BD79
:1016400040050020500500200006002080B400AFB7
:10165000204B214A5A611F4B204ADA611D4B4FF043
:1016600000021A631B4B4FF000021A64194B1C4A0C
:101670001A61184B4FF47A729A62164B194ADA6261
:10168000144B194A9A64134B184ADA64184B194AD6
:101690005A61174B4FF00002DA61154B4FF0000210
:1016A0001A63134B4FF000021A64114B0C4A1A6173
:1016B0000F4B4FF47A729A620D4B0A4ADA620C4B66
:1016C000094A9A640A4B094ADA6400BFBD465DF8CC
:1016D000047B7047B00600200000484200007A43B7
:1016E0000AD7233C18FCFFFF00007A4400007AC4AC
:1016F000000700200000204180B52DED028B82B054
:1017000002AF1448FFF7E0FB134B93ED118A114B26
:10171000D3E9082310461946FFF7EEF9034600EE19
:10172000903AB0EE480A0D48FFF7DFFD0B4BD3EDC2
:10173000117AFDEEE77A0C230093082317EE902A26
:1017400007490848FFF7CBFC00BFBD46BDEC028B44
:1017500080BD00BF5006002000070020B00600201A
:10176000B80300209806002080B52DED028B00AF55
:101770000F4BD3ED017A9FED0F7A37EEC78A022126
:101780000D48FFF72FFC53EC102B10461946FFF7BE
:10179000B3F9034600EE903AB0EE480A0748FFF767
:1017A000A4FDFFF7A9FF00BFBD46BDEC028B80BDC5
:1017B0004005002000003B435006002000070020A9
:1017C00080B400AF204B214A5A611F4B204ADA6196
:1017D0001D4B4FF000021A631B4B4FF000021A64BE
:1017E000194B1C4A1A61184B4FF47A729A62164BC5
:1017F000194ADA62144B194A9A64134B184ADA648C
:10180000184B194A5A61174B4FF00002DA61154B19
:101810004FF000021A63134B4FF000021A64114B91
:101820000C4A1A610F4B4FF47A729A620D4B0A4AB6
:10183000DA620C4B094A9A640A4B094ADA6400BF1F
:10184000BD465DF8047B7047B007002000004842A9
:1018500000007A430AD7233C18FCFFFF00007A44BB
:1018600000007AC4000800200000204180B52DED62
:10187000028B82B002AF1448FFF726FB134B93EDA7
:10188000118A114BD3E9082310461946FFF734F9A2
:10189000034600EE903AB0EE480A0D48FFF725FDEA
:1018A0000B4BD3ED117AFDEEE77A0423009300236E
:1018B00017EE902A07490848FFF711FC00BFBD4604
:1018C000BDEC028B80BD00BF500700200008002047
:1018D000B0070020B80300209807002080B52DED48
:1018E000028B00AF0F4BD3ED027A9FED0F7A37EEEC
:1018F000878A02210D48FFF775FB53EC102B104629
:101900001946FFF7F9F8034600EE903AB0EE480AA0
:101910000748FFF7EAFCFFF7A9FF00BFBD46BDEC93
:10192000028B80BD400500200000074350070020C7
:101930000008002080B400AF204B214A5A611F4BA1
:10194000204ADA611D4B4FF000021A631B4B4FF027
:1019500000021A64194B1C4A1A61184B4FF47A7230
:101960009A62164B194ADA62144B194A9A64134B5D
:10197000184ADA64184B194A5A61174B4FF00002A3
:10198000DA61154B4FF000021A63134B4FF000025F
:101990001A64114B0C4A1A610F4B4FF47A729A6217
:1019A0000D4B0A4ADA620C4B094A9A640A4B094AFF
:1019B000DA6400BFBD465DF8047B7047B0080020C4
:1019C00000004842000096430AD7233C18FCFFFF62
:1019D00000007A4400007AC4000900200000204181
:1019E00080B52DED028B82B002AF1448FFF76CFA80
:1019F000134B93ED118A114BD3E908231046194676
:101A0000FFF77AF8034600EE903AB0EE480A0D4828
:101A1000FFF76BFC0B4BD3ED117AFDEEE77A042355
:101A20000093002317EE902A07490848FFF757FB59
:101A300000BFBD46BDEC028B80BD00BF500800203A
:101A400000090020B0080020900400209808002021
:101A500080B52DED028B00AF0F4BD3ED037A9FEDD8
:101A60000F7A37EEC78A02210D48FFF7BBFA53EC15
:101A7000102B10461946FFF73FF8034600EE903A48
:101A8000B0EE480A0748FFF730FCFFF7A9FF00BF98
:101A9000BD46BDEC028B80BD400500200000B44275
:101AA00050080020000900202DE9B04386B000AFA7
:101AB000786187ED040AC7ED030A87ED021AC7EDC6
:101AC000011A7B693A691A607B691B681846FEF740
:101AD000E3FCD3A3D3E90023FEF736FD02460B4611
:101AE000104619464FF00002D34BFEF757FE024650
:101AF0000B4610461946FEF7FFFF02467B699A61C6
:101B00007B69FA685A607B695B681846FEF7C4FC1B
:101B1000C3A3D3E90023FEF717FD02460B46104688
:101B200019464FF00002C44BFEF738FE02460B4642
:101B300010461946FEF7E0FF02467B69DA617B69D1
:101B4000BA689A607B699B681846FEF7A5FCB4A347
:101B5000D3E90023FEF7F8FC02460B46104619466F
:101B60004FF00002B44BFEF719FE02460B4610463A
:101B70001946FEF7C1FF02467B691A627B697A68E3
:101B8000DA607B69DB681846FEF786FCA4A3D3E91C
:101B90000023FEF7D9FC02460B46104619464FF0CB
:101BA0000002A54BFEF7FAFD02460B461046194609
:101BB000FEF7A2FF02467B695A627B6993ED017AC8
:101BC0007B69D3ED027A37EE277A7B69D3ED037A0E
:101BD00077EE277A7B69C3ED057A7B6993ED077A07
:101BE0007B69D3ED087A37EE277A7B69D3ED097AE2
:101BF00077EE277A7B69C3ED0B7A7B699B69184680
:101C0000FEF74AFC02460B4643EC102B06F058FE4A
:101C100059EC108B7B69DB691846FEF73DFC0246E8
:101C20000B4643EC102B06F04BFE51EC100B4FF023
:101C30000002824BFEF788FC02460B46104619460E
:101C400079A3D3E90023FEF7C9FA02460B461446EE
:101C50001D467B6993ED077A7B69D3ED087A77EEB1
:101C6000277A17EE900AFEF717FC02460B4643EC64
:101C7000102B06F025FE51EC100B4FF00002704BBC
:101C8000FEF762FC02460B4620462946FEF7A6FAFE
:101C900002460B4614461D467B69DB6A1846FEF772
:101CA000FBFB02460B4643EC102B06F009FE51EC01
:101CB000100B4FF00002634BFEF746FC02460B464A
:101CC00020462946FEF78AFA02460B464046494618
:101CD000FEF73AFC02460B4610461946FEF70CFF8B
:101CE00002467B691A637B699B691846FEF7D4FB41
:101CF00002460B4643EC102B06F036FE59EC108BD7
:101D00007B69DB691846FEF7C7FB02460B4643ECCE
:101D1000102B06F0D5FD51EC100B4FF00002474B95
:101D2000FEF712FC02460B46104619463EA3D3E9C5
:101D30000023FEF753FA02460B4614461D467B6904
:101D400093ED077A7B69D3ED087A77EE277A17EE61
:101D5000900AFEF7A1FB02460B4643EC102B06F05F
:101D6000AFFD51EC100B4FF00002354BFEF7ECFBD2
:101D700002460B4620462946FEF730FA02460B463D
:101D800014461D467B69DB6A1846FEF785FB024652
:101D90000B4643EC102B06F093FD51EC100B4FF06B
:101DA0000002284BFEF7D0FB02460B462046294690
:101DB000FEF714FA02460B4640464946FEF7C4FBBE
:101DC00002460B4610461946FEF796FE02467B6910
:101DD0005A637B6993ED077A7B69D3ED087A77EED6
:101DE000277A17EE900AFEF757FB02460B4643ECA4
:101DF000102B06F0B9FD51EC100B4FF00002104B08
:101E0000FEF7A2FB02460B461046194608A3D3E98B
:101E10000023FEF7E3F902460B4615E0AFF300801E
:101E2000182D4454FB2109400000000000C056401A
:101E30000000000000C06D400080664000805E40F1
:101E4000004053400080534014461D467B69DB69C7
:101E50001846FEF721FB02460B4643EC102B06F01A
:101E600083FD51EC100B4FF00002194BFEF76CFB99
:101E700002460B4620462946FEF7B0F902460B46BD
:101E800014461D467B69DB6A1846FEF705FB0246D1
:101E90000B4643EC102B06F067FD51EC100B4FF096
:101EA00000020C4BFEF750FB02460B46204629462B
:101EB000FEF794F902460B4610461946FEF71CFE43
:101EC00002467B699A6300BF1837BD46BDE8B08300
:101ED00000805E40008053402DE9B0432DED028B21
:101EE00086B000AF786187ED040AC7ED030A87ED7D
:101EF000021AC7ED011A7B693A691A607B69FA68B0
:101F00005A607B69BA689A607B697A68DA617B6932
:101F1000DB691846FEF7C0FA4EA3D3E90023FEF7AB
:101F200013FB02460B4610461946FEF7E5FD024636
:101F30007B69DA657B691B681846FEF7ADFA0246D5
:101F40000B469FED411B43EC102B06F01BFC55ECA0
:101F5000104B7B695B681846FEF79EFA02460B46FB
:101F60009FED391B43EC102B06F00CFC53EC102BAF
:101F700020462946FEF732F902460B4643EC172B62
:101F8000B0EE470AF0EE670A06F06CFC53EC102B3B
:101F900010461946FEF7B0FD02467B695A637B691D
:101FA00093ED017A7B69D3ED0D7AC7EE276A16EEC1
:101FB000900AFEF771FA04460D467B6993ED007AAC
:101FC0007B69D3ED0D7AC7EE276A16EE900AFEF70D
:101FD00063FA02460B4643EC112B45EC104B06F01E
:101FE000CFFB53EC102B10461946FEF785FD024639
:101FF0007B691A627B691B6A1846FEF74DFA17A3C4
:10200000D3E90023FEF7A0FA02460B461046194614
:10201000FEF772FD02467B69DA607B69D3ED037AD5
:102020009FED0B7AF4EEC77AF1EE10FA1ED57B69BC
:10203000D3ED037A9FED0C7A77EE877A7B69C3ED57
:10204000037A27E0AFF300800000000000000040AA
:10205000000034C3399D52A246DF913FF8C1631A94
:10206000DCA54C40000034430000B4437B69D3ED51
:10207000037A1FED047AF4EEC77AF1EE10FA09DD67
:102080007B69D3ED037A1FED087A77EEC77A7B6917
:10209000C3ED037A7B691B681846FEF7FDF9044619
:1020A0000D467B691B6A1846FEF7F6F902460B4699
:1020B00043EC102B06F004FC53EC102B2046294671
:1020C000FEF742FA02460B46904699467B695B68EA
:1020D0001846FEF7E1F904460D467B691B6A18466F
:1020E000FEF7DAF902460B4643EC102B06F03CFCF7
:1020F00053EC102B20462946FEF726FA02460B46E3
:1021000040464946FEF76AF802460B461046194615
:10211000E5A3D3E90023FEF75FF802460B46144619
:102120001D467B69DB6D1846FEF7B6F902460B4685
:1021300043EC102B06F0C4FB51EC100B4FF00002E7
:10214000D54BFEF701FA02460B4620462946FEF71C
:1021500043F802460B4610461946FEF7CDFC0246F0
:102160007B699A637B69D3ED027A9FEDCC7A77EE37
:10217000C77A17EE900AFEF78FF904460D467B6981
:10218000DB6D1846FEF788F902460B4643EC102B30
:1021900006F0EAFB51EC100B4FF00002BE4BFEF7CD
:1021A000D3F902460B4620462946FEF715F80246AB
:1021B0000B4610461946FEF79FFC02467B69DA6320
:1021C0007B69D3ED0F7A9FEDB67A67EE877A7B69EC
:1021D000C3ED107A7B69D3ED0E7A9FEDB17A67EE8D
:1021E000877A7B69C3ED117A7B699B6B1846FEF792
:1021F00053F902460B469FEDA01B43EC102B06F053
:10220000C1FA53EC102B9EA1D1E90001FDF7E4FFC8
:1022100002460B4614461D467B69DB6B1846FEF7EB
:102220003BF902460B469FED941B43EC102B06F046
:10223000A9FA53EC102B20462946FDF7CDFF0246A4
:102240000B461046194690A3D3E90023FDF7C4FFBF
:1022500002460B4610461946FEF74EFC02467B69C5
:102260009A647B691B6C1846FEF716F902460B460A
:102270009FED811B43EC102B06F084FA55EC104BBC
:102280007B695B6C1846FEF707F902460B469FED2B
:102290007A1B43EC102B06F075FA53EC102B2046FA
:1022A0002946FDF79BFF02460B4643EC172BB0EE89
:1022B000470AF0EE670A06F0D5FA53EC102B1046E9
:1022C0001946FEF719FC02467B69DA647B69D3ED97
:1022D0000F7A9FED737A27EE877A7B69D3ED137AB5
:1022E000C7EE276A16EE900AFEF7D6F804460D46AA
:1022F0007B69D3ED0E7A9FED6A7A27EE877A7B6948
:10230000D3ED137AC7EE276A16EE900AFEF7C4F8EB
:1023100002460B4643EC112B45EC104B06F030FA0D
:1023200053EC102B10461946FEF7E6FB02467B697C
:102330001A637B699B6C1846FEF7AEF802460B46A3
:102340009FED4D1B43EC102B06F01CFA55EC104B87
:102350007B69DB6C1846FEF79FF802460B469FED43
:10236000461B43EC102B06F00DFA53EC102B2046C5
:102370002946FEF713FA02460B4610461946FEF7A9
:10238000BBFB02467B691A657B69D3ED147AB7EE15
:10239000007AF4EEC77AF1EE10FA03DD7B694FF0B4
:1023A0007E521A657B69D3ED147AB7EE007A77EE28
:1023B000677A17EE900AFEF76FF802460B4643EC79
:1023C000102B06F04FFAB0EE408AF0EE608A7B697F
:1023D00093ED127A7B69D3ED137AC7EE276A16EE76
:1023E000900AFEF759F802460B4643EC112BB0EE6B
:1023F000480AF0EE680A06F0C3F955EC104B7B6909
:102400001B6B1846FEF748F802460B462046294645
:10241000FDF7E4FE02460B4610461946FEF76CFB3C
:1024200002467B695A627B695B6A1846FEF734F89C
:1024300017A3D3E90023FEF787F802460B461046A0
:102440001946FEF759FB02467B691A617B69D3ED99
:10245000047A9FED147AF4EEC77AF1EE10FA2BD5D8
:102460007B69D3ED047A9FED137A77EE877A7B69E7
:10247000C3ED047A34E000BF00000000000000401B
:10248000000000000029B740000000000012CD400D
:10249000F8C1631ADCA54C400080534000006E4335
:1024A000000074C3000034C30000000000C05640A8
:1024B000000034430000B4437B69D3ED047A1FED80
:1024C000047AF4EEC77AF1EE10FA09DD7B69D3EDF8
:1024D000047A1FED087A77EEC77A7B69C3ED047A38
:1024E0007B691B681846FDF7D7FF04460D467B69DC
:1024F0001B6A1846FDF7D0FF02460B4643EC102B33
:1025000006F0DEF953EC102B20462946FEF71CF8A6
:1025100002460B46904699467B695B681846FDF774
:10252000BBFF04460D467B691B6A1846FDF7B4FFE6
:1025300002460B4643EC102B06F016FA53EC102B18
:1025400020462946FEF700F802460B46404649461B
:10255000FDF744FE02460B4610461946A1A3D3E9F7
:102560000023FDF739FE02460B4614461D467B69E3
:102570005B6A1846FDF790FF02460B4643EC102BB2
:1025800006F09EF951EC100B4FF000028E4BFDF758
:10259000DBFF02460B4620462946FDF71DFE02469C
:1025A0000B4614461D467B69DB6D1846FDF774FF2C
:1025B00002460B4643EC102B06F082F951EC100B4F
:1025C0004FF00002814BFDF7BFFF02460B4620464D
:1025D0002946FDF701FE02460B46104619464FF00C
:1025E00000027B4BFEF7DAF802460B46104619460E
:1025F000FEF782FA02467B695A657B69D3ED027A5F
:102600009FED747A77EEC77A17EE900AFDF744FFD4
:1026100004460D467B695B6A1846FDF73DFF02469E
:102620000B4643EC102B06F09FF951EC100B4FF0CA
:102630000002654BFDF788FF02460B4620462946FF
:10264000FDF7CAFD02460B4614461D467B69DB6D4D
:102650001846FDF721FF02460B4643EC102B06F00F
:1026600083F951EC100B4FF00002584BFDF76CFF53
:1026700002460B4620462946FDF7AEFD02460B46B4
:10268000104619464FF00002514BFEF787F80246FC
:102690000B4610461946FEF72FFA02467B699A65EB
:1026A0007B699B6D1846FDF7F7FE04460D467B6976
:1026B0005B6D1846FDF7F0FE02460B4643EC112B0E
:1026C00045EC104B06F05CF855EC104B7B695B6AEF
:1026D0001846FDF7E1FE02460B4620462946FDF767
:1026E0007BFD02460B4610461946FEF705FA0246E8
:1026F0007B699A627B699B6A1846FDF7CDFE30A321
:10270000D3E90023FDF720FF02460B461046194689
:10271000FEF7F2F902467B695A617B69D3ED057ACF
:102720009FED2D7AF4EEC77AF1EE10FA0AD57B69A7
:10273000D3ED057A9FED297A77EE877A7B69C3ED31
:10274000057A13E07B69D3ED057A9FED257AF4EEE7
:10275000C77AF1EE10FA09DD7B69D3ED057A9FEDBA
:102760001F7A77EEC77A7B69C3ED057A7B6993EDB3
:10277000177A7B69D3ED097A37EE677A7B69D3EDF7
:102780000A7A77EE677A7B69C3ED0B7A7B69DB6A3D
:102790001846FDF781FE0AA3D3E90023FDF7D4FE16
:1027A00002460B4610461946FEF7A6F902467B691B
:1027B0009A6100BF1837BD46BDEC028BBDE8B083FF
:1027C000F8C1631ADCA54C4000805E400080534095
:1027D0000040534000006E43000034C30000B44387
:1027E000000034430000000000C05640000000001C
:1027F0002DE9B04F86B000AF786187ED040AC7EDD0
:10280000030A87ED021AC7ED011A7B693A691A605B
:102810007B69FA685A607B69BA689A607B697A68F2
:10282000DA617B69DB691846FDF736FE4DA3D3E913
:102830000023FDF789FE02460B4610461946FEF7B7
:102840005BF902467B69DA657B691B681846FDF710
:1028500023FE02460B469FED401B43EC102B05F078
:1028600091FF55EC104B7B695B681846FDF714FE31
:1028700002460B469FED381B43EC102B05F082FF00
:1028800053EC102B20462946FDF7A8FC02460B46C8
:1028900043EC172BB0EE470AF0EE670A05F0E2FFB3
:1028A00053EC102B10461946FEF726F902467B69B9
:1028B0005A637B6993ED017A7B69D3ED0D7AC7EE9C
:1028C000276A16EE900AFDF7E7FD04460D467B6980
:1028D00093ED007A7B69D3ED0D7AC7EE276A16EE89
:1028E000900AFDF7D9FD02460B4643EC112B45EC4F
:1028F000104B05F045FF53EC102B10461946FEF720
:10290000FBF802467B691A627B691B6A1846FDF771
:10291000C3FD16A3D3E90023FDF716FE02460B46BE
:1029200010461946FEF7E8F802467B69DA607B69D3
:10293000D3ED037A9FED0A7AF4EEC77AF1EE10FA3E
:102940001CD57B69D3ED037A9FED0B7A77EE877AFE
:102950007B69C3ED037A25E0000000000000004021
:10296000000034C3399D52A246DF913FF8C1631A7B
:10297000DCA54C40000034430000B4437B69D3ED38
:10298000037A1FED047AF4EEC77AF1EE10FA09DD4E
:102990007B69D3ED037A1FED087A77EEC77A7B69FE
:1029A000C3ED037A7B691B681846FDF775FD044685
:1029B0000D467B691B6A1846FDF76EFD02460B4605
:1029C00043EC102B05F07CFF53EC102B20462946DE
:1029D000FDF7BAFD02460B46904699467B695B6857
:1029E0001846FDF759FD04460D467B691B6A1846DB
:1029F000FDF752FD02460B4643EC102B05F0B4FFE9
:102A000053EC102B20462946FDF79EFD02460B464F
:102A100040464946FDF7E2FB02460B461046194682
:102A2000E5A3D3E90023FDF7D7FB02460B46144686
:102A30001D467B69DB6D1846FDF72EFD02460B46F1
:102A400043EC102B05F03CFF51EC100B4FF0000253
:102A5000D54BFDF779FD02460B4620462946FDF78A
:102A6000BBFB02460B4610461946FEF745F80246E8
:102A70007B699A637B69D3ED027A9FEDCC7A77EE1E
:102A8000C77A17EE900AFDF707FD04460D467B69ED
:102A9000DB6D1846FDF700FD02460B4643EC102B9C
:102AA00005F062FF51EC100B4FF00002BE4BFDF73A
:102AB0004BFD02460B4620462946FDF78DFB02469C
:102AC0000B4610461946FEF717F802467B69DA6393
:102AD0007B69D3ED0F7A9FEDB67A67EE877A7B69D3
:102AE000C3ED107A7B69D3ED0E7A9FEDB17A67EE74
:102AF000877A7B69C3ED117A7B699B6B1846FDF77A
:102B0000CBFC02460B469FEDA01B43EC102B05F0BF
:102B100039FE53EC102B9EA1D1E90001FDF75CFBBF
:102B200002460B4614461D467B69DB6B1846FDF7D3
:102B3000B3FC02460B469FED941B43EC102B05F0B3
:102B400021FE53EC102B20462946FDF745FB02469B
:102B50000B461046194690A3D3E90023FDF73CFB32
:102B600002460B4610461946FDF7C6FF02467B6932
:102B70009A647B691B6C1846FDF78EFC02460B4677
:102B80009FED811B43EC102B05F0FCFD55EC104B29
:102B90007B695B6C1846FDF77FFC02460B469FED98
:102BA0007A1B43EC102B05F0EDFD53EC102B204667
:102BB0002946FDF713FB02460B4643EC172BB0EEFC
:102BC000470AF0EE670A05F04DFE53EC102B104655
:102BD0001946FDF791FF02467B69DA647B69D3ED04
:102BE0000F7A9FED737A27EE877A7B69D3ED137A9C
:102BF000C7EE276A16EE900AFDF74EFC04460D4616
:102C00007B69D3ED0E7A9FED6A7A27EE877A7B692E
:102C1000D3ED137AC7EE276A16EE900AFDF73CFC57
:102C200002460B4643EC112B45EC104B05F0A8FD7A
:102C300053EC102B10461946FDF75EFF02467B69E8
:102C40001A637B699B6C1846FDF726FC02460B460F
:102C50009FED4D1B43EC102B05F094FD55EC104BF4
:102C60007B69DB6C1846FDF717FC02460B469FEDAF
:102C7000461B43EC102B05F085FD53EC102B204632
:102C80002946FDF78BFD02460B4610461946FDF717
:102C900033FF02467B691A657B69D3ED147AB7EE80
:102CA000007AF4EEC77AF1EE10FA03DD7B694FF09B
:102CB0007E521A657B69D3ED147AB7EE007A77EE0F
:102CC000677A17EE900AFDF7E7FB02460B4643ECE6
:102CD000102B05F0C7FD53EC102B924683F0004BF0
:102CE0007B6993ED127A7B69D3ED137AC7EE276A7D
:102CF00016EE900AFDF7D0FB02460B4643EC112B73
:102D00004BEC10AB05F03CFD55EC104B7B691B6B9D
:102D10001846FDF7C1FB02460B4620462946FDF743
:102D20005DFA02460B4610461946FDF7E5FE0246DF
:102D30007B695A627B695B6A1846FDF7ADFB18A395
:102D4000D3E90023FDF700FC02460B461046194666
:102D5000FDF7D2FE02467B691A617B69D3ED047AE6
:102D60009FED147AF4EEC77AF1EE10FA2CD57B6958
:102D7000D3ED047A9FED137A77EE877A7B69C3ED02
:102D8000047A35E0AFF3008000000000000000404E
:102D9000000000000029B740000000000012CD40F4
:102DA000F8C1631ADCA54C400080534000006E431C
:102DB000000074C3000034C30000000000C056408F
:102DC000000034430000B4437B69D3ED047A1FED67
:102DD000047AF4EEC77AF1EE10FA09DD7B69D3EDDF
:102DE000047A1FED087A77EEC77A7B69C3ED047A1F
:102DF0007B691B681846FDF74FFB04460D467B694F
:102E00001B6A1846FDF748FB02460B4643EC102BA5
:102E100005F056FD53EC102B20462946FDF794FB98
:102E200002460B46904699467B695B681846FDF75B
:102E300033FB04460D467B691B6A1846FDF72CFBE5
:102E400002460B4643EC102B05F08EFD53EC102B85
:102E500020462946FDF778FB02460B464046494688
:102E6000FDF7BCF902460B4610461946A1A3D3E96B
:102E70000023FDF7B1F902460B4614461D467B6957
:102E80005B6A1846FDF708FB02460B4643EC102B25
:102E900005F016FD51EC100B4FF000028E4BFDF7C4
:102EA00053FB02460B4620462946FDF795F902469C
:102EB0000B4614461D467B69DB6D1846FDF7ECFAA0
:102EC00002460B4643EC102B05F0FAFC51EC100BBC
:102ED0004FF00002814BFDF737FB02460B462046C0
:102EE0002946FDF779F902460B46104619464FF080
:102EF00000027B4BFDF752FC02460B46104619467A
:102F0000FDF7FAFD02467B695A657B69D3ED027ACB
:102F10009FED747A77EEC77A17EE900AFDF7BCFA48
:102F200004460D467B695B6A1846FDF7B5FA024612
:102F30000B4643EC102B05F017FD51EC100B4FF036
:102F40000002654BFDF700FB02460B462046294672
:102F5000FDF742F902460B4614461D467B69DB6DC0
:102F60001846FDF799FA02460B4643EC102B05F084
:102F7000FBFC51EC100B4FF00002584BFDF7E4FA4C
:102F800002460B4620462946FDF726F902460B4627
:102F9000104619464FF00002514BFDF7FFFB024669
:102FA0000B4610461946FDF7A7FD02467B699A6558
:102FB0007B699B6D1846FDF76FFA04460D467B69E9
:102FC0005B6D1846FDF768FA02460B4643EC112B81
:102FD00045EC104B05F0D4FB55EC104B7B695B6A5C
:102FE0001846FDF759FA02460B4620462946FDF7DA
:102FF000F3F802460B4610461946FDF77DFD0246E2
:103000007B699A627B699B6A1846FDF745FA30A393
:10301000D3E90023FDF798FA02460B4610461946FD
:10302000FDF76AFD02467B695A617B69D3ED057A3B
:103030009FED2D7AF4EEC77AF1EE10FA0AD57B698E
:10304000D3ED057A9FED297A77EE877A7B69C3ED18
:10305000057A13E07B69D3ED057A9FED257AF4EECE
:10306000C77AF1EE10FA09DD7B69D3ED057A9FEDA1
:103070001F7A77EEC77A7B69C3ED057A7B6993ED9A
:10308000177A7B69D3ED097A37EE677A7B69D3EDDE
:103090000A7A77EE677A7B69C3ED0B7A7B69DB6A24
:1030A0001846FDF7F9F90AA3D3E90023FDF74CFA16
:1030B00002460B4610461946FDF71EFD02467B6987
:1030C0009A6100BF1837BD46BDE8B08FAFF30080EE
:1030D000F8C1631ADCA54C4000805E40008053407C
:1030E0000040534000006E43000034C30000B4436E
:1030F000000034430000000000C056400000000003
:10310000B0B596B000AF01F087F900F0CBF800F051
:1031100009FC00F02FF900F02DFA00F083F900F01F
:10312000D5F900F0A1FA00F0F3FA00F081FB00F00D
:10313000CFFB00214A4802F021FA0421484802F05E
:103140001DFA0821464802F019FA0C21444802F001
:1031500015FA0021434802F011FA0421414802F017
:103160000DFA0821404802F009FA0C213E4802F00D
:1031700005FA3C213D4802F06FFB3C213C4802F03F
:103180006BFB3C213B4802F067FB3C213A4802F0D4
:1031900063FB9FED310B41F6263234493748FDF78A
:1031A00079FE9FED2D0B40F6B24231493448FDF7D0
:1031B00071FE9FED290B4FF4D7522E493148FDF790
:1031C00069FE9FED250B40F694422B492E48FDF7F2
:1031D00061FEFEF787F9FEF739FAFEF7F1FAFEF71E
:1031E000A9FB2A4B07F13C041D460FCD0FC495E8FF
:1031F000070084E8070007F13C030021184604F0AB
:103200003EF80346224A1360224B07F120041D4674
:103210000FCD0FC495E8070084E8070007F12003ED
:103220000021184604F02BF803461B4A13601B4B81
:103230003C1D1D460FCD0FC495E8070084E807002C
:103240003B1D0021184604F01AF80346144A136087
:1032500004F00EF8FEE700BF7B14AE47E17A843F2E
:10326000B80300209004002048040020E002002061
:1032700028030020700300200004002050050020D7
:103280005006002050070020500800206CAB0008BA
:103290002005002094AB000824050020BCAB0008EA
:1032A0002805002080B594B000AF07F1200330223C
:1032B0000021184605F032FA07F10C0300221A60CB
:1032C0005A609A60DA601A610023BB60274B1B6C5E
:1032D000264A43F080531364244B1B6C03F0805345
:1032E000BB60BB6800237B60214B1B68204A43F412
:1032F000804313601E4B1B6803F480437B607B6834
:1033000002233B620123FB6210233B630223BB6366
:103310000023FB6308233B6448237B640223BB64D4
:103320000423FB6407F12003184601F03FFC034629
:10333000002B01D000F08AFD0F23FB6002233B61CC
:1033400000237B614FF48053BB610023FB6107F1D5
:103350000C030221184601F0A1FE0346002B01D008
:1033600000F074FD00BF5037BD4680BD00380240FC
:103370000070004080B58CB000AF07F10C03242230
:103380000021184605F0CAF93B1D00221A605A6058
:10339000224B234A1A60214B00225A601F4B002205
:1033A0009A601E4B4FF6FF72DA601C4B00221A61C6
:1033B0001A4B00225A61194B00229A610323FB60C9
:1033C00000233B6101237B610023BB610023FB6180
:1033D00000233B6201237B620023BB620023FB626C
:1033E00007F10C0319460D4802F090F90346002B33
:1033F00001D000F02BFD00237B600023BB603B1D50
:103400001946064802F01CFF0346002B01D000F0CD
:103410001DFD00BF3037BD4680BD00BFE00200206B
:103420000000014080B58CB000AF07F10C032422EE
:103430000021184605F072F93B1D00221A605A60FF
:10344000214B4FF080421A601F4B00225A601E4BE6
:1034500000229A601C4B4FF0FF32DA601A4B0022B8
:103460001A61194B00229A610123FB6000233B6122
:1034700001237B610023BB610023FB6100233B62CE
:1034800001237B620023BB620023FB6207F10C0374
:1034900019460D4802F03AF90346002B01D000F01E
:1034A000D5FC00237B600023BB603B1D194606480A
:1034B00002F0C6FE0346002B01D000F0C7FC00BF9F
:1034C0003037BD4680BD00BF2803002080B58CB0DA
:1034D00000AF07F10C0324220021184605F01EF965
:1034E0003B1D00221A605A60204B214A1A601F4B74
:1034F00000225A601D4B00229A601C4B4FF6FF724F
:10350000DA601A4B00221A61184B00229A610323D9
:10351000FB6000233B6101237B610023BB6100232F
:10352000FB6100233B6201237B620023BB6200231B
:10353000FB6207F10C0319460C4802F0E7F803465A
:10354000002B01D000F082FC00237B600023BB60D5
:103550003B1D1946054802F073FE0346002B01D0BF
:1035600000F074FC00BF3037BD4680BD7003002002
:103570000004004080B58AB000AF07F120030022AC
:103580001A605A603B1D00221A605A609A60DA6025
:103590001A615A619A61324B324A1A60304B0622E4
:1035A0005A602F4B00229A602D4B40F2E732DA60CE
:1035B0002B4B00221A612A4B00229A61284801F005
:1035C0008DFF0346002B01D000F040FC00233B623E
:1035D00000237B6207F120031946214802F030FEE8
:1035E0000346002B01D000F031FC60237B600023F8
:1035F000BB600023FB6000237B613B1D002219465A
:10360000174802F0A7FA0346002B01D000F01EFC79
:103610003B1D04221946124802F09CFA0346002B77
:1036200001D000F013FC3B1D082219460C4802F0A3
:1036300091FA0346002B01D000F008FC3B1D0C2240
:103640001946074802F086FA0346002B01D000F025
:10365000FDFB034800F08CFD00BF2837BD4680BD50
:10366000B80300200008004080B58CB000AF07F11F
:103670000C0324220021184605F050F83B1D0022BF
:103680001A605A60204B214A1A601F4B00225A6070
:103690001D4B00229A601C4B4FF0FF32DA601A4B30
:1036A00000221A61184B00229A610323FB60002359
:1036B0003B6101237B610023BB610023FB6100238D
:1036C0003B6201237B620023BB620023FB6207F1A4
:1036D0000C0319460C4802F019F80346002B01D0E0
:1036E00000F0B4FB00237B600023BB603B1D194648
:1036F000054802F0A5FD0346002B01D000F0A6FB13
:1037000000BF3037BD4680BD00040020000C0040E3
:1037100080B592B000AF07F1400300221A605A60F2
:1037200007F1240300221A605A609A60DA601A6175
:103730005A619A613B1D20220021184604F0EEFFD9
:10374000394B3A4A1A60384B06225A60364B0022EF
:103750009A60354B40F2E732DA60334B00221A614F
:10376000314B00225A61304B00229A612E4801F001
:10377000B5FE0346002B01D000F068FB00233B643C
:1037800000237B6407F140031946274802F058FDE7
:103790000346002B01D000F059FB60237B6200231D
:1037A000BB620023FB6200233B6300237B63002397
:1037B000BB630023FB6307F12403082219461A4860
:1037C00002F0C8F90346002B01D000F03FFB07F1DF
:1037D00024030C221946144802F0BCF90346002BBE
:1037E00001D000F033FB00237B600023BB6000238B
:1037F000FB6000233B6100237B614FF40053BB61FE
:1038000000233B623B1D1946074802F095FD034625
:10381000002B01D000F01AFB034800F0A9FC00BF08
:103820004837BD4680BD00BF480400200004014069
:1038300080B588B000AF3B1D00221A605A609A60C4
:10384000DA601A615A619A611F4B204A1A601E4B56
:1038500006225A601C4B00229A601B4B40F2E73252
:10386000DA60194B00221A61174B00229A61164840
:1038700001F034FE0346002B01D000F0E7FA60238C
:103880007B600023BB600023FB6000237B613B1D4A
:10389000002219460C4802F05DF90346002B01D0C6
:1038A00000F0D4FA3B1D04221946074802F052F9F1
:1038B0000346002B01D000F0C9FA034800F058FC81
:1038C00000BF2037BD4680BD90040020004001406D
:1038D00080B500AF114B124A1A60104B4FF4E13221
:1038E0005A600E4B00229A600C4B0022DA600B4BA0
:1038F00000221A61094B0C225A61084B00229A617E
:10390000064B0022DA61054802F07CFD0346002BDD
:1039100001D000F09BFA00BF80BD00BFD80400209A
:103920000044004080B58AB000AF07F114030022C4
:103930001A605A609A60DA601A6100233B61294B71
:103940001B6B284A43F001031363264B1B6B03F0E8
:1039500001033B613B690023FB60224B1B6B214A47
:1039600043F0080313631F4B1B6B03F00803FB605A
:10397000FB680023BB601B4B1B6B1A4A43F004031C
:103980001363184B1B6B03F00403BB60BB6800237D
:103990007B60144B1B6B134A43F002031363114B00
:1039A0001B6B03F002037B607B6830237B61002389
:1039B000BB610123FB6107F1140319460A4800F0BB
:1039C00041FFC0237B610023BB610123FB6107F141
:1039D00014031946054800F035FF00BF2837BD46DF
:1039E00080BD00BF003802400000024000080240D5
:1039F00080B582B000AF78602C4B1B78012B50D182
:103A00002A4B5B78012B16D1294BD3ED007A284B3A
:103A100093ED017A264BD3ED026A254B93ED036AB1
:103A2000F0EE461AB0EE661AF0EE470AB0EE670AFC
:103A30002048FEF739F81D4B9B78012B16D11E4B01
:103A4000D3ED007A1C4B93ED017A1B4BD3ED026A48
:103A5000194B93ED036AF0EE461AB0EE661AF0EEDB
:103A6000470AB0EE670A1548FEF736FA0F4BDB78C7
:103A7000012B16D1104BD3ED007A0F4B93ED017A49
:103A80000D4BD3ED026A0C4B93ED036AF0EE461A30
:103A9000B0EE661AF0EE470AB0EE670A0748FEF786
:103AA000A7FE0A2003F037FCA6E700BF2C05002084
:103AB0005009002060090020FC0900209C0900201A
:103AC00080B584B002AF786040219E4801F056F87E
:103AD00003465AB29C4B1A7080219A4801F04EF866
:103AE00003465AB2984B5A701021984801F046F894
:103AF00003465AB2944B9A702021944801F03EF844
:103B000003465AB2904BDA70914B1B78002B40F071
:103B10001581904B1B78002B67D14021894801F01B
:103B20002DF80346012B18D1012003F0F4FB4021AE
:103B3000844801F023F80346012B56D10121864821
:103B4000FDF7B6FA854B00221A80824B01221A70CB
:103B5000834B4FF000021A6047E0804B4FF67062D3
:103B60001A8002217C48FDF73DFA51EC100B4FF012
:103B700000027C4BFCF778FF0346002B0ED0774BFE
:103B8000B3F90030002B09DD744BB3F900309BB260
:103B90005B429BB21AB2714B1A801BE002216E4845
:103BA000FDF720FA51EC100B4FF000026E4BFCF7C2
:103BB0003DFF0346002B0DD0684BB3F90030002BBE
:103BC00008DA664BB3F900309BB25B429BB21AB283
:103BD000624B1A80614BB3F900301A460C230093F4
:103BE000082362496248FDF77AFA5A4B5B78002B4A
:103BF0002DD18021534800F0C1FF0346012B17D17E
:103C0000012003F088FB80214E4800F0B7FF0346F7
:103C1000012B1CD101215748FDF74AFA4F4B0022D6
:103C20005A804C4B01225A704D4B534A5A600EE059
:103C30004A4B4FF4C8725A80484BB3F902301A46C7
:103C40000C23009308234D494D48FDF748FA414B9A
:103C50009B78002B2DD110213C4800F08FFF0346AC
:103C6000002B17D1012003F056FB1021374800F03C
:103C700085FF0346002B1CD101214248FDF718FAAD
:103C8000344B01229A70354B00229A80344B3E4AC5
:103C90009A600EE0314B4FF6D4629A802F4BB3F905
:103CA00004301A4604230093002334493748FDF7B3
:103CB00016FA284BDB78002B2DD12021234800F069
:103CC0005DFF0346002B17D1012003F024FB2021C8
:103CD0001E4800F053FF0346002B1CD101212C4845
:103CE000FDF7E6F91D4B0022DA801A4B0122DA704B
:103CF0001B4B284ADA600EE0184B4FF49672DA80BC
:103D0000164BB3F906301A460423009300232249C8
:103D10002248FDF7E4F90F4B1B78012B0ED10D4B18
:103D20005B78012B0AD10B4B9B78012B06D1094BF9
:103D3000DB78012B02D1064B01221A700A2003F016
:103D4000EAFAC1E6000802403C05002000000240FB
:103D50002C050020380500205005002030050020EB
:103D60004005002000805640008056C048040020D6
:103D7000980500205006002000003B43B8030020B7
:103D80009806002050070020000007C39807002075
:103D9000500800200000B442900400209808002041
:103DA00080B582B000AF7860234B1B78012B01D126
:103DB000FDF726FC204B5B78012B01D1FDF7D4FCED
:103DC0001D4B9B78012B01D1FDF788FD1A4BDB7849
:103DD000012B01D1FDF73CFE184B5B78012B0FD175
:103DE000174B1B68174A1360154B5B68154A5360E5
:103DF000134B9B68134A9360114BDB68114AD360E5
:103E00000E4B9B78012B03D00C4BDB78012B0FD191
:103E10000D4BDB680B4A13600B4B1B69094A53605F
:103E2000094B5B69074A9360074B9B69054AD3605E
:103E30000A2003F070FAB7E7380500202C050020AF
:103E400050090020400500209C09002080B400AFEC
:103E500072B600BFFEE7000080B582B000AF00235D
:103E60007B60124B5B6C114A43F4804353640F4BED
:103E70005B6C03F480437B607B6800233B600B4BEF
:103E80001B6C0A4A43F080531364084B1B6C03F00D
:103E900080533B603B6800220F216FF0010000F06F
:103EA00008FC00BF0837BD4680BD00BF0038024097
:103EB00080B590B000AF786007F12C0300221A6043
:103EC0005A609A60DA601A617B681B68784A93428C
:103ED00035D10023BB62774B5B6C764A43F001031C
:103EE0005364744B5B6C03F00103BB62BB6A002339
:103EF0007B62704B1B6B6F4A43F0010313636D4B86
:103F00001B6B03F001037B627B6A4FF44073FB621F
:103F100002233B6300237B630023BB630123FB631A
:103F200007F12C031946644800F08CFC002205219F
:103F3000182000F0BEFB182000F0D7FBB3E07B6830
:103F40001B68B3F1804F4BD100233B62594B1B6C74
:103F5000584A43F001031364564B1B6C03F00103F2
:103F60003B623B6A0023FB61524B1B6B514A43F09F
:103F7000010313634F4B1B6B03F00103FB61FB69F0
:103F80000023BB614B4B1B6B4A4A43F00203136394
:103F9000484B1B6B03F00203BB61BB694FF400434A
:103FA000FB6202233B6300237B630023BB6301238B
:103FB000FB6307F12C0319463F4800F043FC08233C
:103FC000FB6202233B6300237B630023BB6301236B
:103FD000FB6307F12C031946384800F033FC62E01C
:103FE0007B681B68364A93422CD100237B61314B9E
:103FF0001B6C304A43F0020313642E4B1B6C03F01E
:1040000002037B617B6900233B612A4B1B6B294ABE
:1040100043F001031363274B1B6B03F001033B6168
:104020003B69C023FB6202233B6300237B630023C5
:10403000BB630223FB6307F12C0319461E4800F003
:1040400001FC30E07B681B681E4A93422BD10023A1
:10405000FB60184B1B6C174A43F008031364154BA5
:104060001B6C03F00803FB60FB680023BB60114B73
:104070001B6B104A43F0010313630E4B1B6B03F0E1
:104080000103BB60BB680323FB6202233B63002385
:104090007B630023BB630223FB6307F12C031946F8
:1040A000054800F0CFFB00BF4037BD4680BD00BFD4
:1040B00000000140003802400000024000040240BD
:1040C00000040040000C004080B586B000AF78606E
:1040D0007B681B68224A93420ED100237B61214BEF
:1040E0001B6C204A43F0040313641E4B1B6C03F04B
:1040F00004037B617B692EE07B681B681A4A93424C
:104100000ED100233B61174B5B6C164A43F0020350
:104110005364144B5B6C03F002033B613B691AE090
:104120007B681B68114A934215D10023FB600D4B3D
:104130005B6C0C4A43F4803353640A4B5B6C03F4AE
:104140008033FB60FB6800220521182000F0B1FAE3
:10415000182000F0CAFA00BF1837BD4680BD00BF66
:1041600000080040003802400004014000400140C7
:1041700080B58AB000AF786007F1140300221A609E
:104180005A609A60DA601A617B681B68374A93420A
:104190001FD100233B61364B1B6B354A43F00803AC
:1041A0001363334B1B6B03F008033B613B694FF414
:1041B00070437B610223BB610023FB6100233B62F0
:1041C00002237B6207F1140319462A4800F03AFBE8
:1041D00047E07B681B68284A93421FD10023FB609D
:1041E000234B1B6B224A43F004031363204B1B6BCE
:1041F00003F00403FB60FB684FF440737B61022310
:10420000BB610023FB6100233B6203237B6207F158
:1042100014031946194800F015FB22E07B681B685F
:10422000174A93421DD10023BB60114B1B6B104AF0
:1042300043F0010313630E4B1B6B03F00103BB60E0
:10424000BB680C237B610223BB610023FB6100235D
:104250003B6203237B6207F114031946094800F00F
:10426000F1FA00BF2837BD4680BD00BF00080040FE
:1042700000380240000C02400004014000080240E7
:10428000004001400000024080B58AB000AF786075
:1042900007F1140300221A605A609A60DA601A610A
:1042A0007B681B681D4A934233D100233B611C4B42
:1042B0001B6C1B4A43F400331364194B1B6C03F44F
:1042C00000333B613B690023FB60154B1B6B144AB9
:1042D00043F008031363124B1B6B03F00803FB60EE
:1042E000FB6860237B610223BB610023FB61032326
:1042F0003B6207237B6207F114031946094800F06B
:10430000A1FA00220521262000F0D3F9262000F092
:10431000ECF900BF2837BD4680BD00BF0044004017
:1043200000380240000C024080B400AFFEE780B4C9
:1043300000AFFEE780B400AFFEE780B400AFFEE759
:1043400080B400AFFEE780B400AF00BFBD465DF8AB
:10435000047B704780B500AF00F0B0F803F05EFD5D
:104360000346012B01D003F09FFF00BF80BD00007A
:1043700080B500AF034801F0FDFA034801F0FAFAF6
:1043800000BF80BDE00200209004002080B500AF97
:10439000024802F087F800BF80BD00BFD8040020AB
:1043A00080B400AF064BD3F88830054A43F470035D
:1043B000C2F8883000BFBD465DF8047B704700BF7F
:1043C00000ED00E0DFF834D0FFF7EAFF0C480D49BC
:1043D0000D4A002302E0D458C4500433C4188C4260
:1043E000F9D30A4A0A4C002301E013600432A242C6
:1043F000FBD304F0A1F9FEF783FE70470000022012
:10440000000000207000002080AE00087000002036
:104410009C480020FEE7000080B500AF0E4B1B68F3
:104420000D4A43F4007313600B4B1B680A4A43F4B4
:1044300080631360084B1B68074A43F48073136062
:10444000032000F02BF90F2000F008F8FFF704FD1F
:104450000023184680BD00BF003C024080B582B0FA
:1044600000AF7860124B1A68124B1B7819464FF454
:104470007A73B3FBF1F3B2FBF3F3184600F043F9A0
:104480000346002B01D001230EE07B680F2B0AD8D6
:10449000002279684FF0FF3000F00BF9064A7B6884
:1044A0001360002300E0012318460837BD4680BD95
:1044B00000000020080000200400002080B400AFAD
:1044C000064B1B781A46064B1B681344044A1360BC
:1044D00000BFBD465DF8047B704700BF08000020A8
:1044E0000C0A002080B400AF034B1B681846BD4681
:1044F0005DF8047B704700BF0C0A002080B485B0D3
:1045000000AF78607B6803F00703FB600C4BDB684F
:10451000BB60BA684FF6FF031340BB60FB681A022A
:10452000BB68134343F0BF6343F40033BB60044AEA
:10453000BB68D36000BF1437BD465DF8047B70478D
:1045400000ED00E080B400AF044BDB681B0A03F011
:1045500007031846BD465DF8047B704700ED00E098
:1045600080B483B000AF0346FB7197F90730002B8E
:104570000BDBFB7903F01F02074997F907305B0952
:10458000012000FA02F241F8232000BF0C37BD469B
:104590005DF8047B704700BF00E100E080B483B0A9
:1045A00000AF03463960FB7197F90730002B0ADB37
:1045B0003B68DAB20C4997F907301201D2B20B44CA
:1045C00083F800230AE03B68DAB20849FB7903F07C
:1045D0000F03043B1201D2B20B441A7600BF0C3712
:1045E000BD465DF8047B704700E100E000ED00E0AF
:1045F00080B489B000AFF860B9607A60FB6803F0FE
:104600000703FB61FB69C3F10703042B28BF0423E5
:10461000BB61FB690433062B02D9FB69033B00E055
:1046200000237B614FF0FF32BB6902FA03F3DA43E8
:10463000BB681A407B699A404FF0FF317B6901FAF1
:1046400003F3D9437B680B40134318462437BD4618
:104650005DF8047B7047000080B582B000AF7860E1
:104660007B68013BB3F1807F01D301230FE00A4A4D
:104670007B68013B53600F214FF0FF30FFF78EFF47
:10468000054B00229A60044B07221A60002318464B
:104690000837BD4680BD00BF10E000E080B582B0A5
:1046A00000AF78607868FFF729FF00BF0837BD4684
:1046B00080BD80B586B000AF0346B9607A60FB73F9
:1046C00000237B61FFF73EFF78617A68B9687869FB
:1046D000FFF78EFF024697F90F3011461846FFF795
:1046E0005DFF00BF1837BD4680BD80B582B000AF0A
:1046F0000346FB7197F907301846FFF731FF00BFFB
:104700000837BD4680BD80B582B000AF786078685C
:10471000FFF7A2FF034618460837BD4680BD80B5A7
:1047200084B000AF78607B689B6DFB60FFF7DAFEBA
:10473000B8607B6893F83530DBB2022B08D07B6819
:1047400080225A657B68002283F83420012352E0DE
:104750007B681B681A687B681B6822F016021A6067
:104760007B681B685A697B681B6822F080025A616B
:104770007B681B6C002B03D17B689B6C002B07D0E4
:104780007B681B681A687B681B6822F008021A6045
:104790007B681B681A687B681B6822F001021A603C
:1047A00013E0FFF79FFE0246BB68D31A052B0CD916
:1047B0007B6820225A657B68032283F835207B685A
:1047C000002283F83420032315E07B681B681B68F4
:1047D00003F00103002BE4D17B68DB6D3F229A409C
:1047E000FB689A607B68012283F835207B68002291
:1047F00083F83420002318461037BD4680BD80B4AE
:1048000083B000AF78607B6893F83530DBB2022B61
:1048100004D07B6880225A6501230CE07B68052266
:1048200083F835207B681B681A687B681B6822F058
:1048300001021A60002318460C37BD465DF8047B60
:104840007047000080B489B000AF78603960002301
:104850007B6100233B610023BB610023FB616BE1B3
:104860000122FB6902FA03F37B613B681B687A69EA
:1048700013403B613A697B699A4240F05A813B6838
:104880005B6803F00303012B05D03B685B6803F012
:104890000303022B30D17B689B68BB61FB695B0023
:1048A000032202FA03F3DB43BA691340BB613B689E
:1048B000DA68FB695B0002FA03F3BA691343BB6170
:1048C0007B68BA699A607B685B68BB610122FB699F
:1048D00002FA03F3DB43BA691340BB613B685B68D0
:1048E0001B0903F00102FB6902FA03F3BA691343DF
:1048F000BB617B68BA695A603B685B6803F003037D
:10490000032B17D07B68DB68BB61FB695B0003226C
:1049100002FA03F3DB43BA691340BB613B689A6850
:10492000FB695B0002FA03F3BA691343BB617B685E
:10493000BA69DA603B685B6803F00303022B23D19A
:10494000FB69DA087B68083253F82230BB61FB69E7
:1049500003F007039B000F2202FA03F3DB43BA695B
:104960001340BB613B681A69FB6903F007039B00B6
:1049700002FA03F3BA691343BB61FB69DA087B6887
:104980000832B96943F822107B681B68BB61FB6978
:104990005B00032202FA03F3DB43BA691340BB61F5
:1049A0003B685B6803F00302FB695B0002FA03F3F8
:1049B000BA691343BB617B68BA691A603B685B687C
:1049C00003F44033002B00F0B4800023FB60604B05
:1049D0005B6C5F4A43F4804353645D4B5B6C03F450
:1049E0008043FB60FB685B4AFB699B08023352F81B
:1049F0002330BB61FB6903F003039B000F2202FA23
:104A000003F3DB43BA691340BB617B68524A9342AC
:104A10002BD07B68514A934225D07B68504A934201
:104A20001FD07B684F4A934219D07B684E4A93420D
:104A300013D07B684D4A93420DD07B684C4A934219
:104A400007D07B684B4A934201D107230EE008232D
:104A50000CE006230AE0052308E0042306E0032314
:104A600004E0022302E0012300E00023FA6902F0DF
:104A7000030292009340BA691343BB613549FB6955
:104A80009B080233BA6941F823203B4B9B68BB610A
:104A90003B69DB43BA691340BB613B685B6803F465
:104AA0008013002B03D0BA693B691343BB61324AC0
:104AB000BB699360304BDB68BB613B69DB43BA6920
:104AC0001340BB613B685B6803F40013002B03D009
:104AD000BA693B691343BB61274ABB69D360264B64
:104AE0005B68BB613B69DB43BA691340BB613B68F0
:104AF0005B6803F40033002B03D0BA693B691343AE
:104B0000BB611D4ABB6953601B4B1B68BB613B69A2
:104B1000DB43BA691340BB613B685B6803F48033D5
:104B2000002B03D0BA693B691343BB61124ABB69CE
:104B30001360FB690133FB61FB690F2B7FF690AEBD
:104B400000BF00BF2437BD465DF8047B704700BF3F
:104B500000380240003801400000024000040240DA
:104B600000080240000C0240001002400014024005
:104B700000180240001C0240003C014080B485B097
:104B800000AF78600B467B807B681A697B88134096
:104B9000002B02D00123FB7301E00023FB73FB7B9E
:104BA00018461437BD465DF8047B704780B586B063
:104BB00000AF78607B68002B01D1012367E27B683E
:104BC0001B6803F00103002B75D0884B9B6803F032
:104BD0000C03042B0CD0854B9B6803F00C03082BB3
:104BE00012D1824B5B6803F48003B3F5800F0BD1C5
:104BF0007E4B1B6803F40033002B5BD07B685B6843
:104C0000002B57D1012342E27B685B68B3F5803FFC
:104C100006D1764B1B68754A43F4803313601DE060
:104C20007B685B68B3F5A02F0CD1704B1B686F4A93
:104C300043F4802313606D4B1B686C4A43F480334C
:104C400013600BE0694B1B68684A23F480331360E0
:104C5000664B1B68654A23F4802313607B685B689E
:104C6000002B13D0FFF73EFC386108E0FFF73AFC59
:104C700002463B69D31A642B01D9032307E25B4B3D
:104C80001B6803F40033002BF0D014E0FFF72AFC7C
:104C9000386108E0FFF726FC02463B69D31A642B13
:104CA00001D90323F3E1514B1B6803F40033002BBC
:104CB000F0D100E000BF7B681B6803F00203002B0B
:104CC00063D04A4B9B6803F00C03002B0BD0474B7F
:104CD0009B6803F00C03082B1CD1444B5B6803F466
:104CE0008003002B16D1414B1B6803F00203002BFD
:104CF00005D07B68DB68012B01D00123C7E13B4B6A
:104D00001B6823F0F8027B681B69DB0037491343FB
:104D10000B603AE07B68DB68002B20D0344B01222B
:104D20001A60FFF7DFFB386108E0FFF7DBFB0246A4
:104D30003B69D31A022B01D90323A8E12B4B1B6833
:104D400003F00203002BF0D0284B1B6823F0F8027D
:104D50007B681B69DB00254913430B6015E0244B7E
:104D600000221A60FFF7BEFB386108E0FFF7BAFBCC
:104D700002463B69D31A022B01D9032387E11B4B5F
:104D80001B6803F00203002BF0D17B681B6803F063
:104D90000803002B36D07B685B69002B16D0154BBF
:104DA00001221A60FFF79EFB386108E0FFF79AFBCB
:104DB00002463B69D31A022B01D9032367E10B4B4F
:104DC0005B6F03F00203002BF0D01BE0094B0022C5
:104DD0001A60FFF787FB38610EE0FFF783FB02469E
:104DE0003B69D31A022B07D9032350E10038024054
:104DF00000004742800E4742884B5B6F03F002037E
:104E0000002BEAD17B681B6803F00403002B00F041
:104E100097800023FB75814B1B6C03F08053002BA4
:104E20000FD10023BB607D4B1B6C7C4A43F0805349
:104E300013647A4B1B6C03F08053BB60BB68012387
:104E4000FB75774B1B6803F48073002B18D1744BF0
:104E50001B68734A43F480731360FFF743FB3861A8
:104E600008E0FFF73FFB02463B69D31A022B01D94A
:104E700003230CE16A4B1B6803F48073002BF0D012
:104E80007B689B68012B06D1644B1B6F634A43F020
:104E9000010313671CE07B689B68052B0CD15F4BFB
:104EA0001B6F5E4A43F0040313675C4B1B6F5B4A46
:104EB00043F0010313670BE0584B1B6F574A23F075
:104EC00001031367554B1B6F544A23F00403136708
:104ED0007B689B68002B15D0FFF704FB38610AE064
:104EE000FFF700FB02463B69D31A41F28832934236
:104EF00001D90323CBE0494B1B6F03F00203002BC6
:104F0000EED014E0FFF7EEFA38610AE0FFF7EAFAB4
:104F100002463B69D31A41F28832934201D90323F6
:104F2000B5E03E4B1B6F03F00203002BEED1FB7D7F
:104F3000012B05D1394B1B6C384A23F08053136485
:104F40007B689B69002B00F0A180344B9B6803F0C9
:104F50000C03082B5CD07B689B69022B41D1314B41
:104F600000221A60FFF7BEFA386108E0FFF7BAFACC
:104F700002463B69D31A022B01D9032387E0274B52
:104F80001B6803F00073002BF0D17B68DA697B6843
:104F90001B6A1A437B685B6A9B011A437B689B6AA6
:104FA0005B08013B1B041A437B68DB6A1B061B4939
:104FB00013434B601B4B01221A60FFF793FA3861D1
:104FC00008E0FFF78FFA02463B69D31A022B01D99A
:104FD00003235CE0114B1B6803F00073002BF0D03F
:104FE00054E0104B00221A60FFF77CFA386108E0A9
:104FF000FFF778FA02463B69D31A022B01D9032343
:1050000045E0064B1B6803F00073002BF0D13DE038
:105010007B689B69012B07D1012338E000380240EF
:1050200000700040600047421B4B5B68FB607B6880
:105030009B69012B28D0FB6803F480027B68DB6945
:105040009A4221D1FB6803F03F027B681B6A9A42B7
:105050001AD1FA6847F6C07313407A68526A92010F
:10506000934211D1FB6803F440327B689B6A5B0872
:10507000013B1B049A4207D1FB6803F070627B6816
:10508000DB6A1B069A4201D0012300E00023184688
:105090001837BD4680BD00BF0038024080B584B0DF
:1050A00000AF786039607B68002B01D10123CCE030
:1050B000684B1B6803F007033A689A420CD9654BAA
:1050C0003A68D2B21A70634B1B6803F007033A6860
:1050D0009A4201D00123B8E07B681B6803F0020309
:1050E000002B20D07B681B6803F00403002B05D045
:1050F000594B9B68584A43F4E05393607B681B68A4
:1051000003F00803002B05D0534B9B68524A43F42D
:1051100060439360504B9B6823F0F0027B689B6870
:105120004D4913438B607B681B6803F00103002B20
:1051300044D07B685B68012B07D1474B1B6803F4A5
:105140000033002B19D101237FE07B685B68022BC1
:1051500003D07B685B68032B07D13F4B1B6803F0D0
:105160000073002B09D101236FE03B4B1B6803F058
:105170000203002B01D1012367E0374B9B6823F02A
:1051800003027B685B68344913438B60FFF7AAF91D
:10519000F8600AE0FFF7A6F90246FB68D31A41F26D
:1051A0008832934201D903234FE02B4B9B6803F0D5
:1051B0000C027B685B689B009A42EBD1254B1B6815
:1051C00003F007033A689A420CD2224B3A68D2B2F3
:1051D0001A70204B1B6803F007033A689A4201D00B
:1051E000012332E07B681B6803F00403002B08D026
:1051F000194B9B6823F4E0527B68DB681649134324
:105200008B607B681B6803F00803002B09D0124BEE
:105210009B6823F460427B681B69DB000E491343E3
:105220008B6000F021F802460B4B9B681B0903F0D2
:105230000F030A49CB5C22FA03F3094A1360094BB6
:105240001B681846FFF70AF9002318461037BD46B9
:1052500080BD00BF003C024000380240E0AB0008C7
:1052600000000020040000202DE9B04F94B000AFF2
:1052700000237B640023FB6400233B640023BB64A6
:10528000794B9B6803F00C03082B0DD0082B00F220
:10529000E180002B02D0042B03D0DBE0734BBB6416
:1052A000DBE0734BBB64D8E06F4B5B6803F03F03FC
:1052B0007B646D4B5B6803F48003002B63D06A4B07
:1052C0005B689B090022BB63FA63BB6BC3F30803F3
:1052D0003B6300237B63D7E90C4522462B464FF006
:1052E00000004FF00001590141EAD261500102462D
:1052F0000B462146511A3961294663EB01037B6154
:105300004FF000024FF00003D7E904AB59468B0180
:10531000514643EA916351468A015146B2EB010876
:10532000594663EB01094FF000024FF000034FEACA
:10533000C90343EA58734FEAC80290469946234688
:1053400018EB0303BB602B4649EB0303FB604FF0F4
:1053500000024FF00003D7E9024529464B022146DF
:1053600043EAD15321464A02104619467B6C00227B
:10537000BB62FA62D7E90A23FBF70EFC02460B4632
:105380001346FB6458E0384B5B689B0900221846C3
:105390001146C0F308033B6200237B62D7E908890A
:1053A00042464B464FF000004FF00001590141EAE0
:1053B000D261500102460B464146B2EB010A494612
:1053C00063EB010B4FF000024FF000034FEA8B1329
:1053D00043EA9A634FEA8A12B2EB0A0463EB0B05C5
:1053E0004FF000024FF00003EB0043EA5473E20079
:1053F00014461D464346E3183B604B4645EB03030A
:105400007B604FF000024FF00003D7E900452946CA
:105410008B02214643EA915321468A0210461946DF
:105420007B6C0022BB61FA61D7E90623FBF7B4FB72
:1054300002460B461346FB640B4B5B681B0C03F0E8
:10544000030301335B003B64FA6C3B6CB2FBF3F388
:10545000BB6402E0054BBB6400BFBB6C1846503711
:10546000BD46BDE8B08F00BF003802400024F40004
:1054700000127A0080B400AF034B1B681846BD468B
:105480005DF8047B704700BF0000002080B500AFCE
:10549000FFF7F0FF0246054B9B689B0A03F00703EA
:1054A0000349CB5C22FA03F3184680BD0038024062
:1054B000F0AB000880B500AFFFF7DCFF0246054BFC
:1054C0009B685B0B03F007030349CB5C22FA03F3F1
:1054D000184680BD00380240F0AB000880B582B0AD
:1054E00000AF78607B68002B01D1012341E07B682D
:1054F00093F83D30DBB2002B06D17B68002283F8A5
:105500003C207868FEF7E0FD7B68022283F83D20AE
:105510007B681A687B6804331946104600F00EFC5D
:105520007B68012283F846207B68012283F83E20B5
:105530007B68012283F83F207B68012283F84020AA
:105540007B68012283F841207B68012283F8422096
:105550007B68012283F843207B68012283F8442082
:105560007B68012283F845207B68012283F83D2077
:10557000002318460837BD4680BD000080B584B0C2
:1055800000AF786039603B68002B09D17B6893F8E5
:105590003E30DBB2012B14BF01230023DBB222E03B
:1055A0003B68042B09D17B6893F83F30DBB2012BB9
:1055B00014BF01230023DBB215E03B68082B09D19F
:1055C0007B6893F84030DBB2012B14BF012300232A
:1055D000DBB208E07B6893F84130DBB2012B14BFEB
:1055E00001230023DBB2002B01D001237CE03B68C8
:1055F000002B04D17B68022283F83E2013E03B6835
:10560000042B04D17B68022283F83F200BE03B6827
:10561000082B04D17B68022283F8402003E07B68DA
:10562000022283F841207B681B68012239681846F2
:1056300000F0E0FD7B681B682D4A934204D07B6834
:105640001B682C4A934201D1012300E00023002B68
:1056500007D07B681B685A6C7B681B6842F4004269
:105660005A647B681B68224A934222D07B681B687D
:10567000B3F1804F1DD07B681B681F4A934218D03E
:105680007B681B681D4A934213D07B681B681C4AC9
:1056900093420ED07B681B68164A934209D07B6800
:1056A0001B68184A934204D07B681B68164A9342D1
:1056B00011D17B681B689B6803F00703FB60FB68E4
:1056C000062B10D07B681B681A687B681B6842F049
:1056D00001021A6007E07B681B681A687B681B6818
:1056E00042F001021A60002318461037BD4680BD03
:1056F0000000014000040140000400400008004098
:10570000000C0040004001400018004080B586B009
:1057100000AF786039607B68002B01D1012397E0EE
:105720007B6893F83D30DBB2002B06D17B6800220A
:1057300083F83C207868FEF7BBFB7B68022283F885
:105740003D207B681B689B687A68126823F480435D
:1057500023F0070393607B681A687B68043319465B
:10576000104600F0EBFA7B681B689B687B617B68E6
:105770001B689B693B617B681B681B6AFB603B681D
:105780001B687A6913437B613B6923F4407323F000
:1057900003033B613B689A683B689B691B021343A8
:1057A0003A6913433B613B6923F4406323F00C03E4
:1057B0003B613B6923F4704323F0F0033B613B689A
:1057C000DA683B68DB691B0213433A6913433B61A8
:1057D0003B681B691A013B681B6A1B0313433A6948
:1057E00013433B61FB6823F02203FB60FB6823F05B
:1057F0008803FB603B685A683B685B691B01134385
:10580000FA681343FB607B681B687A699A607B685F
:105810001B683A699A617B681B68FA681A627B6840
:10582000012283F846207B68012283F83E207B68B2
:10583000012283F83F207B68012283F842207B68A5
:10584000012283F843207B68012283F83D20002356
:1058500018461837BD4680BD80B584B000AF78606B
:1058600039607B6893F83E30FB737B6893F83F3078
:10587000BB737B6893F842307B737B6893F843304B
:105880003B733B68002B10D1FB7B012B02D17B7B50
:10589000012B01D0012369E07B68022283F83E20BE
:1058A0007B68022283F8422031E03B68042B10D150
:1058B000BB7B012B02D13B7B012B01D0012355E0A7
:1058C0007B68022283F83F207B68022283F8432012
:1058D0001DE0FB7B012B08D1BB7B012B05D17B7B22
:1058E000012B02D13B7B012B01D001233EE07B68E1
:1058F000022283F83E207B68022283F83F207B68E7
:10590000022283F842207B68022283F843203B680E
:10591000002B03D03B68042B08D00FE07B681B688A
:1059200001220021184600F065FC16E07B681B6828
:1059300001220421184600F05DFC0EE07B681B6824
:1059400001220021184600F055FC7B681B680122EB
:105950000421184600F04EFC00BF7B681B681A68E3
:105960007B681B6842F001021A600023184610375A
:10597000BD4680BD80B584B000AF78607B681B6891
:10598000DB68FB607B681B681B69BB60BB6803F05E
:105990000203002B20D0FB6803F00203002B1BD076
:1059A0007B681B686FF002021A617B6801221A771C
:1059B0007B681B689B6903F00303002B03D07868A6
:1059C00000F09EF905E0786800F090F9786800F042
:1059D000A1F97B6800221A77BB6803F00403002B4F
:1059E00020D0FB6803F00403002B1BD07B681B68EE
:1059F0006FF004021A617B6802221A777B681B68C9
:105A00009B6903F44073002B03D0786800F078F9A9
:105A100005E0786800F06AF9786800F07BF97B6847
:105A200000221A77BB6803F00803002B20D0FB6824
:105A300003F00803002B1BD07B681B686FF0080283
:105A40001A617B6804221A777B681B68DB6903F0A4
:105A50000303002B03D0786800F052F905E0786862
:105A600000F044F9786800F055F97B6800221A7755
:105A7000BB6803F01003002B20D0FB6803F0100379
:105A8000002B1BD07B681B686FF010021A617B68CB
:105A900008221A777B681B68DB6903F44073002BCC
:105AA00003D0786800F02CF905E0786800F01EF962
:105AB000786800F02FF97B6800221A77BB6803F042
:105AC0000103002B0CD0FB6803F00103002B07D06F
:105AD0007B681B686FF001021A61786800F0FCF8BF
