:020000040800F2
:10000000000002206D2B0008E52A0008EB2A0008FA
:10001000F12A0008F72A0008FD2A00080000000065
:10002000000000000000000000000000D1570008A0
:10003000032B000800000000215A0008112B0008C3
:10004000BD2B0008BD2B0008BD2B0008BD2B0008F0
:10005000BD2B0008BD2B0008BD2B0008BD2B0008E0
:10006000BD2B0008BD2B0008BD2B0008BD2B0008D0
:10007000BD2B0008BD2B0008BD2B0008BD2B0008C0
:10008000BD2B0008BD2B0008BD2B0008BD2B0008B0
:10009000BD2B0008BD2B0008BD2B0008BD2B0008A0
:1000A0002D2B0008BD2B0008BD2B0008BD2B000820
:1000B000BD2B0008BD2B0008BD2B0008BD2B000880
:1000C000BD2B0008BD2B0008BD2B0008BD2B000870
:1000D000BD2B0008BD2B0008BD2B0008BD2B000860
:1000E000BD2B0008BD2B0008BD2B0008BD2B000850
:1000F000BD2B0008BD2B0008BD2B0008BD2B000840
:10010000BD2B0008BD2B0008BD2B0008BD2B00082F
:10011000BD2B0008BD2B0008BD2B0008BD2B00081F
:10012000BD2B0008BD2B0008BD2B0008BD2B00080F
:10013000BD2B0008BD2B0008BD2B0008BD2B0008FF
:10014000BD2B0008BD2B0008BD2B0008BD2B0008EF
:10015000BD2B0008BD2B0008BD2B0008BD2B0008DF
:10016000BD2B0008BD2B0008BD2B0008BD2B0008CF
:10017000BD2B0008BD2B0008BD2B000800000000AF
:08018000BD2B0008BD2B000897
:1001900010B5054C237833B9044B13B10448AFF3C1
:1001A00000800123237010BD10000020000000001B
:1001B000545F000808B5034B1BB103490348AFF374
:1001C000008008BD0000000014000020545F0008FB
:1001D00081F0004102E000BF83F0004330B54FEAF8
:1001E00041044FEA430594EA050F08BF90EA020F65
:1001F0001FBF54EA000C55EA020C7FEA645C7FEAF8
:10020000655C00F0E2804FEA5454D4EB5555B8BF1A
:100210006D420CDD2C4480EA020281EA030382EA8B
:10022000000083EA010180EA020281EA0303362D1D
:1002300088BF30BD11F0004F4FEA01314FF4801CF0
:100240004CEA113102D0404261EB410113F0004F02
:100250004FEA03334CEA133302D0524263EB4303B9
:1002600094EA050F00F0A780A4F10104D5F1200E57
:100270000DDB02FA0EFC22FA05F2801841F10001B2
:1002800003FA0EF2801843FA05F359410EE0A5F186
:1002900020050EF1200E012A03FA0EFC28BF4CF0B7
:1002A000020C43FA05F3C01851EBE37101F000456D
:1002B00007D54FF0000EDCF1000C7EEB00006EEB7A
:1002C0000101B1F5801F1BD3B1F5001F0CD3490804
:1002D0005FEA30004FEA3C0C04F101044FEA44525B
:1002E00012F5800F80F09A80BCF1004F08BF5FEAE2
:1002F000500C50F1000041EB045141EA050130BDC2
:100300005FEA4C0C404141EB0101013C28BFB1F5D3
:10031000801FE9D291F0000F04BF01460020B1FA1E
:1003200081F308BF2033A3F10B03B3F120020CDAF1
:100330000C3208DD02F1140CC2F10C0201FA0CF0CF
:1003400021FA02F10CE002F11402D8BFC2F1200C34
:1003500001FA02F120FA0CFCDCBF41EA0C019040EA
:10036000E41AA2BF01EB0451294330BD6FEA040433
:100370001F3C1CDA0C340EDC04F11404C4F120021E
:1003800020FA04F001FA02F340EA030021FA04F330
:1003900045EA030130BDC4F10C04C4F1200220FA87
:1003A00002F001FA04F340EA0300294630BD21FAC5
:1003B00004F0294630BD94F0000F83F4801306BF8B
:1003C00081F480110134013D4EE77FEA645C18BF7F
:1003D0007FEA655C29D094EA050F08BF90EA020F16
:1003E00005D054EA000C04BF1946104630BD91EA0E
:1003F000030F1EBF0021002030BD5FEA545C05D111
:100400004000494128BF41F0004130BD14F580044F
:100410003CBF01F5801130BD01F0004545F0FE41C3
:1004200041F470014FF0000030BD7FEA645C1ABFF8
:10043000194610467FEA655C1CBF0B46024650EA2F
:10044000013406BF52EA033591EA030F41F400215B
:1004500030BD00BF90F0000F04BF0021704730B5E1
:100460004FF4806404F132044FF000054FF00001B6
:1004700050E700BF90F0000F04BF0021704730B577
:100480004FF4806404F1320410F0004548BF40424C
:100490004FF000013EE700BF42004FEAE2014FEAA1
:1004A00031014FEA02701FBF12F07F4393F07F4F7C
:1004B00081F06051704732F07F4208BF704793F07F
:1004C0007F4F04BF41F40021704730B54FF4607492
:1004D00001F0004521F000411CE700BF50EA010295
:1004E00008BF704730B54FF000050AE050EA01023E
:1004F00008BF704730B511F0004502D5404261EBAE
:1005000041014FF4806404F132045FEA915C3FF4EE
:10051000D8AE4FF003025FEADC0C18BF03325FEA8B
:10052000DC0C18BF033202EBDC02C2F1200300FA3C
:1005300003FC20FA02F001FA03FE40EA0E0021FA61
:1005400002F11444BDE600BF70B54FF0FF0C4CF44F
:10055000E06C1CEA11541DBF1CEA135594EA0C0F01
:1005600095EA0C0F00F0DEF82C4481EA030621EA3C
:100570004C5123EA4C5350EA013518BF52EA033577
:1005800041F4801143F4801338D0A0FB02CE4FF029
:100590000005E1FB02E506F00042E0FB03E54FF059
:1005A0000006E1FB03569CF0000F18BF4EF0010E51
:1005B000A4F1FF04B6F5007F64F5407404D25FEA4D
:1005C0004E0E6D4146EB060642EAC62141EA555100
:1005D0004FEAC52040EA5E504FEACE2EB4F1FD0C42
:1005E00088BFBCF5E06F1ED8BEF1004F08BF5FEAC0
:1005F000500E50F1000041EB045170BD06F0004672
:1006000046EA010140EA020081EA0301B4EB5C041E
:10061000C2BFD4EB0C0541EA045170BD41F4801116
:100620004FF0000E013C00F3AB8014F1360FDEBF3B
:10063000002001F0004170BDC4F10004203C35DA17
:100640000C341BDC04F11404C4F1200500FA05F39A
:1006500020FA04F001FA05F240EA020001F000423B
:1006600021F0004110EBD37021FA04F642EB0601B1
:100670005EEA430E08BF20EAD37070BDC4F10C04DB
:10068000C4F1200500FA04F320FA05F001FA04F29F
:1006900040EA020001F0004110EBD37041F100018B
:1006A0005EEA430E08BF20EAD37070BDC4F1200596
:1006B00000FA05F24EEA020E20FA04F301FA05F2FE
:1006C00043EA020321FA04F001F0004121FA04F2A6
:1006D00020EA020000EBD3705EEA430E08BF20EA76
:1006E000D37070BD94F0000F0FD101F000464000B0
:1006F00041EB010111F4801F08BF013CF7D041EA32
:10070000060195F0000F18BF704703F00046520035
:1007100043EB030313F4801F08BF013DF7D043EA06
:100720000603704794EA0C0F0CEA135518BF95EABC
:100730000C0F0CD050EA410618BF52EA4306D1D143
:1007400081EA030101F000414FF0000070BD50EA62
:10075000410606BF1046194652EA430619D094EAEC
:100760000C0F02D150EA013613D195EA0C0F05D1D6
:1007700052EA03361CBF104619460AD181EA03012A
:1007800001F0004141F0FE4141F470014FF00000E2
:1007900070BD41F0FE4141F4780170BD70B54FF07D
:1007A000FF0C4CF4E06C1CEA11541DBF1CEA1355FD
:1007B00094EA0C0F95EA0C0F00F0A7F8A4EB0504DF
:1007C00081EA030E52EA03354FEA013100F08880D6
:1007D0004FEA03334FF0805545EA131343EA12639F
:1007E0004FEA022245EA111545EA10654FEA002654
:1007F0000EF000419D4208BF964244F1FD0404F50D
:10080000407402D25B084FEA3202B61A65EB030568
:100810005B084FEA32024FF480104FF4002CB6EB25
:10082000020E75EB030E22BFB61A754640EA0C00A5
:100830005B084FEA3202B6EB020E75EB030E22BFE5
:10084000B61A754640EA5C005B084FEA3202B6EB26
:10085000020E75EB030E22BFB61A754640EA9C00E5
:100860005B084FEA3202B6EB020E75EB030E22BFB5
:10087000B61A754640EADC0055EA060E18D04FEA73
:10088000051545EA16754FEA06164FEAC30343EA13
:1008900052734FEAC2025FEA1C1CC0D111F4801FE0
:1008A0000BD141EA00014FF000004FF0004CB6E7D9
:1008B00011F4801F04BF01430020B4F1FD0C88BF78
:1008C000BCF5E06F3FF6AFAEB5EB030C04BFB6EB83
:1008D000020C5FEA500C50F1000041EB045170BD76
:1008E0000EF0004E4EEA113114EB5C04C2BFD4EBA3
:1008F0000C0541EA045170BD41F480114FF0000E27
:10090000013C90E645EA060E8DE60CEA135594EAA2
:100910000C0F08BF95EA0C0F3FF43BAF94EA0C0FA5
:100920000AD150EA01347FF434AF95EA0C0F7FF41A
:1009300025AF104619462CE795EA0C0F06D152EA6E
:1009400003353FF4FDAE1046194622E750EA410652
:1009500018BF52EA43067FF4C5AE50EA41047FF463
:100960000DAF52EA43057FF4EBAE12E74FF0FF3CC8
:1009700006E000BF4FF0010C02E000BF4FF0010C99
:100980004DF804CD4FEA410C7FEA6C5C4FEA430C12
:1009900018BF7FEA6C5C1BD001B050EA410C0CBF61
:1009A00052EA430C91EA030F02BF90EA020F0020C3
:1009B000704710F1000F91EA030F58BF994208BF2A
:1009C00090422CBFD8176FEAE37040F001007047E7
:1009D0004FEA410C7FEA6C5C02D150EA013C07D13E
:1009E0004FEA430C7FEA6C5CD6D152EA033CD3D089
:1009F0005DF8040B704700BF8446104662468C4683
:100A00001946634600E000BF01B5FFF7B7FF0028B5
:100A100048BF10F1000F01BD4DF808EDFFF7F4FFDE
:100A20000CBF012000205DF808FB00BF4DF808ED69
:100A3000FFF7EAFF34BF012000205DF808FB00BF8C
:100A40004DF808EDFFF7E0FF94BF012000205DF8AE
:100A500008FB00BF4DF808EDFFF7CEFF94BF012063
:100A600000205DF808FB00BF4DF808EDFFF7C4FF5C
:100A700034BF012000205DF808FB00BF4FEA4102AF
:100A8000B2F1E04324BFB3F5001CDCF1FE5C0DD9EC
:100A900001F0004C4FEAC0024CEA5070B2F1004F36
:100AA00040EB830008BF20F00100704711F0804F39
:100AB00021D113F13872BCBF01F00040704741F4FE
:100AC00080114FEA5252C2F11802C2F1200C10FA02
:100AD0000CF320FA02F018BF40F001004FEAC123E6
:100AE0004FEAD32303FA0CFC40EA0C0023FA02F38A
:100AF0004FEA4303CCE77FEA625307D150EA013360
:100B00001EBF4FF0FE4040F44000704701F000402F
:100B100040F0FE4040F40000704700BF53B94AB9AE
:100B2000002908BF00281CBF4FF0FF314FF0FF30F5
:100B300000F070B9ADF1080C6DE904CE00F006F8D4
:100B4000DDF804E0DDE9022304B070472DE9F04749
:100B5000089E0D4604460F46002B4AD18A42944611
:100B600065D9B2FA82F343B102FA03FCC3F1200261
:100B70009F4020FA02F217439C404FEA1C4E1FFA96
:100B80008CF5B7FBFEF1220C0EFB117742EA07420F
:100B900001FB05F090420AD91CEB020201F1FF377C
:100BA00080F01C81904240F2198102396244121A8D
:100BB000A4B2B2FBFEF00EFB102244EA024400FB9A
:100BC00005F5A5420AD91CEB040400F1FF3280F0C0
:100BD0000781A54240F204816444023840EA0140A2
:100BE000641B00211EB1DC400023C6E90043BDE8C0
:100BF000F0878B4208D9002E00F0ED800021C6E975
:100C000000050846BDE8F087B3FA83F1002949D111
:100C1000AB4202D3824200F2F880841A65EB0302F1
:100C200001201746002EE2D0C6E90047DFE702B9EF
:100C3000FFDEB2FA82F3002B40F090808A1A4FEA6E
:100C40001C471FFA8CFE0121B2FBF7F507FB1520AC
:100C5000220C42EA00420EFB05F0904208D91CEB40
:100C6000020205F1FF3802D2904200F2CB804546E5
:100C7000121AA4B2B2FBF7F007FB102244EA0244B6
:100C80000EFB00FEA64508D91CEB040400F1FF3260
:100C900002D2A64500F2BB801046A4EB0E0440EA47
:100CA00005409FE7C1F120078B4022FA07FC4CEA80
:100CB000030C05FA01F420FA07F3FD404FEA1C4942
:100CC0002343B5FBF9F81FFA8CFE09FB18551C0CE1
:100CD00044EA054408FB0EF5A54202FA01F200FAC7
:100CE00001F00BD91CEB040408F1FF3A80F0888076
:100CF000A54240F28580A8F102086444641B9DB2BD
:100D0000B4FBF9F309FB134445EA044403FB0EFE6C
:100D1000A64508D91CEB040403F1FF356CD2A645A7
:100D20006AD9023B644443EA0843A3FB0295A4EB5F
:100D30000E04AC42C846AE4656D353D056B1B0EBC3
:100D4000080264EB0E0404FA07F7CA40CC401743CC
:100D5000C6E9007418460021BDE8F087C3F1200100
:100D600002FA03FC20FA01F225FA01F19D402A4320
:100D70004FEA1C471FFA8CFEB1FBF7F007FB10157A
:100D8000110C41EA054100FB0EF58D4204FA03F413
:100D900008D91CEB010100F1FF382FD28D422DD96B
:100DA00002386144491B92B2B1FBF7F507FB1511FC
:100DB00042EA014205FB0EF1914208D91CEB020206
:100DC00005F1FF3816D2914214D9023D6244521AFD
:100DD00045EA004138E73146304608E73946E6E65D
:100DE0001046FBE64845A9D2B9EB020865EB0C0EAC
:100DF000013BA3E74546EAE72B4694E74046D1E7A7
:100E0000D0467BE7023D624432E708460AE7644485
:100E1000023842E7704700BF80B487B000AF786106
:100E20003961FA6087ED000B7B693A691A607B696A
:100E3000FA685A617969D7E90023C1E9102300BF34
:100E40001C37BD465DF8047B7047000000000000C1
:100E5000B0B582B000AF78607B681B681B685B6AC6
:100E60001AB27B689A807B689B687A68B2F9042022
:100E70001A447B689A607B681B681B6800225A6270
:100E80007B689A687B681B69D31A1846FFF7F2FAE9
:100E90007B68D3E91023FFF781FC02460B4614461A
:100EA0001D467B685B699B001846FFF7E3FA024624
:100EB0000B4620462946FFF771FC02460B461046BA
:100EC00019464FF00002284BFFF73EFB02460B4647
:100ED0007968C1E908237B68D3E90C011EA3D3E933
:100EE0000023FFF731FB02460B4614461D467B6884
:100EF000D3E908011AA3D3E90023FFF725FB024633
:100F00000B4620462946FFF769F902460B46144670
:100F10001D467B68D3E90A0111A3D3E90023FFF73B
:100F200013FB02460B4620462946FFF757F90246B7
:100F30000B467968C1E90C237B68D3E908237968FB
:100F4000C1E90A237B689A687B681A6100BF083789
:100F5000BD46B0BDAFF300808716D9CEF753EB3F47
:100F6000C217265305A3B23F00004E4080B582B0A1
:100F700000AF78600B46FB707B68FA781A767B6866
:100F80001B681B685B6A1AB27B689A807B689B68E7
:100F90007A68B2F904201A447B689A607B681B68FF
:100FA0001B6800225A627B681B7E012B07D17B687D
:100FB0009B681846FFF75EFA02460B4633E07B68F3
:100FC0001B7E002B10D17B689B68002B00DA03335B
:100FD0009B101A467B68DA607B68DB681846FFF76F
:100FE00049FA02460B461EE07B681B7E022B16D197
:100FF0007B689B684FF4B47203FB02F27B685B6909
:101000009B0092FBF3F31846FFF734FA02460B46B7
:101010007968C1E90E237B68D3E90E2303E04FF022
:1010200000024FF0000343EC172BB0EE470AF0EE3E
:10103000670A0837BD4680BD80B483B000AF7860D2
:101040000B46FB70FB78012B07D17B681B681B6884
:1010500000225A627B6800229A6000BF0C37BD46AE
:101060005DF8047B704780B485B000AFF860B9606C
:101070007A603B60FB68BA685A607B68002BB8BF37
:101080005B429AB2FB68DA81FB683A681A61FB68D6
:10109000BA695A617B68002B4DDAFB681B69002B2B
:1010A00005D1FB685B681B6800225A6318E0FB6887
:1010B0001B69042B05D1FB685B681A6800239363E6
:1010C0000EE0FB681B69082B05D1FB685B681A689A
:1010D0000023D36304E0FB685B681A680023136491
:1010E000FB685B69002B06D1FB68DA89FB685B68EB
:1010F0001B685A63B7E0FB685B69042B07D1FB6888
:10110000D989FB685B681A680B469363ABE0FB68A0
:101110005B69082B07D1FB68D989FB685B681A6893
:101120000B46D3639FE0FB68D989FB685B681A684C
:101130000B46136497E07B68002B4DDDFB681B6951
:10114000002B06D1FB68DA89FB685B681B685A6371
:101150001EE0FB681B69042B07D1FB68D989FB687B
:101160005B681A680B46936312E0FB681B69082BE7
:1011700007D1FB68D989FB685B681A680B46D363A3
:1011800006E0FB68D989FB685B681A680B46136444
:10119000FB685B69002B05D1FB685B681B6800225C
:1011A0005A6360E0FB685B69042B05D1FB685B68F0
:1011B0001A680023936356E0FB685B69082B05D12E
:1011C000FB685B681A680023D3634CE0FB685B68CC
:1011D0001A680023136446E0FB681B69002B05D1E5
:1011E000FB685B681B6800225A6318E0FB681B6998
:1011F000042B05D1FB685B681A68002393630EE03B
:10120000FB681B69082B05D1FB685B681A68002323
:10121000D36304E0FB685B681A6800231364FB680F
:101220005B69002B05D1FB685B681B6800225A6371
:1012300019E0FB685B69042B05D1FB685B681A68E1
:10124000002393630FE0FB685B69082B05D1FB6803
:101250005B681A680023D36305E0FB685B681A6863
:1012600000231364FFE700BF1437BD465DF8047B1D
:10127000704780B485B000AFF86087ED020AC7ED13
:10128000010AFB68BA681A60FB687A685A60FB68F2
:1012900093ED007AFB68D3ED017A77EE677AFB680D
:1012A000C3ED027AFB6893ED057AFB68D3ED027A11
:1012B00067EE277AFB68C3ED067AFB6893ED097A3F
:1012C000FB68D3ED076AFB68D3ED027A66EEA76A86
:1012D000FB68D3ED047A66EEA77A77EE277AFB688F
:1012E000C3ED087AFB6893ED087AFB689B6A07EE0A
:1012F000903AF8EEE77AB4EEE77AF1EE10FA06DD0E
:10130000FB689B6A07EE903AF8EEE77A02E0FB682A
:10131000D3ED087AFB68C3ED087AFB6893ED087A91
:10132000FB68DB6A07EE903AF8EEE77AB4EEE77A0C
:10133000F1EE10FA06D5FB68DB6A07EE903AF8EE9C
:10134000E77A02E0FB68D3ED087AFB68C3ED087A20
:10135000FB6893ED0C7AFB68D3ED026AFB68D3ED72
:10136000037A76EEE77A67EE276AFB6893ED047AF4
:10137000C6EE877AFB68C3ED0D7AFB68D3ED107A71
:10138000B7EE007A37EE677AFB68D3ED0F7A27EE77
:10139000277AFB68D3ED106AFB68D3ED0D7A66EE11
:1013A000A77A77EE277AFB68C3ED0E7AFB689A6816
:1013B000FB68DA60FB681A6AFB685A62FB689A6B22
:1013C000FB68DA63FB6893ED067AFB68D3ED087A75
:1013D00037EE277AFB68D3ED0D7A77EE277AFB6834
:1013E000C3ED117AFB6893ED117AFB68D3ED127AA5
:1013F000B4EEE77AF1EE10FA02DDFB689B6C01E0D7
:10140000FB685B6CFA685364FB6893ED117AFB68C8
:10141000D3ED137AB4EEE77AF1EE10FA02D5FB6859
:10142000DB6C01E0FB685B6CFA68536400BF143747
:10143000BD465DF8047B704780B485B000AFF860AE
:10144000B9607A60FB68074A1A60BB68064A1A608E
:101450007B6880221A6000BF1437BD465DF8047BAC
:10146000704700BF2C0000208000002080B400AF37
:10147000204B214A5A611F4B204ADA611D4B4FF025
:1014800000021A631B4B4FF000021A64194B1C4AEE
:101490001A61184B4FF47A729A62164B194ADA6243
:1014A000144B194A9A64134B184ADA64184B194AB8
:1014B0005A61174B4FF00002DA61154B4FF00002F2
:1014C0001A63134B4FF000021A64114B0C4A1A6155
:1014D0000F4B4FF47A729A620D4B0A4ADA620C4B48
:1014E000094A9A640A4B094ADA6400BFBD465DF8AE
:1014F000047B7047000500200000484200007A434A
:101500000AD7233C18FCFFFF00007A4400007AC48D
:10151000500500200000204180B52DED028B82B0E7
:1015200002AF1448FFF794FC134B93ED118A114B53
:10153000D3E9082310461946FFF7A0FA034600EE48
:10154000903AB0EE480A0D48FFF793FE0B4BD3EDEF
:10155000117AFDEEE77A0C230093082317EE902A08
:1015600007490848FFF77FFD00BFBD46BDEC028B71
:1015700080BD00BFA0040020500500200005002011
:10158000E8030020E804002080B52DED028B00AFB9
:101590000F4B1B6807EE903AB8EEE78A02210D4820
:1015A000FFF7E4FC53EC102B10461946FFF766FAE0
:1015B000034600EE903AB0EE480A0748FFF759FE9E
:1015C000FFF7AAFF00BFBD46BDEC028B80BD00BF88
:1015D000A0050020A00400205005002080B400AF2A
:1015E000204B214A5A611F4B204ADA611D4B4FF0B4
:1015F00000021A631B4B4FF000021A64194B1C4A7D
:101600001A61184B4FF47A729A62164B194ADA62D1
:10161000144B194A9A64134B184ADA64184B194A46
:101620005A61174B4FF00002DA61154B4FF0000280
:101630001A63134B4FF000021A64114B0C4A1A61E3
:101640000F4B4FF47A729A620D4B0A4ADA620C4BD6
:10165000094A9A640A4B094ADA6400BFBD465DF83C
:10166000047B7047080600200000484200007A43CF
:101670000AD7233C18FCFFFF00007A4400007AC41C
:10168000580600200000204180B52DED028B82B06D
:1016900002AF1448FFF7DCFB134B93ED118A114B9B
:1016A000D3E9082310461946FFF7E8F9034600EE90
:1016B000903AB0EE480A0D48FFF7DBFD0B4BD3ED37
:1016C000117AFDEEE77A0C230093082317EE902A97
:1016D00007490848FFF7C7FC00BFBD46BDEC028BB9
:1016E00080BD00BFA8050020580600200806002085
:1016F00058030020F005002080B52DED028B00AFCF
:101700000F4B1B68BB3B07EE903AB8EEE78A02210D
:101710000C48FFF72BFC53EC102B10461946FFF733
:10172000ADF9034600EE903AB0EE480A0648FFF7DE
:10173000A0FDFFF7A9FF00BFBD46BDEC028B80BD39
:10174000A8060020A80500205806002080B400AF9D
:10175000204B214A5A611F4B204ADA611D4B4FF042
:1017600000021A631B4B4FF000021A64194B1C4A0B
:101770001A61184B4FF47A729A62164B194ADA6260
:10178000144B194A9A64134B184ADA64184B194AD5
:101790005A61174B4FF00002DA61154B4FF000020F
:1017A0001A63134B4FF000021A64114B0C4A1A6172
:1017B0000F4B4FF47A729A620D4B0A4ADA620C4B65
:1017C000094A9A640A4B094ADA6400BFBD465DF8CB
:1017D000047B7047100700200000484200007A4355
:1017E0000AD7233C18FCFFFF00007A4400007AC4AB
:1017F000600700200000204180B52DED028B82B0F3
:1018000002AF1448FFF724FB134B93ED118A114BE1
:10181000D3E9082310461946FFF730F9034600EED6
:10182000903AB0EE480A0D48FFF723FD0B4BD3ED7D
:10183000117AFDEEE77A04230093002317EE902A35
:1018400007490848FFF70FFC00BFBD46BDEC028BFF
:1018500080BD00BFB00600206007002010070020F8
:1018600058030020F806002080B52DED028B00AF54
:101870000F4B1B68873307EE903AB8EEE78A0221D8
:101880000C48FFF773FB53EC102B10461946FFF77B
:10189000F5F8034600EE903AB0EE480A0648FFF726
:1018A000E8FCFFF7A9FF00BFBD46BDEC028B80BD81
:1018B000B0070020B00600206007002080B400AF11
:1018C000204B214A5A611F4B204ADA611D4B4FF0D1
:1018D00000021A631B4B4FF000021A64194B1C4A9A
:1018E0001A61184B4FF47A729A62164B194ADA62EF
:1018F000144B194A9A64134B184ADA64184B194A64
:101900005A61174B4FF00002DA61154B4FF000029D
:101910001A63134B4FF000021A64114B0C4A1A6100
:101920000F4B4FF47A729A620D4B0A4ADA620C4BF3
:10193000094A9A640A4B094ADA6400BFBD465DF859
:10194000047B7047180800200000484200007A43DA
:101950000AD7233C18FCFFFF00007A4400007AC439
:10196000680800200000204180B52DED028B82B078
:1019700002AF1448FFF76CFA134B93ED118A114B29
:10198000D3E9082310461946FFF778F8034600EE1E
:10199000903AB0EE480A0D48FFF76BFC0B4BD3EDC5
:1019A000117AFDEEE77A04230093002317EE902AC4
:1019B00007490848FFF757FB00BFBD46BDEC028B47
:1019C00080BD00BFB807002068080020180800206C
:1019D000300400200008002080B52DED028B00AF00
:1019E0000F4B1B685A3B07EE903AB8EEE78A02218C
:1019F0000C48FFF7BBFA53EC102B10461946FFF7C3
:101A00003DF8034600EE903AB0EE480A0648FFF76C
:101A100030FCFFF7A9FF00BFBD46BDEC028B80BDC7
:101A2000B8080020B8070020680800200000000067
:101A3000B0B596B000AF01F0C3F800F0CBF800F0FD
:101A4000DFFB00F02FF900F02DFA00F083F900F031
:101A5000D5F900F0A1FA00F0F3FA00F081FB0021C3
:101A60004B4802F099F80421494802F095F8082102
:101A7000474802F091F80C21454802F08DF800210A
:101A8000444802F089F80421424802F085F8082110
:101A9000414802F081F80C213F4802F07DF83C21DA
:101AA0003E4802F0E7F93C213D4802F0E3F93C21D1
:101AB0003C4802F0DFF93C213B4802F0DBF99FEDA6
:101AC000320B41F6263235493848FFF7A5F99FED2C
:101AD0002E0B40F6B24232493548FFF79DF99FED93
:101AE0002A0B4FF4D7522F493248FFF795F99FED53
:101AF000260B40F616522C492F48FFF78DF9FFF7B9
:101B0000B5FCFFF76BFDFFF721FEFFF7D7FE2B4B70
:101B100007F13C041D460FCD0FC495E8070084E88B
:101B2000070007F13C030021184602F098FF034626
:101B3000234A1360234B07F120041D460FCD0FC429
:101B400095E8070084E8070007F120030021184604
:101B500002F085FF03461C4A13601C4B3C1D1D46CA
:101B60000FCD0FC495E8070084E807003B1D002156
:101B7000184602F074FF0346154A136002F068FF2E
:101B8000FEE700BFAFF300807B14AE47E17A843FED
:101B90005803002030040020E803002080020020C9
:101BA000C802002010030020A0030020A004002091
:101BB000A8050020B0060020B8070020785F0008C4
:101BC00078040020A05F00087C040020C85F0008A3
:101BD0008004002080B594B000AF07F120033022CC
:101BE0000021184604F08AF907F10C0300221A605C
:101BF0005A609A60DA601A610023BB60274B1B6C45
:101C0000264A43F080531364244B1B6C03F080532B
:101C1000BB60BB6800237B60214B1B68204A43F4F8
:101C2000804313601E4B1B6803F480437B607B681A
:101C300002233B620123FB6210233B630223BB634D
:101C40000023FB6308233B6448237B640223BB64BB
:101C50000423FB6407F12003184601F0E9FA034668
:101C6000002B01D000F020FD0F23FB6002233B611D
:101C700000237B614FF48053BB610023FB6107F1BC
:101C80000C030221184601F04BFD0346002B01D046
:101C900000F00AFD00BF5037BD4680BD003802404D
:101CA0000070004080B58CB000AF07F10C03242217
:101CB0000021184604F022F93B1D00221A605A60E8
:101CC000224B234A1A60214B00225A601F4B0022EC
:101CD0009A601E4B4FF6FF72DA601C4B00221A61AD
:101CE0001A4B00225A61194B00229A610323FB60B0
:101CF00000233B6101237B610023BB610023FB6167
:101D000000233B6201237B620023BB620023FB6252
:101D100007F10C0319460D4802F006F80346002BA4
:101D200001D000F0C1FC00237B600023BB603B1DA1
:101D30001946064802F092FD0346002B01D000F040
:101D4000B3FC00BF3037BD4680BD00BF800200201D
:101D50000000014080B58CB000AF07F10C032422D5
:101D60000021184604F0CAF83B1D00221A605A6090
:101D7000214B4FF080421A601F4B00225A601E4BCD
:101D800000229A601C4B4FF0FF32DA601A4B00229F
:101D90001A61194B00229A610123FB6000233B6109
:101DA00001237B610023BB610023FB6100233B62B5
:101DB00001237B620023BB620023FB6207F10C035B
:101DC00019460D4801F0B0FF0346002B01D000F08A
:101DD0006BFC00237B600023BB603B1D194606485B
:101DE00002F03CFD0346002B01D000F05DFC00BF7B
:101DF0003037BD4680BD00BFC802002080B58CB022
:101E000000AF07F10C0324220021184604F076F8F5
:101E10003B1D00221A605A60204B214A1A601F4B5A
:101E200000225A601D4B00229A601C4B4FF6FF7235
:101E3000DA601A4B00221A61184B00229A610323C0
:101E4000FB6000233B6101237B610023BB61002316
:101E5000FB6100233B6201237B620023BB62002302
:101E6000FB6207F10C0319460C4801F05DFF0346C5
:101E7000002B01D000F018FC00237B600023BB6026
:101E80003B1D1946054802F0E9FC0346002B01D032
:101E900000F00AFC00BF3037BD4680BD10030020B3
:101EA0000004004080B58AB000AF07F12003002293
:101EB0001A605A603B1D00221A605A609A60DA600C
:101EC0001A615A619A61324B324A1A60304B0622CB
:101ED0005A602F4B00229A602D4B40F2E732DA60B5
:101EE0002B4B00221A612A4B00229A61284801F0EC
:101EF00003FE0346002B01D000F0D6FB00233B621B
:101F000000237B6207F120031946214802F0A6FC5A
:101F10000346002B01D000F0C7FB60237B60002349
:101F2000BB600023FB6000237B613B1D0022194640
:101F3000174802F01DF90346002B01D000F0B4FB56
:101F40003B1D04221946124802F012F90346002BE9
:101F500001D000F0A9FB3B1D082219460C4802F0F5
:101F600007F90346002B01D000F09EFB3B1D0C221D
:101F70001946074802F0FCF80346002B01D000F098
:101F800093FB034800F022FD00BF2837BD4680BD0B
:101F9000580300200008004080B58CB000AF07F166
:101FA0000C0324220021184603F0A8FF3B1D002249
:101FB0001A605A60204B214A1A601F4B00225A6057
:101FC0001D4B00229A601C4B4FF0FF32DA601A4B17
:101FD00000221A61184B00229A610323FB60002340
:101FE0003B6101237B610023BB610023FB61002374
:101FF0003B6201237B620023BB620023FB6207F18B
:102000000C0319460C4801F08FFE0346002B01D04B
:1020100000F04AFB00237B600023BB603B1D194698
:10202000054802F01BFC0346002B01D000F03CFBEE
:1020300000BF3037BD4680BDA0030020000C00402B
:1020400080B592B000AF07F1400300221A605A60D9
:1020500007F1240300221A605A609A60DA601A615C
:102060005A619A613B1D20220021184603F046FF69
:10207000394B3A4A1A60384B06225A60364B0022D6
:102080009A60354B40F2E732DA60334B00221A6136
:10209000314B00225A61304B00229A612E4801F0E8
:1020A0002BFD0346002B01D000F0FEFA00233B6419
:1020B00000237B6407F140031946274802F0CEFB5A
:1020C0000346002B01D000F0EFFA60237B6200236F
:1020D000BB620023FB6200233B6300237B6300237E
:1020E000BB630023FB6307F12403082219461A4847
:1020F00002F03EF80346002B01D000F0D5FA07F1BC
:1021000024030C221946144802F032F80346002B2F
:1021100001D000F0C9FA00237B600023BB600023DC
:10212000FB6000233B6100237B614FF40053BB61E4
:1021300000233B623B1D1946074802F00BFC034697
:10214000002B01D000F0B0FA034800F03FFC00BFC4
:102150004837BD4680BD00BFE803002000040140B1
:1021600080B588B000AF3B1D00221A605A609A60AB
:10217000DA601A615A619A611F4B204A1A601E4B3D
:1021800006225A601C4B00229A601B4B40F2E73239
:10219000DA60194B00221A61174B00229A61164827
:1021A00001F0AAFC0346002B01D000F07DFA602369
:1021B0007B600023BB600023FB6000237B613B1D31
:1021C000002219460C4801F0D3FF0346002B01D032
:1021D00000F06AFA3B1D04221946074801F0C8FFC7
:1021E0000346002B01D000F05FFA034800F0EEFB3D
:1021F00000BF2037BD4680BD3004002000400140B4
:1022000080B58AB000AF07F1140300221A605A604B
:102210009A60DA601A6100233B61294B1B6B284AE4
:1022200043F001031363264B1B6B03F001033B6177
:102230003B690023FB60224B1B6B214A43F00803E0
:1022400013631F4B1B6B03F00803FB60FB68002349
:10225000BB601B4B1B6B1A4A43F004031363184B00
:102260001B6B03F00403BB60BB6800237B60144B53
:102270001B6B134A43F002031363114B1B6B03F0F8
:1022800002037B607B6830237B610023BB610123F9
:10229000FB6107F1140319460A4800F015FEC0233C
:1022A0007B610023BB610123FB6107F11403194625
:1022B000054800F009FE00BF2837BD4680BD00BFBD
:1022C00000380240000002400008024080B582B0A1
:1022D00000AF7860012002F00EFCFBE780B584B00F
:1022E00002AF7860964B00221A704021954800F0AA
:1022F00087FF03461A46944B1A608021914800F0EC
:102300007FFF03461A46914B1A601021904800F057
:1023100077FF03461A468F4B1A6020218C4800F045
:102320006FFF03461A468C4B1A60854B1B78002BB7
:1023300040F07881894B1B78002B5AD1402181488D
:1023400000F05EFF0346012B17D1012002F0D3FB02
:1023500040217C4800F054FF0346012B49D1012164
:102360007F48FEF769FE7F4B00221A607B4B0122FB
:102370001A707D4B00221A603BE07A4B4FF4C87212
:102380001A6002217648FEF7F1FD51EC100B4FF078
:102390000002764BFEF768FB0346002B09D0714B19
:1023A0001B68002B05DD6F4B1B685B426D4A136099
:1023B00016E002216A48FEF7D9FD51EC100B4FF0F0
:1023C00000026B4BFEF732FB0346002B08D0654B37
:1023D0001B68002B04DA634B1B685B42614A136085
:1023E000604B1A680C230093082362496248FEF789
:1023F0003AFE624B1B78002B3DD18021514800F002
:10240000FFFE0346012B17D1012002F074FB80214F
:102410004C4800F0F5FE0346012B2CD10121584811
:10242000FEF70AFE574B00221A60544B01221A7025
:10243000554BBB221A601EE0524B544A1A600221CF
:102440004F48FEF793FD51EC100B4FF00002504B3C
:10245000FEF70AFB0346002B04D04A4B1B685B4285
:10246000484A1360474B1A680C23009308234949D4
:102470004948FEF7F8FD494B1B78002B3CD1102151
:10248000334800F0BDFE0346002B15D1012002F0B9
:1024900032FB10212E4800F0B3FE0346002B2BD157
:1024A00001213F48FEF7C8FD3C4B01221A703D4B0D
:1024B0006FF086021A601FE03B4B4FF496721A6071
:1024C00002213748FEF752FD51EC100B4FF000028D
:1024D0002F4BFEF7C9FA0346002B04D0324B1B6882
:1024E0005B42314A1360304B1A6804230093002387
:1024F00028492E48FEF7B7FD2D4B1B78002B7ED1C7
:102500002021134800F07CFE0346002B58D1012007
:1025100002F0F1FA20210E4800F072FE0346002B73
:102520006DD101212348FEF787FD234B00221A605D
:102530001F4B01221A70214B5A221A605FE000BF24
:102540008404002000080240BC080020C0080020CD
:1025500000000240C4080020C808002098040020A1
:10256000A004002088040020A00500200080564020
:10257000008056C0E8030020E804002099040020F1
:10258000A80500208C040020A806002070FEFFFF94
:102590000000244058030020F00500209A04002089
:1025A000B0060020B007002090040020F8060020AC
:1025B0009B040020B807002094040020B8080020E5
:1025C0001A4B1B4A1A6002211A48FEF7CFFC51EC45
:1025D000100B4FF00002184BFEF746FA0346002B93
:1025E00004D0124B1B685B42104A13600F4B1A68F1
:1025F00004230093002311491148FEF734FD114BC9
:102600001B78012B0ED1104B1B78012B0AD10F4BDD
:102610001B78012B06D10E4B1B78012B02D10D4BE1
:1026200001221A700A2002F066FA5EE69404002085
:10263000D4FEFFFFB8070020000024403004002033
:102640000008002098040020990400209A0400202B
:102650009B0400208404002080B582B000AF786025
:102660000D4B1B78012B01D1FEF78EFF0B4B1B7816
:10267000012B01D1FFF740F8094B1B78012B01D149
:10268000FFF7F2F8074B1B78012B01D1FFF7A4F9F4
:102690000A2002F030FAE3E79804002099040020B1
:1026A0009A0400209B04002080B400AF72B600BFE3
:1026B000FEE7000080B582B000AF00237B60124BC4
:1026C0005B6C114A43F4804353640F4B5B6C03F41F
:1026D00080437B607B6800233B600B4B1B6C0A4A8A
:1026E00043F080531364084B1B6C03F080533B6032
:1026F0003B6800220F216FF0010000F0AEFB00BF2D
:102700000837BD4680BD00BF0038024080B590B09C
:1027100000AF786007F12C0300221A605A609A60BB
:10272000DA601A617B681B68784A934235D10023CE
:10273000BB62774B5B6C764A43F001035364744B86
:102740005B6C03F00103BB62BB6A00237B62704BCE
:102750001B6B6F4A43F0010313636D4B1B6B03F05C
:1027600001037B627B6A4FF44073FB6202233B638D
:1027700000237B630023BB630123FB6307F12C036E
:102780001946644800F0A0FB00220521182000F043
:1027900064FB182000F07DFBB3E07B681B68B3F19D
:1027A000804F4BD100233B62594B1B6C584A43F07E
:1027B00001031364564B1B6C03F001033B623B6A3D
:1027C0000023FB61524B1B6B514A43F0010313631F
:1027D0004F4B1B6B03F00103FB61FB690023BB61E3
:1027E0004B4B1B6B4A4A43F002031363484B1B6B72
:1027F00003F00203BB61BB694FF40043FB62022399
:102800003B6300237B630023BB630123FB6307F16E
:102810002C0319463F4800F057FB0823FB620223B4
:102820003B6300237B630023BB630123FB6307F14E
:102830002C031946384800F047FB62E07B681B68B0
:10284000364A93422CD100237B61314B1B6C304ABA
:1028500043F0020313642E4B1B6C03F002037B61F5
:102860007B6900233B612A4B1B6B294A43F0010320
:102870001363274B1B6B03F001033B613B69C023D0
:10288000FB6202233B6300237B630023BB630223C1
:10289000FB6307F12C0319461E4800F015FB30E0DE
:1028A0007B681B681E4A93422BD10023FB60184BA8
:1028B0001B6C174A43F008031364154B1B6C03F0A1
:1028C0000803FB60FB680023BB60114B1B6B104AC5
:1028D00043F0010313630E4B1B6B03F00103BB605A
:1028E000BB680323FB6202233B6300237B6300235B
:1028F000BB630223FB6307F12C031946054800F074
:10290000E3FA00BF4037BD4680BD00BF0000014074
:102910000038024000000240000402400004004071
:10292000000C004080B586B000AF78607B681B6803
:10293000224A93420ED100237B61214B1B6C204A1B
:1029400043F0040313641E4B1B6C03F004037B6110
:102950007B692EE07B681B681A4A93420ED10023E4
:102960003B61174B5B6C164A43F002035364144BF4
:102970005B6C03F002033B613B691AE07B681B68F8
:10298000114A934215D10023FB600D4B5B6C0C4A3E
:1029900043F4803353640A4B5B6C03F48033FB6075
:1029A000FB6800220521182000F057FA182000F0DB
:1029B00070FA00BF1837BD4680BD00BF0008004058
:1029C00000380240000401400040014080B58AB058
:1029D00000AF786007F1140300221A605A609A6011
:1029E000DA601A617B681B68374A93421FD1002363
:1029F0003B61364B1B6B354A43F008031363334B83
:102A00001B6B03F008033B613B694FF470437B6130
:102A10000223BB610023FB6100233B6202237B6234
:102A200007F1140319462A4800F04EFA47E07B6884
:102A30001B68284A93421FD10023FB60234B1B6B6A
:102A4000224A43F004031363204B1B6B03F004037F
:102A5000FB60FB684FF440737B610223BB61002382
:102A6000FB6100233B6203237B6207F114031946D9
:102A7000194800F029FA22E07B681B68174A934244
:102A80001DD10023BB60114B1B6B104A43F00103A7
:102A900013630E4B1B6B03F00103BB60BB680C237D
:102AA0007B610223BB610023FB6100233B620323A4
:102AB0007B6207F114031946094800F005FA00BFCC
:102AC0002837BD4680BD00BF0008004000380240E6
:102AD000000C024000040140000802400040014098
:102AE0000000024080B400AFFEE780B400AFFEE714
:102AF00080B400AFFEE780B400AFFEE780B400AF63
:102B0000FEE780B400AF00BFBD465DF8047B7047B0
:102B100080B500AF00F0A6F802F070FD0346012B6F
:102B200001D002F0B1FF00BF80BD000080B500AF52
:102B3000034801F02DFA034801F02AFA00BF80BDD6
:102B4000800200203004002080B400AF064BD3F890
:102B50008830054A43F47003C2F8883000BFBD4690
:102B60005DF8047B704700BF00ED00E0DFF834D073
:102B7000FFF7EAFF0C480D490D4A002302E0D45844
:102B8000C4500433C4188C42F9D30A4A0A4C0023B7
:102B900001E013600432A242FBD303F0B7F9FEF761
:102BA00047FF7047000002200000002010000020B6
:102BB0000C6000081000002024460020FEE7000002
:102BC00080B500AF0E4B1B680D4A43F400731360D1
:102BD0000B4B1B680A4A43F480631360084B1B6865
:102BE000074A43F480731360032000F02BF90F2091
:102BF00000F008F8FFF75EFD0023184680BD00BF17
:102C0000003C024080B582B000AF7860124B1A6879
:102C1000124B1B7819464FF47A73B3FBF1F3B2FBF6
:102C2000F3F3184600F043F90346002B01D00123CB
:102C30000EE07B680F2B0AD8002279684FF0FF3036
:102C400000F00BF9064A7B681360002300E00123C3
:102C500018460837BD4680BD00000020080000204F
:102C60000400002080B400AF064B1B781A46064BC8
:102C70001B681344044A136000BFBD465DF8047B23
:102C8000704700BF08000020CC08002080B400AFCF
:102C9000034B1B681846BD465DF8047B704700BFB8
:102CA000CC08002080B485B000AF78607B6803F06A
:102CB0000703FB600C4BDB68BB60BA684FF6FF0391
:102CC0001340BB60FB681A02BB68134343F0BF6349
:102CD00043F40033BB60044ABB68D36000BF1437C1
:102CE000BD465DF8047B704700ED00E080B400AFA6
:102CF000044BDB681B0A03F007031846BD465DF86A
:102D0000047B704700ED00E080B483B000AF034661
:102D1000FB7197F90730002B0BDBFB7903F01F02E7
:102D2000074997F907305B09012000FA02F241F8E0
:102D3000232000BF0C37BD465DF8047B704700BF01
:102D400000E100E080B483B000AF03463960FB715E
:102D500097F90730002B0ADB3B68DAB20C4997F988
:102D600007301201D2B20B4483F800230AE03B681B
:102D7000DAB20849FB7903F00F03043B1201D2B227
:102D80000B441A7600BF0C37BD465DF8047B7047D4
:102D900000E100E000ED00E080B489B000AFF86031
:102DA000B9607A60FB6803F00703FB61FB69C3F15C
:102DB0000703042B28BF0423BB61FB690433062BE4
:102DC00002D9FB69033B00E000237B614FF0FF3237
:102DD000BB6902FA03F3DA43BB681A407B699A4085
:102DE0004FF0FF317B6901FA03F3D9437B680B4055
:102DF000134318462437BD465DF8047B7047000036
:102E000080B582B000AF78607B68013BB3F1807F12
:102E100001D301230FE00A4A7B68013B53600F2175
:102E20004FF0FF30FFF78EFF054B00229A60044BF6
:102E300007221A60002318460837BD4680BD00BF30
:102E400010E000E080B582B000AF78607868FFF7EE
:102E500029FF00BF0837BD4680BD80B586B000AFF2
:102E60000346B9607A60FB7300237B61FFF73EFF86
:102E700078617A68B9687869FFF78EFF024697F93A
:102E80000F3011461846FFF75DFF00BF1837BD46EB
:102E900080BD80B582B000AF0346FB7197F9073063
:102EA0001846FFF731FF00BF0837BD4680BD80B52B
:102EB00082B000AF78607868FFF7A2FF034618463B
:102EC0000837BD4680BD000080B489B000AF78608F
:102ED000396000237B6100233B610023BB61002339
:102EE000FB616BE10122FB6902FA03F37B613B6842
:102EF0001B687A6913403B613A697B699A4240F0EA
:102F00005A813B685B6803F00303012B05D03B68E3
:102F10005B6803F00303022B30D17B689B68BB61C5
:102F2000FB695B00032202FA03F3DB43BA69134037
:102F3000BB613B68DA68FB695B0002FA03F3BA69BC
:102F40001343BB617B68BA699A607B685B68BB614D
:102F50000122FB6902FA03F3DB43BA691340BB6148
:102F60003B685B681B0903F00102FB6902FA03F38B
:102F7000BA691343BB617B68BA695A603B685B6896
:102F800003F00303032B17D07B68DB68BB61FB698D
:102F90005B00032202FA03F3DB43BA691340BB610F
:102FA0003B689A68FB695B0002FA03F3BA69134352
:102FB000BB617B68BA69DA603B685B6803F0030356
:102FC000022B23D1FB69DA087B68083253F82230E0
:102FD000BB61FB6903F007039B000F2202FA03F3B6
:102FE000DB43BA691340BB613B681A69FB6903F0B4
:102FF00007039B0002FA03F3BA691343BB61FB6941
:10300000DA087B680832B96943F822107B681B68CC
:10301000BB61FB695B00032202FA03F3DB43BA697D
:103020001340BB613B685B6803F00302FB695B0014
:1030300002FA03F3BA691343BB617B68BA691A6089
:103040003B685B6803F44033002B00F0B48000233E
:10305000FB60604B5B6C5F4A43F4804353645D4BA1
:103060005B6C03F48043FB60FB685B4AFB699B0875
:10307000023352F82330BB61FB6903F003039B006A
:103080000F2202FA03F3DB43BA691340BB617B688A
:10309000524A93422BD07B68514A934225D07B6899
:1030A000504A93421FD07B684F4A934219D07B68A5
:1030B0004E4A934213D07B684D4A93420DD07B68B1
:1030C0004C4A934207D07B684B4A934201D1072375
:1030D0000EE008230CE006230AE0052308E00423A1
:1030E00006E0032304E0022302E0012300E00023C2
:1030F000FA6902F0030292009340BA691343BB617C
:103100003549FB699B080233BA6941F823203B4BE0
:103110009B68BB613B69DB43BA691340BB613B6899
:103120005B6803F48013002B03D0BA693B69134337
:10313000BB61324ABB699360304BDB68BB613B6962
:10314000DB43BA691340BB613B685B6803F400135F
:10315000002B03D0BA693B691343BB61274ABB69A3
:10316000D360264B5B68BB613B69DB43BA691340A4
:10317000BB613B685B6803F40033002B03D0BA6982
:103180003B691343BB611D4ABB6953601B4B1B6802
:10319000BB613B69DB43BA691340BB613B685B6859
:1031A00003F48033002B03D0BA693B691343BB613E
:1031B000124ABB691360FB690133FB61FB690F2B8A
:1031C0007FF690AE00BF00BF2437BD465DF8047B9C
:1031D000704700BF00380240003801400000024044
:1031E0000004024000080240000C024000100240AF
:1031F0000014024000180240001C0240003C014044
:1032000080B485B000AF78600B467B807B681A691C
:103210007B881340002B02D00123FB7301E00023C5
:10322000FB73FB7B18461437BD465DF8047B704783
:1032300080B586B000AF78607B68002B01D1012398
:1032400067E27B681B6803F00103002B75D0884B95
:103250009B6803F00C03042B0CD0854B9B6803F098
:103260000C03082B12D1824B5B6803F48003B3F587
:10327000800F0BD17E4B1B6803F40033002B5BD017
:103280007B685B68002B57D1012342E27B685B6857
:10329000B3F5803F06D1764B1B68754A43F4803303
:1032A00013601DE07B685B68B3F5A02F0CD1704BF9
:1032B0001B686F4A43F4802313606D4B1B686C4A94
:1032C00043F4803313600BE0694B1B68684A23F4B6
:1032D00080331360664B1B68654A23F480231360B8
:1032E0007B685B68002B13D0FFF7D0FC386108E0E7
:1032F000FFF7CCFC02463B69D31A642B01D90323A8
:1033000007E25B4B1B6803F40033002BF0D014E0A2
:10331000FFF7BCFC386108E0FFF7B8FC02463B69E8
:10332000D31A642B01D90323F3E1514B1B6803F437
:103330000033002BF0D100E000BF7B681B6803F076
:103340000203002B63D04A4B9B6803F00C03002B55
:103350000BD0474B9B6803F00C03082B1CD1444B4C
:103360005B6803F48003002B16D1414B1B6803F00C
:103370000203002B05D07B68DB68012B01D0012301
:10338000C7E13B4B1B6823F0F8027B681B69DB003D
:10339000374913430B603AE07B68DB68002B20D091
:1033A000344B01221A60FFF771FC386108E0FFF727
:1033B0006DFC02463B69D31A022B01D90323A8E115
:1033C0002B4B1B6803F00203002BF0D0284B1B682B
:1033D00023F0F8027B681B69DB00254913430B606F
:1033E00015E0244B00221A60FFF750FC386108E01A
:1033F000FFF74CFC02463B69D31A022B01D9032389
:1034000087E11B4B1B6803F00203002BF0D17B68A4
:103410001B6803F00803002B36D07B685B69002B28
:1034200016D0154B01221A60FFF730FC386108E016
:10343000FFF72CFC02463B69D31A022B01D9032368
:1034400067E10B4B5B6F03F00203002BF0D01BE036
:10345000094B00221A60FFF719FC38610EE0FFF7F4
:1034600015FC02463B69D31A022B07D9032350E10E
:103470000038024000004742800E4742884B5B6F95
:1034800003F00203002BEAD17B681B6803F00403FE
:10349000002B00F097800023FB75814B1B6C03F021
:1034A0008053002B0FD10023BB607D4B1B6C7C4AEB
:1034B00043F0805313647A4B1B6C03F08053BB6062
:1034C000BB680123FB75774B1B6803F48073002BEB
:1034D00018D1744B1B68734A43F480731360FFF771
:1034E000D5FB386108E0FFF7D1FB02463B69D31AF0
:1034F000022B01D903230CE16A4B1B6803F4807390
:10350000002BF0D07B689B68012B06D1644B1B6FAE
:10351000634A43F0010313671CE07B689B68052B3B
:103520000CD15F4B1B6F5E4A43F0040313675C4B87
:103530001B6F5B4A43F0010313670BE0584B1B6F93
:10354000574A23F001031367554B1B6F544A23F06E
:10355000040313677B689B68002B15D0FFF796FB6D
:1035600038610AE0FFF792FB02463B69D31A41F249
:103570008832934201D90323CBE0494B1B6F03F000
:103580000203002BEED014E0FFF780FB38610AE065
:10359000FFF77CFB02463B69D31A41F28832934223
:1035A00001D90323B5E03E4B1B6F03F00203002B50
:1035B000EED1FB7D012B05D1394B1B6C384A23F032
:1035C000805313647B689B69002B00F0A180344B0F
:1035D0009B6803F00C03082B5CD07B689B69022B73
:1035E00041D1314B00221A60FFF750FB386108E0EF
:1035F000FFF74CFB02463B69D31A022B01D9032388
:1036000087E0274B1B6803F00073002BF0D17B6829
:10361000DA697B681B6A1A437B685B6A9B011A4301
:103620007B689B6A5B08013B1B041A437B68DB6A6F
:103630001B061B4913434B601B4B01221A60FFF70B
:1036400025FB386108E0FFF721FB02463B69D31AEE
:10365000022B01D903235CE0114B1B6803F00073BC
:10366000002BF0D054E0104B00221A60FFF70EFB45
:10367000386108E0FFF70AFB02463B69D31A022BC8
:1036800001D9032345E0064B1B6803F00073002BB0
:10369000F0D13DE07B689B69012B07D1012338E025
:1036A0000038024000700040600047421B4B5B68DE
:1036B000FB607B689B69012B28D0FB6803F48002C8
:1036C0007B68DB699A4221D1FB6803F03F027B688B
:1036D0001B6A9A421AD1FA6847F6C07313407A6897
:1036E000526A9201934211D1FB6803F440327B6825
:1036F0009B6A5B08013B1B049A4207D1FB6803F0FD
:1037000070627B68DB6A1B069A4201D0012300E0ED
:10371000002318461837BD4680BD00BF0038024060
:1037200080B584B000AF786039607B68002B01D130
:103730000123CCE0684B1B6803F007033A689A4208
:103740000CD9654B3A68D2B21A70634B1B6803F010
:1037500007033A689A4201D00123B8E07B681B68EE
:1037600003F00203002B20D07B681B6803F00403E6
:10377000002B05D0594B9B68584A43F4E0539360A3
:103780007B681B6803F00803002B05D0534B9B6834
:10379000524A43F460439360504B9B6823F0F0021D
:1037A0007B689B684D4913438B607B681B6803F003
:1037B0000103002B44D07B685B68012B07D1474B8A
:1037C0001B6803F40033002B19D101237FE07B68D1
:1037D0005B68022B03D07B685B68032B07D13F4BF0
:1037E0001B6803F00073002B09D101236FE03B4BF2
:1037F0001B6803F00203002B01D1012367E0374B64
:103800009B6823F003027B685B68344913438B6039
:10381000FFF73CFAF8600AE0FFF738FA0246FB6867
:10382000D31A41F28832934201D903234FE02B4B44
:103830009B6803F00C027B685B689B009A42EBD1AB
:10384000254B1B6803F007033A689A420CD2224BBF
:103850003A68D2B21A70204B1B6803F007033A682B
:103860009A4201D0012332E07B681B6803F0040315
:10387000002B08D0194B9B6823F4E0527B68DB686F
:10388000164913438B607B681B6803F00803002B09
:1038900009D0124B9B6823F460427B681B69DB00F4
:1038A0000E4913438B6000F021F802460B4B9B68D6
:1038B0001B0903F00F030A49CB5C22FA03F3094A00
:1038C0001360094B1B681846FFF79CF90023184644
:1038D0001037BD4680BD00BF003C024000380240AA
:1038E000EC5F000800000020040000202DE9B04F2C
:1038F00094B000AF00237B640023FB6400233B648F
:103900000023BB64794B9B6803F00C03082B0DD09C
:10391000082B00F2E180002B02D0042B03D0DBE067
:10392000734BBB64DBE0734BBB64D8E06F4B5B68ED
:1039300003F03F037B646D4B5B6803F48003002B53
:1039400063D06A4B5B689B090022BB63FA63BB6B65
:10395000C3F308033B6300237B63D7E90C4522468E
:103960002B464FF000004FF00001590141EAD261AF
:10397000500102460B462146511A3961294663EB34
:1039800001037B614FF000024FF00003D7E904AB65
:1039900059468B01514643EA916351468A0151468B
:1039A000B2EB0108594663EB01094FF000024FF0FA
:1039B00000034FEAC90343EA58734FEAC80290462E
:1039C0009946234618EB0303BB602B4649EB0303E0
:1039D000FB604FF000024FF00003D7E90245294693
:1039E0004B02214643EAD15321464A02104619466A
:1039F0007B6C0022BB62FA62D7E90A23FDF78EF8DE
:103A000002460B461346FB6458E0384B5B689B0943
:103A1000002218461146C0F308033B6200237B6274
:103A2000D7E9088942464B464FF000004FF00001AD
:103A3000590141EAD261500102460B464146B2EBC0
:103A4000010A494663EB010B4FF000024FF00003FF
:103A50004FEA8B1343EA9A634FEA8A12B2EB0A04E5
:103A600063EB0B054FF000024FF00003EB0043EA5D
:103A70005473E20014461D464346E3183B604B4630
:103A800045EB03037B604FF000024FF00003D7E9E2
:103A9000004529468B02214643EA915321468A027A
:103AA000104619467B6C0022BB61FA61D7E90623F8
:103AB000FDF734F802460B461346FB640B4B5B687C
:103AC0001B0C03F0030301335B003B64FA6C3B6C9B
:103AD000B2FBF3F3BB6402E0054BBB6400BFBB6CFD
:103AE00018465037BD46BDE8B08F00BF00380240D1
:103AF0000024F40000127A0080B582B000AF786034
:103B00007B68002B01D1012341E07B6893F83D30B5
:103B1000DBB2002B06D17B68002283F83C2078685A
:103B2000FEF700FF7B68022283F83D207B681A685D
:103B30007B6804331946104600F00EFC7B680122B6
:103B400083F846207B68012283F83E207B680122AF
:103B500083F83F207B68012283F840207B680122A4
:103B600083F841207B68012283F842207B68012290
:103B700083F843207B68012283F844207B6801227C
:103B800083F845207B68012283F83D2000231846F6
:103B90000837BD4680BD000080B584B000AF7860B6
:103BA00039603B68002B09D17B6893F83E30DBB26B
:103BB000012B14BF01230023DBB222E03B68042B5E
:103BC00009D17B6893F83F30DBB2012B14BF01238E
:103BD0000023DBB215E03B68082B09D17B6893F822
:103BE0004030DBB2012B14BF01230023DBB208E01D
:103BF0007B6893F84130DBB2012B14BF0123002313
:103C0000DBB2002B01D001237CE03B68002B04D108
:103C10007B68022283F83E2013E03B68042B04D12A
:103C20007B68022283F83F200BE03B68082B04D11D
:103C30007B68022283F8402003E07B68022283F83D
:103C400041207B681B6801223968184600F0E0FDBE
:103C50007B681B682D4A934204D07B681B682C4A02
:103C6000934201D1012300E00023002B07D07B68A1
:103C70001B685A6C7B681B6842F400425A647B687C
:103C80001B68224A934222D07B681B68B3F1804FA5
:103C90001DD07B681B681F4A934218D07B681B6845
:103CA0001D4A934213D07B681B681C4A93420ED076
:103CB0007B681B68164A934209D07B681B68184AC8
:103CC000934204D07B681B68164A934211D17B68EB
:103CD0001B689B6803F00703FB60FB68062B10D092
:103CE0007B681B681A687B681B6842F001021A60D7
:103CF00007E07B681B681A687B681B6842F001025A
:103D00001A60002318461037BD4680BD00000140F0
:103D1000000401400004004000080040000C004086
:103D2000004001400018004080B586B000AF7860C8
:103D300039607B68002B01D1012397E07B6893F801
:103D40003D30DBB2002B06D17B68002283F83C209B
:103D50007868FEF7DBFC7B68022283F83D207B68F5
:103D60001B689B687A68126823F4804323F007037A
:103D700093607B681A687B6804331946104600F02C
:103D8000EBFA7B681B689B687B617B681B689B699F
:103D90003B617B681B681B6AFB603B681B687A6938
:103DA00013437B613B6923F4407323F003033B61BE
:103DB0003B689A683B689B691B0213433A6913434B
:103DC0003B613B6923F4406323F00C033B613B6997
:103DD00023F4704323F0F0033B613B68DA683B68EF
:103DE000DB691B0213433A6913433B613B681B6960
:103DF0001A013B681B6A1B0313433A6913433B6177
:103E0000FB6823F02203FB60FB6823F08803FB6060
:103E10003B685A683B685B691B011343FA681343AC
:103E2000FB607B681B687A699A607B681B683A69EB
:103E30009A617B681B68FA681A627B68012283F8C2
:103E400046207B68012283F83E207B68012283F8AC
:103E50003F207B68012283F842207B68012283F89F
:103E600043207B68012283F83D2000231846183741
:103E7000BD4680BD80B584B000AF786039607B6896
:103E800093F83E30FB737B6893F83F30BB737B68DD
:103E900093F842307B737B6893F843303B733B6805
:103EA000002B10D1FB7B012B02D17B7B012B01D09E
:103EB000012369E07B68022283F83E207B680222AE
:103EC00083F8422031E03B68042B10D1BB7B012BEF
:103ED00002D13B7B012B01D0012355E07B680222FC
:103EE00083F83F207B68022283F843201DE0FB7BA0
:103EF000012B08D1BB7B012B05D17B7B012B02D190
:103F00003B7B012B01D001233EE07B68022283F83A
:103F10003E207B68022283F83F207B68022283F8E0
:103F200042207B68022283F843203B68002B03D0A9
:103F30003B68042B08D00FE07B681B68012200213E
:103F4000184600F065FC16E07B681B68012204211E
:103F5000184600F05DFC0EE07B681B680122002122
:103F6000184600F055FC7B681B68012204211846A6
:103F700000F04EFC00BF7B681B681A687B681B68FA
:103F800042F001021A60002318461037BD4680BD7A
:103F900080B584B000AF78607B681B68DB68FB602D
:103FA0007B681B681B69BB60BB6803F00203002BC6
:103FB00020D0FB6803F00203002B1BD07B681B683A
:103FC0006FF002021A617B6801221A777B681B6816
:103FD0009B6903F00303002B03D0786800F09EF97F
:103FE00005E0786800F090F9786800F0A1F97B6846
:103FF00000221A77BB6803F00403002B20D0FB6873
:1040000003F00403002B1BD07B681B686FF00402D5
:104010001A617B6802221A777B681B689B6903F42C
:104020004073002B03D0786800F078F905E07868D9
:1040300000F06AF9786800F07BF97B6800221A7753
:10404000BB6803F00803002B20D0FB6803F00803D3
:10405000002B1BD07B681B686FF008021A617B681D
:1040600004221A777B681B68DB6903F00303002BCB
:1040700003D0786800F052F905E0786800F044F960
:10408000786800F055F97B6800221A77BB6803F066
:104090001003002B20D0FB6803F01003002B1BD073
:1040A0007B681B686FF010021A617B6808221A7720
:1040B0007B681B68DB6903F44073002B03D07868CE
:1040C00000F02CF905E0786800F01EF9786800F03F
:1040D0002FF97B6800221A77BB6803F00103002BDD
:1040E0000CD0FB6803F00103002B07D07B681B6832
:1040F0006FF001021A61786800F0FCF8BB6803F009
:104100008003002B0CD0FB6803F08003002B07D04A
:104110007B681B686FF080021A61786800F076FC9B
:10412000BB6803F04003002B0CD0FB6803F0400396
:10413000002B07D07B681B686FF040021A6178681B
:1041400000F000F9BB6803F02003002B0CD0FB68E3
:1041500003F02003002B07D07B681B686FF0200260
:104160001A61786800F048FC00BF1037BD4680BD7A
:1041700080B586B000AFF860B9607A600023FB7547
:10418000FB6893F83C30012B01D10223AEE0FB68C1
:10419000012283F83C207B680C2B00F29F8001A257
:1041A00052F823F0D9410008DD420008DD42000842
:1041B000DD42000819420008DD420008DD42000827
:1041C000DD4200085B420008DD420008DD420008D5
:1041D000DD4200089B420008FB681B68B96818466E
:1041E00000F066F9FB681B689A69FB681B6842F07F
:1041F00008029A61FB681B689A69FB681B6822F0D9
:1042000004029A61FB681B689969BB681A69FB68BC
:104210001B680A439A6164E0FB681B68B96818462A
:1042200000F0B6F9FB681B689A69FB681B6842F4EA
:1042300000629A61FB681B689A69FB681B6822F43C
:1042400080629A61FB681B689969BB681B691A02E6
:10425000FB681B680A439A6143E0FB681B68B96806
:10426000184600F00BFAFB681B68DA69FB681B68EC
:1042700042F00802DA61FB681B68DA69FB681B68B8
:1042800022F00402DA61FB681B68D969BB681A690D
:10429000FB681B680A43DA6123E0FB681B68B968A6
:1042A000184600F05FFAFB681B68DA69FB681B6858
:1042B00042F40062DA61FB681B68DA69FB681B681C
:1042C00022F48062DA61FB681B68D969BB681B69EC
:1042D0001A02FB681B680A43DA6102E00123FB75DE
:1042E00000BFFB68002283F83C20FB7D184618378E
:1042F000BD4680BD80B483B000AF786000BF0C378E
:10430000BD465DF8047B704780B483B000AF786031
:1043100000BF0C37BD465DF8047B704780B483B0A6
:1043200000AF786000BF0C37BD465DF8047B704776
:1043300080B483B000AF786000BF0C37BD465DF835
:10434000047B704780B483B000AF786000BF0C3747
:10435000BD465DF8047B704780B485B000AF7860DF
:1043600039607B681B68FB607B68464A934213D0C8
:104370007B68B3F1804F0FD07B68434A93420BD0E8
:104380007B68424A934207D07B68414A934203D0FC
:104390007B68404A934208D1FB6823F07003FB60BE
:1043A0003B685B68FA681343FB607B68354A93425D
:1043B0002BD07B68B3F1804F27D07B68324A934281
:1043C00023D07B68314A93421FD07B68304A9342A6
:1043D0001BD07B682F4A934217D07B682E4A9342AA
:1043E00013D07B682D4A93420FD07B682C4A9342AE
:1043F0000BD07B682B4A934207D07B682A4A9342B2
:1044000003D07B68294A934208D1FB6823F44073A8
:10441000FB603B68DB68FA681343FB60FB6823F0D2
:1044200080023B685B691343FB607B68FA681A6033
:104430003B689A687B68DA623B681A687B689A62B4
:104440007B68104A934203D07B68124A934203D19F
:104450003B681A697B681A637B6801225A617B6832
:104460001B6903F00103012B05D17B681B6923F055
:1044700001027B681A6100BF1437BD465DF8047BFA
:10448000704700BF000001400004004000080040E9
:10449000000C004000040140004001400044014085
:1044A0000048014000180040001C0040002000406F
:1044B00080B487B000AF786039607B681B6A7B612D
:1044C0007B681B6A23F001027B681A627B685B6869
:1044D0003B617B689B69FB60FB6823F07003FB60BA
:1044E000FB6823F00303FB603B681B68FA68134317
:1044F000FB607B6923F002037B613B689B687A6900
:1045000013437B617B68204A934203D07B681F4A38
:1045100093420CD17B6923F008037B613B68DB6825
:104520007A6913437B617B6923F004037B617B68B9
:10453000154A934203D07B68144A934211D13B69D8
:1045400023F480733B613B6923F400733B613B6858
:104550005B693A6913433B613B689B693A69134362
:104560003B617B683A695A607B68FA689A613B688C
:104570005A687B685A637B687A691A6200BF1C3785
:10458000BD465DF8047B7047000001400004014017
:1045900080B487B000AF786039607B681B6A7B614C
:1045A0007B681B6A23F010027B681A627B685B6879
:1045B0003B617B689B69FB60FB6823F4E043FB6025
:1045C000FB6823F44073FB603B681B681B02FA68BE
:1045D0001343FB607B6923F020037B613B689B688E
:1045E0001B017A6913437B617B68224A934203D0A3
:1045F0007B68214A93420DD17B6923F080037B6164
:104600003B68DB681B017A6913437B617B6923F09C
:1046100040037B617B68174A934203D07B68164A4C
:10462000934213D13B6923F480633B613B6923F4DC
:1046300000633B613B685B699B003A6913433B61E4
:104640003B689B699B003A6913433B617B683A690D
:104650005A607B68FA689A613B685A687B689A631B
:104660007B687A691A6200BF1C37BD465DF8047B1F
:10467000704700BF000001400004014080B487B0D3
:1046800000AF786039607B681B6A7B617B681B6A5E
:1046900023F480727B681A627B685B683B617B688D
:1046A000DB69FB60FB6823F07003FB60FB6823F0B1
:1046B0000303FB603B681B68FA681343FB607B697C
:1046C00023F400737B613B689B681B027A69134388
:1046D0007B617B68214A934203D07B68204A9342E6
:1046E0000DD17B6923F400637B613B68DB681B02AF
:1046F0007A6913437B617B6923F480637B617B6808
:10470000164A934203D07B68154A934213D13B6902
:1047100023F480533B613B6923F400533B613B68C6
:104720005B691B013A6913433B613B689B691B0151
:104730003A6913433B617B683A695A607B68FA685F
:10474000DA613B685A687B68DA637B687A691A6267
:1047500000BF1C37BD465DF8047B70470000014078
:104760000004014080B487B000AF786039607B6896
:104770001B6A3B617B681B6A23F480527B681A6268
:104780007B685B687B617B68DB69FB60FB6823F4AB
:10479000E043FB60FB6823F44073FB603B681B68ED
:1047A0001B02FA681343FB603B6923F400533B612F
:1047B0003B689B681B033A6913433B617B68124A61
:1047C000934203D07B68114A934209D17B6923F459
:1047D00080437B613B685B699B017A6913437B6122
:1047E0007B687A695A607B68FA68DA613B685A6864
:1047F0007B681A647B683A691A6200BF1C37BD4641
:104800005DF8047B704700BF0000014000040140D8
:1048100080B487B000AFF860B9607A60BB6803F01D
:104820001F03012202FA03F37B61FB681A6A7B69AA
:10483000DB431A40FB681A62FB681A6ABB6803F024
:104840001F03796801FA03F31A43FB681A6200BF79
:104850001C37BD465DF8047B7047000080B485B00E
:1048600000AF786039607B6893F83C30012B01D150
:1048700002235AE07B68012283F83C207B680222F5
:1048800083F83D207B681B685B68FB607B681B6866
:104890009B68BB60FB6823F07003FB603B681B6890
:1048A000FA681343FB607B681B68FA685A607B6890
:1048B0001B68214A934222D07B681B68B3F1804F6A
:1048C0001DD07B681B681D4A934218D07B681B680B
:1048D0001B4A934213D07B681B681A4A93420ED03E
:1048E0007B681B68184A934209D07B681B68174A8B
:1048F000934204D07B681B68154A93420CD1BB6875
:1049000023F08003BB603B685B68BA681343BB60FD
:104910007B681B68BA689A607B68012283F83D2037
:104920007B68002283F83C20002318461437BD46DC
:104930005DF8047B704700BF0000014000040040A8
:1049400000080040000C004000040140004001400D
:104950000018004080B485B000AF78603960002353
:10496000FB607B6893F83C30012B01D102233DE0D2
:104970007B68012283F83C20FB6823F0FF023B6840
:10498000DB681343FB60FB6823F440723B689B6861
:104990001343FB60FB6823F480623B685B6813434E
:1049A000FB60FB6823F400623B681B681343FB60F9
:1049B000FB6823F480523B681B691343FB60FB6870
:1049C00023F400523B685B691343FB60FB6823F4EC
:1049D00080423B68DB691343FB607B681B68FA68B5
:1049E0005A647B68002283F83C2000231846143761
:1049F000BD465DF8047B704780B483B000AF78603B
:104A000000BF0C37BD465DF8047B704780B483B0AF
:104A100000AF786000BF0C37BD465DF8047B70477F
:104A200080B485B000AF0346FB800023FB60B7F97C
:104A30000630842B05D0B7F90620FB6813440333F6
:104A4000FB60FB6818461437BD465DF8047B704771
:104A500080B500AF00F0DEFA0023184680BDF0B547
:104A600089B004AF786039607B685B69002B20D027
:104A70007B689B69002B1CD07B685C687B681D6829
:104A80007B681E697B68B3F908301846FFF7C8FFDA
:104A900001467B685B697A68926902920193009192
:104AA0003B6832462946204600F0EDF80346FB609D
:104AB0001CE07B685C687B681D687B681B699EB234
:104AC0007B68B3F908301846FFF7AAFF024607F1E2
:104AD0000C03019300923B6832462946204600F0C1
:104AE0002FF90346012B01D0002300E0FB68184694
:104AF0001437BD46F0BD80B584B000AF78607B68E8
:104B0000FB60FB68002B01D0FB6800E00123184626
:104B100000F04CFA002318461037BD4680BD80B423
:104B200083B000AF78607B6803F108027B685A604D
:104B30007B684FF0FF329A607B6803F108027B6864
:104B4000DA607B6803F108027B681A617B680022E7
:104B50001A6000BF0C37BD465DF8047B704780B417
:104B600083B000AF78607B6800221A6100BF0C3709
:104B7000BD465DF8047B704780B485B000AF7860B7
:104B800039607B685B68FB603B68FA685A60FB6869
:104B90009A683B689A60FB689B683A685A60FB6851
:104BA0003A689A603B687A681A617B681B685A1C8D
:104BB0007B681A6000BF1437BD465DF8047B704700
:104BC00080B485B000AF786039603B681B68BB601B
:104BD000BB68B3F1FF3F03D17B681B69FB600CE04E
:104BE0007B680833FB6002E0FB685B68FB60FB6886
:104BF0005B681B68BA689A42F6D2FB685A683B68E1
:104C00005A603B685B683A689A603B68FA689A60E9
:104C1000FB683A685A603B687A681A617B681B686F
:104C20005A1C7B681A6000BF1437BD465DF8047BD0
:104C3000704780B485B000AF78607B681B69FB600B
:104C40007B685B687A6892689A607B689B687A6820
:104C500052685A60FB685B687A689A4203D17B6845
:104C60009A68FB685A607B6800221A61FB681B68BF
:104C70005A1EFB681A60FB681B6818461437BD464D
:104C80005DF8047B704780B58EB004AFF860B96002
:104C90007A603B607B6B002B0AD14FF0500383F3AB
:104CA0001188BFF36F8FBFF34F8F3B6200BFFEE7EA
:104CB000BB6B002B0AD14FF0500383F31188BFF375
:104CC0006F8FBFF34F8FFB6100BFFEE754233B6143
:104CD0003B69542B0AD04FF0500383F31188BFF384
:104CE0006F8FBFF34F8FBB6100BFFEE73B69BB6BAC
:104CF000002B1ED07B6B002B1BD0BB6B7B627B6AB7
:104D00007A6B1A637B6A022283F851200023039393
:104D10007B6A029307F1140301933B6B00933B689A
:104D20007A68B968F86800F050F8786A00F0D4F84A
:104D300001E000237B617B6918462837BD4680BDB2
:104D400080B58CB004AFF860B9603B601346FB805F
:104D5000FB889B00184600F0E7FE78617B69002B1A
:104D60000ED0542000F0E0FEF861FB69002B03D068
:104D7000FB697A691A6305E0786900F0A1FF01E038
:104D80000023FB61FB69002B17D0FB69002283F82D
:104D90005120FA8800230393FB690293FB6A019375
:104DA000BB6A00933B68B968F86800F00EF8F869D0
:104DB00000F092F80123BB6102E04FF0FF33BB61CA
:104DC000BB6918462037BD4680BD80B588B000AFAE
:104DD000F860B9607A603B603B6B1A6B7B6803F1EB
:104DE0008043013B9B001344BB61BB6923F0070375
:104DF000BB61BB6903F00703002B0AD04FF05003DF
:104E000083F31188BFF36F8FBFF34F8F7B6100BFB8
:104E1000FEE7BB68002B1FD00023FB6112E0BA68DD
:104E2000FB69134419783A6BFB69134434330A461F
:104E30001A70BA68FB6913441B78002B06D0FB6913
:104E40000133FB61FB690F2BE9D900E000BF3B6B2D
:104E5000002283F8432003E03B6B002283F83420D8
:104E6000BB6A062B01D90623BB623B6BBA6ADA62C6
:104E70003B6BBA6A5A643B6B00229A643B6B043307
:104E80001846FFF76CFE3B6B18331846FFF767FEBA
:104E90003B6B3A6B1A61BB6AC3F107023B6B9A61C9
:104EA0003B6B3A6B5A623B6B0022DA643B6B00222D
:104EB00083F850203A68F968B86900F023FC02468C
:104EC0003B6B1A60FB6A002B02D0FB6A3A6B1A60DC
:104ED00000BF2037BD4680BD80B582B000AF78608E
:104EE00000F040FD2A4B1B680133294A1360294B0F
:104EF0001B68002B09D1274A7B681360244B1B6871
:104F0000012B10D100F0BCFA0DE0234B1B68002BE5
:104F100009D1204B1B68DA6A7B68DB6A9A4202D8A7
:104F20001C4A7B6813601D4B1B6801331B4A1360CE
:104F30007B68DB6A01229A40194B1B681343184AAD
:104F400013607B68DA6A13469B0013449B00154A82
:104F50001A447B68043319461046FFF70DFE00F033
:104F600031FD0D4B1B68002B0ED00A4B1B68DA6A13
:104F70007B68DB6A9A4207D20B4B4FF080521A6073
:104F8000BFF34F8FBFF36F8F00BF0837BD4680BDA3
:104F9000D0090020D0080020DC090020EC09002006
:104FA000D8090020D408002004ED00E080B584B0CA
:104FB00000AF78600023FB607B68002B17D0134B99
:104FC0001B68002B0AD04FF0500383F31188BFF306
:104FD0006F8FBFF34F8FBB6000BFFEE700F07AF822
:104FE0000021786800F028FB00F082F8F860FB6888
:104FF000002B07D1064B4FF080521A60BFF34F8F42
:10500000BFF36F8F00BF1037BD4680BDF809002089
:1050100004ED00E080B58AB004AF0023BB6000233C
:105020007B603A46391D07F108031846FCF704FA7D
:1050300039687B68BA6802920193002300930023C9
:105040000A461E491E48FFF71EFE03461D4A13600E
:105050001C4B1B68002B02D001237B6101E0002365
:105060007B617B69012B16D14FF0500383F31188CC
:10507000BFF36F8FBFF34F8F3B6100BF124B4FF0F9
:10508000FF321A60114B01221A60114B00221A6084
:1050900000F0C6FB0EE07B69B3F1FF3F0AD14FF091
:1050A000500383F31188BFF36F8FBFF34F8FFB6003
:1050B00000BFFEE700BF1837BD4680BDE45F0008B3
:1050C00051540008F4090020F0090020DC090020F8
:1050D000D409002080B400AF044B1B680133034A9D
:1050E000136000BFBD465DF8047B7047F8090020DF
:1050F00080B584B000AF0023FB600023BB60414B50
:105100001B68002B0AD14FF0500383F31188BFF3C3
:105110006F8FBFF34F8F3B6000BFFEE700F022FCB4
:10512000384B1B68013B374A1360364B1B68002B1A
:1051300061D1354B1B68002B5DD02EE0334BDB6813
:10514000DB68FB60FB6818331846FFF772FDFB68ED
:1051500004331846FFF76DFDFB68DB6A01229A40B5
:105160002B4B1B6813432A4A1360FB68DA6A134609
:105170009B0013449B00274A1A44FB6804331946DA
:105180001046FFF7F9FCFB68DA6A234B1B68DB6A01
:105190009A4202D3214B01221A601C4B1B68002B40
:1051A000CCD1FB68002B01D000F008FA1C4B1B6827
:1051B0007B607B68002B10D000F036F80346002B94
:1051C00002D0164B01221A607B68013B7B607B6832
:1051D000002BF1D1124B00221A60104B1B68002BE0
:1051E00009D00123BB600F4B4FF080521A60BFF310
:1051F0004F8FBFF36F8F00F0E5FBBB681846103789
:10520000BD4680BDF8090020D0090020900900208B
:10521000D8090020D4080020D0080020E40900208C
:10522000E009002004ED00E080B586B000AF002367
:105230007B614E4B1B68002B40F08E804C4B1B68F3
:1052400001333B614A4A3B6913603B69002B20D123
:10525000484B1B681B68002B0AD04FF0500383F3A8
:105260001188BFF36F8FBFF34F8F3B6000BFFEE726
:10527000404B1B68FB60404B1B683E4A13603E4A34
:10528000FB6813603D4B1B6801333C4A136000F020
:1052900095F93B4B1B683A699A4248D3354B1B68DA
:1052A0001B68002B04D1364B4FF0FF321A603EE0F2
:1052B000304B1B68DB68DB68BB60BB685B687B608E
:1052C0003A697B689A4203D22D4A7B6813602EE0CC
:1052D000BB6804331846FFF7ACFCBB689B6A002B25
:1052E00004D0BB6818331846FFF7A3FCBB68DB6A21
:1052F00001229A40234B1B681343224A1360BB6868
:10530000DA6A13469B0013449B001F4A1A44BB6889
:10531000043319461046FFF72FFCBB68DA6A1B4BB3
:105320001B68DB6A9A42B9D301237B61B6E7174B4E
:105330001B68DA6A144913469B0013449B000B4414
:105340001B68012B01D901237B61114B1B68002BCA
:1053500007D001237B6104E00E4B1B6801330D4A2B
:1053600013607B6918461837BD4680BDF8090020D8
:10537000D4090020880900208C090020E8090020B9
:10538000F0090020D8090020D4080020D00800200F
:10539000E4090020E009002080B487B000AF274B6B
:1053A0001B68002B03D0264B01221A603FE0244BE0
:1053B00000221A60234B1B68FB60FB68B3FA83F37F
:1053C000FB72FB7AC3F11F037B611F497A691346A5
:1053D0009B0013449B000B441B68002B0AD14FF029
:1053E000500383F31188BFF36F8FBFF34F8F7B6040
:1053F00000BFFEE77A6913469B0013449B00124AE4
:1054000013443B613B695B685A683B695A603B697E
:105410005A683B6908339A4204D13B695B685A6811
:105420003B695A603B695B68DB68084A136000BFF0
:105430001C37BD465DF8047B704700BFF8090020AB
:10544000E4090020D8090020D4080020D00800205A
:1054500080B582B000AF786000F052F8064B1B6850
:10546000012BF9D9054B4FF080521A60BFF34F8FD3
:10547000BFF36F8FF0E700BFD408002004ED00E019
:1054800080B582B000AF00237B600CE07A681346E1
:105490009B0013449B00124A13441846FFF73FFB3E
:1054A0007B6801337B607B68062BEFD90D48FFF7E3
:1054B00036FB0D48FFF733FB0C48FFF730FB0C4879
:1054C000FFF72DFB0B48FFF72AFB0B4B054A1A6031
:1054D0000A4B054A1A6000BF0837BD4680BD00BFB1
:1054E000D4080020600900207409002090090020E1
:1054F000A4090020BC090020880900208C09002094
:1055000080B582B000AF19E000F02CFA104BDB68D8
:10551000DB687B607B6804331846FFF78AFB0D4B22
:105520001B68013B0B4A13600B4B1B68013B0A4A8B
:10553000136000F047FA786800F010F8064B1B681B
:10554000002BE1D100BF00BF0837BD4680BD00BFC2
:10555000A4090020D0090020B809002080B584B03B
:1055600000AF78607B6893F85130002B08D17B68DE
:105570001B6B184600F0A4FB786800F0A1FB18E054
:105580007B6893F85130012B03D1786800F098FBC9
:105590000FE07B6893F85130022B0AD04FF0500394
:1055A00083F31188BFF36F8FBFF34F8FFB6000BF92
:1055B000FEE700BF1037BD4680BD000080B483B059
:1055C00000AF0C4B1B681B68002B04D10A4B4FF03B
:1055D000FF321A6008E0074B1B68DB68DB687B6002
:1055E0007B685B68044A136000BF0C37BD465DF8FA
:1055F000047B704788090020F009002080B483B044
:1056000000AF0B4B1B68002B02D101237B6008E02D
:10561000084B1B68002B02D102237B6001E00023B2
:105620007B607B6818460C37BD465DF8047B70478D
:10563000DC090020F809002080B584B000AF786054
:105640003960294B1B68FB60284B1B6804331846E4
:10565000FFF7EFFA0346002B0BD1244B1B68DB6AE4
:10566000012202FA03F3DA43214B1B681340204A5C
:1056700013607B68B3F1FF3F0AD13B68002B07D072
:105680001A4B1B68043319461A48FFF775FA26E0CF
:10569000FA687B681344BB60144B1B68BA685A6095
:1056A000BA68FB689A4209D2134B1A680F4B1B6801
:1056B000043319461046FFF783FA10E00F4B1A68BF
:1056C0000A4B1B68043319461046FFF779FA0C4B56
:1056D0001B68BA689A4202D2094ABB68136000BFCD
:1056E0001037BD4680BD00BFD4090020D00800207F
:1056F000D8090020BC0900208C090020880900205E
:10570000F009002080B485B000AFF860B9607A601D
:10571000FB68043BFB60FB684FF080721A60FB681B
:10572000043BFB60BB6823F00102FB681A60FB6866
:10573000043BFB600C4AFB681A60FB68143BFB608F
:105740007A68FB681A60FB68043BFB60FB686FF0DB
:1057500002021A60FB68203BFB60FB6818461437A6
:10576000BD465DF8047B70476D57000880B485B076
:1057700000AF00237B60124B1B68B3F1FF3F0AD0E0
:105780004FF0500383F31188BFF36F8FBFF34F8F38
:10579000FB6000BFFEE74FF0500383F31188BFF3B7
:1057A0006F8FBFF34F8FBB6000BF00BF7B68002BC4
:1057B000FCD000BF00BF1437BD465DF8047B7047C6
:1057C0000C000020000000000000000000000000AD
:1057D000074B19680868B0E8F04F80F30988BFF3F9
:1057E0006F8F4FF0000080F311887047AFF3008097
:1057F000D008002000BF00BF08480068006880F3A0
:1058000008884FF0000080F3148862B661B6BFF3D9
:105810004F8FBFF36F8F00DF00BF00BF08ED00E0C8
:1058200080B586B000AF464B1B68464A93420AD10A
:105830004FF0500383F31188BFF36F8FBFF34F8F87
:105840003B6100BFFEE73E4B1B683F4A93420AD1D3
:105850004FF0500383F31188BFF36F8FBFF34F8F67
:10586000FB6000BFFEE7394B7B617B691B78DBB2D5
:105870007B607B69FF221A707B691B78DBB2FB704F
:10588000FB78DBB203F05003DAB2314B1A70314BC4
:1058900007221A6009E02F4B1B68013B2D4A136059
:1058A000FB78DBB25B00DBB2FB70FB78DBB203F0B2
:1058B0008003802BEFD0274B1B68C3F10703042B19
:1058C0000AD04FF0500383F31188BFF36F8FBFF3FB
:1058D0004F8FBB6000BFFEE71E4B1B681B021D4ABB
:1058E00013601C4B1B6803F4E0631A4A13607B6867
:1058F000DAB27B691A70184B1B68174A43F47003BD
:105900001360154B1B68144A43F07043136000F09A
:10591000DDF8124B00221A6000F0FCF8104B1B68F7
:105920000F4A43F040431360FFF766FFFFF734FD73
:10593000FFF71CFF002318461837BD4680BD00BF87
:1059400000ED00E071C20F4170C20F4100E400E0C1
:10595000FC090020000A002020ED00E00C000020DF
:1059600034EF00E080B483B000AF4FF0500383F316
:105970001188BFF36F8FBFF34F8F7B6000BF0F4B5A
:105980001B6801330D4A13600C4B1B68012B0FD1B0
:105990000B4B1B68DBB2002B0AD04FF0500383F394
:1059A0001188BFF36F8FBFF34F8F3B6000BFFEE7DF
:1059B00000BF0C37BD465DF8047B70470C0000202B
:1059C00004ED00E080B483B000AF124B1B68002BE5
:1059D0000AD14FF0500383F31188BFF36F8FBFF3E9
:1059E0004F8F7B6000BFFEE70A4B1B68013B094AF3
:1059F0001360084B1B68002B05D100233B603B68FC
:105A000083F3118800BF00BF0C37BD465DF8047BEF
:105A1000704700BF0C0000200000000000000000E4
:105A2000EFF30980BFF36F8F154B1A681EF0100F4C
:105A300008BF20ED108A20E9F04F10602DE9090021
:105A40004FF0500080F31188BFF34F8FBFF36F8F7B
:105A5000FFF7A2FC4FF0000080F3118809BC196821
:105A60000868B0E8F04F1EF0100F08BFB0EC108AC5
:105A700080F30988BFF36F8F704700BFAFF30080DA
:105A8000D008002000BF00BF80B582B000AF4FF04B
:105A9000500383F31188BFF36F8FBFF34F8F7B6089
:105AA00000BFFFF7C1FB0346002B03D0064B4FF0AE
:105AB00080521A6000233B603B6883F3118800BF6B
:105AC00000BF0837BD4680BD04ED00E080B400AFE4
:105AD0000B4B00221A600B4B00221A600A4B1B680A
