:020000040800F2
:1000000000000220094700088146000887460008D2
:100010008D4600089346000899460008000000003D
:1000200000000000000000000000000061730008F4
:100030009F46000800000000B1750008AD460008AA
:100040005947000859470008594700085947000810
:100050005947000859470008594700085947000800
:1000600059470008594700085947000859470008F0
:1000700059470008594700085947000859470008E0
:1000800059470008594700085947000859470008D0
:1000900059470008594700085947000859470008C0
:1000A000C946000859470008594700085947000841
:1000B00059470008594700085947000859470008A0
:1000C0005947000859470008594700085947000890
:1000D0005947000859470008594700085947000880
:1000E0005947000859470008594700085947000870
:1000F0005947000859470008594700085947000860
:10010000594700085947000859470008594700084F
:10011000594700085947000859470008594700083F
:10012000594700085947000859470008594700082F
:10013000594700085947000859470008594700081F
:10014000594700085947000859470008594700080F
:1001500059470008594700085947000859470008FF
:1001600059470008594700085947000859470008EF
:100170005947000859470008594700080000000087
:08018000594700085947000827
:1001900010B5054C237833B9044B13B10448AFF3C1
:1001A00000800123237010BD8800002000000000A3
:1001B000B89E000808B5034B1BB103490348AFF3D1
:1001C000008008BD000000008C000020B89E0008E0
:1001D00081F0004102E000BF83F0004330B54FEAF8
:1001E00041044FEA430594EA050F08BF90EA020F65
:1001F0001FBF54EA000C55EA020C7FEA645C7FEAF8
:10020000655C00F0E2804FEA5454D4EB5555B8BF1A
:100210006D420CDD2C4480EA020281EA030382EA8B
:10022000000083EA010180EA020281EA0303362D1D
:1002300088BF30BD11F0004F4FEA01314FF4801CF0
:100240004CEA113102D0404261EB410113F0004F02
:100250004FEA03334CEA133302D0524263EB4303B9
:1002600094EA050F00F0A780A4F10104D5F1200E57
:100270000DDB02FA0EFC22FA05F2801841F10001B2
:1002800003FA0EF2801843FA05F359410EE0A5F186
:1002900020050EF1200E012A03FA0EFC28BF4CF0B7
:1002A000020C43FA05F3C01851EBE37101F000456D
:1002B00007D54FF0000EDCF1000C7EEB00006EEB7A
:1002C0000101B1F5801F1BD3B1F5001F0CD3490804
:1002D0005FEA30004FEA3C0C04F101044FEA44525B
:1002E00012F5800F80F09A80BCF1004F08BF5FEAE2
:1002F000500C50F1000041EB045141EA050130BDC2
:100300005FEA4C0C404141EB0101013C28BFB1F5D3
:10031000801FE9D291F0000F04BF01460020B1FA1E
:1003200081F308BF2033A3F10B03B3F120020CDAF1
:100330000C3208DD02F1140CC2F10C0201FA0CF0CF
:1003400021FA02F10CE002F11402D8BFC2F1200C34
:1003500001FA02F120FA0CFCDCBF41EA0C019040EA
:10036000E41AA2BF01EB0451294330BD6FEA040433
:100370001F3C1CDA0C340EDC04F11404C4F120021E
:1003800020FA04F001FA02F340EA030021FA04F330
:1003900045EA030130BDC4F10C04C4F1200220FA87
:1003A00002F001FA04F340EA0300294630BD21FAC5
:1003B00004F0294630BD94F0000F83F4801306BF8B
:1003C00081F480110134013D4EE77FEA645C18BF7F
:1003D0007FEA655C29D094EA050F08BF90EA020F16
:1003E00005D054EA000C04BF1946104630BD91EA0E
:1003F000030F1EBF0021002030BD5FEA545C05D111
:100400004000494128BF41F0004130BD14F580044F
:100410003CBF01F5801130BD01F0004545F0FE41C3
:1004200041F470014FF0000030BD7FEA645C1ABFF8
:10043000194610467FEA655C1CBF0B46024650EA2F
:10044000013406BF52EA033591EA030F41F400215B
:1004500030BD00BF90F0000F04BF0021704730B5E1
:100460004FF4806404F132044FF000054FF00001B6
:1004700050E700BF90F0000F04BF0021704730B577
:100480004FF4806404F1320410F0004548BF40424C
:100490004FF000013EE700BF42004FEAE2014FEAA1
:1004A00031014FEA02701FBF12F07F4393F07F4F7C
:1004B00081F06051704732F07F4208BF704793F07F
:1004C0007F4F04BF41F40021704730B54FF4607492
:1004D00001F0004521F000411CE700BF50EA010295
:1004E00008BF704730B54FF000050AE050EA01023E
:1004F00008BF704730B511F0004502D5404261EBAE
:1005000041014FF4806404F132045FEA915C3FF4EE
:10051000D8AE4FF003025FEADC0C18BF03325FEA8B
:10052000DC0C18BF033202EBDC02C2F1200300FA3C
:1005300003FC20FA02F001FA03FE40EA0E0021FA61
:1005400002F11444BDE600BF70B54FF0FF0C4CF44F
:10055000E06C1CEA11541DBF1CEA135594EA0C0F01
:1005600095EA0C0F00F0DEF82C4481EA030621EA3C
:100570004C5123EA4C5350EA013518BF52EA033577
:1005800041F4801143F4801338D0A0FB02CE4FF029
:100590000005E1FB02E506F00042E0FB03E54FF059
:1005A0000006E1FB03569CF0000F18BF4EF0010E51
:1005B000A4F1FF04B6F5007F64F5407404D25FEA4D
:1005C0004E0E6D4146EB060642EAC62141EA555100
:1005D0004FEAC52040EA5E504FEACE2EB4F1FD0C42
:1005E00088BFBCF5E06F1ED8BEF1004F08BF5FEAC0
:1005F000500E50F1000041EB045170BD06F0004672
:1006000046EA010140EA020081EA0301B4EB5C041E
:10061000C2BFD4EB0C0541EA045170BD41F4801116
:100620004FF0000E013C00F3AB8014F1360FDEBF3B
:10063000002001F0004170BDC4F10004203C35DA17
:100640000C341BDC04F11404C4F1200500FA05F39A
:1006500020FA04F001FA05F240EA020001F000423B
:1006600021F0004110EBD37021FA04F642EB0601B1
:100670005EEA430E08BF20EAD37070BDC4F10C04DB
:10068000C4F1200500FA04F320FA05F001FA04F29F
:1006900040EA020001F0004110EBD37041F100018B
:1006A0005EEA430E08BF20EAD37070BDC4F1200596
:1006B00000FA05F24EEA020E20FA04F301FA05F2FE
:1006C00043EA020321FA04F001F0004121FA04F2A6
:1006D00020EA020000EBD3705EEA430E08BF20EA76
:1006E000D37070BD94F0000F0FD101F000464000B0
:1006F00041EB010111F4801F08BF013CF7D041EA32
:10070000060195F0000F18BF704703F00046520035
:1007100043EB030313F4801F08BF013DF7D043EA06
:100720000603704794EA0C0F0CEA135518BF95EABC
:100730000C0F0CD050EA410618BF52EA4306D1D143
:1007400081EA030101F000414FF0000070BD50EA62
:10075000410606BF1046194652EA430619D094EAEC
:100760000C0F02D150EA013613D195EA0C0F05D1D6
:1007700052EA03361CBF104619460AD181EA03012A
:1007800001F0004141F0FE4141F470014FF00000E2
:1007900070BD41F0FE4141F4780170BD70B54FF07D
:1007A000FF0C4CF4E06C1CEA11541DBF1CEA1355FD
:1007B00094EA0C0F95EA0C0F00F0A7F8A4EB0504DF
:1007C00081EA030E52EA03354FEA013100F08880D6
:1007D0004FEA03334FF0805545EA131343EA12639F
:1007E0004FEA022245EA111545EA10654FEA002654
:1007F0000EF000419D4208BF964244F1FD0404F50D
:10080000407402D25B084FEA3202B61A65EB030568
:100810005B084FEA32024FF480104FF4002CB6EB25
:10082000020E75EB030E22BFB61A754640EA0C00A5
:100830005B084FEA3202B6EB020E75EB030E22BFE5
:10084000B61A754640EA5C005B084FEA3202B6EB26
:10085000020E75EB030E22BFB61A754640EA9C00E5
:100860005B084FEA3202B6EB020E75EB030E22BFB5
:10087000B61A754640EADC0055EA060E18D04FEA73
:10088000051545EA16754FEA06164FEAC30343EA13
:1008900052734FEAC2025FEA1C1CC0D111F4801FE0
:1008A0000BD141EA00014FF000004FF0004CB6E7D9
:1008B00011F4801F04BF01430020B4F1FD0C88BF78
:1008C000BCF5E06F3FF6AFAEB5EB030C04BFB6EB83
:1008D000020C5FEA500C50F1000041EB045170BD76
:1008E0000EF0004E4EEA113114EB5C04C2BFD4EBA3
:1008F0000C0541EA045170BD41F480114FF0000E27
:10090000013C90E645EA060E8DE60CEA135594EAA2
:100910000C0F08BF95EA0C0F3FF43BAF94EA0C0FA5
:100920000AD150EA01347FF434AF95EA0C0F7FF41A
:1009300025AF104619462CE795EA0C0F06D152EA6E
:1009400003353FF4FDAE1046194622E750EA410652
:1009500018BF52EA43067FF4C5AE50EA41047FF463
:100960000DAF52EA43057FF4EBAE12E74FF0FF3CC8
:1009700006E000BF4FF0010C02E000BF4FF0010C99
:100980004DF804CD4FEA410C7FEA6C5C4FEA430C12
:1009900018BF7FEA6C5C1BD001B050EA410C0CBF61
:1009A00052EA430C91EA030F02BF90EA020F0020C3
:1009B000704710F1000F91EA030F58BF994208BF2A
:1009C00090422CBFD8176FEAE37040F001007047E7
:1009D0004FEA410C7FEA6C5C02D150EA013C07D13E
:1009E0004FEA430C7FEA6C5CD6D152EA033CD3D089
:1009F0005DF8040B704700BF8446104662468C4683
:100A00001946634600E000BF01B5FFF7B7FF0028B5
:100A100048BF10F1000F01BD4DF808EDFFF7F4FFDE
:100A20000CBF012000205DF808FB00BF4DF808ED69
:100A3000FFF7EAFF34BF012000205DF808FB00BF8C
:100A40004DF808EDFFF7E0FF94BF012000205DF8AE
:100A500008FB00BF4DF808EDFFF7CEFF94BF012063
:100A600000205DF808FB00BF4DF808EDFFF7C4FF5C
:100A700034BF012000205DF808FB00BF4FEA410CA5
:100A80007FEA6C5C02D150EA013C0AD14FEA430C88
:100A90007FEA6C5C02D152EA033C02D14FF00000C5
:100AA00070474FF0010070474FEA410212F5001203
:100AB00015D211D56FF47873B3EB625212D94FEAA5
:100AC000C12343F0004343EA505311F0004F23FA8F
:100AD00002F018BF404270474FF00000704750EAE4
:100AE000013005D111F0004008BF6FF000407047A1
:100AF0004FF00000704700BF4FEA4102B2F1E043FF
:100B000024BFB3F5001CDCF1FE5C0DD901F0004CF4
:100B10004FEAC0024CEA5070B2F1004F40EB830044
:100B200008BF20F00100704711F0804F21D113F170
:100B30003872BCBF01F00040704741F480114FEAA9
:100B40005252C2F11802C2F1200C10FA0CF320FA32
:100B500002F018BF40F001004FEAC1234FEAD3234F
:100B600003FA0CFC40EA0C0023FA02F34FEA4303B9
:100B7000CCE77FEA625307D150EA01331EBF4FF042
:100B8000FE4040F44000704701F0004040F0FE405D
:100B900040F40000704700BF53B94AB9002908BFAC
:100BA00000281CBF4FF0FF314FF0FF3000F070B94C
:100BB000ADF1080C6DE904CE00F006F8DDF804E0B4
:100BC000DDE9022304B070472DE9F047089E0D4689
:100BD00004460F46002B4AD18A42944665D9B2FAA0
:100BE00082F343B102FA03FCC3F120029F4020FAD2
:100BF00002F217439C404FEA1C4E1FFA8CF5B7FBDC
:100C0000FEF1220C0EFB117742EA074201FB05F0D0
:100C100090420AD91CEB020201F1FF3780F01C81DF
:100C2000904240F2198102396244121AA4B2B2FB16
:100C3000FEF00EFB102244EA024400FB05F5A5423B
:100C40000AD91CEB040400F1FF3280F00781A542B1
:100C500040F204816444023840EA0140641B0021F0
:100C60001EB1DC400023C6E90043BDE8F0878B429B
:100C700008D9002E00F0ED800021C6E900050846E5
:100C8000BDE8F087B3FA83F1002949D1AB4202D322
:100C9000824200F2F880841A65EB030201201746B5
:100CA000002EE2D0C6E90047DFE702B9FFDEB2FA64
:100CB00082F3002B40F090808A1A4FEA1C471FFAFB
:100CC0008CFE0121B2FBF7F507FB1520220C42EA4E
:100CD00000420EFB05F0904208D91CEB020205F120
:100CE000FF3802D2904200F2CB804546121AA4B2DD
:100CF000B2FBF7F007FB102244EA02440EFB00FEB1
:100D0000A64508D91CEB040400F1FF3202D2A64527
:100D100000F2BB801046A4EB0E0440EA05409FE7BA
:100D2000C1F120078B4022FA07FC4CEA030C05FABC
:100D300001F420FA07F3FD404FEA1C492343B5FBB9
:100D4000F9F81FFA8CFE09FB18551C0C44EA0544FF
:100D500008FB0EF5A54202FA01F200FA01F00BD9E8
:100D60001CEB040408F1FF3A80F08880A54240F2B1
:100D70008580A8F102086444641B9DB2B4FBF9F3BA
:100D800009FB134445EA044403FB0EFEA64508D9BB
:100D90001CEB040403F1FF356CD2A6456AD9023B73
:100DA000644443EA0843A3FB0295A4EB0E04AC425F
:100DB000C846AE4656D353D056B1B0EB080264EBEA
:100DC0000E0404FA07F7CA40CC401743C6E9007482
:100DD00018460021BDE8F087C3F1200102FA03FCA8
:100DE00020FA01F225FA01F19D402A434FEA1C47FF
:100DF0001FFA8CFEB1FBF7F007FB1015110C41EA4E
:100E0000054100FB0EF58D4204FA03F408D91CEBF2
:100E1000010100F1FF382FD28D422DD902386144F3
:100E2000491B92B2B1FBF7F507FB151142EA0142EB
:100E300005FB0EF1914208D91CEB020205F1FF38C7
:100E400016D2914214D9023D6244521A45EA004139
:100E500038E73146304608E73946E6E61046FBE615
:100E60004845A9D2B9EB020865EB0C0E013BA3E79C
:100E70004546EAE72B4694E74046D1E7D0467BE774
:100E8000023D624432E708460AE76444023842E71A
:100E9000704700BF80B487B000AF78613961FA60F5
:100EA00087ED000B7B693A691A607B69FA685A61C1
:100EB0007969D7E90023C1E9102300BF1C37BD467B
:100EC0005DF8047B70470000B0B582B000AF786079
:100ED0007B681B681B685B6A1AB27B689A807B68B8
:100EE0009B687A68B2F904201A447B689A607B6830
:100EF0001B681B6800225A627B689A687B681B69C2
:100F0000D31A1846FFF7B6FA7B68D3E91023FFF728
:100F100045FC02460B4614461D467B685B699B00F8
:100F20001846FFF7A7FA02460B4620462946FFF768
:100F300035FC02460B46104619464FF00002284B7E
:100F4000FFF702FB02460B467968C1E908237B687C
:100F5000D3E90C011EA3D3E90023FFF7F5FA0246FB
:100F60000B4614461D467B68D3E908011AA3D3E952
:100F70000023FFF7E9FA02460B4620462946FFF711
:100F80002DF902460B4614461D467B68D3E90A013B
:100F900011A3D3E90023FFF7D7FA02460B462046F8
:100FA0002946FFF71BF902460B467968C1E90C2375
:100FB0007B68D3E908237968C1E90A237B689A68CA
:100FC0007B681A6100BF0837BD46B0BDAFF3008033
:100FD0008716D9CEF753EB3FC217265305A3B23F6E
:100FE00000004E4080B582B000AF78600B46FB70C9
:100FF0007B68FA781A767B681B681B685B6A1AB292
:101000007B689A807B689B687A68B2F904201A44EE
:101010007B689A607B681B681B6800225A627B6849
:101020001B7E012B07D17B689B681846FFF722FACD
:1010300002460B4633E07B681B7E002B10D17B6899
:101040009B68002B00DA03339B101A467B68DA603A
:101050007B68DB681846FFF70DFA02460B461EE078
:101060007B681B7E022B16D17B689B684FF4B472A1
:1010700003FB02F27B685B699B0092FBF3F318466B
:10108000FFF7F8F902460B467968C1E90E237B6841
:10109000D3E90E2303E04FF000024FF0000343ECCE
:1010A000172BB0EE470AF0EE670A0837BD4680BD41
:1010B00080B483B000AF78600B46FB70FB78012BE7
:1010C00007D17B681B681B6800225A627B6800227C
:1010D0009A6000BF0C37BD465DF8047B704780B452
:1010E00085B000AFF860B9607A603B60FB68BA68B1
:1010F0005A607B68002BB8BF5B429AB2FB68DA810A
:10110000FB683A681A61FB68BA695A617B68002B10
:101110004DDAFB681B69002B05D1FB685B681B6817
:1011200000225A6318E0FB681B69042B05D1FB6899
:101130005B681A68002393630EE0FB681B69082B49
:1011400005D1FB685B681A680023D36304E0FB6881
:101150005B681A6800231364FB685B69002B06D187
:10116000FB68DA89FB685B681B685A63B7E0FB6859
:101170005B69042B07D1FB68D989FB685B681A6837
:101180000B469363ABE0FB685B69082B07D1FB68F8
:10119000D989FB685B681A680B46D3639FE0FB68DC
:1011A000D989FB685B681A680B46136497E07B6813
:1011B000002B4DDDFB681B69002B06D1FB68DA892B
:1011C000FB685B681B685A631EE0FB681B69042BA5
:1011D00007D1FB68D989FB685B681A680B46936383
:1011E00012E0FB681B69082B07D1FB68D989FB68F3
:1011F0005B681A680B46D36306E0FB68D989FB6815
:101200005B681A680B461364FB685B69002B05D1A9
:10121000FB685B681B6800225A6360E0FB685B69DF
:10122000042B05D1FB685B681A680023936356E0C2
:10123000FB685B69082B05D1FB685B681A680023B3
:10124000D3634CE0FB685B681A680023136446E0D4
:10125000FB681B69002B05D1FB685B681B680022DB
:101260005A6318E0FB681B69042B05D1FB685B68B7
:101270001A68002393630EE0FB681B69082B05D1F5
:10128000FB685B681A680023D36304E0FB685B6853
:101290001A6800231364FB685B69002B05D1FB68A7
:1012A0005B681B6800225A6319E0FB685B69042BCA
:1012B00005D1FB685B681A68002393630FE0FB6845
:1012C0005B69082B05D1FB685B681A680023D36350
:1012D00005E0FB685B681A6800231364FFE700BF42
:1012E0001437BD465DF8047B704780B485B000AF0D
:1012F000F86087ED020AC7ED010AFB68BA681A6058
:10130000FB687A685A60FB6893ED007AFB68D3ED5E
:10131000017A77EE677AFB68C3ED027AFB6893ED9A
:10132000057AFB68D3ED027A67EE277AFB68C3ED96
:10133000067AFB6893ED097AFB68D3ED076AFB68D0
:10134000D3ED027A66EEA76AFB68D3ED047A66EE07
:10135000A77A77EE277AFB68C3ED087AFB6893EDEE
:10136000087AFB689B6A07EE903AF8EEE77AB4EEEB
:10137000E77AF1EE10FA06DDFB689B6A07EE903A19
:10138000F8EEE77A02E0FB68D3ED087AFB68C3ED7C
:10139000087AFB6893ED087AFB68DB6A07EE903AFF
:1013A000F8EEE77AB4EEE77AF1EE10FA06D5FB68CC
:1013B000DB6A07EE903AF8EEE77A02E0FB68D3EDDD
:1013C000087AFB68C3ED087AFB6893ED0C7AFB683A
:1013D000D3ED026AFB68D3ED037A76EEE77A67EE27
:1013E000276AFB6893ED047AC6EE877AFB68C3ED43
:1013F0000D7AFB68D3ED107AB7EE007A37EE677A94
:10140000FB68D3ED0F7A27EE277AFB68D3ED106ADD
:10141000FB68D3ED0D7A66EEA77A77EE277AFB6844
:10142000C3ED0E7AFB689A68FB68DA60FB681A6A9B
:10143000FB685A62FB689A6BFB68DA63FB6893EDA2
:10144000067AFB68D3ED087A37EE277AFB68D3ED8E
:101450000D7A77EE277AFB68C3ED117AFB6893ED7E
:10146000117AFB68D3ED127AB4EEE77AF1EE10FA56
:1014700002DDFB689B6C01E0FB685B6CFA685364FF
:10148000FB6893ED117AFB68D3ED137AB4EEE77A3B
:10149000F1EE10FA02D5FB68DB6C01E0FB685B6CD7
:1014A000FA68536400BF1437BD465DF8047B70478B
:1014B00080B485B000AFF860B9607A60FB68074A15
:1014C0001A60BB68064A1A607B6880221A6000BFF7
:1014D0001437BD465DF8047B704700BFA4000020B0
:1014E000F800002080B400AF204B214A5A611F4B06
:1014F000204ADA611D4B4FF000021A631B4B4FF07C
:1015000000021A64194B1C4A1A61184B4FF47A7284
:101510009A62164B194ADA62144B194A9A64134BB1
:10152000184ADA64184B194A5A61174B4FF00002F7
:10153000DA61154B4FF000021A63134B4FF00002B3
:101540001A64114B0C4A1A610F4B4FF47A729A626B
:101550000D4B0A4ADA620C4B094A9A640A4B094A53
:10156000DA6400BFBD465DF8047B70479805002033
:101570000000484200007A430AD7233C18FCFFFFD2
:1015800000007A4400007AC4E805002000002041F1
:1015900080B52DED028B82B002AF1448FFF794FCAA
:1015A000134B93ED118A114BD3E9082310461946CA
:1015B000FFF7A2FA034600EE903AB0EE480A0D4853
:1015C000FFF793FE0B4BD3ED117AFDEEE77A0C2378
:1015D0000093082317EE902A07490848FFF77FFD7C
:1015E00000BFBD46BDEC028B80BD00BF38050020AA
:1015F000E8050020980500206004002080050020F8
:1016000080B52DED028B00AF0D4B93ED008A0221CA
:101610000C48FFF7E7FC53EC102B10461946FFF778
:101620006BFA034600EE903AB0EE480A0648FFF720
:101630005CFEFFF7ADFF00BFBD46BDEC028B80BD79
:101640003806002038050020E805002080B400AFEF
:10165000204B214A5A611F4B204ADA611D4B4FF043
:1016600000021A631B4B4FF000021A64194B1C4A0C
:101670001A61184B4FF47A729A62164B194ADA6261
:10168000144B194A9A64134B184ADA64184B194AD6
:101690005A61174B4FF00002DA61154B4FF0000210
:1016A0001A63134B4FF000021A64114B0C4A1A6173
:1016B0000F4B4FF47A729A620D4B0A4ADA620C4B66
:1016C000094A9A640A4B094ADA6400BFBD465DF8CC
:1016D000047B7047A00600200000484200007A43C7
:1016E0000AD7233C18FCFFFF00007A4400007AC4AC
:1016F000F00600200000204180B52DED028B82B065
:1017000002AF1448FFF7E0FB134B93ED118A114B26
:10171000D3E9082310461946FFF7EEF9034600EE19
:10172000903AB0EE480A0D48FFF7DFFD0B4BD3EDC2
:10173000117AFDEEE77A0C230093082317EE902A26
:1017400007490848FFF7CBFC00BFBD46BDEC028B44
:1017500080BD00BF40060020F0060020A00600204B
:10176000D00300208806002080B52DED028B00AF4D
:101770000F4BD3ED007A9FED0F7A37EEC78A022127
:101780000D48FFF72FFC53EC102B10461946FFF7BE
:10179000B3F9034600EE903AB0EE480A0748FFF767
:1017A000A4FDFFF7A9FF00BFBD46BDEC028B80BDC5
:1017B0004007002000003B4340060020F0060020C8
:1017C00080B400AF204B214A5A611F4B204ADA6196
:1017D0001D4B4FF000021A631B4B4FF000021A64BE
:1017E000194B1C4A1A61184B4FF47A729A62164BC5
:1017F000194ADA62144B194A9A64134B184ADA648C
:10180000184B194A5A61174B4FF00002DA61154B19
:101810004FF000021A63134B4FF000021A64114B91
:101820000C4A1A610F4B4FF47A729A620D4B0A4AB6
:10183000DA620C4B094A9A640A4B094ADA6400BF1F
:10184000BD465DF8047B7047A807002000004842B1
:1018500000007A430AD7233C18FCFFFF00007A44BB
:1018600000007AC4F80700200000204180B52DED6B
:10187000028B82B002AF1448FFF726FB134B93EDA7
:10188000118A114BD3E9082310461946FFF734F9A2
:10189000034600EE903AB0EE480A0D48FFF725FDEA
:1018A0000B4BD3ED117AFDEEE77A0423009300236E
:1018B00017EE902A07490848FFF711FC00BFBD4604
:1018C000BDEC028B80BD00BF48070020F807002058
:1018D000A8070020D00300209007002080B52DED40
:1018E000028B00AF0F4BD3ED007A9FED0F7A37EEEE
:1018F000878A02210D48FFF775FB53EC102B104629
:101900001946FFF7F9F8034600EE903AB0EE480AA0
:101910000748FFF7EAFCFFF7A9FF00BFBD46BDEC93
:10192000028B80BD480800200000074348070020C4
:10193000F807002080B400AF204B214A5A611F4BAA
:10194000204ADA611D4B4FF000021A631B4B4FF027
:1019500000021A64194B1C4A1A61184B4FF47A7230
:101960009A62164B194ADA62144B194A9A64134B5D
:10197000184ADA64184B194A5A61174B4FF00002A3
:10198000DA61154B4FF000021A63134B4FF000025F
:101990001A64114B0C4A1A610F4B4FF47A729A6217
:1019A0000D4B0A4ADA620C4B094A9A640A4B094AFF
:1019B000DA6400BFBD465DF8047B7047B0080020C4
:1019C00000004842000096430AD7233C18FCFFFF62
:1019D00000007A4400007AC4000900200000204181
:1019E00080B52DED028B82B002AF1448FFF76CFA80
:1019F000134B93ED118A114BD3E908231046194676
:101A0000FFF77AF8034600EE903AB0EE480A0D4828
:101A1000FFF76BFC0B4BD3ED117AFDEEE77A042355
:101A20000093002317EE902A07490848FFF757FB59
:101A300000BFBD46BDEC028B80BD00BF500800203A
:101A400000090020B0080020A80400209808002009
:101A500080B52DED028B00AF0F4BD3ED007A9FEDDB
:101A60000F7A37EEC78A02210D48FFF7BBFA53EC15
:101A7000102B10461946FFF73FF8034600EE903A48
:101A8000B0EE480A0748FFF730FCFFF7A9FF00BF98
:101A9000BD46BDEC028B80BD500900200000B44261
:101AA00050080020000900202DE9B04F84B000AF9D
:101AB00087ED030AC7ED020A87ED011AC7ED001A88
:101AC000CB4AFB681360CA4B1B681846FEF7E4FC60
:101AD000C5A3D3E90023FEF737FD02460B461046A7
:101AE00019464FF00002C34BFEF758FE02460B4664
:101AF00010461946FFF700F80346BF4A1360BF4A75
:101B0000BB681360BD4B1B681846FEF7C5FCB6A347
:101B1000D3E90023FEF718FD02460B46104619468E
:101B20004FF00002B34BFEF739FE02460B4610465B
:101B30001946FEF7E1FF0346B14A1360B14A7B68DC
:101B40001360B04B1B681846FEF7A6FCA6A3D3E9AA
:101B50000023FEF7F9FC02460B46104619464FF0EB
:101B60000002A44BFEF71AFE02460B461046194629
:101B7000FEF7C2FF0346A44A1360A44A3B68136001
:101B8000A24B1B681846FEF787FC97A3D3E90023F6
:101B9000FEF7DAFC02460B46104619464FF00002EB
:101BA000944BFEF7FBFD02460B4610461946FEF726
:101BB000A3FF0346964A1360904B93ED007A914B36
:101BC000D3ED007A37EE277A904BD3ED007A77EE9B
:101BD000277A904BC3ED007A894B93ED007A8A4BBC
:101BE000D3ED007A37EE277A894BD3ED007A77EE82
:101BF000277A894BC3ED007A7F4B1B681846FEF7A6
:101C00004BFC02460B4643EC102B06F011F85BEC44
:101C100010AB824B1B681846FEF73EFC04460D468F
:101C20007F4B1B681846FEF737FC80468946744B8D
:101C30001B681846FEF730FC02460B4643EC102B9F
:101C400005F0F6FF53EC102B40464946FEF77CFCAE
:101C500002460B4620462946FEF7C0FA02460B46CE
:101C6000904699466F4B1B681846FEF715FC0446D4
:101C70000D46634B93ED007A634BD3ED007A77EE1C
:101C8000277A17EE900AFEF707FC02460B4643EC54
:101C9000102B05F0CDFF53EC102B20462946FEF704
:101CA00053FC02460B4640464946FEF797FA024669
:101CB0000B46904699465C4B1B681846FEF7ECFBBA
:101CC00004460D46544B1B681846FEF7E5FB0246DA
:101CD0000B4643EC102B05F0ABFF53EC102B2046CA
:101CE0002946FEF731FC02460B4640464946FEF7C0
:101CF00075FA02460B4650465946FEF725FC024649
:101D00000B4610461946FEF7F7FE0346474A136096
:101D1000394B1B681846FEF7BFFB02460B4643ECE7
:101D2000102B05F0D9FF5BEC10AB3C4B1B68184641
:101D3000FEF7B2FB04460D46394B1B681846FEF70A
:101D4000ABFB804689462E4B1B681846FEF7A4FB6A
:101D500002460B4643EC102B05F06AFF53EC102BA8
:101D600040464946FEF7F0FB02460B462046294610
:101D7000FEF734FA02460B4690469946294B1B68FB
:101D80001846FEF789FB04460D461D4B93ED007A7D
:101D90001D4BD3ED007A77EE277A17EE900AFEF707
:101DA0007BFB02460B4643EC102B05F041FF53EC46
:101DB000102B20462946FEF7C7FB02460B4640463D
:101DC0004946FEF70BFA02460B4690469946164BDB
:101DD0001B681846FEF760FB04460D460E4B1B6859
:101DE000184625E0AFF30080182D4454FB2109402C
:101DF000540900200080664068090020580900202E
:101E00006C0900205C090020700900206009002096
:101E100074090020640900207809002000000020D7
:101E200004000020080000200C0000207C09002095
:101E3000FEF732FB02460B4643EC102B05F0F8FE92
:101E400053EC102B20462946FEF77EFB02460B463C
:101E500040464946FEF7C2F902460B4650465946EF
:101E6000FEF772FB02460B4610461946FEF744FE8B
:101E70000346404A1360404B1B681846FEF70CFBB4
:101E800004460D463D4B1B681846FEF705FB804691
:101E900089463B4B93ED007A3A4BD3ED007A77EECF
:101EA000277A17EE900AFEF7F7FA02460B4643EC44
:101EB000102B05F011FF53EC102B40464946FEF75E
:101EC00043FB02460B4620462946FEF787F90246A9
:101ED0000B46904699462C4B1B681846FEF7DCFAD9
:101EE00004460D46264B1B681846FEF7D5FA0246F7
:101EF0000B4643EC102B05F0EFFE53EC102B204665
:101F00002946FEF721FB02460B4640464946FEF7AE
:101F100065F902460B46904699461C4B1B681846CD
:101F2000FEF7BAFA04460D46194B1B681846FEF731
:101F3000B3FA02460B4643EC102B05F0CDFE53ECF2
:101F4000102B20462946FEF7FFFA02460B46404674
:101F50004946FEF743F902460B4610461946FEF77E
:101F6000CBFD03460B4A136000BF1037BD46BDE8EA
:101F7000B08F00BF80090020100000200800002062
:101F80006C09002070090020040000200C000020D3
:101F900078090020840900202DE9B0432DED028B43
:101FA00084B000AF87ED030AC7ED020A87ED011A7E
:101FB000C7ED001A5A4AFB6813605A4ABB6813609F
:101FC000594A7B681360594A3B681360574B1B683A
:101FD0001846FEF761FA4CA3D3E90023FEF7B4FAE2
:101FE00002460B4610461946FEF786FD0346504A48
:101FF00013604B4B1B681846FEF74EFA02460B4621
:102000009FED431B43EC102B05F074FD55EC104B7A
:10201000444B1B681846FEF73FFA02460B469FEDFD
:102020003C1B43EC102B05F065FD53EC102B2046B8
:102030002946FEF7D3F802460B4643EC172BB0EEC9
:10204000470AF0EE670A05F0C5FD53EC102B104669
:102050001946FEF751FD0346364A1360314B93EDA6
:10206000007A344BD3ED007AC7EE276A16EE900A59
:10207000FEF712FA04460D46294B93ED007A2D4BDC
:10208000D3ED007AC7EE276A16EE900AFEF704FA3F
:1020900002460B4643EC112B45EC104B05F028FD96
:1020A00053EC102B10461946FEF726FD0346224A34
:1020B0001360214B1B681846FEF7EEF916A3D3E90F
:1020C0000023FEF741FA02460B4610461946FEF77A
:1020D00013FD0346194A1360184BD3ED007A9FEDA8
:1020E000187AF4EEC77AF1EE10FA2DD5134BD3ED32
:1020F000007A9FED147A77EE877A104BC3ED007A61
:1021000036E000BFAFF30080399D52A246DF913F19
:102110000000000000000040F8C1631ADCA54C403C
:10212000880900208C0900209009002094090020D3
:10213000E4090020BC09002098090020A80900201B
:10214000000034C30000B443D54BD3ED007A9FEDBB
:10215000D57AF4EEC77AF1EE10FA09DDD04BD3ED63
:10216000007A9FEDD17A77EEC77ACD4BC3ED007A36
:10217000CE4B1B681846FEF78FF904460D46CC4B34
:102180001B681846FEF788F902460B4643EC102BF5
:1021900005F04EFD53EC102B20462946FEF7D4F9EE
:1021A00002460B4690469946C24B1B681846FEF7FE
:1021B00073F904460D46BE4B1B681846FEF76CF9D2
:1021C00002460B4643EC102B05F086FD53EC102B1A
:1021D00020462946FEF7B8F902460B4640464946D6
:1021E000FDF7FCFF02460B4614461D46B24B1B682A
:1021F0001846FEF751F902460B4620462946FDF7E0
:10220000EBFF02460B4690469946AC4B1B681846BE
:10221000FEF742F904460D46A94B1B681846FEF727
:102220003BF902460B4643EC102B05F001FD53EC45
:10223000102B20462946FEF787F902460B464046FA
:102240004946FDF7C9FF02460B4610461946FEF700
:1022500053FC03469B4A13609B4B93ED007A9B4BC8
:10226000D3ED007A77EE677A17EE900AFEF714F94D
:1022700004460D46914B1B681846FEF70DF9804643
:1022800089468F4B1B681846FEF706F902460B4637
:1022900043EC102B05F020FD53EC102B4046494633
:1022A000FEF752F902460B4620462946FDF794FFF9
:1022B00002460B4610461946FEF71EFC0346844AAA
:1022C0001360844BD3ED007AB8EE007A27EE877A5C
:1022D0007F4BD3ED007A67EE277A7F4BC3ED007A10
:1022E0007C4BD3ED007AB8EE007A27EE877A754BF7
:1022F000D3ED007A67EE277A784BC3ED007A784BFE
:102300001B681846FEF7C8F802460B469FED621B95
:1023100043EC102B05F0EEFB55EC104B694B1B68A2
:102320001846FEF7B9F802460B469FED5B1B43ECDF
:10233000102B05F0DFFB53EC102B20462946FDF750
:102340004BFF02460B4614461D46614B1B68184660
:10235000FEF7A2F802460B469FED4F1B43EC102BF5
:1023600005F0C8FB53EC102B20462946FDF734FF3F
:1023700002460B4614461D46564B1B681846FEF790
:102380008BF802460B469FED441B43EC102B05F0E7
:10239000B1FB53EC102B20462946FDF71DFF0246EA
:1023A0000B4610461946FEF7A7FB03464D4A13603D
:1023B000494B1B681846FEF76FF802460B469FED27
:1023C000361B43EC102B05F095FB55EC104B434BA3
:1023D0001B681846FEF760F802460B469FED2E1B61
:1023E00043EC102B05F086FB53EC102B20462946BE
:1023F000FDF7F4FE02460B4643EC172BB0EE470AFE
:10240000F0EE670A05F0E6FB53EC102B1046194678
:10241000FEF772FB0346344A13602E4BD3ED007A6D
:10242000B8EE007A27EE877A294BD3ED007A27EEB3
:10243000277A2D4BD3ED007AC7EE276A16EE900A65
:10244000FEF72AF804460D46224BD3ED007AB8EE8B
:10245000007A27EE877A1B4BD3ED007A27EE277A96
:10246000214BD3ED007AC7EE276A16EE900AFEF7ED
:1024700013F802460B4643EC112B45EC104B05F0CC
:1024800037FB53EC102B10461946FEF735FB03467D
:10249000164A13602CE000BF00000000000000405E
:1024A000A8090020000034430000B443880900203C
:1024B000980900208C090020000000200C0000205A
:1024C000E4090020C009002090090020100000202D
:1024D000C409002004000020C8090020CC09002005
:1024E00008000020D0090020D4090020B8090020ED
:1024F000554B1B681846FDF7CFFF02460B469FED74
:102500004E1B43EC102B05F0F5FA55EC104B4F4BDE
:102510001B681846FDF7C0FF02460B469FED461BA1
:1025200043EC102B05F0E6FA53EC102B204629461D
:10253000FEF734F902460B4610461946FEF7DCFA60
:102540000346434A1360424BD3ED007AB7EE007A5C
:10255000F4EEC77AF1EE10FA03DD3D4B4FF07E52F8
:102560001A603B4BD3ED007AB7EE007A77EE677ACC
:1025700017EE900AFDF790FF02460B4643EC102B36
:1025800005F028FBB0EE408AF0EE608A2E4B93ED0A
:10259000007A2E4BD3ED007AC7EE276A16EE900A2A
:1025A000FDF77AFF02460B4643EC112BB0EE480ACA
:1025B000F0EE680A05F09CFA55EC104B254B1B68B1
:1025C0001846FDF769FF02460B4620462946FDF7EF
:1025D00005FE02460B4610461946FEF78DFA0346E5
:1025E0001D4A13601C4B1B681846FDF755FF14A3CA
:1025F000D3E90023FDF7A8FF02460B461046194613
:10260000FEF77AFA0346154A1360144BD3ED007AAD
:102610009FED137AF4EEC77AF1EE10FA24D50F4B42
:10262000D3ED007A9FED0F7A77EE877A0B4BC3EDEF
:10263000007A2DE0AFF300800000000000000040B1
:10264000F8C1631ADCA54C40D0090020D409002051
:10265000D8090020B80900209C090020AC090020FE
:10266000000034C30000B443BB4BD3ED007A9FEDB0
:10267000BB7AF4EEC77AF1EE10FA09DDB64BD3ED72
:10268000007A9FEDB77A77EEC77AB34BC3ED007A45
:10269000B44B1B681846FDF7FFFE04460D46B24BCF
:1026A0001B681846FDF7F8FE02460B4643EC102B5C
:1026B00005F0BEFA53EC102B20462946FDF744FFE7
:1026C00002460B4690469946A84B1B681846FDF7F4
:1026D000E3FE04460D46A44B1B681846FDF7DCFEDE
:1026E00002460B4643EC102B05F0F6FA53EC102B88
:1026F00020462946FDF728FF02460B46404649463C
:10270000FDF76CFD02460B4614461D46984B1B68B0
:102710001846FDF7C1FE02460B4620462946FDF746
:102720005BFD02460B4690469946924B1B68184645
:10273000FDF7B2FE04460D468F4B1B681846FDF7A9
:10274000ABFE02460B4643EC102B05F071FA53EC3E
:10275000102B20462946FDF7F7FE02460B46404661
:102760004946FDF739FD02460B4690469946834B94
:102770001B681846FDF790FE04460D46804B1B680B
:102780001846FDF789FE02460B4643EC102B05F078
:102790004FFA53EC102B20462946FDF7D5FE024692
:1027A0000B4640464946FDF717FD02460B461446C8
:1027B0001D46744B1B681846FDF76EFE02460B461D
:1027C00020462946FDF7EAFF02460B461046194609
:1027D000FEF792F903466C4A13606C4B93ED007A56
:1027E0006B4BD3ED007A77EE677A17EE900AFDF720
:1027F00053FE04460D465F4B1B681846FDF74CFE22
:10280000804689465C4B1B681846FDF745FE02462C
:102810000B4643EC102B05F05FFA53EC102B4046AF
:102820004946FDF791FE02460B4620462946FDF734
:10283000D3FC02460B4690469946504B1B681846FF
:10284000FDF72AFE04460D464D4B1B681846FDF762
:1028500023FE02460B4643EC102B05F03DFA53ECE9
:10286000102B20462946FDF76FFE02460B464046D8
:102870004946FDF7B1FC02460B4614461D46414B46
:102880001B681846FDF708FE02460B4620462946FF
:10289000FDF784FF02460B4610461946FEF72CF959
:1028A00003463C4A13603B4B1B681846FDF7F4FD9A
:1028B00004460D46344B1B681846FDF7EDFD0246F5
:1028C0000B4643EC112B45EC104B05F011F955EC80
:1028D000104B294B1B681846FDF7DEFD02460B46E0
:1028E00020462946FDF778FC02460B46104619465D
:1028F000FEF702F90346284A1360274B1B68184667
:10290000FDF7CAFD12A3D3E90023FDF71DFE024621
:102910000B4610461946FEF7EFF803461F4A1360B0
:102920001E4BD3ED007A9FED1E7AF4EEC77AF1EEDE
:1029300010FA37D5194BD3ED007A9FED097A77EE6F
:10294000877A164BC3ED007A40E000BFAFF30080FA
:10295000F8C1631ADCA54C40AC09002000003443E8
:102960000000B44388090020980900208C09002049
:1029700000000020040000209C0900200C00002022
:10298000E409002008000020DC0900209009002054
:1029900010000020E0090020A0090020B00900205C
:1029A000000034C3204BD3ED007A9FED207AF4EE83
:1029B000C77AF1EE10FA09DD1B4BD3ED007A9FEDDB
:1029C0001C7A77EEC77A184BC3ED007A194B93ED5A
:1029D000007A194BD3ED007A37EE677A174BD3EDB7
:1029E000007A77EE677A164BC3ED007A144B1B68BA
:1029F0001846FDF751FD0AA3D3E90023FDF7A4FD16
:102A000002460B4610461946FEF776F803460D4A75
:102A1000136000BF1037BD46BDEC028BBDE8B0832C
:102A2000F8C1631ADCA54C40B00900200000344313
:102A30000000B443E40900209C090020A009002004
:102A4000A4090020B40900202DE9B04F84B000AFE4
:102A500087ED030AC7ED020A87ED011AC7ED001AD8
:102A6000594AFB681360594ABB681360584A7B682F
:102A70001360584A3B681360564B1B681846FDF7B5
:102A80000BFD4BA3D3E90023FDF75EFD02460B4689
:102A900010461946FEF730F803464F4A13604A4B7A
:102AA0001B681846FDF7F8FC02460B469FED421BDB
:102AB00043EC102B05F01EF855EC104B434B1B68F4
:102AC0001846FDF7E9FC02460B469FED3B1B43EC25
:102AD000102B05F00FF853EC102B20462946FDF77C
:102AE0007DFB02460B4643EC172BB0EE470AF0EE97
:102AF000670A05F06FF853EC102B10461946FDF7E6
:102B0000FBFF0346354A1360304B93ED007A334B9D
:102B1000D3ED007AC7EE276A16EE900AFDF7BCFCEB
:102B200004460D46284B93ED007A2C4BD3ED007AEA
:102B3000C7EE276A16EE900AFDF7AEFC02460B467A
:102B400043EC112B45EC104B04F0D2FF53EC102B4F
:102B500010461946FDF7D0FF0346214A1360204B6B
:102B60001B681846FDF798FC15A3D3E90023FDF771
:102B7000EBFC02460B4610461946FDF7BDFF034627
:102B8000184A1360174BD3ED007A9FED177AF4EED5
:102B9000C77AF1EE10FA2BD5124BD3ED007A9FEDE8
:102BA000137A77EE877A0F4BC3ED007A34E000BFDB
:102BB000399D52A246DF913F000000000000004016
:102BC000F8C1631ADCA54C40880900208C0900205C
:102BD0009009002094090020E4090020BC0900208D
:102BE00098090020A8090020000034C30000B44365
:102BF000D54BD3ED007A9FEDD57AF4EEC77AF1EE9E
:102C000010FA09DDD04BD3ED007A9FEDD17A77EE43
:102C1000C77ACD4BC3ED007ACE4B1B681846FDF743
:102C20003BFC04460D46CC4B1B681846FDF734FCB4
:102C300002460B4643EC102B04F0FAFF53EC102B2A
:102C400020462946FDF780FC02460B4690469946F1
:102C5000C24B1B681846FDF71FFC04460D46BE4BD1
:102C60001B681846FDF718FC02460B4643EC102B78
:102C700005F032F853EC102B20462946FDF764FC92
:102C800002460B4640464946FDF7A8FA02460B4667
:102C900014461D46B24B1B681846FDF7FDFB024665
:102CA0000B4620462946FDF797FA02460B4690460A
:102CB0009946AC4B1B681846FDF7EEFB04460D46E3
:102CC000A94B1B681846FDF7E7FB02460B4643EC91
:102CD000102B04F0ADFF53EC102B20462946FDF7D6
:102CE00033FC02460B4640464946FDF775FA02465C
:102CF0000B4610461946FDF7FFFE03469B4A13603C
:102D00009B4B93ED007A9B4BD3ED007A77EE677A7D
:102D100017EE900AFDF7C0FB04460D46914B1B6869
:102D20001846FDF7B9FB804689468F4B1B6818464D
:102D3000FDF7B2FB02460B4643EC102B04F0CCFF30
:102D400053EC102B40464946FDF7FEFB02460B466E
:102D500020462946FDF740FA02460B461046194622
:102D6000FDF7CAFE0346844A1360844BD3ED007A14
:102D7000B8EE007A27EE877A7F4BD3ED007A67EEC4
:102D8000277A7F4BC3ED007A7C4BD3ED007AB8EE07
:102D9000007A27EE877A754BD3ED007A67EE277AB3
:102DA000784BC3ED007A784B1B681846FDF774FB2F
:102DB00002460B469FED621B43EC102B04F09AFE7B
:102DC00055EC104B694B1B681846FDF765FB024636
:102DD0000B469FED5B1B43EC102B04F08BFE53EC7A
:102DE000102B20462946FDF7F7F902460B461446FC
:102DF0001D46614B1B681846FDF74EFB02460B460D
:102E00009FED4F1B43EC102B04F074FE53EC102B82
:102E100020462946FDF7E0F902460B4614461D46BA
:102E2000564B1B681846FDF737FB02460B469FEDD5
:102E3000441B43EC102B04F05DFE53EC102B20469A
:102E40002946FDF7C9F902460B4610461946FDF71B
:102E500053FE03464D4A1360494B1B681846FDF765
:102E60001BFB02460B469FED361B43EC102B04F078
:102E700041FE55EC104B434B1B681846FDF70CFB0D
:102E800002460B469FED2E1B43EC102B04F032FE46
:102E900053EC102B20462946FDF7A0F902460B46BD
:102EA00043EC172BB0EE470AF0EE670A04F092FEEF
:102EB00053EC102B10461946FDF71EFE0346344A0C
:102EC00013602E4BD3ED007AB8EE007A27EE877AA6
:102ED000294BD3ED007A27EE277A2D4BD3ED007ADC
:102EE000C7EE276A16EE900AFDF7D6FA04460D469D
:102EF000224BD3ED007AB8EE007A27EE877A1B4B8F
:102F0000D3ED007A27EE277A214BD3ED007AC7EE76
:102F1000276A16EE900AFDF7BFFA02460B4643EC0D
:102F2000112B45EC104B04F0E3FD53EC102B104635
:102F30001946FDF7E1FD0346164A13602CE000BF79
:102F40000000000000000040A809002000003443F9
:102F50000000B44388090020980900208C09002053
:102F6000000000200C000020E4090020C00900201F
:102F70009009002010000020C40900200400002057
:102F8000C8090020CC09002008000020D00900203A
:102F9000D4090020B8090020554B1B681846FDF7DE
:102FA0007BFA02460B469FED4E1B43EC102B04F0C0
:102FB000A1FD55EC104B4F4B1B681846FDF76CFA02
:102FC00002460B469FED461B43EC102B04F092FD8E
:102FD00053EC102B20462946FDF7E0FB02460B463A
:102FE00010461946FDF788FD0346434A1360424BDD
:102FF000D3ED007AB7EE007AF4EEC77AF1EE10FA6C
:1030000003DD3D4B4FF07E521A603B4BD3ED007A0F
:10301000B7EE007A77EE677A17EE900AFDF73CFA82
:1030200002460B4643EC102B04F0D4FD53EC102B5E
:10303000924683F0004B2E4B93ED007A2D4BD3ED4F
:10304000007AC7EE276A16EE900AFDF725FA0246C7
:103050000B4643EC112B4BEC10AB04F049FD55EC47
:10306000104B264B1B681846FDF716FA02460B4616
:1030700020462946FDF7B2F802460B46104619468F
:10308000FDF73AFD03461E4A13601D4B1B681846A8
:10309000FDF702FA14A3D3E90023FDF755FA02461F
:1030A0000B4610461946FDF727FD0346154A1360E7
:1030B000144BD3ED007A9FED147AF4EEC77AF1EE5B
:1030C00010FA25D50F4BD3ED007A9FED107A77EEED
:1030D000877A0C4BC3ED007A2EE000BFAFF300807F
:1030E0000000000000000040F8C1631ADCA54C405D
:1030F000D0090020D4090020D8090020B8090020F8
:103100009C090020AC090020000034C30000B44337
:10311000BB4BD3ED007A9FEDBB7AF4EEC77AF1EEAC
:1031200010FA09DDB64BD3ED007A9FEDB77A77EE52
:10313000C77AB34BC3ED007AB44B1B681846FDF752
:10314000ABF904460D46B24B1B681846FDF7A4F9CF
:1031500002460B4643EC102B04F06AFD53EC102B97
:1031600020462946FDF7F0F902460B46904699465F
:10317000A84B1B681846FDF78FF904460D46A44B73
:103180001B681846FDF788F902460B4643EC102BE6
:1031900004F0A2FD53EC102B20462946FDF7D4F98C
:1031A00002460B4640464946FDF718F802460B46D4
:1031B00014461D46984B1B681846FDF76DF90246EC
:1031C0000B4620462946FDF707F802460B46904677
:1031D0009946924B1B681846FDF75EF904460D466A
:1031E0008F4B1B681846FDF757F902460B4643EC18
:1031F000102B04F01DFD53EC102B20462946FDF743
:10320000A3F902460B4640464946FCF7E5FF024655
:103210000B4690469946834B1B681846FDF73CF9D0
:1032200004460D46804B1B681846FDF735F90246EB
:103230000B4643EC102B04F0FBFC53EC102B204608
:103240002946FDF781F902460B4640464946FCF700
:10325000C3FF02460B4614461D46744B1B681846B6
:10326000FDF71AF902460B4620462946FDF796FA65
:1032700002460B4610461946FDF73EFC03466C4AD3
:1032800013606C4B93ED007A6B4BD3ED007A77EEC5
:10329000677A17EE900AFDF7FFF804460D465F4B7C
:1032A0001B681846FDF7F8F8804689465C4B1B689A
:1032B0001846FDF7F1F802460B4643EC102B04F0DC
:1032C0000BFD53EC102B40464946FDF73DF90246F5
:1032D0000B4620462946FCF77FFF02460B469046E8
:1032E0009946504B1B681846FDF7D6F804460D4624
:1032F0004D4B1B681846FDF7CFF802460B4643ECD2
:10330000102B04F0E9FC53EC102B20462946FDF766
:103310001BF902460B4640464946FCF75DFF024654
:103320000B4614461D46414B1B681846FDF7B4F882
:1033300002460B4620462946FDF730FA02460B4668
:1033400010461946FDF7D8FB03463C4A13603B4B39
:103350001B681846FDF7A0F804460D46344B1B6861
:103360001846FDF799F802460B4643EC112B45EC45
:10337000104B04F0BDFB55EC104B294B1B68184655
:10338000FDF78AF802460B4620462946FCF724FF43
:1033900002460B4610461946FDF7AEFB0346284A87
:1033A0001360274B1B681846FDF776F812A3D3E984
:1033B0000023FDF7C9F802460B4610461946FDF7F3
:1033C0009BFB03461F4A13601E4BD3ED007A9FED13
:1033D0001E7AF4EEC77AF1EE10FA37D5194BD3ED19
:1033E000007A9FED097A77EE877A164BC3ED007A63
:1033F00040E000BFAFF30080F8C1631ADCA54C4089
:10340000AC090020000034430000B44388090020C8
:10341000980900208C0900200000002004000020F2
:103420009C0900200C000020E40900200800002076
:10343000DC0900209009002010000020E009002095
:10344000A0090020B0090020000034C3204BD3EDB8
:10345000007A9FED207AF4EEC77AF1EE10FA09DDDA
:103460001B4BD3ED007A9FED1C7A77EEC77A184B91
:10347000C3ED007A194B93ED007A194BD3ED007A26
:1034800037EE677A174BD3ED007A77EE677A164BF3
:10349000C3ED007A144B1B681846FCF7FDFF0AA326
:1034A000D3E90023FDF750F802460B4610461946B3
:1034B000FDF722FB03460D4A136000BF1037BD46DF
:1034C000BDE8B08FAFF30080F8C1631ADCA54C40B3
:1034D000B0090020000034430000B443E409002098
:1034E0009C090020A0090020A4090020B4090020A4
:1034F000B0B596B000AF01F031F900F0CBF800F0B4
:10350000DFFB00F02FF900F02DFA00F083F900F056
:10351000D5F900F0A1FA00F0F3FA00F081FB0021E8
:103520004B4802F007F90421494802F003F9082149
:10353000474802F0FFF80C21454802F0FBF8002153
:10354000444802F0F7F80421424802F0F3F8082159
:10355000414802F0EFF80C213F4802F0EBF83C2123
:103560003E4802F055FA3C213D4802F051FA3C2118
:103570003C4802F04DFA3C213B4802F049FA9FEDED
:10358000320B41F6263235493848FDF783FC9FED72
:103590002E0B40F6B24232493548FDF77BFC9FEDD9
:1035A0002A0B4FF4D7522F493248FDF773FC9FED99
:1035B000260B40F694422C492F48FDF76BFCFDF793
:1035C00091FFFEF743F8FEF7FBF8FEF7B3F92B4B3C
:1035D00007F13C041D460FCD0FC495E8070084E8B1
:1035E000070007F13C030021184603F006F80346E4
:1035F000234A1360234B07F120041D460FCD0FC44F
:1036000095E8070084E8070007F120030021184629
:1036100002F0F3FF03461C4A13601C4B3C1D1D4681
:103620000FCD0FC495E8070084E807003B1D00217B
:10363000184602F0E2FF0346154A136002F0D6FF77
:10364000FEE700BFAFF300807B14AE47E17A843F12
:10365000D0030020A804002060040020F80200200D
:1036600040030020880300201804002038050020B3
:10367000400600204807002050080020DC9E00087B
:10368000F0040020049F0008F40400202C9F000890
:10369000F804002080B594B000AF07F12003302279
:1036A0000021184604F0F2F907F10C0300221A6019
:1036B0005A609A60DA601A610023BB60274B1B6C6A
:1036C000264A43F080531364244B1B6C03F0805351
:1036D000BB60BB6800237B60214B1B68204A43F41E
:1036E000804313601E4B1B6803F480437B607B6840
:1036F00002233B620123FB6210233B630223BB6373
:103700000023FB6308233B6448237B640223BB64E0
:103710000423FB6407F12003184601F057FB03461E
:10372000002B01D000F08EFD0F23FB6002233B61D4
:1037300000237B614FF48053BB610023FB6107F1E1
:103740000C030221184601F0B9FD0346002B01D0FD
:1037500000F078FD00BF5037BD4680BD0038024004
:103760000070004080B58CB000AF07F10C0324223C
:103770000021184604F08AF93B1D00221A605A60A5
:10378000224B234A1A60214B00225A601F4B002211
:103790009A601E4B4FF6FF72DA601C4B00221A61D2
:1037A0001A4B00225A61194B00229A610323FB60D5
:1037B00000233B6101237B610023BB610023FB618C
:1037C00000233B6201237B620023BB620023FB6278
:1037D00007F10C0319460D4802F074F80346002B5C
:1037E00001D000F02FFD00237B600023BB603B1D58
:1037F0001946064802F000FE0346002B01D000F0F7
:1038000021FD00BF3037BD4680BD00BFF80200205B
:103810000000014080B58CB000AF07F10C032422FA
:103820000021184604F032F93B1D00221A605A604C
:10383000214B4FF080421A601F4B00225A601E4BF2
:1038400000229A601C4B4FF0FF32DA601A4B0022C4
:103850001A61194B00229A610123FB6000233B612E
:1038600001237B610023BB610023FB6100233B62DA
:1038700001237B620023BB620023FB6207F10C0380
:1038800019460D4802F01EF80346002B01D000F047
:10389000D9FC00237B600023BB603B1D1946064812
:1038A00002F0AAFD0346002B01D000F0CBFC00BFC4
:1038B0003037BD4680BD00BF4003002080B58CB0CE
:1038C00000AF07F10C0324220021184604F0DEF8B3
:1038D0003B1D00221A605A60204B214A1A601F4B80
:1038E00000225A601D4B00229A601C4B4FF6FF725B
:1038F000DA601A4B00221A61184B00229A610323E6
:10390000FB6000233B6101237B610023BB6100233B
:10391000FB6100233B6201237B620023BB62002327
:10392000FB6207F10C0319460C4801F0CBFF03467C
:10393000002B01D000F086FC00237B600023BB60DD
:103940003B1D1946054802F057FD0346002B01D0E8
:1039500000F078FC00BF3037BD4680BD88030020F2
:103960000004004080B58AB000AF07F120030022B8
:103970001A605A603B1D00221A605A609A60DA6031
:103980001A615A619A61324B324A1A60304B0622F0
:103990005A602F4B00229A602D4B40F2E732DA60DA
:1039A0002B4B00221A612A4B00229A61284801F011
:1039B00071FE0346002B01D000F044FC00233B6263
:1039C00000237B6207F120031946214802F014FD11
:1039D0000346002B01D000F035FC60237B60002300
:1039E000BB600023FB6000237B613B1D0022194666
:1039F000174802F08BF90346002B01D000F022FC9F
:103A00003B1D04221946124802F080F90346002BA0
:103A100001D000F017FC3B1D082219460C4802F0AB
:103A200075F90346002B01D000F00CFC3B1D0C2265
:103A30001946074802F06AF90346002B01D000F04E
:103A400001FC034800F090FD00BF2837BD4680BD53
:103A5000D00300200008004080B58CB000AF07F113
:103A60000C0324220021184604F010F83B1D00220C
:103A70001A605A60204B214A1A601F4B00225A607C
:103A80001D4B00229A601C4B4FF0FF32DA601A4B3C
:103A900000221A61184B00229A610323FB60002365
:103AA0003B6101237B610023BB610023FB61002399
:103AB0003B6201237B620023BB620023FB6207F1B0
:103AC0000C0319460C4801F0FDFE0346002B01D003
:103AD00000F0B8FB00237B600023BB603B1D194650
:103AE000054802F089FC0346002B01D000F0AAFB38
:103AF00000BF3037BD4680BD18040020000C0040D8
:103B000080B592B000AF07F1400300221A605A60FE
:103B100007F1240300221A605A609A60DA601A6181
:103B20005A619A613B1D20220021184603F0AEFF26
:103B3000394B3A4A1A60384B06225A60364B0022FB
:103B40009A60354B40F2E732DA60334B00221A615B
:103B5000314B00225A61304B00229A612E4801F00D
:103B600099FD0346002B01D000F06CFB00233B6461
:103B700000237B6407F140031946274802F03CFC10
:103B80000346002B01D000F05DFB60237B62002325
:103B9000BB620023FB6200233B6300237B630023A3
:103BA000BB630023FB6307F12403082219461A486C
:103BB00002F0ACF80346002B01D000F043FB07F104
:103BC00024030C221946144802F0A0F80346002BE7
:103BD00001D000F037FB00237B600023BB60002393
:103BE000FB6000233B6100237B614FF40053BB610A
:103BF00000233B623B1D1946074802F079FC03464F
:103C0000002B01D000F01EFB034800F0ADFC00BF0C
:103C10004837BD4680BD00BF60040020000401405D
:103C200080B588B000AF3B1D00221A605A609A60D0
:103C3000DA601A615A619A611F4B204A1A601E4B62
:103C400006225A601C4B00229A601B4B40F2E7325E
:103C5000DA60194B00221A61174B00229A6116484C
:103C600001F018FD0346002B01D000F0EBFA6023B1
:103C70007B600023BB600023FB6000237B613B1D56
:103C8000002219460C4802F041F80346002B01D0EF
:103C900000F0D8FA3B1D04221946074802F036F816
:103CA0000346002B01D000F0CDFA034800F05CFC85
:103CB00000BF2037BD4680BDA80400200040014061
:103CC00080B58AB000AF07F1140300221A605A6071
:103CD0009A60DA601A6100233B61294B1B6B284A0A
:103CE00043F001031363264B1B6B03F001033B619D
:103CF0003B690023FB60224B1B6B214A43F0080306
:103D000013631F4B1B6B03F00803FB60FB6800236E
:103D1000BB601B4B1B6B1A4A43F004031363184B25
:103D20001B6B03F00403BB60BB6800237B60144B78
:103D30001B6B134A43F002031363114B1B6B03F01D
:103D400002037B607B6830237B610023BB6101231E
:103D5000FB6107F1140319460A4800F083FEC023F3
:103D60007B610023BB610123FB6107F1140319464A
:103D7000054800F077FE00BF2837BD4680BD00BF74
:103D800000380240000002400008024080B582B0C6
:103D900000AF78602A4B1B78012B4DD1294B1B7843
:103DA000012B15D1284BD3ED007A284B93ED007AE7
:103DB000274BD3ED006A274B93ED006AF0EE461ACD
:103DC000B0EE661AF0EE470AB0EE670AFDF76CFE39
:103DD000214B1B78012B15D1204BD3ED007A204BC2
:103DE00093ED007A1F4BD3ED006A1F4B93ED006AF1
:103DF000F0EE461AB0EE661AF0EE470AB0EE670A29
:103E0000FEF7CAF8194B1B78012B15D1134BD3EDD4
:103E1000007A134B93ED007A124BD3ED006A124BEC
:103E200093ED006AF0EE461AB0EE661AF0EE470A1D
:103E3000B0EE670AFEF708FE0A2002F02AFCA9E7A6
:103E4000FC040020FD0400201405002018050020BB
:103E50001C05002020050020FE0400202405002071
:103E6000280500202C05002030050020FF0400203C
:103E700080B584B002AF7860944B00221A70402164
:103E8000934800F08BFF03465AB2924B1A70802180
:103E90008F4800F083FF03465AB28F4B1A701021EF
:103EA0008E4800F07BFF03465AB28D4B1A702021DA
:103EB0008A4800F073FF03465AB28A4B1A70834B4C
:103EC0001B78002B40F0FE80874B1B78002B5AD1CB
:103ED00040217F4800F062FF0346012B18D10120EA
:103EE00002F0D7FB40217A4800F058FF0346012B2F
:103EF00049D101217D48FDF7DBF87D4B00221A6096
:103F0000794B01221A707B4B4FF000021A603AE0A5
:103F1000774B794A1A6002217448FDF763F851EC37
:103F2000100B4FF00002754BFCF79EFD0346002B73
:103F300009D06F4B1B68002B05DD6D4B1B685B4286
:103F40006B4A136016E002216848FDF74BF851EC0C
:103F5000100B4FF000026A4BFCF768FD0346002B84
:103F600008D0634B1B68002B04DA614B1B685B4273
:103F70005F4A13605E4B1A680C2300930823614963
:103F80006148FDF7ACF8614B1B78002B2BD18021E9
:103F90004F4800F003FF0346012B17D1012002F028
:103FA00078FB80214A4800F0F9FE0346012B1AD124
:103FB00001215748FDF77CF8564B00221A60534BFD
:103FC00001221A70544B554A1A600CE0514B4FF4C1
:103FD000C8721A604F4B1A680C230093082350498B
:103FE0005048FDF77CF8504B1B78002B27D110214F
:103FF0003A4800F0D3FE0346002B14D1012002F012
:1040000048FB1021354800F0C9FE0346002B16D1AD
:1040100001214648FDF74CF8434B01221A70444BEE
:10402000444A1A600BE0444B444A1A60424B1A68F7
:104030000423009300233A494148FDF750F8414BCF
:104040001B78002B2BD12021244800F0A7FE03462B
:10405000002B17D1012002F01CFB20211F4800F08B
:104060009DFE0346002B1AD101213748FDF720F8A9
:10407000364B00221A60334B01221A70344B354AFA
:104080001A600CE0314B4FF496721A602F4B1A688D
:1040900004230093002330493048FDF720F8124BE9
:1040A0001B78012B0ED1194B1B78012B0AD11E4B0B
:1040B0001B78012B06D1234B1B78012B02D1034B1C
:1040C00001221A700A2002F0E4FAD8E6FC0400206B
:1040D00000080240340500203505002000000240A1
:1040E0003605002037050020100500203805002087
:1040F000000500203806002070FEFFFF00805640BB
:10410000008056C0600400208005002011050020BA
:1041100040060020040500204007002000003B432B
:10412000D003002088060020120500204807002048
:1041300048080020000007C308050020D4FEFFFF48
:104140009007002013050020500800200C050020D7
:10415000500900200000B442A80400209808002064
:1041600080B582B000AF7860234B1B78012B01D162
:10417000FDF746FA214B1B78012B01D1FDF7F4FA2C
:104180001F4B1B78012B01D1FDF7A8FB1D4B1B78A2
:10419000012B01D1FDF75CFC1B4B1B78012B0FD1D0
:1041A0001A4B1B681A4A13601A4B1B681A4A136091
:1041B0001A4B1B681A4A13601A4B1B681A4A136081
:1041C0001A4B1B78012B03D0194B1B78012B0FD1F5
:1041D000184B1B680E4A1360174B1B680E4A13607E
:1041E000164B1B680E4A1360154B1B680E4A136072
:1041F0000A2002F04EFAB7E7100500201105002052
:104200001205002013050020FD04002014050020E5
:104210003806002018050020400700201C0500205B
:10422000480800202005002050090020FE0400203E
:10423000FF040020A8090020AC090020B0090020DC
:10424000B409002080B400AF72B600BFFEE70000E2
:1042500080B582B000AF00237B60124B5B6C114ACB
:1042600043F4804353640F4B5B6C03F480437B60E7
:104270007B6800233B600B4B1B6C0A4A43F0805366
:104280001364084B1B6C03F080533B603B680022B7
:104290000F216FF0010000F0AEFB00BF0837BD46F4
:1042A00080BD00BF0038024080B590B000AF78609C
:1042B00007F12C0300221A605A609A60DA601A61D2
:1042C0007B681B68784A934235D10023BB62774BE9
:1042D0005B6C764A43F001035364744B5B6C03F0F0
:1042E0000103BB62BB6A00237B62704B1B6B6F4A8E
:1042F00043F0010313636D4B1B6B03F001037B62FF
:104300007B6A4FF44073FB6202233B6300237B63B1
:104310000023BB630123FB6307F12C0319466448A8
:1043200000F0A0FB00220521182000F064FB1820FB
:1043300000F07DFBB3E07B681B68B3F1804F4BD18D
:1043400000233B62594B1B6C584A43F00103136432
:10435000564B1B6C03F001033B623B6A0023FB617D
:10436000524B1B6B514A43F0010313634F4B1B6BC2
:1043700003F00103FB61FB690023BB614B4B1B6B2B
:104380004A4A43F002031363484B1B6B03F00203DA
:10439000BB61BB694FF40043FB6202233B63002314
:1043A0007B630023BB630123FB6307F12C031946E6
:1043B0003F4800F057FB0823FB6202233B630023C6
:1043C0007B630023BB630123FB6307F12C031946C6
:1043D000384800F047FB62E07B681B68364A93422E
:1043E0002CD100237B61314B1B6C304A43F002031C
:1043F00013642E4B1B6C03F002037B617B6900236B
:104400003B612A4B1B6B294A43F001031363274B83
:104410001B6B03F001033B613B69C023FB6202237A
:104420003B6300237B630023BB630223FB6307F131
:104430002C0319461E4800F015FB30E07B681B6812
:104440001E4A93422BD10023FB60184B1B6C174A6A
:1044500043F008031364154B1B6C03F00803FB6067
:10446000FB680023BB60114B1B6B104A43F0010338
:1044700013630E4B1B6B03F00103BB60BB6803238C
:10448000FB6202233B6300237B630023BB630223A5
:10449000FB6307F12C031946054800F0E3FA00BF5F
:1044A0004037BD4680BD00BF0000014000380240DB
:1044B000000002400004024000040040000C0040E4
:1044C00080B586B000AF78607B681B68224A934253
:1044D0000ED100237B61214B1B6C204A43F0040367
:1044E00013641E4B1B6C03F004037B617B692EE09D
:1044F0007B681B681A4A93420ED100233B61174B1D
:104500005B6C164A43F002035364144B5B6C03F07C
:1045100002033B613B691AE07B681B68114A9342C6
:1045200015D10023FB600D4B5B6C0C4A43F48033C8
:1045300053640A4B5B6C03F48033FB60FB6800221E
:104540000521182000F057FA182000F070FA00BF7B
:104550001837BD4680BD00BF00080040003802404B
:10456000000401400040014080B58AB000AF78608F
:1045700007F1140300221A605A609A60DA601A6127
:104580007B681B68374A93421FD100233B61364B3F
:104590001B6B354A43F008031363334B1B6B03F06B
:1045A00008033B613B694FF470437B610223BB61AD
:1045B0000023FB6100233B6202237B6207F11403AB
:1045C00019462A4800F04EFA47E07B681B68284AE3
:1045D00093421FD10023FB60234B1B6B224A43F005
:1045E00004031363204B1B6B03F00403FB60FB68A5
:1045F0004FF440737B610223BB610023FB61002306
:104600003B6203237B6207F114031946194800F04B
:1046100029FA22E07B681B68174A93421DD10023C8
:10462000BB60114B1B6B104A43F0010313630E4B2D
:104630001B6B03F00103BB60BB680C237B6102238F
:10464000BB610023FB6100233B6203237B6207F114
:1046500014031946094800F005FA00BF2837BD4683
:1046600080BD00BF0008004000380240000C02403E
:1046700000040140000802400040014000000240E8
:1046800080B400AFFEE780B400AFFEE780B400AFB7
:10469000FEE780B400AFFEE780B400AFFEE780B471
:1046A00000AF00BFBD465DF8047B704780B500AF2A
:1046B00000F0A6F802F070FD0346012B01D002F0D5
:1046C000ABFF00BF80BD000080B500AF034801F024
:1046D0002DFA034801F02AFA00BF80BDF80200203D
:1046E000A804002080B400AF064BD3F88830054AF8
:1046F00043F47003C2F8883000BFBD465DF8047B08
:10470000704700BF00ED00E0DFF834D0FFF7EAFFAC
:104710000C480D490D4A002302E0D458C45004331C
:10472000C4188C42F9D30A4A0A4C002301E01360F2
:104730000432A242FBD303F0B7F9FEF7D9FE70476B
:10474000000002200000002088000020E8A10008EE
:104750008800002078480020FEE7000080B500AF08
:104760000E4B1B680D4A43F4007313600B4B1B6820
:104770000A4A43F480631360084B1B68074A43F4FA
:1047800080731360032000F02BF90F2000F008F86D
:10479000FFF75EFD0023184680BD00BF003C0240CD
:1047A00080B582B000AF7860124B1A68124B1B784C
:1047B00019464FF47A73B3FBF1F3B2FBF3F31846E7
:1047C00000F043F90346002B01D001230EE07B6883
:1047D0000F2B0AD8002279684FF0FF3000F00BF958
:1047E000064A7B681360002300E00123184608375F
:1047F000BD4680BD140000201C00002018000020D1
:1048000080B400AF064B1B781A46064B1B68134456
:10481000044A136000BFBD465DF8047B704700BFCB
:104820001C000020E809002080B400AF034B1B6887
:104830001846BD465DF8047B704700BFE8090020BC
:1048400080B485B000AF78607B6803F00703FB603D
:104850000C4BDB68BB60BA684FF6FF031340BB60CC
:10486000FB681A02BB68134343F0BF6343F4003391
:10487000BB60044ABB68D36000BF1437BD465DF817
:10488000047B704700ED00E080B400AF044BDB68B0
:104890001B0A03F007031846BD465DF8047B70470A
:1048A00000ED00E080B483B000AF0346FB7197F9E0
:1048B0000730002B0BDBFB7903F01F02074997F948
:1048C00007305B09012000FA02F241F8232000BF03
:1048D0000C37BD465DF8047B704700BF00E100E087
:1048E00080B483B000AF03463960FB7197F907309D
:1048F000002B0ADB3B68DAB20C4997F9073012014A
:10490000D2B20B4483F800230AE03B68DAB20849CC
:10491000FB7903F00F03043B1201D2B20B441A7669
:1049200000BF0C37BD465DF8047B704700E100E036
:1049300000ED00E080B489B000AFF860B9607A6043
:10494000FB6803F00703FB61FB69C3F10703042B5A
:1049500028BF0423BB61FB690433062B02D9FB6922
:10496000033B00E000237B614FF0FF32BB6902FA9A
:1049700003F3DA43BB681A407B699A404FF0FF317A
:104980007B6901FA03F3D9437B680B401343184654
:104990002437BD465DF8047B7047000080B582B0C7
:1049A00000AF78607B68013BB3F1807F01D30123C6
:1049B0000FE00A4A7B68013B53600F214FF0FF3044
:1049C000FFF78EFF054B00229A60044B07221A6006
:1049D000002318460837BD4680BD00BF10E000E048
:1049E00080B582B000AF78607868FFF729FF00BF1C
:1049F0000837BD4680BD80B586B000AF0346B960BC
:104A00007A60FB7300237B61FFF73EFF78617A6871
:104A1000B9687869FFF78EFF024697F90F301146A3
:104A20001846FFF75DFF00BF1837BD4680BD80B553
:104A300082B000AF0346FB7197F907301846FFF7C5
:104A400031FF00BF0837BD4680BD80B582B000AFE2
:104A500078607868FFF7A2FF034618460837BD461E
:104A600080BD000080B489B000AF78603960002359
:104A70007B6100233B610023BB610023FB616BE191
:104A80000122FB6902FA03F37B613B681B687A69C8
:104A900013403B613A697B699A4240F05A813B6816
:104AA0005B6803F00303012B05D03B685B6803F0F0
:104AB0000303022B30D17B689B68BB61FB695B0001
:104AC000032202FA03F3DB43BA691340BB613B687C
:104AD000DA68FB695B0002FA03F3BA691343BB614E
:104AE0007B68BA699A607B685B68BB610122FB697D
:104AF00002FA03F3DB43BA691340BB613B685B68AE
:104B00001B0903F00102FB6902FA03F3BA691343BC
:104B1000BB617B68BA695A603B685B6803F003035A
:104B2000032B17D07B68DB68BB61FB695B0003224A
:104B300002FA03F3DB43BA691340BB613B689A682E
:104B4000FB695B0002FA03F3BA691343BB617B683C
:104B5000BA69DA603B685B6803F00303022B23D178
:104B6000FB69DA087B68083253F82230BB61FB69C5
:104B700003F007039B000F2202FA03F3DB43BA6939
:104B80001340BB613B681A69FB6903F007039B0094
:104B900002FA03F3BA691343BB61FB69DA087B6865
:104BA0000832B96943F822107B681B68BB61FB6956
:104BB0005B00032202FA03F3DB43BA691340BB61D3
:104BC0003B685B6803F00302FB695B0002FA03F3D6
:104BD000BA691343BB617B68BA691A603B685B685A
:104BE00003F44033002B00F0B4800023FB60604BE3
:104BF0005B6C5F4A43F4804353645D4B5B6C03F42E
:104C00008043FB60FB685B4AFB699B08023352F8F8
:104C10002330BB61FB6903F003039B000F2202FA00
:104C200003F3DB43BA691340BB617B68524A93428A
:104C30002BD07B68514A934225D07B68504A9342DF
:104C40001FD07B684F4A934219D07B684E4A9342EB
:104C500013D07B684D4A93420DD07B684C4A9342F7
:104C600007D07B684B4A934201D107230EE008230B
:104C70000CE006230AE0052308E0042306E00323F2
:104C800004E0022302E0012300E00023FA6902F0BD
:104C9000030292009340BA691343BB613549FB6933
:104CA0009B080233BA6941F823203B4B9B68BB61E8
:104CB0003B69DB43BA691340BB613B685B6803F443
:104CC0008013002B03D0BA693B691343BB61324A9E
:104CD000BB699360304BDB68BB613B69DB43BA69FE
:104CE0001340BB613B685B6803F40013002B03D0E7
:104CF000BA693B691343BB61274ABB69D360264B42
:104D00005B68BB613B69DB43BA691340BB613B68CD
:104D10005B6803F40033002B03D0BA693B6913438B
:104D2000BB611D4ABB6953601B4B1B68BB613B6980
:104D3000DB43BA691340BB613B685B6803F48033B3
:104D4000002B03D0BA693B691343BB61124ABB69AC
:104D50001360FB690133FB61FB690F2B7FF690AE9B
:104D600000BF00BF2437BD465DF8047B704700BF1D
:104D700000380240003801400000024000040240B8
:104D800000080240000C02400010024000140240E3
:104D900000180240001C0240003C014080B485B075
:104DA00000AF78600B467B807B681A697B88134074
:104DB000002B02D00123FB7301E00023FB73FB7B7C
:104DC00018461437BD465DF8047B704780B586B041
:104DD00000AF78607B68002B01D1012367E27B681C
:104DE0001B6803F00103002B75D0884B9B6803F010
:104DF0000C03042B0CD0854B9B6803F00C03082B91
:104E000012D1824B5B6803F48003B3F5800F0BD1A2
:104E10007E4B1B6803F40033002B5BD07B685B6820
:104E2000002B57D1012342E27B685B68B3F5803FDA
:104E300006D1764B1B68754A43F4803313601DE03E
:104E40007B685B68B3F5A02F0CD1704B1B686F4A71
:104E500043F4802313606D4B1B686C4A43F480332A
:104E600013600BE0694B1B68684A23F480331360BE
:104E7000664B1B68654A23F4802313607B685B687C
:104E8000002B13D0FFF7D0FC386108E0FFF7CCFC13
:104E900002463B69D31A642B01D9032307E25B4B1B
:104EA0001B6803F40033002BF0D014E0FFF7BCFCC8
:104EB000386108E0FFF7B8FC02463B69D31A642B5F
:104EC00001D90323F3E1514B1B6803F40033002B9A
:104ED000F0D100E000BF7B681B6803F00203002BE9
:104EE00063D04A4B9B6803F00C03002B0BD0474B5D
:104EF0009B6803F00C03082B1CD1444B5B6803F444
:104F00008003002B16D1414B1B6803F00203002BDA
:104F100005D07B68DB68012B01D00123C7E13B4B47
:104F20001B6823F0F8027B681B69DB0037491343D9
:104F30000B603AE07B68DB68002B20D0344B012209
:104F40001A60FFF771FC386108E0FFF76DFC02465C
:104F50003B69D31A022B01D90323A8E12B4B1B6811
:104F600003F00203002BF0D0284B1B6823F0F8025B
:104F70007B681B69DB00254913430B6015E0244B5C
:104F800000221A60FFF750FC386108E0FFF74CFC84
:104F900002463B69D31A022B01D9032387E11B4B3D
:104FA0001B6803F00203002BF0D17B681B6803F041
:104FB0000803002B36D07B685B69002B16D0154B9D
:104FC00001221A60FFF730FC386108E0FFF72CFC83
:104FD00002463B69D31A022B01D9032367E10B4B2D
:104FE0005B6F03F00203002BF0D01BE0094B0022A3
:104FF0001A60FFF719FC38610EE0FFF715FC024656
:105000003B69D31A022B07D9032350E10038024031
:1050100000004742800E4742884B5B6F03F002035B
:10502000002BEAD17B681B6803F00403002B00F01F
:1050300097800023FB75814B1B6C03F08053002B82
:105040000FD10023BB607D4B1B6C7C4A43F0805327
:1050500013647A4B1B6C03F08053BB60BB68012365
:10506000FB75774B1B6803F48073002B18D1744BCE
:105070001B68734A43F480731360FFF7D5FB3861F4
:1050800008E0FFF7D1FB02463B69D31A022B01D996
:1050900003230CE16A4B1B6803F48073002BF0D0F0
:1050A0007B689B68012B06D1644B1B6F634A43F0FE
:1050B000010313671CE07B689B68052B0CD15F4BD9
:1050C0001B6F5E4A43F0040313675C4B1B6F5B4A24
:1050D00043F0010313670BE0584B1B6F574A23F053
:1050E00001031367554B1B6F544A23F004031367E6
:1050F0007B689B68002B15D0FFF796FB38610AE0B0
:10510000FFF792FB02463B69D31A41F28832934281
:1051100001D90323CBE0494B1B6F03F00203002BA3
:10512000EED014E0FFF780FB38610AE0FFF77CFB6C
:1051300002463B69D31A41F28832934201D90323D4
:10514000B5E03E4B1B6F03F00203002BEED1FB7D5D
:10515000012B05D1394B1B6C384A23F08053136463
:105160007B689B69002B00F0A180344B9B6803F0A7
:105170000C03082B5CD07B689B69022B41D1314B1F
:1051800000221A60FFF750FB386108E0FFF74CFB84
:1051900002463B69D31A022B01D9032387E0274B30
:1051A0001B6803F00073002BF0D17B68DA697B6821
:1051B0001B6A1A437B685B6A9B011A437B689B6A84
:1051C0005B08013B1B041A437B68DB6A1B061B4917
:1051D00013434B601B4B01221A60FFF725FB38611C
:1051E00008E0FFF721FB02463B69D31A022B01D9E5
:1051F00003235CE0114B1B6803F00073002BF0D01D
:1052000054E0104B00221A60FFF70EFB386108E0F3
:10521000FFF70AFB02463B69D31A022B01D903238D
:1052200045E0064B1B6803F00073002BF0D13DE016
:105230007B689B69012B07D1012338E000380240CD
:1052400000700040600047421B4B5B68FB607B685E
:105250009B69012B28D0FB6803F480027B68DB6923
:105260009A4221D1FB6803F03F027B681B6A9A4295
:105270001AD1FA6847F6C07313407A68526A9201ED
:10528000934211D1FB6803F440327B689B6A5B0850
:10529000013B1B049A4207D1FB6803F070627B68F4
:1052A000DB6A1B069A4201D0012300E00023184666
:1052B0001837BD4680BD00BF0038024080B584B0BD
:1052C00000AF786039607B68002B01D10123CCE00E
:1052D000684B1B6803F007033A689A420CD9654B88
:1052E0003A68D2B21A70634B1B6803F007033A683E
:1052F0009A4201D00123B8E07B681B6803F00203E7
:10530000002B20D07B681B6803F00403002B05D022
:10531000594B9B68584A43F4E05393607B681B6881
:1053200003F00803002B05D0534B9B68524A43F40B
:1053300060439360504B9B6823F0F0027B689B684E
:105340004D4913438B607B681B6803F00103002BFE
:1053500044D07B685B68012B07D1474B1B6803F483
:105360000033002B19D101237FE07B685B68022B9F
:1053700003D07B685B68032B07D13F4B1B6803F0AE
:105380000073002B09D101236FE03B4B1B6803F036
:105390000203002B01D1012367E0374B9B6823F008
:1053A00003027B685B68344913438B60FFF73CFA68
:1053B000F8600AE0FFF738FA0246FB68D31A41F2B8
:1053C0008832934201D903234FE02B4B9B6803F0B3
:1053D0000C027B685B689B009A42EBD1254B1B68F3
:1053E00003F007033A689A420CD2224B3A68D2B2D1
:1053F0001A70204B1B6803F007033A689A4201D0E9
:10540000012332E07B681B6803F00403002B08D003
:10541000194B9B6823F4E0527B68DB681649134301
:105420008B607B681B6803F00803002B09D0124BCC
:105430009B6823F460427B681B69DB000E491343C1
:105440008B6000F021F802460B4B9B681B0903F0B0
:105450000F030A49CB5C22FA03F3094A1360094B94
:105460001B681846FFF79CF9002318461037BD4605
:1054700080BD00BF003C024000380240509F000841
:1054800014000020180000202DE9B04F94B000AFA8
:1054900000237B640023FB6400233B640023BB6484
:1054A000794B9B6803F00C03082B0DD0082B00F2FE
:1054B000E180002B02D0042B03D0DBE0734BBB64F4
:1054C000DBE0734BBB64D8E06F4B5B6803F03F03DA
:1054D0007B646D4B5B6803F48003002B63D06A4BE5
:1054E0005B689B090022BB63FA63BB6BC3F30803D1
:1054F0003B6300237B63D7E90C4522462B464FF0E4
:1055000000004FF00001590141EAD261500102460A
:105510000B462146511A3961294663EB01037B6131
:105520004FF000024FF00003D7E904AB59468B015E
:10553000514643EA916351468A015146B2EB010854
:10554000594663EB01094FF000024FF000034FEAA8
:10555000C90343EA58734FEAC80290469946234666
:1055600018EB0303BB602B4649EB0303FB604FF0D2
:1055700000024FF00003D7E9024529464B022146BD
:1055800043EAD15321464A02104619467B6C002259
:10559000BB62FA62D7E90A23FBF7FEFA02460B4622
:1055A0001346FB6458E0384B5B689B0900221846A1
:1055B0001146C0F308033B6200237B62D7E90889E8
:1055C00042464B464FF000004FF00001590141EABE
:1055D000D261500102460B464146B2EB010A4946F0
:1055E00063EB010B4FF000024FF000034FEA8B1307
:1055F00043EA9A634FEA8A12B2EB0A0463EB0B05A3
:105600004FF000024FF00003EB0043EA5473E20056
:1056100014461D464346E3183B604B4645EB0303E7
:105620007B604FF000024FF00003D7E900452946A8
:105630008B02214643EA915321468A0210461946BD
:105640007B6C0022BB61FA61D7E90623FBF7A4FA61
:1056500002460B461346FB640B4B5B681B0C03F0C6
:10566000030301335B003B64FA6C3B6CB2FBF3F366
:10567000BB6402E0054BBB6400BFBB6C18465037EF
:10568000BD46BDE8B08F00BF003802400024F400E2
:1056900000127A0080B582B000AF78607B68002B82
:1056A00001D1012341E07B6893F83D30DBB2002B50
:1056B00006D17B68002283F83C207868FEF700FF63
:1056C0007B68022283F83D207B681A687B6804337C
:1056D0001946104600F00EFC7B68012283F8462034
:1056E0007B68012283F83E207B68012283F83F20FB
:1056F0007B68012283F840207B68012283F84120E7
:105700007B68012283F842207B68012283F84320D2
:105710007B68012283F844207B68012283F84520BE
:105720007B68012283F83D20002318460837BD46D8
:1057300080BD000080B584B000AF786039603B6800
:10574000002B09D17B6893F83E30DBB2012B14BFEC
:1057500001230023DBB222E03B68042B09D17B68E4
:1057600093F83F30DBB2012B14BF01230023DBB2DF
:1057700015E03B68082B09D17B6893F84030DBB219
:10578000012B14BF01230023DBB208E07B6893F8F0
:105790004130DBB2012B14BF01230023DBB2002B0D
:1057A00001D001237CE03B68002B04D17B680222FE
:1057B00083F83E2013E03B68042B04D17B6802226F
:1057C00083F83F200BE03B68082B04D17B68022262
:1057D00083F8402003E07B68022283F841207B6845
:1057E0001B6801223968184600F0E0FD7B681B68E1
:1057F0002D4A934204D07B681B682C4A934201D106
:10580000012300E00023002B07D07B681B685A6C43
:105810007B681B6842F400425A647B681B68224A1A
:10582000934222D07B681B68B3F1804F1DD07B6808
:105830001B681F4A934218D07B681B681D4A93421D
:1058400013D07B681B681C4A93420ED07B681B6890
:10585000164A934209D07B681B68184A934204D0C9
:105860007B681B68164A934211D17B681B689B6852
:1058700003F00703FB60FB68062B10D07B681B68F6
:105880001A687B681B6842F001021A6007E07B68B7
:105890001B681A687B681B6842F001021A600023CB
:1058A00018461037BD4680BD00000140000401408D
:1058B0000004004000080040000C0040004001408F
:1058C0000018004080B586B000AF786039607B6812
:1058D000002B01D1012397E07B6893F83D30DBB2C8
:1058E000002B06D17B68002283F83C207868FEF705
:1058F000DBFC7B68022283F83D207B681B689B6889
:105900007A68126823F4804323F0070393607B686E
:105910001A687B6804331946104600F0EBFA7B687E
:105920001B689B687B617B681B689B693B617B682C
:105930001B681B6AFB603B681B687A6913437B61C9
:105940003B6923F4407323F003033B613B689A688F
:105950003B689B691B0213433A6913433B613B69F4
:1059600023F4406323F00C033B613B6923F4704351
:1059700023F0F0033B613B68DA683B68DB691B029C
:1059800013433A6913433B613B681B691A013B6847
:105990001B6A1B0313433A6913433B61FB6823F003
:1059A0002203FB60FB6823F08803FB603B685A68B6
:1059B0003B685B691B011343FA681343FB607B6818
:1059C0001B687A699A607B681B683A699A617B6890
:1059D0001B68FA681A627B68012283F846207B689C
:1059E000012283F83E207B68012283F83F207B68F8
:1059F000012283F842207B68012283F843207B68E0
:105A0000012283F83D20002318461837BD4680BD8B
:105A100080B584B000AF786039607B6893F83E3021
:105A2000FB737B6893F83F30BB737B6893F842301D
:105A30007B737B6893F843303B733B68002B10D13A
:105A4000FB7B012B02D17B7B012B01D0012369E081
:105A50007B68022283F83E207B68022283F8422082
:105A600031E03B68042B10D1BB7B012B02D13B7B87
:105A7000012B01D0012355E07B68022283F83F20EF
:105A80007B68022283F843201DE0FB7B012B08D1B9
:105A9000BB7B012B05D17B7B012B02D13B7B012BF7
:105AA00001D001233EE07B68022283F83E207B6820
:105AB000022283F83F207B68022283F842207B6821
:105AC000022283F843203B68002B03D03B68042B61
:105AD00008D00FE07B681B6801220021184600F007
