:020000040800F2
:100000000000022099490008FD4800080349000843
:10001000094900080F4900081549000800000000C0
:10002000000000000000000000000000C185000882
:100030001B49000800000000118800082949000839
:10004000E9490008E9490008E9490008E9490008C8
:10005000E9490008E9490008E9490008E9490008B8
:10006000E9490008E9490008E9490008E9490008A8
:10007000E9490008E9490008E9490008E949000898
:10008000E9490008E9490008E9490008E949000888
:10009000E9490008E9490008E9490008E949000878
:1000A00045490008E9490008E9490008E94900080C
:1000B000E9490008E9490008E9490008E949000858
:1000C000E9490008E9490008E9490008E949000848
:1000D000E9490008E949000861490008E9490008C0
:1000E000E9490008E9490008E9490008E949000828
:1000F000E9490008E9490008E9490008E949000818
:10010000E9490008E9490008E9490008E949000807
:10011000E9490008E9490008E9490008E9490008F7
:10012000E9490008E9490008E9490008E9490008E7
:10013000E9490008E9490008E9490008E9490008D7
:10014000E9490008E9490008E9490008E9490008C7
:10015000E9490008E9490008E9490008E9490008B7
:10016000E9490008E9490008E9490008E9490008A7
:10017000E9490008E9490008E949000800000000D1
:08018000E9490008E949000803
:1001900010B5054C237833B9044B13B10448AFF3C1
:1001A00000800123237010BD7800002000000000B3
:1001B00014B2000808B5034B1BB103490348AFF361
:1001C000008008BD000000007C00002014B2000880
:1001D00081F0004102E000BF83F0004330B54FEAF8
:1001E00041044FEA430594EA050F08BF90EA020F65
:1001F0001FBF54EA000C55EA020C7FEA645C7FEAF8
:10020000655C00F0E2804FEA5454D4EB5555B8BF1A
:100210006D420CDD2C4480EA020281EA030382EA8B
:10022000000083EA010180EA020281EA0303362D1D
:1002300088BF30BD11F0004F4FEA01314FF4801CF0
:100240004CEA113102D0404261EB410113F0004F02
:100250004FEA03334CEA133302D0524263EB4303B9
:1002600094EA050F00F0A780A4F10104D5F1200E57
:100270000DDB02FA0EFC22FA05F2801841F10001B2
:1002800003FA0EF2801843FA05F359410EE0A5F186
:1002900020050EF1200E012A03FA0EFC28BF4CF0B7
:1002A000020C43FA05F3C01851EBE37101F000456D
:1002B00007D54FF0000EDCF1000C7EEB00006EEB7A
:1002C0000101B1F5801F1BD3B1F5001F0CD3490804
:1002D0005FEA30004FEA3C0C04F101044FEA44525B
:1002E00012F5800F80F09A80BCF1004F08BF5FEAE2
:1002F000500C50F1000041EB045141EA050130BDC2
:100300005FEA4C0C404141EB0101013C28BFB1F5D3
:10031000801FE9D291F0000F04BF01460020B1FA1E
:1003200081F308BF2033A3F10B03B3F120020CDAF1
:100330000C3208DD02F1140CC2F10C0201FA0CF0CF
:1003400021FA02F10CE002F11402D8BFC2F1200C34
:1003500001FA02F120FA0CFCDCBF41EA0C019040EA
:10036000E41AA2BF01EB0451294330BD6FEA040433
:100370001F3C1CDA0C340EDC04F11404C4F120021E
:1003800020FA04F001FA02F340EA030021FA04F330
:1003900045EA030130BDC4F10C04C4F1200220FA87
:1003A00002F001FA04F340EA0300294630BD21FAC5
:1003B00004F0294630BD94F0000F83F4801306BF8B
:1003C00081F480110134013D4EE77FEA645C18BF7F
:1003D0007FEA655C29D094EA050F08BF90EA020F16
:1003E00005D054EA000C04BF1946104630BD91EA0E
:1003F000030F1EBF0021002030BD5FEA545C05D111
:100400004000494128BF41F0004130BD14F580044F
:100410003CBF01F5801130BD01F0004545F0FE41C3
:1004200041F470014FF0000030BD7FEA645C1ABFF8
:10043000194610467FEA655C1CBF0B46024650EA2F
:10044000013406BF52EA033591EA030F41F400215B
:1004500030BD00BF90F0000F04BF0021704730B5E1
:100460004FF4806404F132044FF000054FF00001B6
:1004700050E700BF90F0000F04BF0021704730B577
:100480004FF4806404F1320410F0004548BF40424C
:100490004FF000013EE700BF42004FEAE2014FEAA1
:1004A00031014FEA02701FBF12F07F4393F07F4F7C
:1004B00081F06051704732F07F4208BF704793F07F
:1004C0007F4F04BF41F40021704730B54FF4607492
:1004D00001F0004521F000411CE700BF50EA010295
:1004E00008BF704730B54FF000050AE050EA01023E
:1004F00008BF704730B511F0004502D5404261EBAE
:1005000041014FF4806404F132045FEA915C3FF4EE
:10051000D8AE4FF003025FEADC0C18BF03325FEA8B
:10052000DC0C18BF033202EBDC02C2F1200300FA3C
:1005300003FC20FA02F001FA03FE40EA0E0021FA61
:1005400002F11444BDE600BF70B54FF0FF0C4CF44F
:10055000E06C1CEA11541DBF1CEA135594EA0C0F01
:1005600095EA0C0F00F0DEF82C4481EA030621EA3C
:100570004C5123EA4C5350EA013518BF52EA033577
:1005800041F4801143F4801338D0A0FB02CE4FF029
:100590000005E1FB02E506F00042E0FB03E54FF059
:1005A0000006E1FB03569CF0000F18BF4EF0010E51
:1005B000A4F1FF04B6F5007F64F5407404D25FEA4D
:1005C0004E0E6D4146EB060642EAC62141EA555100
:1005D0004FEAC52040EA5E504FEACE2EB4F1FD0C42
:1005E00088BFBCF5E06F1ED8BEF1004F08BF5FEAC0
:1005F000500E50F1000041EB045170BD06F0004672
:1006000046EA010140EA020081EA0301B4EB5C041E
:10061000C2BFD4EB0C0541EA045170BD41F4801116
:100620004FF0000E013C00F3AB8014F1360FDEBF3B
:10063000002001F0004170BDC4F10004203C35DA17
:100640000C341BDC04F11404C4F1200500FA05F39A
:1006500020FA04F001FA05F240EA020001F000423B
:1006600021F0004110EBD37021FA04F642EB0601B1
:100670005EEA430E08BF20EAD37070BDC4F10C04DB
:10068000C4F1200500FA04F320FA05F001FA04F29F
:1006900040EA020001F0004110EBD37041F100018B
:1006A0005EEA430E08BF20EAD37070BDC4F1200596
:1006B00000FA05F24EEA020E20FA04F301FA05F2FE
:1006C00043EA020321FA04F001F0004121FA04F2A6
:1006D00020EA020000EBD3705EEA430E08BF20EA76
:1006E000D37070BD94F0000F0FD101F000464000B0
:1006F00041EB010111F4801F08BF013CF7D041EA32
:10070000060195F0000F18BF704703F00046520035
:1007100043EB030313F4801F08BF013DF7D043EA06
:100720000603704794EA0C0F0CEA135518BF95EABC
:100730000C0F0CD050EA410618BF52EA4306D1D143
:1007400081EA030101F000414FF0000070BD50EA62
:10075000410606BF1046194652EA430619D094EAEC
:100760000C0F02D150EA013613D195EA0C0F05D1D6
:1007700052EA03361CBF104619460AD181EA03012A
:1007800001F0004141F0FE4141F470014FF00000E2
:1007900070BD41F0FE4141F4780170BD70B54FF07D
:1007A000FF0C4CF4E06C1CEA11541DBF1CEA1355FD
:1007B00094EA0C0F95EA0C0F00F0A7F8A4EB0504DF
:1007C00081EA030E52EA03354FEA013100F08880D6
:1007D0004FEA03334FF0805545EA131343EA12639F
:1007E0004FEA022245EA111545EA10654FEA002654
:1007F0000EF000419D4208BF964244F1FD0404F50D
:10080000407402D25B084FEA3202B61A65EB030568
:100810005B084FEA32024FF480104FF4002CB6EB25
:10082000020E75EB030E22BFB61A754640EA0C00A5
:100830005B084FEA3202B6EB020E75EB030E22BFE5
:10084000B61A754640EA5C005B084FEA3202B6EB26
:10085000020E75EB030E22BFB61A754640EA9C00E5
:100860005B084FEA3202B6EB020E75EB030E22BFB5
:10087000B61A754640EADC0055EA060E18D04FEA73
:10088000051545EA16754FEA06164FEAC30343EA13
:1008900052734FEAC2025FEA1C1CC0D111F4801FE0
:1008A0000BD141EA00014FF000004FF0004CB6E7D9
:1008B00011F4801F04BF01430020B4F1FD0C88BF78
:1008C000BCF5E06F3FF6AFAEB5EB030C04BFB6EB83
:1008D000020C5FEA500C50F1000041EB045170BD76
:1008E0000EF0004E4EEA113114EB5C04C2BFD4EBA3
:1008F0000C0541EA045170BD41F480114FF0000E27
:10090000013C90E645EA060E8DE60CEA135594EAA2
:100910000C0F08BF95EA0C0F3FF43BAF94EA0C0FA5
:100920000AD150EA01347FF434AF95EA0C0F7FF41A
:1009300025AF104619462CE795EA0C0F06D152EA6E
:1009400003353FF4FDAE1046194622E750EA410652
:1009500018BF52EA43067FF4C5AE50EA41047FF463
:100960000DAF52EA43057FF4EBAE12E74FF0FF3CC8
:1009700006E000BF4FF0010C02E000BF4FF0010C99
:100980004DF804CD4FEA410C7FEA6C5C4FEA430C12
:1009900018BF7FEA6C5C1BD001B050EA410C0CBF61
:1009A00052EA430C91EA030F02BF90EA020F0020C3
:1009B000704710F1000F91EA030F58BF994208BF2A
:1009C00090422CBFD8176FEAE37040F001007047E7
:1009D0004FEA410C7FEA6C5C02D150EA013C07D13E
:1009E0004FEA430C7FEA6C5CD6D152EA033CD3D089
:1009F0005DF8040B704700BF8446104662468C4683
:100A00001946634600E000BF01B5FFF7B7FF0028B5
:100A100048BF10F1000F01BD4DF808EDFFF7F4FFDE
:100A20000CBF012000205DF808FB00BF4DF808ED69
:100A3000FFF7EAFF34BF012000205DF808FB00BF8C
:100A40004DF808EDFFF7E0FF94BF012000205DF8AE
:100A500008FB00BF4DF808EDFFF7CEFF94BF012063
:100A600000205DF808FB00BF4DF808EDFFF7C4FF5C
:100A700034BF012000205DF808FB00BF4FEA410CA5
:100A80007FEA6C5C02D150EA013C0AD14FEA430C88
:100A90007FEA6C5C02D152EA033C02D14FF00000C5
:100AA00070474FF0010070474FEA410212F5001203
:100AB00015D211D56FF47873B3EB625212D94FEAA5
:100AC000C12343F0004343EA505311F0004F23FA8F
:100AD00002F018BF404270474FF00000704750EAE4
:100AE000013005D111F0004008BF6FF000407047A1
:100AF0004FF00000704700BF4FEA4102B2F1E043FF
:100B000024BFB3F5001CDCF1FE5C0DD901F0004CF4
:100B10004FEAC0024CEA5070B2F1004F40EB830044
:100B200008BF20F00100704711F0804F21D113F170
:100B30003872BCBF01F00040704741F480114FEAA9
:100B40005252C2F11802C2F1200C10FA0CF320FA32
:100B500002F018BF40F001004FEAC1234FEAD3234F
:100B600003FA0CFC40EA0C0023FA02F34FEA4303B9
:100B7000CCE77FEA625307D150EA01331EBF4FF042
:100B8000FE4040F44000704701F0004040F0FE405D
:100B900040F40000704700BF53B94AB9002908BFAC
:100BA00000281CBF4FF0FF314FF0FF3000F070B94C
:100BB000ADF1080C6DE904CE00F006F8DDF804E0B4
:100BC000DDE9022304B070472DE9F047089E0D4689
:100BD00004460F46002B4AD18A42944665D9B2FAA0
:100BE00082F343B102FA03FCC3F120029F4020FAD2
:100BF00002F217439C404FEA1C4E1FFA8CF5B7FBDC
:100C0000FEF1220C0EFB117742EA074201FB05F0D0
:100C100090420AD91CEB020201F1FF3780F01C81DF
:100C2000904240F2198102396244121AA4B2B2FB16
:100C3000FEF00EFB102244EA024400FB05F5A5423B
:100C40000AD91CEB040400F1FF3280F00781A542B1
:100C500040F204816444023840EA0140641B0021F0
:100C60001EB1DC400023C6E90043BDE8F0878B429B
:100C700008D9002E00F0ED800021C6E900050846E5
:100C8000BDE8F087B3FA83F1002949D1AB4202D322
:100C9000824200F2F880841A65EB030201201746B5
:100CA000002EE2D0C6E90047DFE702B9FFDEB2FA64
:100CB00082F3002B40F090808A1A4FEA1C471FFAFB
:100CC0008CFE0121B2FBF7F507FB1520220C42EA4E
:100CD00000420EFB05F0904208D91CEB020205F120
:100CE000FF3802D2904200F2CB804546121AA4B2DD
:100CF000B2FBF7F007FB102244EA02440EFB00FEB1
:100D0000A64508D91CEB040400F1FF3202D2A64527
:100D100000F2BB801046A4EB0E0440EA05409FE7BA
:100D2000C1F120078B4022FA07FC4CEA030C05FABC
:100D300001F420FA07F3FD404FEA1C492343B5FBB9
:100D4000F9F81FFA8CFE09FB18551C0C44EA0544FF
:100D500008FB0EF5A54202FA01F200FA01F00BD9E8
:100D60001CEB040408F1FF3A80F08880A54240F2B1
:100D70008580A8F102086444641B9DB2B4FBF9F3BA
:100D800009FB134445EA044403FB0EFEA64508D9BB
:100D90001CEB040403F1FF356CD2A6456AD9023B73
:100DA000644443EA0843A3FB0295A4EB0E04AC425F
:100DB000C846AE4656D353D056B1B0EB080264EBEA
:100DC0000E0404FA07F7CA40CC401743C6E9007482
:100DD00018460021BDE8F087C3F1200102FA03FCA8
:100DE00020FA01F225FA01F19D402A434FEA1C47FF
:100DF0001FFA8CFEB1FBF7F007FB1015110C41EA4E
:100E0000054100FB0EF58D4204FA03F408D91CEBF2
:100E1000010100F1FF382FD28D422DD902386144F3
:100E2000491B92B2B1FBF7F507FB151142EA0142EB
:100E300005FB0EF1914208D91CEB020205F1FF38C7
:100E400016D2914214D9023D6244521A45EA004139
:100E500038E73146304608E73946E6E61046FBE615
:100E60004845A9D2B9EB020865EB0C0E013BA3E79C
:100E70004546EAE72B4694E74046D1E7D0467BE774
:100E8000023D624432E708460AE76444023842E71A
:100E9000704700BF80B487B000AF78613961FA60F5
:100EA00087ED000B7B693A691A607B69FA685A61C1
:100EB0007969D7E90023C1E9102300BF1C37BD467B
:100EC0005DF8047B70470000B0B582B000AF786079
:100ED0007B681B681B685B6A1AB27B689A807B68B8
:100EE0009B687A68B2F904201A447B689A607B6830
:100EF0001B681B6800225A627B689A687B681B69C2
:100F0000D31A1846FFF7B6FA7B68D3E91023FFF728
:100F100045FC02460B4614461D467B685B699B00F8
:100F20001846FFF7A7FA02460B4620462946FFF768
:100F300035FC02460B46104619464FF00002284B7E
:100F4000FFF702FB02460B467968C1E908237B687C
:100F5000D3E90C011EA3D3E90023FFF7F5FA0246FB
:100F60000B4614461D467B68D3E908011AA3D3E952
:100F70000023FFF7E9FA02460B4620462946FFF711
:100F80002DF902460B4614461D467B68D3E90A013B
:100F900011A3D3E90023FFF7D7FA02460B462046F8
:100FA0002946FFF71BF902460B467968C1E90C2375
:100FB0007B68D3E908237968C1E90A237B689A68CA
:100FC0007B681A6100BF0837BD46B0BDAFF3008033
:100FD0008716D9CEF753EB3FC217265305A3B23F6E
:100FE00000004E4080B582B000AF78600B46FB70C9
:100FF0007B68FA781A767B681B681B685B6A1AB292
:101000007B689A807B689B687A68B2F904201A44EE
:101010007B689A607B681B681B6800225A627B6849
:101020001B7E012B07D17B689B681846FFF722FACD
:1010300002460B4633E07B681B7E002B10D17B6899
:101040009B68002B00DA03339B101A467B68DA603A
:101050007B68DB681846FFF70DFA02460B461EE078
:101060007B681B7E022B16D17B689B684FF4B472A1
:1010700003FB02F27B685B699B0092FBF3F318466B
:10108000FFF7F8F902460B467968C1E90E237B6841
:10109000D3E90E2303E04FF000024FF0000343ECCE
:1010A000172BB0EE470AF0EE670A0837BD4680BD41
:1010B00080B483B000AF78600B46FB70FB78012BE7
:1010C00007D17B681B681B6800225A627B6800227C
:1010D0009A6000BF0C37BD465DF8047B704780B452
:1010E00085B000AFF860B9607A603B60FB68BA68B1
:1010F0005A607B68002BB8BF5B429AB2FB68DA810A
:10110000FB683A681A61FB68BA695A617B68002B10
:101110004DDAFB681B69002B05D1FB685B681B6817
:1011200000225A6318E0FB681B69042B05D1FB6899
:101130005B681A68002393630EE0FB681B69082B49
:1011400005D1FB685B681A680023D36304E0FB6881
:101150005B681A6800231364FB685B69002B06D187
:10116000FB68DA89FB685B681B685A63B7E0FB6859
:101170005B69042B07D1FB68D989FB685B681A6837
:101180000B469363ABE0FB685B69082B07D1FB68F8
:10119000D989FB685B681A680B46D3639FE0FB68DC
:1011A000D989FB685B681A680B46136497E07B6813
:1011B000002B4DDDFB681B69002B06D1FB68DA892B
:1011C000FB685B681B685A631EE0FB681B69042BA5
:1011D00007D1FB68D989FB685B681A680B46936383
:1011E00012E0FB681B69082B07D1FB68D989FB68F3
:1011F0005B681A680B46D36306E0FB68D989FB6815
:101200005B681A680B461364FB685B69002B05D1A9
:10121000FB685B681B6800225A6360E0FB685B69DF
:10122000042B05D1FB685B681A680023936356E0C2
:10123000FB685B69082B05D1FB685B681A680023B3
:10124000D3634CE0FB685B681A680023136446E0D4
:10125000FB681B69002B05D1FB685B681B680022DB
:101260005A6318E0FB681B69042B05D1FB685B68B7
:101270001A68002393630EE0FB681B69082B05D1F5
:10128000FB685B681A680023D36304E0FB685B6853
:101290001A6800231364FB685B69002B05D1FB68A7
:1012A0005B681B6800225A6319E0FB685B69042BCA
:1012B00005D1FB685B681A68002393630FE0FB6845
:1012C0005B69082B05D1FB685B681A680023D36350
:1012D00005E0FB685B681A6800231364FFE700BF42
:1012E0001437BD465DF8047B704780B485B000AF0D
:1012F000F86087ED020AC7ED010AFB68BA681A6058
:10130000FB687A685A60FB6893ED007AFB68D3ED5E
:10131000017A77EE677AFB68C3ED027AFB6893ED9A
:10132000057AFB68D3ED027A67EE277AFB68C3ED96
:10133000067AFB6893ED097AFB68D3ED076AFB68D0
:10134000D3ED027A66EEA76AFB68D3ED047A66EE07
:10135000A77A77EE277AFB68C3ED087AFB6893EDEE
:10136000087AFB689B6A07EE903AF8EEE77AB4EEEB
:10137000E77AF1EE10FA06DDFB689B6A07EE903A19
:10138000F8EEE77A02E0FB68D3ED087AFB68C3ED7C
:10139000087AFB6893ED087AFB68DB6A07EE903AFF
:1013A000F8EEE77AB4EEE77AF1EE10FA06D5FB68CC
:1013B000DB6A07EE903AF8EEE77A02E0FB68D3EDDD
:1013C000087AFB68C3ED087AFB6893ED0C7AFB683A
:1013D000D3ED026AFB68D3ED037A76EEE77A67EE27
:1013E000276AFB6893ED047AC6EE877AFB68C3ED43
:1013F0000D7AFB68D3ED107AB7EE007A37EE677A94
:10140000FB68D3ED0F7A27EE277AFB68D3ED106ADD
:10141000FB68D3ED0D7A66EEA77A77EE277AFB6844
:10142000C3ED0E7AFB689A68FB68DA60FB681A6A9B
:10143000FB685A62FB689A6BFB68DA63FB6893EDA2
:10144000067AFB68D3ED087A37EE277AFB68D3ED8E
:101450000D7A77EE277AFB68C3ED117AFB6893ED7E
:10146000117AFB68D3ED127AB4EEE77AF1EE10FA56
:1014700002DDFB689B6C01E0FB685B6CFA685364FF
:10148000FB6893ED117AFB68D3ED137AB4EEE77A3B
:10149000F1EE10FA02D5FB68DB6C01E0FB685B6CD7
:1014A000FA68536400BF1437BD465DF8047B70478B
:1014B00080B485B000AFF860B9607A60FB68074A15
:1014C0001A60BB68064A1A607B6880221A6000BFF7
:1014D0001437BD465DF8047B704700BF94000020C0
:1014E000E800002080B487B000AF87ED050AC7EDA3
:1014F000040A87ED031AC7ED021A87ED012AC7ED2A
:10150000002A97ED027AD7ED007A27EE277AD7EDF9
:10151000057A37EE277AD7ED046AD7ED057A76EEAD
:10152000E77AF0EE086A27EEA66AD7ED037A67EE4F
:10153000A77AC6EE276AD7ED027A77EEA75A97ED1B
:10154000036AC5EE867A76EEE76AD7ED015A97ED23
:10155000036AC5EE867A76EEE76AD7ED007A67EE23
:10156000A77A66EEA77A37EE277AD7ED046AD7ED29
:10157000057A76EEE77AF8EE006A27EEA66AD7EDEE
:10158000037A67EEA76AD7ED037A66EEA77AC6EE0E
:10159000276A97ED016AD7ED027A76EE275AD7EDE2
:1015A000037A27EEA76AC5EE867A76EEA76AD7EDAC
:1015B000007A27EEA76AD7ED007A66EE277A66EE04
:1015C000A77A77EE277AB0EE670A1C37BD465DF83A
:1015D000047B704780B400AF204B214A5A611F4BF7
:1015E000204ADA611D4B4FF000021A631B4B4FF08B
:1015F00000021A64194B1C4A1A61184B4FF47A7294
:101600009A62164B194ADA62144B194A9A64134BC0
:10161000184ADA64184B194A5A61174B4FF0000206
:10162000DA61154B4FF000021A63134B4FF00002C2
:101630001A64114B0C4A1A610F4B4FF47A729A627A
:101640000D4B0A4ADA620C4B094A9A640A4B094A62
:10165000DA6400BFBD465DF8047B704700060020D9
:101660000000484200007A430AD7233C18FCFFFFE1
:1016700000007A4400007AC4500600200000204197
:1016800080B52DED028B82B002AF1448FFF71CFC31
:10169000134B93ED118A114BD3E9082310461946D9
:1016A000FFF72AFA034600EE903AB0EE480A0D48DA
:1016B000FFF71BFE0B4BD3ED117AFDEEE77A0C23FF
:1016C0000093082317EE902A07490848FFF707FD03
:1016D00000BFBD46BDEC028B80BD00BFA005002051
:1016E000500600200006002050040020E8050020DD
:1016F00080B52DED028B00AF0D4B93ED008A0221DA
:101700000C48FFF76FFC53EC102B10461946FFF7FF
:10171000F3F9034600EE903AB0EE480A0648FFF7A8
:10172000E4FDFFF7ADFF00BFBD46BDEC028B80BD01
:1017300050050020A00500205006002080B400AF16
:10174000204B214A5A611F4B204ADA611D4B4FF052
:1017500000021A631B4B4FF000021A64194B1C4A1B
:101760001A61184B4FF47A729A62164B194ADA6270
:10177000144B194A9A64134B184ADA64184B194AE5
:101780005A61174B4FF00002DA61154B4FF000021F
:101790001A63134B4FF000021A64114B0C4A1A6182
:1017A0000F4B4FF47A729A620D4B0A4ADA620C4B75
:1017B000094A9A640A4B094ADA6400BFBD465DF8DB
:1017C000047B7047000700200000484200007A4375
:1017D0000AD7233C18FCFFFF00007A4400007AC4BB
:1017E000500700200000204180B52DED028B82B013
:1017F00002AF1448FFF768FB134B93ED118A114BAE
:10180000D3E9082310461946FFF776F9034600EEA0
:10181000903AB0EE480A0D48FFF767FD0B4BD3ED49
:10182000117AFDEEE77A0C230093082317EE902A35
:1018300007490848FFF753FC00BFBD46BDEC028BCB
:1018400080BD00BFA0060020500700200007002038
:10185000C0030020E806002080B52DED028B00AF0C
:101860000F4BD3ED017A9FED0F7A37EEC78A022135
:101870000D48FFF7B7FB53EC102B10461946FFF746
:101880003BF9034600EE903AB0EE480A0748FFF7EE
:101890002CFDFFF7A9FF00BFBD46BDEC028B80BD4C
:1018A0005005002000003B43A00600205007002008
:1018B00080B400AF204B214A5A611F4B204ADA61A5
:1018C0001D4B4FF000021A631B4B4FF000021A64CD
:1018D000194B1C4A1A61184B4FF47A729A62164BD4
:1018E000194ADA62144B194A9A64134B184ADA649B
:1018F000184B194A5A61174B4FF00002DA61154B29
:101900004FF000021A63134B4FF000021A64114BA0
:101910000C4A1A610F4B4FF47A729A620D4B0A4AC5
:10192000DA620C4B094A9A640A4B094ADA6400BF2E
:10193000BD465DF8047B7047000800200000484267
:10194000000096430AD7233C18FCFFFF00007A44AE
:1019500000007AC4500800200000204180B52DED21
:10196000028B82B002AF1448FFF7AEFA134B93ED2F
:10197000118A114BD3E9082310461946FFF7BCF82A
:10198000034600EE903AB0EE480A0D48FFF7ADFC72
:101990000B4BD3ED117AFDEEE77A0423009300237D
:1019A00017EE902A07490848FFF799FB00BFBD468C
:1019B000BDEC028B80BD00BFA007002050080020B6
:1019C00000080020C0030020E807002080B52DEDAE
:1019D000028B00AF0F4BD3ED027A9FED0F7A37EEFB
:1019E000878A02210D48FFF7FDFA53EC102B1046B1
:1019F0001946FFF781F8034600EE903AB0EE480A28
:101A00000748FFF772FCFFF7A9FF00BFBD46BDEC1A
:101A1000028B80BD5005002000000743A007002076
:101A20005008002080B400AF204B214A5A611F4B60
:101A3000204ADA611D4B4FF000021A631B4B4FF036
:101A400000021A64194B1C4A1A61184B4FF47A723F
:101A50009A62164B194ADA62144B194A9A64134B6C
:101A6000184ADA64184B194A5A61174B4FF00002B2
:101A7000DA61154B4FF000021A63134B4FF000026E
:101A80001A64114B0C4A1A610F4B4FF47A729A6226
:101A90000D4B0A4ADA620C4B094A9A640A4B094A0E
:101AA000DA6400BFBD465DF8047B70470009002082
:101AB0000000484200007A430AD7233C18FCFFFF8D
:101AC00000007A4400007AC4500900200000204140
:101AD00080B52DED028B82B002AF1448FFF7F4F908
:101AE000134B93ED118A114BD3E908231046194685
:101AF000FFF702F8034600EE903AB0EE480A0D48B0
:101B0000FFF7F3FB0B4BD3ED117AFDEEE77A0423DD
:101B10000093002317EE902A07490848FFF7DFFAE1
:101B200000BFBD46BDEC028B80BD00BFA0080020F9
:101B3000500900200009002098040020E808002037
:101B400080B52DED028B00AF0F4BD3ED037A9FEDE7
:101B50000F7A37EEC78A02210D48FFF743FA53EC9C
:101B6000102B10461946FEF7C7FF034600EE903AC9
:101B7000B0EE480A0748FFF7B8FBFFF7A9FF00BF20
:101B8000BD46BDEC028B80BD500500200000B44274
:101B9000A0080020500900202DE9B04386B000AF16
:101BA0007861396187ED030AC7ED020A87ED011AF2
:101BB000C7ED001A7B69FA681A607B691B681846D2
:101BC000FEF76AFCD0A3D3E90023FEF7BDFC024672
:101BD0000B46104619464FF00002CF4BFEF7DEFDD4
:101BE00002460B4610461946FEF786FF02467B6901
:101BF0009A613B69FA681A607B69BA685A607B69C6
:101C00005B681846FEF748FCBFA3D3E90023FEF744
:101C10009BFC02460B46104619464FF00002BE4B95
:101C2000FEF7BCFD02460B4610461946FEF764FF60
:101C300002467B69DA613B69BA685A607B697A68F7
:101C40009A607B699B681846FEF726FCAEA3D3E931
:101C50000023FEF779FC02460B46104619464FF06A
:101C60000002AD4BFEF79AFD02460B4610461946A0
:101C7000FEF742FF02467B691A623B697A689A6006
:101C80007B693A68DA607B69DB681846FEF704FC1A
:101C90009DA3D3E90023FEF757FC02460B461046EE
:101CA00019464FF000029C4BFEF778FD02460B46AA
:101CB00010461946FEF720FF02467B695A623B69CF
:101CC0003A68DA607B6993ED017A7B69D3ED027A39
:101CD00037EE277A7B69D3ED037A77EE277A7B6933
:101CE000C3ED057A7B6993ED077A7B69D3ED087ABA
:101CF00037EE277A7B69D3ED097A77EE277A7B690D
:101D0000C3ED0B7A7B699B691846FEF7C5FB02465B
:101D10000B4643EC102B07F0BBF859EC108B7B699A
:101D2000DB691846FEF7B8FB02460B4643EC102B66
:101D300007F0AEF851EC100B4FF00002774BFEF7B6
:101D400003FC02460B461046194671A3D3E9002353
:101D5000FEF744FA02460B4614461D467B6993ED96
:101D6000077A7B69D3ED087A77EE277A17EE900A27
:101D7000FEF792FB02460B4643EC102B07F088F867
:101D800051EC100B4FF00002654BFEF7DDFB0246F5
:101D90000B4620462946FEF721FA02460B4614461A
:101DA0001D467B69DB6A1846FEF776FB02460B464A
:101DB00043EC102B07F06CF851EC100B4FF00002C5
:101DC000584BFEF7C1FB02460B4620462946FEF75C
:101DD00005FA02460B4640464946FEF7B5FB024669
:101DE0000B4610461946FEF787FE02467B691A63CA
:101DF0007B699B691846FEF74FFB02460B4643EC96
:101E0000102B07F099F859EC108B7B69DB691846A9
:101E1000FEF742FB02460B4643EC102B07F038F866
:101E200051EC100B4FF000023C4BFEF78DFB0246CD
:101E30000B461046194636A3D3E90023FEF7CEF928
:101E400002460B4614461D467B6993ED077A7B6973
:101E5000D3ED087A77EE277A17EE900AFEF71CFB8F
:101E600002460B4643EC102B07F012F851EC100B16
:101E70004FF000022A4BFEF767FB02460B46204656
:101E80002946FEF7ABF902460B4614461D467B6910
:101E9000DB6A1846FEF700FB02460B4643EC102BAC
:101EA00006F0F6FF51EC100B4FF000021D4BFEF751
:101EB0004BFB02460B4620462946FEF78FF90246A9
:101EC0000B4640464946FEF73FFB02460B4610468E
:101ED0001946FEF711FE02467B695A637B6993ED52
:101EE000077A7B69D3ED087A77EE277A17EE900AA6
:101EF000FEF7D2FA02460B4643EC102B07F01CF813
:101F000012E000BFAFF30080182D4454FB210940BC
:101F10000000000000C056400080664000805E4027
:101F2000004053400080534051EC100B4FF0000232
:101F30002B4BFEF709FB02460B461046194626A31B
:101F4000D3E90023FEF74AF902460B4614461D4624
:101F50007B69DB691846FEF79FFA02460B4643ECA5
:101F6000102B06F0E9FF51EC100B4FF000021D4B57
:101F7000FEF7EAFA02460B4620462946FEF72EF9FE
:101F800002460B4614461D467B69DB6A1846FEF77F
:101F900083FA02460B4643EC102B06F0CDFF51ECC2
:101FA000100B4FF00002104BFEF7CEFA02460B4624
:101FB00020462946FEF712F902460B4610461946FE
:101FC000FEF79AFD02467B699A6300BF1837BD464B
:101FD000BDE8B083AFF300800000000000C06D409A
:101FE0000040534000805E400080534080B582B086
:101FF00000AF87ED010AD7ED017AF5EEC07AF1EE78
:1020000010FA16DB7868FEF747FA4FF000021A4B19
:10201000FEF7E4F802460B4643EC172BB0EE470AF6
:10202000F0EE670A07F048F9B0EE407AF0EE607A19
:1020300015E07868FEF730FA4FF000020E4BFEF71D
:10204000CBF802460B4643EC172BB0EE470AF0EEF6
:10205000670A07F0B1F8B0EE407AF0EE607A51EC22
:10206000170BFEF749FD034607EE903AB0EE670AFC
:102070000837BD4680BD00BF0000E03F0000000003
:102080002DE9B0432DED028B86B000AF7861396148
:1020900087ED030AC7ED020A87ED011AC7ED001AA2
:1020A0007B69FA681A607B69BA685A607B697A68EA
:1020B0009A607B693A68DA617B69DB691846FEF7EA
:1020C000EBF94EA3D3E90023FEF73EFA02460B4696
:1020D00010461946FEF710FD02467B69DA657B69FA
:1020E0001B681846FEF7D8F902460B469FED401BC9
:1020F00043EC102B06F02EFE55EC104B7B695B6811
:102100001846FEF7C9F902460B469FED391B43EC12
:10211000102B06F01FFE53EC102B20462946FEF72D
:102120005DF802460B4643EC172BB0EE470AF0EE83
:10213000670A06F07FFE53EC102B10461946FEF797
:10214000DBFC02467B695A637B6993ED017A7B690C
:10215000D3ED0D7AC7EE276A16EE900AFEF79CF9CA
:1021600004460D467B6993ED007A7B69D3ED0D7AC9
:10217000C7EE276A16EE900AFEF78EF902460B4666
:1021800043EC112B45EC104B06F0E2FD53EC102B09
:1021900010461946FEF7B0FC02467B691A627B695D
:1021A0001B6A1846FEF778F916A3D3E90023FEF759
:1021B000CBF902460B4610461946FEF79DFC024637
:1021C0007B69DA607B69D3ED037A9FED0B7AF4EEDD
:1021D000C77AF1EE10FA1DD57B69D3ED037A9FED36
:1021E0000C7A77EE877A7B69C3ED037A26E000BF2D
:1021F0000000000000000040000034C3399D52A2DE
:1022000046DF913FF8C1631ADCA54C40000034431F
:102210000000B4437B69D3ED037A1FED047AF4EE3A
:10222000C77AF1EE10FA09DD7B69D3ED037A1FED71
:10223000087A77EEC77A7B69C3ED037A7B69D3EDC1
:10224000037AB0EE670AFFF7D1FEF0EE407A7B69C1
:10225000C3ED037A7B69DA683B691A607B691B68A6
:102260001846FEF719F904460D467B691B6A1846A5
:10227000FEF712F902460B4643EC102B06F008FE5F
:1022800053EC102B20462946FEF75EF902460B461A
:10229000904699467B695B681846FEF7FDF8044650
:1022A0000D467B691B6A1846FEF7F6F802460B4698
:1022B00043EC102B06F040FE53EC102B2046294631
:1022C000FEF742F902460B4640464946FDF786FFB7
:1022D00002460B4610461946E5A3D3E90023FDF755
:1022E0007BFF02460B4614461D467B69DB6D184694
:1022F000FEF7D2F802460B4643EC102B06F0C8FD61
:1023000051EC100B4FF00002D54BFEF71DF90246C1
:102310000B4620462946FDF75FFF02460B46104656
:102320001946FEF7E9FB02467B699A637B69D3EDA8
:10233000027A9FEDCC7A77EEC77A17EE900AFEF715
:10234000ABF804460D467B69DB6D1846FEF7A4F832
:1023500002460B4643EC102B06F0EEFD51EC100B41
:102360004FF00002BE4BFEF7EFF802460B46204648
:102370002946FDF731FF02460B4610461946FEF787
:10238000BBFB02467B69DA637B69D3ED0F7A9FED75
:10239000B67A67EE877A7B69C3ED107A7B69D3EDF5
:1023A0000E7A9FEDB17A67EE877A7B69C3ED117A79
:1023B0007B699B6B1846FEF76FF802460B469FED54
:1023C000A01B43EC102B06F0C5FC53EC102B9EA178
:1023D000D1E90001FDF700FF02460B4614461D46F9
:1023E0007B69DB6B1846FEF757F802460B469FEDFC
:1023F000941B43EC102B06F0ADFC53EC102B204645
:102400002946FDF7E9FE02460B461046194690A301
:10241000D3E90023FDF7E0FE02460B4610461946BD
:10242000FEF76AFB02467B699A647B691B6C18465F
:10243000FEF732F802460B469FED811B43EC102B52
:1024400006F088FC55EC104B7B695B6C1846FEF778
:1024500023F802460B469FED7A1B43EC102B06F047
:1024600079FC53EC102B20462946FDF7B7FE0246B7
:102470000B4643EC172BB0EE470AF0EE670A06F066
:10248000D9FC53EC102B10461946FEF735FB0246DB
:102490007B69DA647B69D3ED0F7A9FED737A27EE5F
:1024A000877A7B69D3ED137AC7EE276A16EE900A16
:1024B000FDF7F2FF04460D467B69D3ED0E7A9FEDE2
:1024C0006A7A27EE877A7B69D3ED137AC7EE276A9B
:1024D00016EE900AFDF7E0FF02460B4643EC112B87
:1024E00045EC104B06F034FC53EC102B104619460B
:1024F000FEF702FB02467B691A637B699B6C1846F8
:10250000FDF7CAFF02460B469FED4D1B43EC102B17
:1025100006F020FC55EC104B7B69DB6C1846FDF790
:10252000BBFF02460B469FED461B43EC102B06F00B
:1025300011FC53EC102B20462946FEF72FF90246DA
:102540000B4610461946FEF7D7FA02467B691A6514
:102550007B69D3ED147AB7EE007AF4EEC77AF1EE28
:1025600010FA03DD7B694FF07E521A657B69D3ED6B
:10257000147AB7EE007A77EE677A17EE900AFDF7D5
:102580008BFF02460B4643EC102B06F053FCB0EEDB
:10259000408AF0EE608A7B6993ED127A7B69D3ED15
:1025A000137AC7EE276A16EE900AFDF775FF02460A
:1025B0000B4643EC112BB0EE480AF0EE680A06F029
:1025C000C7FB55EC104B7B691B6B1846FDF764FF8E
:1025D00002460B4620462946FDF700FE02460B4602
:1025E00010461946FEF788FA02467B695A627B69F3
:1025F0005B6A1846FDF750FF17A3D3E90023FDF7E8
:10260000A3FF02460B4610461946FEF775FA02462E
:102610007B691A617B69D3ED047A9FED147AF4EE3D
:10262000C77AF1EE10FA2BD57B69D3ED047A9FEDD2
:10263000137A77EE877A7B69C3ED047A34E000BFC2
:102640000000000000000040000000000029B7402A
:10265000000000000012CD40F8C1631ADCA54C4018
:102660000080534000006E43000074C3000034C378
:102670000000000000C05640000034430000B44396
:102680007B69D3ED047A1FED047AF4EEC77AF1EE9C
:1026900010FA09DD7B69D3ED047A1FED087A77EE35
:1026A000C77A7B69C3ED047A7B69D3ED047AB0EE17
:1026B000670AFFF79BFCF0EE407A7B69C3ED047A72
:1026C0007B691A693B695A607B691B681846FDF78C
:1026D000E3FE04460D467B691B6A1846FDF7DCFEE7
:1026E00002460B4643EC102B06F0D2FB53EC102BAA
:1026F00020462946FDF728FF02460B46904699469C
:102700007B695B681846FDF7C7FE04460D467B698A
:102710001B6A1846FDF7C0FE02460B4643EC102B21
:1027200006F00AFC53EC102B20462946FDF70CFF5F
:1027300002460B4640464946FDF750FD02460B4611
:1027400010461946B1A3D3E90023FDF745FD024623
:102750000B4614461D467B695B6A1846FDF79CFED6
:1027600002460B4643EC102B06F092FB51EC100B8B
:102770004FF000029E4BFDF7E7FE02460B46204657
:102780002946FDF729FD02460B4614461D467B6986
:10279000DB6D1846FDF780FE02460B4643EC102B1E
:1027A00006F076FB51EC100B4FF00002914BFDF759
:1027B000CBFE02460B4620462946FDF70DFD02469C
:1027C0000B46104619464FF000028B4BFDF7E6FF13
:1027D00002460B4610461946FEF78EF902467B6903
:1027E0005A657B69D3ED027A9FED847A77EEC77ADA
:1027F00017EE900AFDF750FE04460D467B695B6AB2
:102800001846FDF749FE02460B4643EC102B06F036
:1028100093FB51EC100B4FF00002754BFDF794FE4B
:1028200002460B4620462946FDF7D6FC02460B46DB
:1028300014461D467B69DB6D1846FDF72DFE0246EA
:102840000B4643EC102B06F077FB51EC100B4FF0CE
:102850000002684BFDF778FE02460B4620462946EB
:10286000FDF7BAFC02460B46104619464FF000022F
:10287000614BFDF793FF02460B4610461946FEF7E3
:102880003BF902467B699A657B699B6D1846FDF7AB
:1028900003FE04460D467B695B6D1846FDF7FCFDA3
:1028A00002460B4643EC112B45EC104B06F050FA58
:1028B00055EC104B7B695B6A1846FDF7EDFD02464F
:1028C0000B4620462946FDF787FC02460B4610467C
:1028D0001946FEF711F902467B699A627B699B6A89
:1028E0001846FDF7D9FD40A3D3E90023FDF72CFEE0
:1028F00002460B4610461946FEF7FEF802467B6973
:102900005A617B69D3ED057A9FED3D7AF4EEC77A83
:10291000F1EE10FA0AD57B69D3ED057A9FED397A8D
:1029200077EE877A7B69C3ED057A13E07B69D3ED97
:10293000057A9FED357AF4EEC77AF1EE10FA09DDEB
:102940007B69D3ED057A9FED2F7A77EEC77A7B69A5
:10295000C3ED057A7B69D3ED057AB0EE670AFFF720
:1029600045FBF0EE407A7B69C3ED057A7B695A69D5
:102970003B699A607B6993ED177A7B69D3ED097A9D
:1029800037EE677A7B69D3ED0A7A77EE677A7B69EF
:10299000C3ED0B7A7B69DB6A1846FDF77DFD12A358
:1029A000D3E90023FDF7D0FD02460B461046194639
:1029B000FEF7A2F802467B699A617B69D3ED067A3D
:1029C000B0EE670AFFF712FBF0EE407A7B69C3EDC9
:1029D000067A7B699A693B69DA6000BF1837BD46A1
:1029E000BDEC028BBDE8B083F8C1631ADCA54C4096
:1029F00000805E40008053400040534000006E4322
:102A0000000034C30000B443000034430000000061
:102A100000C05640000000002DE9B04F86B000AF66
:102A20007861396187ED030AC7ED020A87ED011A63
:102A3000C7ED001A7B69FA681A607B69BA685A6048
:102A40007B697A689A607B693A68DA617B69DB69DD
:102A50001846FDF721FD4FA3D3E90023FDF774FDD0
:102A600002460B4610461946FEF746F802467B69B9
:102A7000DA657B691B681846FDF70EFD02460B46BA
:102A80009FED411B43EC102B06F064F955EC104B05
:102A90007B695B681846FDF7FFFC02460B469FED1D
:102AA0003A1B43EC102B06F055F953EC102B204643
:102AB0002946FDF793FB02460B4643EC172BB0EE7D
:102AC000470AF0EE670A06F0B5F953EC102B1046F2
:102AD0001946FEF711F802467B695A637B6993ED4C
:102AE000017A7B69D3ED0D7AC7EE276A16EE900A5C
:102AF000FDF7D2FC04460D467B6993ED007A7B69B5
:102B0000D3ED0D7AC7EE276A16EE900AFDF7C4FCE6
:102B100002460B4643EC112B45EC104B06F018F91E
:102B200053EC102B10461946FDF7E6FF02467B6971
:102B30001A627B691B6A1846FDF7AEFC17A3D3E93E
:102B40000023FDF701FD02460B4610461946FDF72E
:102B5000D3FF02467B69DA607B69D3ED037A9FED90
:102B60000C7AF4EEC77AF1EE10FA1FD57B69D3ED3B
:102B7000037A9FED0D7A77EE877A7B69C3ED037A4E
:102B800028E000BFAFF3008000000000000000401C
:102B9000000034C3399D52A246DF913FF8C1631A49
:102BA000DCA54C40000034430000B4437B69D3ED06
:102BB000037A1FED047AF4EEC77AF1EE10FA09DD1C
:102BC0007B69D3ED037A1FED087A77EEC77A7B69CC
:102BD000C3ED037A7B69D3ED037AB0EE670AFFF7A2
:102BE00005FAF0EE407A7B69C3ED037A7B69DA6817
:102BF0003B691A607B691B681846FDF74DFC04466B
:102C00000D467B691B6A1846FDF746FC02460B46DB
:102C100043EC102B06F03CF953EC102B20462946D0
:102C2000FDF792FC02460B46904699467B695B682D
:102C30001846FDF731FC04460D467B691B6A1846B1
:102C4000FDF72AFC02460B4643EC102B06F074F904
:102C500053EC102B20462946FDF776FC02460B4626
:102C600040464946FDF7BAFA02460B461046194659
:102C7000E5A3D3E90023FDF7AFFA02460B4614465D
:102C80001D467B69DB6D1846FDF706FC02460B46C8
:102C900043EC102B06F0FCF851EC100B4FF0000247
:102CA000D54BFDF751FC02460B4620462946FDF761
:102CB00093FA02460B4610461946FDF71DFF0246E1
:102CC0007B699A637B69D3ED027A9FEDCC7A77EECC
:102CD000C77A17EE900AFDF7DFFB04460D467B69C5
:102CE000DB6D1846FDF7D8FB02460B4643EC102B74
:102CF00006F022F951EC100B4FF00002BE4BFDF72D
:102D000023FC02460B4620462946FDF765FA02469B
:102D10000B4610461946FDF7EFFE02467B69DA6363
:102D20007B69D3ED0F7A9FEDB67A67EE877A7B6980
:102D3000C3ED107A7B69D3ED0E7A9FEDB17A67EE21
:102D4000877A7B69C3ED117A7B699B6B1846FDF727
:102D5000A3FB02460B469FEDA01B43EC102B05F096
:102D6000F9FF53EC102B9EA1D1E90001FDF734FAD5
:102D700002460B4614461D467B69DB6B1846FDF781
:102D80008BFB02460B469FED941B43EC102B05F08A
:102D9000E1FF53EC102B20462946FDF71DFA0246B1
:102DA0000B461046194690A3D3E90023FDF714FA09
:102DB00002460B4610461946FDF79EFE02467B6909
:102DC0009A647B691B6C1846FDF766FB02460B464E
:102DD0009FED811B43EC102B05F0BCFF55EC104B15
:102DE0007B695B6C1846FDF757FB02460B469FED6F
:102DF0007A1B43EC102B05F0ADFF53EC102B204653
:102E00002946FDF7EBF902460B4643EC172BB0EED3
:102E1000470AF0EE670A06F00DF853EC102B104647
:102E20001946FDF769FE02467B69DA647B69D3EDDA
:102E30000F7A9FED737A27EE877A7B69D3ED137A49
:102E4000C7EE276A16EE900AFDF726FB04460D46EC
:102E50007B69D3ED0E7A9FED6A7A27EE877A7B69DC
:102E6000D3ED137AC7EE276A16EE900AFDF714FB2E
:102E700002460B4643EC112B45EC104B05F068FF66
:102E800053EC102B10461946FDF736FE02467B69BF
:102E90001A637B699B6C1846FDF7FEFA02460B46E7
:102EA0009FED4D1B43EC102B05F054FF55EC104BE0
:102EB0007B69DB6C1846FDF7EFFA02460B469FED87
:102EC000461B43EC102B05F045FF53EC102B20461E
:102ED0002946FDF763FC02460B4610461946FDF7EE
:102EE0000BFE02467B691A657B69D3ED147AB7EE57
:102EF000007AF4EEC77AF1EE10FA03DD7B694FF049
:102F00007E521A657B69D3ED147AB7EE007A77EEBC
:102F1000677A17EE900AFDF7BFFA02460B4643ECBC
:102F2000102B05F087FF53EC102B924683F0004BDB
:102F30007B6993ED127A7B69D3ED137AC7EE276A2A
:102F400016EE900AFDF7A8FA02460B4643EC112B49
:102F50004BEC10AB05F0FCFE55EC104B7B691B6B8A
:102F60001846FDF799FA02460B4620462946FDF71A
:102F700035F902460B4610461946FDF7BDFD0246DF
:102F80007B695A627B695B6A1846FDF785FA18A36C
:102F9000D3E90023FDF7D8FA02460B46104619463E
:102FA000FDF7AAFD02467B691A617B69D3ED047ABD
:102FB0009FED147AF4EEC77AF1EE10FA2CD57B6906
:102FC000D3ED047A9FED137A77EE877A7B69C3EDB0
:102FD000047A35E0AFF300800000000000000040FC
:102FE000000000000029B740000000000012CD40A2
:102FF000F8C1631ADCA54C400080534000006E43CA
:10300000000074C3000034C30000000000C056403C
:10301000000034430000B4437B69D3ED047A1FED14
:10302000047AF4EEC77AF1EE10FA09DD7B69D3ED8C
:10303000047A1FED087A77EEC77A7B69C3ED047ACC
:103040007B69D3ED047AB0EE670AFEF7CFFFF0EEAE
:10305000407A7B69C3ED047A7B691A693B695A60DF
:103060007B691B681846FDF717FA04460D467B6915
:103070001B6A1846FDF710FA02460B4643EC102B6C
:1030800005F006FF53EC102B20462946FDF75CFAAD
:1030900002460B46904699467B695B681846FDF7E9
:1030A000FBF904460D467B691B6A1846FDF7F4F9E7
:1030B00002460B4643EC102B05F03EFF53EC102B61
:1030C00020462946FDF740FA02460B46404649464F
:1030D000FDF784F802460B4610461946B1A3D3E922
:1030E0000023FDF779F802460B4614461D467B691E
:1030F0005B6A1846FDF7D0F902460B4643EC102BED
:1031000005F0C6FE51EC100B4FF000029E4BFDF790
:103110001BFA02460B4620462946FDF75DF802469B
:103120000B4614461D467B69DB6D1846FDF7B4F966
:1031300002460B4643EC102B05F0AAFE51EC100B97
:103140004FF00002914BFDF7FFF902460B46204677
:103150002946FDF741F802460B46104619464FF046
:1031600000028B4BFDF71AFB02460B461046194630
:10317000FDF7C2FC02467B695A657B69D3ED027A92
:103180009FED847A77EEC77A17EE900AFDF784F9FF
:1031900004460D467B695B6A1846FDF77DF90246D9
:1031A0000B4643EC102B05F0C7FE51EC100B4FF013
:1031B0000002754BFDF7C8F902460B46204629462A
:1031C000FDF70AF802460B4614461D467B69DB6D87
:1031D0001846FDF761F902460B4643EC102B05F04B
:1031E000ABFE51EC100B4FF00002684BFDF7ACF951
:1031F00002460B4620462946FCF7EEFF02460B46E8
:10320000104619464FF00002614BFDF7C7FA02461F
:103210000B4610461946FDF76FFC02467B699A651E
:103220007B699B6D1846FDF737F904460D467B69AF
:103230005B6D1846FDF730F902460B4643EC112B47
:1032400045EC104B05F084FD55EC104B7B695B6A37
:103250001846FDF721F902460B4620462946FCF7A1
:10326000BBFF02460B4610461946FDF745FC0246D9
:103270007B699A627B699B6A1846FDF70DF940A34A
:10328000D3E90023FDF760F902460B4610461946C4
:10329000FDF732FC02467B695A617B69D3ED057A02
:1032A0009FED3D7AF4EEC77AF1EE10FA0AD57B690C
:1032B000D3ED057A9FED397A77EE877A7B69C3ED96
:1032C000057A13E07B69D3ED057A9FED357AF4EE4C
:1032D000C77AF1EE10FA09DD7B69D3ED057A9FED2F
:1032E0002F7A77EEC77A7B69C3ED057A7B69D3EDD8
:1032F000057AB0EE670AFEF779FEF0EE407A7B6958
:10330000C3ED057A7B695A693B699A607B6993EDE5
:10331000177A7B69D3ED097A37EE677A7B69D3ED4B
:103320000A7A77EE677A7B69C3ED0B7A7B69DB6A91
:103330001846FDF7B1F812A3D3E90023FDF704F90D
:1033400002460B4610461946FDF7D6FB02467B693E
:103350009A617B69D3ED067AB0EE670AFEF746FE06
:10336000F0EE407A7B69C3ED067A7B699A693B6926
:10337000DA6000BF1837BD46BDE8B08FAFF30080FC
:10338000F8C1631ADCA54C4000805E4000805340C9
:103390000040534000006E43000034C30000B443BB
:1033A000000034430000000000C056400000000050
:1033B000B0B59CB000AF01F019FB00F0E3F800F0ED
:1033C00021FC00F047F900F045FA00F09BF900F00D
:1033D000EDF900F0B9FA00F00BFB00F099FB00F0FA
:1033E000E7FB0021544802F0B3FB0421524802F0ED
:1033F000AFFB0821504802F0ABFB0C214E4802F015
:10340000A7FB00214D4802F0A3FB04214B4802F02A
:103410009FFB08214A4802F09BFB0C21484802F020
:1034200097FB3C21474802F001FD3C21464802F051
:10343000FDFC3C21454802F0F9FC3C21444802F0E7
:10344000F5FC9FED3B0B41F626323E494148FDF726
:1034500021FD9FED370B40F6B2423B493E48FDF758
:1034600019FD9FED330B41F68A3238493B48FDF791
:1034700011FD9FED2F0B40F6944235493848FDF77A
:1034800009FDFEF7A7F8FEF759F9FEF711FAFEF766
:10349000C9FA344B07F154041D460FCD0FC495E80B
:1034A000070084E8070007F154030021184604F0E0
:1034B000D0F903462C4A13602C4B07F138041D4603
:1034C0000FCD0FC495E8070084E8070007F1380323
:1034D0000021184604F0BDF90346254A1360254B28
:1034E00007F11C041D460FCD0FC495E8070084E8C2
:1034F000070007F11C030021184604F0AAF903464F
:103500001D4A13601D4B3C461D460FCD0FC495E868
:10351000070084E807003B460021184604F099F9AB
:103520000346174A136004F08DF9FEE7AFF30080FD
:103530007B14AE47E17A843FC0030020980400204A
:1035400050040020E802002030030020780300200F
:1035500008040020A0050020A0060020A0070020ED
:10356000A00800203CB200082805002064B2000832
:103570002C0500208CB2000830050020B8B20008ED
:103580003405002080B594B000AF07F1200330224D
:103590000021184605F0AAFB07F10C0300221A606F
:1035A0005A609A60DA601A610023BB60274B1B6C7B
:1035B000264A43F080531364244B1B6C03F0805362
:1035C000BB60BB6800237B60214B1B68204A43F42F
:1035D000804313601E4B1B6803F480437B607B6851
:1035E00002233B620123FB6210233B630223BB6384
:1035F0000023FB6308233B6448237B640223BB64F2
:103600000423FB6407F12003184601F0B9FD0346CB
:10361000002B01D000F004FF0F23FB6002233B616D
:1036200000237B614FF48053BB610023FB6107F1F2
:103630000C030221184602F01BF80346002B01D0B0
:1036400000F0EEFE00BF5037BD4680BD003802409E
:103650000070004080B58CB000AF07F10C0324224D
:103660000021184605F042FB3B1D00221A605A60FB
:10367000224B234A1A60214B00225A601F4B002222
:103680009A601E4B4FF6FF72DA601C4B00221A61E3
:103690001A4B00225A61194B00229A610323FB60E6
:1036A00000233B6101237B610023BB610023FB619D
:1036B00000233B6201237B620023BB620023FB6289
:1036C00007F10C0319460D4802F00AFB0346002BD4
:1036D00001D000F0A5FE00237B600023BB603B1DF2
:1036E0001946064803F096F80346002B01D000F077
:1036F00097FE00BF3037BD4680BD00BFE802002006
:103700000000014080B58CB000AF07F10C0324220B
:103710000021184605F0EAFA3B1D00221A605A60A3
:10372000214B4FF080421A601F4B00225A601E4B03
:1037300000229A601C4B4FF0FF32DA601A4B0022D5
:103740001A61194B00229A610123FB6000233B613F
:1037500001237B610023BB610023FB6100233B62EB
:1037600001237B620023BB620023FB6207F10C0391
:1037700019460D4802F0B4FA0346002B01D000F0C0
:103780004FFE00237B600023BB603B1D19460648AB
:1037900003F040F80346002B01D000F041FE00BFCB
:1037A0003037BD4680BD00BF3003002080B58CB0EF
:1037B00000AF07F10C0324220021184605F096FA09
:1037C0003B1D00221A605A60204B214A1A601F4B91
:1037D00000225A601D4B00229A601C4B4FF6FF726C
:1037E000DA601A4B00221A61184B00229A610323F7
:1037F000FB6000233B6101237B610023BB6100234D
:10380000FB6100233B6201237B620023BB62002338
:10381000FB6207F10C0319460C4802F061FA0346FB
:10382000002B01D000F0FCFD00237B600023BB6077
:103830003B1D1946054802F0EDFF0346002B01D061
:1038400000F0EEFD00BF3037BD4680BD780300209C
:103850000004004080B58AB000AF07F120030022C9
:103860001A605A603B1D00221A605A609A60DA6042
:103870001A615A619A61324B324A1A60304B062201
:103880005A602F4B00229A602D4B40F2E732DA60EB
:103890002B4B00221A612A4B00229A61284802F021
:1038A00007F90346002B01D000F0BAFD00233B626C
:1038B00000237B6207F120031946214802F0AAFF8A
:1038C0000346002B01D000F0ABFD60237B6000239A
:1038D000BB600023FB6000237B613B1D0022194677
:1038E000174802F021FC0346002B01D000F098FDA0
:1038F0003B1D04221946124802F016FC0346002B19
:1039000001D000F08DFD3B1D082219460C4802F045
:103910000BFC0346002B01D000F082FD3B1D0C2266
:103920001946074802F000FC0346002B01D000F0C6
:1039300077FD034800F006FF00BF2837BD4680BD75
:10394000C00300200008004080B58CB000AF07F134
:103950000C0324220021184605F0C8F93B1D002263
:103960001A605A60204B214A1A601F4B00225A608D
:103970001D4B00229A601C4B4FF0FF32DA601A4B4D
:1039800000221A61184B00229A610323FB60002376
:103990003B6101237B610023BB610023FB610023AA
:1039A0003B6201237B620023BB620023FB6207F1C1
:1039B0000C0319460C4802F093F90346002B01D082
:1039C00000F02EFD00237B600023BB603B1D1946E9
:1039D000054802F01FFF0346002B01D000F020FD38
:1039E00000BF3037BD4680BD08040020000C0040F9
:1039F00080B592B000AF07F1400300221A605A6010
:103A000007F1240300221A605A609A60DA601A6192
:103A10005A619A613B1D20220021184605F066F983
:103A2000394B3A4A1A60384B06225A60364B00220C
:103A30009A60354B40F2E732DA60334B00221A616C
:103A4000314B00225A61304B00229A612E4802F01D
:103A50002FF80346002B01D000F0E2FC00233B646A
:103A600000237B6407F140031946274802F0D2FE89
:103A70000346002B01D000F0D3FC60237B620023BF
:103A8000BB620023FB6200233B6300237B630023B4
:103A9000BB630023FB6307F12403082219461A487D
:103AA00002F042FB0346002B01D000F0B9FC07F105
:103AB00024030C221946144802F036FB0346002B5F
:103AC00001D000F0ADFC00237B600023BB6000232D
:103AD000FB6000233B6100237B614FF40053BB611B
:103AE00000233B623B1D1946074802F00FFF0346C7
:103AF000002B01D000F094FC034800F023FE00BF2F
:103B00004837BD4680BD00BF50040020000401407E
:103B100080B588B000AF3B1D00221A605A609A60E1
:103B2000DA601A615A619A611F4B204A1A601E4B73
:103B300006225A601C4B00229A601B4B40F2E7326F
:103B4000DA60194B00221A61174B00229A6116485D
:103B500001F0AEFF0346002B01D000F061FC6023B2
:103B60007B600023BB600023FB6000237B613B1D67
:103B7000002219460C4802F0D7FA0346002B01D068
:103B800000F04EFC3B1D04221946074802F0CCFA17
:103B90000346002B01D000F043FC034800F0D2FDA7
:103BA00000BF2037BD4680BD980400200040014082
:103BB00080B500AF114B124A1A60104B4FF4E1323E
:103BC0005A600E4B00229A600C4B0022DA600B4BBD
:103BD00000221A61094B0C225A61084B00229A619B
:103BE000064B0022DA61054802F0F6FE0346002B80
:103BF00001D000F015FC00BF80BD00BFE004002034
:103C00000044004080B58AB000AF07F114030022E1
:103C10001A605A609A60DA601A6100233B61294B8E
:103C20001B6B284A43F001031363264B1B6B03F005
:103C300001033B613B690023FB60224B1B6B214A64
:103C400043F0080313631F4B1B6B03F00803FB6077
:103C5000FB680023BB601B4B1B6B1A4A43F0040339
:103C60001363184B1B6B03F00403BB60BB6800239A
:103C70007B60144B1B6B134A43F002031363114B1D
:103C80001B6B03F002037B607B6830237B610023A6
:103C9000BB610123FB6107F1140319460A4801F0D7
:103CA000BBF8C0237B610023BB610123FB6107F1EB
:103CB00014031946054801F0AFF800BF2837BD4688
:103CC00080BD00BF003802400000024000080240F2
:103CD00080B582B000AF78602D4B5B78012B53D15B
:103CE0002B4B9B78012B17D12A4BD3ED007A294B14
:103CF00093ED017A274BD3ED026A264B93ED036ACD
:103D0000F0EE461AB0EE661AF0EE470AB0EE670A19
:103D100021492248FDF740FF1D4BDB78012B17D1CD
:103D20001F4BD3ED007A1E4B93ED017A1C4BD3ED64
:103D3000026A1B4B93ED036AF0EE461AB0EE661A68
:103D4000F0EE470AB0EE670A13491648FEF798F9F5
:103D50000F4B1B79012B17D1114BD3ED007A104B70
:103D600093ED017A0E4BD3ED026A0D4B93ED036A8E
:103D7000F0EE461AB0EE661AF0EE470AB0EE670AA9
:103D800005490848FEF748FE0A2003F0AEFDA3E708
:103D900038050020A009002060050020B00900209F
:103DA0004C0A0020EC09002080B584B002AF786096
:103DB00040219D4801F0CCF903465AB29B4B1A7042
:103DC0008021994801F0C4F903465AB2974B5A70C2
:103DD0001021974801F0BCF903465AB2934B9A70F0
:103DE0002021934801F0B4F903465AB28F4BDA70A0
:103DF000904B1B78012B11D18F4B00221A708E4BE8
:103E000000225A708C4B00229A708B4B0022DA7081
:103E1000884B00225A70874B00221A70854B5B78C2
:103E2000002B40F04F81844B1B78002B6BD140213D
:103E30007D4801F08DF90346012B1CD1012003F0D0
:103E400054FD4021784801F083F90346012B5AD1F3
:103E500001217A48FDF72CF9794B00221A80764B24
:103E600001221A70774B4FF000021A60764B4FF028
:103E700000021A6247E0724B4FF670621A8002210C
:103E80006E48FDF7AFF851EC100B4FF000026F4B8E
:103E9000FCF7EAFD0346002B0ED0694BB3F9003066
:103EA000002B09DD664BB3F900309BB25B429BB23D
:103EB0001AB2634B1A801BE002216048FDF792F8AA
:103EC00051EC100B4FF00002614BFCF7AFFD0346C5
:103ED000002B0DD05A4BB3F90030002B08DA584BA9
:103EE000B3F900309BB25B429BB21AB2544B1A80BA
:103EF000534BB3F900301A460C230093082355495D
:103F00005548FDF7ECF84C4B5B78002B30D1802105
:103F1000454801F01DF90346012B1AD1012003F099
:103F2000E4FC8021404801F013F90346012B1FD126
:103F300001214A48FDF7BCF8414B00225A803E4B14
:103F400001225A703F4B464A5A603F4B444A5A62DC
:103F50000EE03B4B4FF4C8725A80394BB3F9023034
:103F60001A460C23009308233E493F48FDF7B7F853
:103F7000314B9B78002B30D110212D4801F0E8F80F
:103F80000346002B1AD1012003F0AFFC1021284872
:103F900001F0DEF80346002B1FD101213348FDF765
:103FA00087F8254B01229A70254B00229A80254BD9
:103FB0002F4A9A60244B2E4A9A620EE0204B4FF60D
:103FC000D4629A801E4BB3F904301A46042300933E
:103FD000002324492748FDF782F8174BDB78002B94
:103FE0005DD12021124801F0B3F80346002B47D1E0
:103FF000012003F07AFC20210D4801F0A9F80346C6
:10400000002B4CD101211C48FDF752F80C4B00222B
:10401000DA80094B0122DA700A4B184ADA600A4B3F
:10402000164ADA623BE000BF000802404C0500205F
:10403000000002403805002048050020A0050020AF
:1040400040050020500500206005002000805640FB
:10405000008056C050040020E8050020A006002083
:1040600000003B43C0030020E8060020A00700201A
:10407000000007C3E8070020A00800200000B442A9
:10408000124B4FF49672DA80104BB3F906301A4691
:104090000423009300230E490E48FDF720F80E4B31
:1040A0001B78012B0ED10C4B5B78012B0AD10A4BEC
:1040B0009B78012B06D1084BDB78012B02D1074BF3
:1040C00001225A700A2003F010FC71E6400500201E
:1040D00098040020E808002048050020380500204A
:1040E00080B582B000AF78600D4B1B78012B01D1F9
:1040F000FDF7FEFA0A4B5B78012B01D1FDF7ACFB13
:10410000074B9B78012B01D1FDF760FC044BDB785A
:10411000012B01D1FDF714FD0A2003F0E6FBE3E7D4
:104120004805002080B582B000AF7860B24B9B7824
:10413000012B08D0B04BDB78012B04D0AE4B1B79A0
:10414000012B40F05481AD4B1B78042B00F24E81C3
:1041500001A252F823F000BF6D410008DD410008C4
:104160004D420008BD4200082D430008A44B93EDCA
:10417000007AA44BD3ED007AB4EEE77AF1EE10FAB0
:1041800028D59F4BD3ED007AB1EE047A77EE877A8B
:104190009B4BC3ED007A9C4BD3ED087A9A4B93ED81
:1041A000007A984BD3ED006A954B93ED006AF0EEE0
:1041B000462A9FED962ADFED951AB0EE661AF0EECC
:1041C000470AB0EE670AFDF78DF9F0EE407A904BA2
:1041D000C3ED007A894B01221A7008E18D4B93EDF3
:1041E000007A884BD3ED007AB4EEE77AF1EE10FA5C
:1041F00028D5884BD3ED007AB1EE047A77EE877A32
:10420000844BC3ED007A804BD3ED097A7E4B93ED5E
:10421000017A7C4BD3ED006A7E4B93ED006AF0EEA1
:10422000462A9FED7A2ADFED791AB0EE661AF0EE93
:10423000470AB0EE670AFDF755F9F0EE407A744B85
:10424000C3ED017A6D4B02221A70D0E0724B93EDF0
:10425000007A6C4BD3ED007AB4EEE77AF1EE10FA07
:1042600028D56D4BD3ED007AB1EE047A77EE877ADC
:10427000694BC3ED007A644BD3ED0A7A624B93ED40
:10428000007A604BD3ED006A634B93ED006AF0EE69
:10429000462A9FED5E2ADFED5D1AB0EE661AF0EE5B
:1042A000470AB0EE670AFDF71DF9F0EE407A584B69
:1042B000C3ED027A514B03221A7098E0574B93EDED
:1042C000007A504BD3ED007AB4EEE77AF1EE10FAB3
:1042D00028D5524BD3ED007AB1EE047A77EE877A87
:1042E0004E4BC3ED007A484BD3ED0B7A464B93ED22
:1042F000007A444BD3ED006A484B93ED006AF0EE30
:10430000462A9FED422ADFED411AB0EE661AF0EE22
:10431000470AB0EE670AFDF7E5F8F0EE407A3C4B4D
:10432000C3ED037A354B04221A7060E0364B93EDEF
:10433000007A354BD3ED047AB4EE677AF1EE10FAD9
:104340000BD02F4B4FF000021A60314B1B682E4AE6
:1043500013622D4B1B682C4A13612B4B93ED017A92
:10436000294BD3ED057AB4EE677AF1EE10FA0BD053
:10437000284B4FF000021A60254B5B68224A5362BB
:10438000214B5B68204A53611F4B93ED027A1E4B11
:10439000D3ED067AB4EE677AF1EE10FA0BD01E4B2D
:1043A0004FF000021A601A4B9B68174A9362164B33
:1043B0009B68154A9361144B93ED037A124BD3ED2E
:1043C000077AB4EE677AF1EE10FA0BD0134B4FF088
:1043D00000021A600E4BDB680B4AD3620A4BDB68A3
:1043E000094AD361054B00221A7000E000BF01208A
:1043F00003F07BFA9AE600BF380500205C0A002033
:104400009005002000000020600500200000000052
:104410005005002094050020980500209C050020F0
:1044200080B400AF72B600BFFEE7000080B582B076
:1044300000AF00237B60124B5B6C114A43F4804356
:1044400053640F4B5B6C03F480437B607B680023F9
:104450003B600B4B1B6C0A4A43F080531364084BC0
:104460001B6C03F080533B603B6800220F216FF010
:10447000010000F008FC00BF0837BD4680BD00BF4A
:104480000038024080B590B000AF786007F12C038F
:1044900000221A605A609A60DA601A617B681B68B1
:1044A000784A934235D10023BB62774B5B6C764AE6
:1044B00043F001035364744B5B6C03F00103BB6274
:1044C000BB6A00237B62704B1B6B6F4A43F0010396
:1044D00013636D4B1B6B03F001037B627B6A4FF42C
:1044E0004073FB6202233B6300237B630023BB63B7
:1044F0000123FB6307F12C031946644800F08CFC90
:1045000000220521182000F0BEFB182000F0D7FB88
:10451000B3E07B681B68B3F1804F4BD100233B6253
:10452000594B1B6C584A43F001031364564B1B6CE8
:1045300003F001033B623B6A0023FB61524B1B6BA0
:10454000514A43F0010313634F4B1B6B03F001030C
:10455000FB61FB690023BB614B4B1B6B4A4A43F079
:1045600002031363484B1B6B03F00203BB61BB697F
:104570004FF40043FB6202233B6300237B63002371
:10458000BB630123FB6307F12C0319463F4800F08E
:1045900043FC0823FB6202233B6300237B6300236D
:1045A000BB630123FB6307F12C031946384800F075
:1045B00033FC62E07B681B68364A93422CD10023AF
:1045C0007B61314B1B6C304A43F0020313642E4B6A
:1045D0001B6C03F002037B617B6900233B612A4B68
:1045E0001B6B294A43F001031363274B1B6B03F03A
:1045F00001033B613B69C023FB6202233B63002351
:104600007B630023BB630223FB6307F12C03194682
:104610001E4800F001FC30E07B681B681E4A934294
:104620002BD10023FB60184B1B6C174A43F0080387
:104630001364154B1B6C03F00803FB60FB6800233D
:10464000BB60114B1B6B104A43F0010313630E4B0D
:104650001B6B03F00103BB60BB680323FB620223F7
:104660003B6300237B630023BB630223FB6307F1EF
:104670002C031946054800F0CFFB00BF4037BD466C
:1046800080BD00BF00000140003802400000024031
:104690000004024000040040000C004080B586B0D9
:1046A00000AF78607B681B68224A93420ED10023DA
:1046B0007B61214B1B6C204A43F0040313641E4BA7
:1046C0001B6C03F004037B617B692EE07B681B6835
:1046D0001A4A93420ED100233B61174B5B6C164A7A
:1046E00043F002035364144B5B6C03F002033B6121
:1046F0003B691AE07B681B68114A934215D100237D
:10470000FB600D4B5B6C0C4A43F4803353640A4BE3
:104710005B6C03F48033FB60FB68002205211820EA
:1047200000F0B1FA182000F0CAFA00BF1837BD46F1
:1047300080BD00BF00080040003802400004014076
:104740000040014080B58AB000AF786007F11403E3
:1047500000221A605A609A60DA601A617B681B68EE
:10476000374A93421FD100233B61364B1B6B354ABE
:1047700043F008031363334B1B6B03F008033B61E7
:104780003B694FF470437B610223BB610023FB61F3
:1047900000233B6202237B6207F1140319462A4877
:1047A00000F03AFB47E07B681B68284A93421FD120
:1047B0000023FB60234B1B6B224A43F0040313636B
:1047C000204B1B6B03F00403FB60FB684FF440734A
:1047D0007B610223BB610023FB6100233B62032357
:1047E0007B6207F114031946194800F015FB22E01B
:1047F0007B681B68174A93421DD10023BB60114B95
:104800001B6B104A43F0010313630E4B1B6B03F049
:104810000103BB60BB680C237B610223BB610023E7
:10482000FB6100233B6203237B6207F114031946FB
:10483000094800F0F1FA00BF2837BD4680BD00BF2F
:104840000008004000380240000C02400004014013
:1048500000080240004001400000024080B58AB0DC
:1048600000AF786007F1140300221A605A609A6062
:10487000DA601A617B681B681D4A934233D10023BA
:104880003B611C4B1B6C1B4A43F400331364194BF4
:104890001B6C03F400333B613B690023FB60154B49
:1048A0001B6B144A43F008031363124B1B6B03F09A
:1048B0000803FB60FB6860237B610223BB6100236C
:1048C000FB6103233B6207237B6207F11403194654
:1048D000094800F0A1FA00220521262000F0D3F9B2
:1048E000262000F0ECF900BF2837BD4680BD00BF90
:1048F0000044004000380240000C024080B400AF89
:10490000FEE780B400AFFEE780B400AFFEE780B4FE
:1049100000AFFEE780B400AFFEE780B400AF00BF99
:10492000BD465DF8047B704780B500AF00F0B0F87D
:1049300003F05EFD0346012B01D003F09DFF00BF95
:1049400080BD000080B500AF034801F0FDFA0348C8
:1049500001F0FAFA00BF80BDE802002098040020B0
:1049600080B500AF024802F087F800BF80BD00BFED
:10497000E004002080B400AF064BD3F88830054A2D
:1049800043F47003C2F8883000BFBD465DF8047B75
:10499000704700BF00ED00E0DFF834D0FFF7EAFF1A
:1049A0000C480D490D4A002302E0D458C45004338A
:1049B000C4188C42F9D30A4A0A4C002301E0136060
:1049C0000432A242FBD304F09FF9FEF7F1FC7047DA
:1049D00000000220000000207800002080B50008C0
:1049E00078000020F0480020FEE7000080B500AF0E
:1049F0000E4B1B680D4A43F4007313600B4B1B688E
:104A00000A4A43F480631360084B1B68074A43F467
:104A100080731360032000F02BF90F2000F008F8DA
:104A2000FFF704FD0023184680BD00BF003C024094
:104A300080B582B000AF7860124B1A68124B1B78B9
:104A400019464FF47A73B3FBF1F3B2FBF3F3184654
:104A500000F043F90346002B01D001230EE07B68F0
:104A60000F2B0AD8002279684FF0FF3000F00BF9C5
:104A7000064A7B681360002300E0012318460837CC
:104A8000BD4680BD040000200C000020080000206E
:104A900080B400AF064B1B781A46064B1B681344C4
:104AA000044A136000BFBD465DF8047B704700BF39
:104AB0000C000020600A002080B400AF034B1B688C
:104AC0001846BD465DF8047B704700BF600A0020B1
:104AD00080B485B000AF78607B6803F00703FB60AB
:104AE0000C4BDB68BB60BA684FF6FF031340BB603A
:104AF000FB681A02BB68134343F0BF6343F40033FF
:104B0000BB60044ABB68D36000BF1437BD465DF884
:104B1000047B704700ED00E080B400AF044BDB681D
:104B20001B0A03F007031846BD465DF8047B704777
:104B300000ED00E080B483B000AF0346FB7197F94D
:104B40000730002B0BDBFB7903F01F02074997F9B5
:104B500007305B09012000FA02F241F8232000BF70
:104B60000C37BD465DF8047B704700BF00E100E0F4
:104B700080B483B000AF03463960FB7197F907300A
:104B8000002B0ADB3B68DAB20C4997F907301201B7
:104B9000D2B20B4483F800230AE03B68DAB208493A
:104BA000FB7903F00F03043B1201D2B20B441A76D7
:104BB00000BF0C37BD465DF8047B704700E100E0A4
:104BC00000ED00E080B489B000AFF860B9607A60B1
:104BD000FB6803F00703FB61FB69C3F10703042BC8
:104BE00028BF0423BB61FB690433062B02D9FB6990
:104BF000033B00E000237B614FF0FF32BB6902FA08
:104C000003F3DA43BB681A407B699A404FF0FF31E7
:104C10007B6901FA03F3D9437B680B4013431846C1
:104C20002437BD465DF8047B7047000080B582B034
:104C300000AF78607B68013BB3F1807F01D3012333
:104C40000FE00A4A7B68013B53600F214FF0FF30B1
:104C5000FFF78EFF054B00229A60044B07221A6073
:104C6000002318460837BD4680BD00BF10E000E0B5
:104C700080B582B000AF78607868FFF729FF00BF89
:104C80000837BD4680BD80B586B000AF0346B96029
:104C90007A60FB7300237B61FFF73EFF78617A68DF
:104CA000B9687869FFF78EFF024697F90F30114611
:104CB0001846FFF75DFF00BF1837BD4680BD80B5C1
:104CC00082B000AF0346FB7197F907301846FFF733
:104CD00031FF00BF0837BD4680BD80B582B000AF50
:104CE00078607868FFF7A2FF034618460837BD468C
:104CF00080BD80B584B000AF78607B689B6DFB6041
:104D0000FFF7DAFEB8607B6893F83530DBB2022B30
:104D100008D07B6880225A657B68002283F83420A3
:104D2000012352E07B681B681A687B681B6822F0CD
:104D300016021A607B681B685A697B681B6822F040
:104D400080025A617B681B6C002B03D17B689B6CD3
:104D5000002B07D07B681B681A687B681B6822F0F1
:104D600008021A607B681B681A687B681B6822F05F
:104D700001021A6013E0FFF79FFE0246BB68D31AD8
:104D8000052B0CD97B6820225A657B68032283F8A7
:104D900035207B68002283F83420032315E07B68EC
:104DA0001B681B6803F00103002BE4D17B68DB6DFB
:104DB0003F229A40FB689A607B68012283F8352085
:104DC0007B68002283F83420002318461037BD4644
:104DD00080BD80B483B000AF78607B6893F83530D5
:104DE000DBB2022B04D07B6880225A6501230CE0E1
:104DF0007B68052283F835207B681B681A687B680E
:104E00001B6822F001021A60002318460C37BD46C9
:104E10005DF8047B7047000080B489B000AF786013
:104E2000396000237B6100233B610023BB610023C9
:104E3000FB616BE10122FB6902FA03F37B613B68D2
:104E40001B687A6913403B613A697B699A4240F07A
:104E50005A813B685B6803F00303012B05D03B6874
:104E60005B6803F00303022B30D17B689B68BB6156
:104E7000FB695B00032202FA03F3DB43BA691340C8
:104E8000BB613B68DA68FB695B0002FA03F3BA694D
:104E90001343BB617B68BA699A607B685B68BB61DE
:104EA0000122FB6902FA03F3DB43BA691340BB61D9
:104EB0003B685B681B0903F00102FB6902FA03F31C
:104EC000BA691343BB617B68BA695A603B685B6827
:104ED00003F00303032B17D07B68DB68BB61FB691E
:104EE0005B00032202FA03F3DB43BA691340BB61A0
:104EF0003B689A68FB695B0002FA03F3BA691343E3
:104F0000BB617B68BA69DA603B685B6803F00303E6
:104F1000022B23D1FB69DA087B68083253F8223070
:104F2000BB61FB6903F007039B000F2202FA03F346
:104F3000DB43BA691340BB613B681A69FB6903F044
:104F400007039B0002FA03F3BA691343BB61FB69D1
:104F5000DA087B680832B96943F822107B681B685D
:104F6000BB61FB695B00032202FA03F3DB43BA690E
:104F70001340BB613B685B6803F00302FB695B00A5
:104F800002FA03F3BA691343BB617B68BA691A601A
:104F90003B685B6803F44033002B00F0B4800023CF
:104FA000FB60604B5B6C5F4A43F4804353645D4B32
:104FB0005B6C03F48043FB60FB685B4AFB699B0806
:104FC000023352F82330BB61FB6903F003039B00FB
:104FD0000F2202FA03F3DB43BA691340BB617B681B
:104FE000524A93422BD07B68514A934225D07B682A
:104FF000504A93421FD07B684F4A934219D07B6836
:105000004E4A934213D07B684D4A93420DD07B6841
:105010004C4A934207D07B684B4A934201D1072305
:105020000EE008230CE006230AE0052308E0042331
:1050300006E0032304E0022302E0012300E0002352
:10504000FA6902F0030292009340BA691343BB610C
:105050003549FB699B080233BA6941F823203B4B71
:105060009B68BB613B69DB43BA691340BB613B682A
:105070005B6803F48013002B03D0BA693B691343C8
:10508000BB61324ABB699360304BDB68BB613B69F3
:10509000DB43BA691340BB613B685B6803F40013F0
:1050A000002B03D0BA693B691343BB61274ABB6934
:1050B000D360264B5B68BB613B69DB43BA69134035
:1050C000BB613B685B6803F40033002B03D0BA6913
:1050D0003B691343BB611D4ABB6953601B4B1B6893
:1050E000BB613B69DB43BA691340BB613B685B68EA
:1050F00003F48033002B03D0BA693B691343BB61CF
:10510000124ABB691360FB690133FB61FB690F2B1A
:105110007FF690AE00BF00BF2437BD465DF8047B2C
:10512000704700BF003802400038014000000240D4
:105130000004024000080240000C0240001002403F
:105140000014024000180240001C0240003C0140D4
:1051500080B485B000AF78600B467B807B681A69AD
:105160007B881340002B02D00123FB7301E0002356
:10517000FB73FB7B18461437BD465DF8047B704714
:1051800080B586B000AF78607B68002B01D1012329
:1051900067E27B681B6803F00103002B75D0884B26
:1051A0009B6803F00C03042B0CD0854B9B6803F029
:1051B0000C03082B12D1824B5B6803F48003B3F518
:1051C000800F0BD17E4B1B6803F40033002B5BD0A8
:1051D0007B685B68002B57D1012342E27B685B68E8
:1051E000B3F5803F06D1764B1B68754A43F4803394
:1051F00013601DE07B685B68B3F5A02F0CD1704B8A
:105200001B686F4A43F4802313606D4B1B686C4A24
:1052100043F4803313600BE0694B1B68684A23F446
:1052200080331360664B1B68654A23F48023136048
:105230007B685B68002B13D0FFF73EFC386108E009
:10524000FFF73AFC02463B69D31A642B01D90323CA
:1052500007E25B4B1B6803F40033002BF0D014E033
:10526000FFF72AFC386108E0FFF726FC02463B699D
:10527000D31A642B01D90323F3E1514B1B6803F4C8
:105280000033002BF0D100E000BF7B681B6803F007
:105290000203002B63D04A4B9B6803F00C03002BE6
:1052A0000BD0474B9B6803F00C03082B1CD1444BDD
:1052B0005B6803F48003002B16D1414B1B6803F09D
:1052C0000203002B05D07B68DB68012B01D0012392
:1052D000C7E13B4B1B6823F0F8027B681B69DB00CE
:1052E000374913430B603AE07B68DB68002B20D022
:1052F000344B01221A60FFF7DFFB386108E0FFF74B
:10530000DBFB02463B69D31A022B01D90323A8E138
:105310002B4B1B6803F00203002BF0D0284B1B68BB
:1053200023F0F8027B681B69DB00254913430B60FF
:1053300015E0244B00221A60FFF7BEFB386108E03D
:10534000FFF7BAFB02463B69D31A022B01D90323AC
:1053500087E11B4B1B6803F00203002BF0D17B6835
:105360001B6803F00803002B36D07B685B69002BB9
:1053700016D0154B01221A60FFF79EFB386108E03A
:10538000FFF79AFB02463B69D31A022B01D903238C
:1053900067E10B4B5B6F03F00203002BF0D01BE0C7
:1053A000094B00221A60FFF787FB38610EE0FFF718
:1053B00083FB02463B69D31A022B07D9032350E132
:1053C0000038024000004742800E4742884B5B6F26
:1053D00003F00203002BEAD17B681B6803F004038F
:1053E000002B00F097800023FB75814B1B6C03F0B2
:1053F0008053002B0FD10023BB607D4B1B6C7C4A7C
:1054000043F0805313647A4B1B6C03F08053BB60F2
:10541000BB680123FB75774B1B6803F48073002B7B
:1054200018D1744B1B68734A43F480731360FFF701
:1054300043FB386108E0FFF73FFB02463B69D31AA4
:10544000022B01D903230CE16A4B1B6803F4807320
:10545000002BF0D07B689B68012B06D1644B1B6F3F
:10546000634A43F0010313671CE07B689B68052BCC
:105470000CD15F4B1B6F5E4A43F0040313675C4B18
:105480001B6F5B4A43F0010313670BE0584B1B6F24
:10549000574A23F001031367554B1B6F544A23F0FF
:1054A000040313677B689B68002B15D0FFF704FB90
:1054B00038610AE0FFF700FB02463B69D31A41F26C
:1054C0008832934201D90323CBE0494B1B6F03F091
:1054D0000203002BEED014E0FFF7EEFA38610AE089
:1054E000FFF7EAFA02463B69D31A41F28832934247
:1054F00001D90323B5E03E4B1B6F03F00203002BE1
:10550000EED1FB7D012B05D1394B1B6C384A23F0C2
:10551000805313647B689B69002B00F0A180344B9F
:105520009B6803F00C03082B5CD07B689B69022B03
:1055300041D1314B00221A60FFF7BEFA386108E012
:10554000FFF7BAFA02463B69D31A022B01D90323AB
:1055500087E0274B1B6803F00073002BF0D17B68BA
:10556000DA697B681B6A1A437B685B6A9B011A4392
:105570007B689B6A5B08013B1B041A437B68DB6A00
:105580001B061B4913434B601B4B01221A60FFF79C
:1055900093FA386108E0FFF78FFA02463B69D31AA5
:1055A000022B01D903235CE0114B1B6803F000734D
:1055B000002BF0D054E0104B00221A60FFF77CFA69
:1055C000386108E0FFF778FA02463B69D31A022BEC
:1055D00001D9032345E0064B1B6803F00073002B41
:1055E000F0D13DE07B689B69012B07D1012338E0B6
:1055F0000038024000700040600047421B4B5B686F
:10560000FB607B689B69012B28D0FB6803F4800258
:105610007B68DB699A4221D1FB6803F03F027B681B
:105620001B6A9A421AD1FA6847F6C07313407A6827
:10563000526A9201934211D1FB6803F440327B68B5
:105640009B6A5B08013B1B049A4207D1FB6803F08D
:1056500070627B68DB6A1B069A4201D0012300E07E
:10566000002318461837BD4680BD00BF00380240F1
:1056700080B584B000AF786039607B68002B01D1C1
:105680000123CCE0684B1B6803F007033A689A4299
:105690000CD9654B3A68D2B21A70634B1B6803F0A1
:1056A00007033A689A4201D00123B8E07B681B687F
:1056B00003F00203002B20D07B681B6803F0040377
:1056C000002B05D0594B9B68584A43F4E053936034
:1056D0007B681B6803F00803002B05D0534B9B68C5
:1056E000524A43F460439360504B9B6823F0F002AE
:1056F0007B689B684D4913438B607B681B6803F094
:105700000103002B44D07B685B68012B07D1474B1A
:105710001B6803F40033002B19D101237FE07B6861
:105720005B68022B03D07B685B68032B07D13F4B80
:105730001B6803F00073002B09D101236FE03B4B82
:105740001B6803F00203002B01D1012367E0374BF4
:105750009B6823F003027B685B68344913438B60CA
:10576000FFF7AAF9F8600AE0FFF7A6F90246FB681E
:10577000D31A41F28832934201D903234FE02B4BD5
:105780009B6803F00C027B685B689B009A42EBD13C
:10579000254B1B6803F007033A689A420CD2224B50
:1057A0003A68D2B21A70204B1B6803F007033A68BC
:1057B0009A4201D0012332E07B681B6803F00403A6
:1057C000002B08D0194B9B6823F4E0527B68DB6800
:1057D000164913438B607B681B6803F00803002B9A
:1057E00009D0124B9B6823F460427B681B69DB0085
:1057F0000E4913438B6000F021F802460B4B9B6867
:105800001B0903F00F030A49CB5C22FA03F3094A90
:105810001360094B1B681846FFF70AF90023184666
:105820001037BD4680BD00BF003C0240003802403A
:10583000DCB2000804000020080000202DE9B04F71
:1058400094B000AF00237B640023FB6400233B641F
:105850000023BB64794B9B6803F00C03082B0DD02D
:10586000082B00F2E180002B02D0042B03D0DBE0F8
:10587000734BBB64DBE0734BBB64D8E06F4B5B687E
:1058800003F03F037B646D4B5B6803F48003002BE4
:1058900063D06A4B5B689B090022BB63FA63BB6BF6
:1058A000C3F308033B6300237B63D7E90C4522461F
:1058B0002B464FF000004FF00001590141EAD26140
:1058C000500102460B462146511A3961294663EBC5
:1058D00001037B614FF000024FF00003D7E904ABF6
:1058E00059468B01514643EA916351468A0151461C
:1058F000B2EB0108594663EB01094FF000024FF08B
:1059000000034FEAC90343EA58734FEAC8029046BE
:105910009946234618EB0303BB602B4649EB030370
:10592000FB604FF000024FF00003D7E90245294623
:105930004B02214643EAD15321464A0210461946FA
:105940007B6C0022BB62FA62D7E90A23FBF724F9D9
:1059500002460B461346FB6458E0384B5B689B09D4
:10596000002218461146C0F308033B6200237B6205
:10597000D7E9088942464B464FF000004FF000013E
:10598000590141EAD261500102460B464146B2EB51
:10599000010A494663EB010B4FF000024FF0000390
:1059A0004FEA8B1343EA9A634FEA8A12B2EB0A0476
:1059B00063EB0B054FF000024FF00003EB0043EAEE
:1059C0005473E20014461D464346E3183B604B46C1
:1059D00045EB03037B604FF000024FF00003D7E973
:1059E000004529468B02214643EA915321468A020B
:1059F000104619467B6C0022BB61FA61D7E9062389
:105A0000FBF7CAF802460B461346FB640B4B5B6878
:105A10001B0C03F0030301335B003B64FA6C3B6C2B
:105A2000B2FBF3F3BB6402E0054BBB6400BFBB6C8D
:105A300018465037BD46BDE8B08F00BF0038024061
:105A40000024F40000127A0080B400AF034B1B68FE
:105A50001846BD465DF8047B704700BF0400002077
:105A600080B500AFFFF7F0FF0246054B9B689B0A2D
:105A700003F007030349CB5C22FA03F3184680BD09
:105A800000380240ECB2000880B500AFFFF7DCFF41
:105A90000246054B9B685B0B03F007030349CB5C95
:105AA00022FA03F3184680BD00380240ECB2000829
:105AB00080B582B000AF78607B68002B01D10123F4
:105AC00041E07B6893F83D30DBB2002B06D17B6868
:105AD000002283F83C207868FEF7E0FD7B68022214
