:020000040800F2
:1000000000000220313B0008D9380008DF38000822
:10001000E5380008EB380008F1380008000000005F
:10002000000000000000000000000000B186000891
:10003000F7380008000000000189000869890008FD
:10004000813B0008813B0008813B0008813B0008A0
:10005000813B0008813B0008813B0008813B000890
:10006000813B0008813B0008813B0008813B000880
:10007000813B0008813B0008813B0008813B000870
:10008000813B0008813B0008813B0008813B000860
:10009000813B0008813B0008813B0008813B000850
:1000A00005390008813B0008813B0008813B0008BE
:1000B000813B0008813B0008813B0008813B000830
:1000C000813B0008813B0008813B0008813B000820
:1000D000813B000821390008813B0008813B000872
:1000E000813B0008813B0008813B0008353900084E
:1000F000813B000851390008813B0008813B000822
:10010000813B0008813B0008813B0008813B0008DF
:10011000813B0008813B0008813B0008813B0008CF
:10012000813B0008813B00086D390008813B0008D5
:10013000813B0008813B0008813B0008813B0008AF
:10014000813B0008813B0008813B0008813B00089F
:10015000813B0008813B0008813B0008813B00088F
:10016000813B0008813B0008813B0008813B00087F
:10017000813B0008813B0008813B00080000000033
:08018000813B0008813B0008EF
:1001900010B5054C237833B9044B13B10448AFF3C1
:1001A00000800123237010BDE0010020000000004A
:1001B000BCDE000808B5034B1BB103490348AFF38D
:1001C000008008BD00000000E4010020BCDE000843
:1001D00001F0FF01102A2BDB10F0070F08D010F8F8
:1001E000013B013A8B422DD010F0070F42B3F6D1FC
:1001F000F0B441EA012141EA014122F007047FF015
:1002000000070023F0E80256083C85EA010586EA6B
:10021000010685FA47F5A3FA87F586FA47F6A5FAA7
:1002200087F68EB9EED1F0BC01F0FF0102F00702B3
:1002300032B110F8013B013A83EA010313B1F8D15E
:100240000020704701387047002D06BF354603383F
:10025000073815F0010F07D1013015F4807F02BF78
:10026000013015F4C03F0130F0BC0138704700BFC9
:10027000034613F8012B002AFBD1181A01387047E6
:1002800081F0004102E000BF83F0004330B54FEA47
:1002900041044FEA430594EA050F08BF90EA020FB4
:1002A0001FBF54EA000C55EA020C7FEA645C7FEA47
:1002B000655C00F0E2804FEA5454D4EB5555B8BF6A
:1002C0006D420CDD2C4480EA020281EA030382EADB
:1002D000000083EA010180EA020281EA0303362D6D
:1002E00088BF30BD11F0004F4FEA01314FF4801C40
:1002F0004CEA113102D0404261EB410113F0004F52
:100300004FEA03334CEA133302D0524263EB430308
:1003100094EA050F00F0A780A4F10104D5F1200EA6
:100320000DDB02FA0EFC22FA05F2801841F1000101
:1003300003FA0EF2801843FA05F359410EE0A5F1D5
:1003400020050EF1200E012A03FA0EFC28BF4CF006
:10035000020C43FA05F3C01851EBE37101F00045BC
:1003600007D54FF0000EDCF1000C7EEB00006EEBC9
:100370000101B1F5801F1BD3B1F5001F0CD3490853
:100380005FEA30004FEA3C0C04F101044FEA4452AA
:1003900012F5800F80F09A80BCF1004F08BF5FEA31
:1003A000500C50F1000041EB045141EA050130BD11
:1003B0005FEA4C0C404141EB0101013C28BFB1F523
:1003C000801FE9D291F0000F04BF01460020B1FA6E
:1003D00081F308BF2033A3F10B03B3F120020CDA41
:1003E0000C3208DD02F1140CC2F10C0201FA0CF01F
:1003F00021FA02F10CE002F11402D8BFC2F1200C84
:1004000001FA02F120FA0CFCDCBF41EA0C01904039
:10041000E41AA2BF01EB0451294330BD6FEA040482
:100420001F3C1CDA0C340EDC04F11404C4F120026D
:1004300020FA04F001FA02F340EA030021FA04F37F
:1004400045EA030130BDC4F10C04C4F1200220FAD6
:1004500002F001FA04F340EA0300294630BD21FA14
:1004600004F0294630BD94F0000F83F4801306BFDA
:1004700081F480110134013D4EE77FEA645C18BFCE
:100480007FEA655C29D094EA050F08BF90EA020F65
:1004900005D054EA000C04BF1946104630BD91EA5D
:1004A000030F1EBF0021002030BD5FEA545C05D160
:1004B0004000494128BF41F0004130BD14F580049F
:1004C0003CBF01F5801130BD01F0004545F0FE4113
:1004D00041F470014FF0000030BD7FEA645C1ABF48
:1004E000194610467FEA655C1CBF0B46024650EA7F
:1004F000013406BF52EA033591EA030F41F40021AB
:1005000030BD00BF90F0000F04BF0021704730B530
:100510004FF4806404F132044FF000054FF0000105
:1005200050E700BF90F0000F04BF0021704730B5C6
:100530004FF4806404F1320410F0004548BF40429B
:100540004FF000013EE700BF42004FEAE2014FEAF0
:1005500031014FEA02701FBF12F07F4393F07F4FCB
:1005600081F06051704732F07F4208BF704793F0CE
:100570007F4F04BF41F40021704730B54FF46074E1
:1005800001F0004521F000411CE700BF50EA0102E4
:1005900008BF704730B54FF000050AE050EA01028D
:1005A00008BF704730B511F0004502D5404261EBFD
:1005B00041014FF4806404F132045FEA915C3FF43E
:1005C000D8AE4FF003025FEADC0C18BF03325FEADB
:1005D000DC0C18BF033202EBDC02C2F1200300FA8C
:1005E00003FC20FA02F001FA03FE40EA0E0021FAB1
:1005F00002F11444BDE600BF70B54FF0FF0C4CF49F
:10060000E06C1CEA11541DBF1CEA135594EA0C0F50
:1006100095EA0C0F00F0DEF82C4481EA030621EA8B
:100620004C5123EA4C5350EA013518BF52EA0335C6
:1006300041F4801143F4801338D0A0FB02CE4FF078
:100640000005E1FB02E506F00042E0FB03E54FF0A8
:100650000006E1FB03569CF0000F18BF4EF0010EA0
:10066000A4F1FF04B6F5007F64F5407404D25FEA9C
:100670004E0E6D4146EB060642EAC62141EA55514F
:100680004FEAC52040EA5E504FEACE2EB4F1FD0C91
:1006900088BFBCF5E06F1ED8BEF1004F08BF5FEA0F
:1006A000500E50F1000041EB045170BD06F00046C1
:1006B00046EA010140EA020081EA0301B4EB5C046E
:1006C000C2BFD4EB0C0541EA045170BD41F4801166
:1006D0004FF0000E013C00F3AB8014F1360FDEBF8B
:1006E000002001F0004170BDC4F10004203C35DA67
:1006F0000C341BDC04F11404C4F1200500FA05F3EA
:1007000020FA04F001FA05F240EA020001F000428A
:1007100021F0004110EBD37021FA04F642EB060100
:100720005EEA430E08BF20EAD37070BDC4F10C042A
:10073000C4F1200500FA04F320FA05F001FA04F2EE
:1007400040EA020001F0004110EBD37041F10001DA
:100750005EEA430E08BF20EAD37070BDC4F12005E5
:1007600000FA05F24EEA020E20FA04F301FA05F24D
:1007700043EA020321FA04F001F0004121FA04F2F5
:1007800020EA020000EBD3705EEA430E08BF20EAC5
:10079000D37070BD94F0000F0FD101F000464000FF
:1007A00041EB010111F4801F08BF013CF7D041EA81
:1007B000060195F0000F18BF704703F00046520085
:1007C00043EB030313F4801F08BF013DF7D043EA56
:1007D0000603704794EA0C0F0CEA135518BF95EA0C
:1007E0000C0F0CD050EA410618BF52EA4306D1D193
:1007F00081EA030101F000414FF0000070BD50EAB2
:10080000410606BF1046194652EA430619D094EA3B
:100810000C0F02D150EA013613D195EA0C0F05D125
:1008200052EA03361CBF104619460AD181EA030179
:1008300001F0004141F0FE4141F470014FF0000031
:1008400070BD41F0FE4141F4780170BD70B54FF0CC
:10085000FF0C4CF4E06C1CEA11541DBF1CEA13554C
:1008600094EA0C0F95EA0C0F00F0A7F8A4EB05042E
:1008700081EA030E52EA03354FEA013100F0888025
:100880004FEA03334FF0805545EA131343EA1263EE
:100890004FEA022245EA111545EA10654FEA0026A3
:1008A0000EF000419D4208BF964244F1FD0404F55C
:1008B000407402D25B084FEA3202B61A65EB0305B8
:1008C0005B084FEA32024FF480104FF4002CB6EB75
:1008D000020E75EB030E22BFB61A754640EA0C00F5
:1008E0005B084FEA3202B6EB020E75EB030E22BF35
:1008F000B61A754640EA5C005B084FEA3202B6EB76
:10090000020E75EB030E22BFB61A754640EA9C0034
:100910005B084FEA3202B6EB020E75EB030E22BF04
:10092000B61A754640EADC0055EA060E18D04FEAC2
:10093000051545EA16754FEA06164FEAC30343EA62
:1009400052734FEAC2025FEA1C1CC0D111F4801F2F
:100950000BD141EA00014FF000004FF0004CB6E728
:1009600011F4801F04BF01430020B4F1FD0C88BFC7
:10097000BCF5E06F3FF6AFAEB5EB030C04BFB6EBD2
:10098000020C5FEA500C50F1000041EB045170BDC5
:100990000EF0004E4EEA113114EB5C04C2BFD4EBF2
:1009A0000C0541EA045170BD41F480114FF0000E76
:1009B000013C90E645EA060E8DE60CEA135594EAF2
:1009C0000C0F08BF95EA0C0F3FF43BAF94EA0C0FF5
:1009D0000AD150EA01347FF434AF95EA0C0F7FF46A
:1009E00025AF104619462CE795EA0C0F06D152EABE
:1009F00003353FF4FDAE1046194622E750EA4106A2
:100A000018BF52EA43067FF4C5AE50EA41047FF4B2
:100A10000DAF52EA43057FF4EBAE12E74FF0FF3C17
:100A200006E000BF4FF0010C02E000BF4FF0010CE8
:100A30004DF804CD4FEA410C7FEA6C5C4FEA430C61
:100A400018BF7FEA6C5C1BD001B050EA410C0CBFB0
:100A500052EA430C91EA030F02BF90EA020F002012
:100A6000704710F1000F91EA030F58BF994208BF79
:100A700090422CBFD8176FEAE37040F00100704736
:100A80004FEA410C7FEA6C5C02D150EA013C07D18D
:100A90004FEA430C7FEA6C5CD6D152EA033CD3D0D8
:100AA0005DF8040B704700BF8446104662468C46D2
:100AB0001946634600E000BF01B5FFF7B7FF002805
:100AC00048BF10F1000F01BD4DF808EDFFF7F4FF2E
:100AD0000CBF012000205DF808FB00BF4DF808EDB9
:100AE000FFF7EAFF34BF012000205DF808FB00BFDC
:100AF0004DF808EDFFF7E0FF94BF012000205DF8FE
:100B000008FB00BF4DF808EDFFF7CEFF94BF0120B2
:100B100000205DF808FB00BF4DF808EDFFF7C4FFAB
:100B200034BF012000205DF808FB00BF4FEA410CF4
:100B30007FEA6C5C02D150EA013C0AD14FEA430CD7
:100B40007FEA6C5C02D152EA033C02D14FF0000014
:100B500070474FF0010070474FEA410212F5001252
:100B600015D211D56FF47873B3EB625212D94FEAF4
:100B7000C12343F0004343EA505311F0004F23FADE
:100B800002F018BF404270474FF00000704750EA33
:100B9000013005D111F0004008BF6FF000407047F0
:100BA0004FF00000704700BF4A0011D212F500124A
:100BB00011D20DD56FF47873B3EB62520ED44FEAB5
:100BC000C12343F0004343EA505323FA02F0704735
:100BD0004FF00000704750EA013002D14FF0FF3073
:100BE00070474FF0000070474FEA4102B2F1E04316
:100BF00024BFB3F5001CDCF1FE5C0DD901F0004C04
:100C00004FEAC0024CEA5070B2F1004F40EB830053
:100C100008BF20F00100704711F0804F21D113F17F
:100C20003872BCBF01F00040704741F480114FEAB8
:100C30005252C2F11802C2F1200C10FA0CF320FA41
:100C400002F018BF40F001004FEAC1234FEAD3235E
:100C500003FA0CFC40EA0C0023FA02F34FEA4303C8
:100C6000CCE77FEA625307D150EA01331EBF4FF051
:100C7000FE4040F44000704701F0004040F0FE406C
:100C800040F40000704700BF53B94AB9002908BFBB
:100C900000281CBF4FF0FF314FF0FF3000F0A6B925
:100CA000ADF1080C6DE904CE00F03CF8DDF804E08D
:100CB000DDE9022304B0704738B500220023044662
:100CC0000D46FFF70BFF28B920462946BDE83840FE
:100CD00000F00AB8204605F1004100F005F8404256
:100CE00061EB410138BD00BFD0B50C4B0022064678
:100CF0000F46FFF781FCFFF757FF0446FFF702FCA2
:100D0000074B0022FFF778FC02460B463046394677
:100D1000FFF7BAFAFFF748FF2146D0BD0000F03DCB
:100D20000000F0412DE9F047089E0D4604460F46AD
:100D3000002B4AD18A42944665D9B2FA82F343B174
:100D400002FA03FCC3F120029F4020FA02F217438B
:100D50009C404FEA1C4E1FFA8CF5B7FBFEF1220CAB
:100D60000EFB117742EA074201FB05F090420AD9D7
:100D70001CEB020201F1FF3780F01C81904240F22F
:100D8000198102396244121AA4B2B2FBFEF00EFBC2
:100D9000102244EA024400FB05F5A5420AD91CEBE7
:100DA000040400F1FF3280F00781A54240F2048183
:100DB0006444023840EA0140641B00211EB1DC405B
:100DC0000023C6E90043BDE8F0878B4208D9002E16
:100DD00000F0ED800021C6E900050846BDE8F08777
:100DE000B3FA83F1002949D1AB4202D3824200F227
:100DF000F880841A65EB030201201746002EE2D02A
:100E0000C6E90047DFE702B9FFDEB2FA82F3002B42
:100E100040F090808A1A4FEA1C471FFA8CFE01218D
:100E2000B2FBF7F507FB1520220C42EA00420EFB4D
:100E300005F0904208D91CEB020205F1FF3802D2FE
:100E4000904200F2CB804546121AA4B2B2FBF7F0F2
:100E500007FB102244EA02440EFB00FEA64508D917
:100E60001CEB040400F1FF3202D2A64500F2BB8065
:100E70001046A4EB0E0440EA05409FE7C1F12007AD
:100E80008B4022FA07FC4CEA030C05FA01F420FA25
:100E900007F3FD404FEA1C492343B5FBF9F81FFA5D
:100EA0008CFE09FB18551C0C44EA054408FB0EF5A2
:100EB000A54202FA01F200FA01F00BD91CEB04047E
:100EC00008F1FF3A80F08880A54240F28580A8F1C1
:100ED00002086444641B9DB2B4FBF9F309FB13449C
:100EE00045EA044403FB0EFEA64508D91CEB0404A6
:100EF00003F1FF356CD2A6456AD9023B644443EA4C
:100F00000843A3FB0295A4EB0E04AC42C846AE46D0
:100F100056D353D056B1B0EB080264EB0E0404FA7A
:100F200007F7CA40CC401743C6E9007418460021B1
:100F3000BDE8F087C3F1200102FA03FC20FA01F2B8
:100F400025FA01F19D402A434FEA1C471FFA8CFE07
:100F5000B1FBF7F007FB1015110C41EA054100FB4E
:100F60000EF58D4204FA03F408D91CEB010100F1DF
:100F7000FF382FD28D422DD902386144491B92B2DD
:100F8000B1FBF7F507FB151142EA014205FB0EF133
:100F9000914208D91CEB020205F1FF3816D29142AA
:100FA00014D9023D6244521A45EA004138E73146FD
:100FB000304608E73946E6E61046FBE64845A9D242
:100FC000B9EB020865EB0C0E013BA3E74546EAE7E7
:100FD0002B4694E74046D1E7D0467BE7023D62448A
:100FE00032E708460AE76444023842E7704700BF28
:100FF00080B487B000AF78613961FA6087ED000B8B
:101000007B693A691A607B69FA685A617969D7E93C
:101010000023C1E9102300BF1C37BD465DF8047BE7
:101020007047000000000000B0B582B000AF7860EB
:101030007B681B681B685B6A1AB27B689A807B6856
:101040009B687A68B2F904201A447B689A607B68CE
:101050001B681B6800225A627B689A687B681B6960
:10106000D31A1846FFF75EFA7B68D3E91023FFF71F
:10107000EDFB02460B4614461D467B685B699B00F0
:101080001846FFF74FFA02460B4620462946FFF75F
:10109000DDFB02460B46104619464FF00002284B76
:1010A000FFF7AAFA02460B467968C1E908237B6874
:1010B000D3E90C011EA3D3E90023FFF79DFA0246F2
:1010C0000B4614461D467B68D3E908011AA3D3E9F1
:1010D0000023FFF791FA02460B4620462946FFF708
:1010E000D5F802460B4614461D467B68D3E90A0133
:1010F00011A3D3E90023FFF77FFA02460B462046EF
:101100002946FFF7C3F802460B467968C1E90C236C
:101110007B68D3E908237968C1E90A237B689A6868
:101120007B681A6100BF0837BD46B0BDAFF30080D1
:101130008716D9CEF753EB3FC217265305A3B23F0C
:1011400000004E4080B582B000AF78600B46FB7067
:101150007B68FA781A767B681B681B685B6A1AB230
:101160007B689A807B689B687A68B2F904201A448D
:101170007B689A607B681B681B6800225A627B68E8
:101180001B7E012B07D17B689B681846FFF7CAF9C5
:1011900002460B4633E07B681B7E002B10D17B6838
:1011A0009B68002B00DA03339B101A467B68DA60D9
:1011B0007B68DB681846FFF7B5F902460B461EE070
:1011C0007B681B7E022B16D17B689B684FF4B47240
:1011D00003FB02F27B685B699B0092FBF3F318460A
:1011E000FFF7A0F902460B467968C1E90E237B6838
:1011F000D3E90E2303E04FF000024FF0000343EC6D
:10120000172BB0EE470AF0EE670A0837BD4680BDDF
:1012100080B483B000AF78600B46FB70FB78012B85
:1012200007D17B681B681B6800225A627B6800221A
:101230009A6000BF0C37BD465DF8047B704780B4F0
:1012400085B000AFF860B9607A603B60FB68BA684F
:101250005A607B68002BB8BF5B429AB2FB68DA81A8
:10126000FB683A681A61FB68BA695A617B68002BAF
:101270004DDAFB681B69002B05D1FB685B681B68B6
:1012800000225A6318E0FB681B69042B05D1FB6838
:101290005B681A68002393630EE0FB681B69082BE8
:1012A00005D1FB685B681A680023D36304E0FB6820
:1012B0005B681A6800231364FB685B69002B06D126
:1012C000FB68DA89FB685B681B685A63B7E0FB68F8
:1012D0005B69042B07D1FB68D989FB685B681A68D6
:1012E0000B469363ABE0FB685B69082B07D1FB6897
:1012F000D989FB685B681A680B46D3639FE0FB687B
:10130000D989FB685B681A680B46136497E07B68B1
:10131000002B4DDDFB681B69002B06D1FB68DA89C9
:10132000FB685B681B685A631EE0FB681B69042B43
:1013300007D1FB68D989FB685B681A680B46936321
:1013400012E0FB681B69082B07D1FB68D989FB6891
:101350005B681A680B46D36306E0FB68D989FB68B3
:101360005B681A680B461364FB685B69002B05D148
:10137000FB685B681B6800225A6360E0FB685B697E
:10138000042B05D1FB685B681A680023936356E061
:10139000FB685B69082B05D1FB685B681A68002352
:1013A000D3634CE0FB685B681A680023136446E073
:1013B000FB681B69002B05D1FB685B681B6800227A
:1013C0005A6318E0FB681B69042B05D1FB685B6856
:1013D0001A68002393630EE0FB681B69082B05D194
:1013E000FB685B681A680023D36304E0FB685B68F2
:1013F0001A6800231364FB685B69002B05D1FB6846
:101400005B681B6800225A6319E0FB685B69042B68
:1014100005D1FB685B681A68002393630FE0FB68E3
:101420005B69082B05D1FB685B681A680023D363EE
:1014300005E0FB685B681A6800231364FFE700BFE0
:101440001437BD465DF8047B704780B485B000AFAB
:10145000F86087ED020AC7ED010AFB68BA681A60F6
:10146000FB687A685A60FB6893ED007AFB68D3EDFD
:10147000017A77EE677AFB68C3ED027AFB6893ED39
:10148000057AFB68D3ED027A67EE277AFB68C3ED35
:10149000067AFB6893ED097AFB68D3ED076AFB686F
:1014A000D3ED027A66EEA76AFB68D3ED047A66EEA6
:1014B000A77A77EE277AFB68C3ED087AFB6893ED8D
:1014C000087AFB689B6A07EE903AF8EEE77AB4EE8A
:1014D000E77AF1EE10FA06DDFB689B6A07EE903AB8
:1014E000F8EEE77A02E0FB68D3ED087AFB68C3ED1B
:1014F000087AFB6893ED087AFB68DB6A07EE903A9E
:10150000F8EEE77AB4EEE77AF1EE10FA06D5FB686A
:10151000DB6A07EE903AF8EEE77A02E0FB68D3ED7B
:10152000087AFB68C3ED087AFB6893ED0C7AFB68D8
:10153000D3ED026AFB68D3ED037A76EEE77A67EEC5
:10154000276AFB6893ED047AC6EE877AFB68C3EDE1
:101550000D7AFB68D3ED107AB7EE007A37EE677A32
:10156000FB68D3ED0F7A27EE277AFB68D3ED106A7C
:10157000FB68D3ED0D7A66EEA77A77EE277AFB68E3
:10158000C3ED0E7AFB689A68FB68DA60FB681A6A3A
:10159000FB685A62FB689A6BFB68DA63FB6893ED41
:1015A000067AFB68D3ED087A37EE277AFB68D3ED2D
:1015B0000D7A77EE277AFB68C3ED117AFB6893ED1D
:1015C000117AFB68D3ED127AB4EEE77AF1EE10FAF5
:1015D00002DDFB689B6C01E0FB685B6CFA6853649E
:1015E000FB6893ED117AFB68D3ED137AB4EEE77ADA
:1015F000F1EE10FA02D5FB68DB6C01E0FB685B6C76
:10160000FA68536400BF1437BD465DF8047B704729
:1016100080B485B000AFF860B9607A60FB68074AB3
:101620001A60BB68064A1A607B6880221A6000BF95
:101630001437BD465DF8047B704700BFFC010020F5
:101640005002002080B487B000AF87ED050AC7EDD7
:10165000040A87ED031AC7ED021A87ED012AC7EDC8
:10166000002A97ED027AD7ED007A27EE277AD7ED98
:10167000057A37EE277AD7ED046AD7ED057A76EE4C
:10168000E77AF0EE086A27EEA66AD7ED037A67EEEE
:10169000A77AC6EE276AD7ED027A77EEA75A97EDBA
:1016A000036AC5EE867A76EEE76AD7ED015A97EDC2
:1016B000036AC5EE867A76EEE76AD7ED007A67EEC2
:1016C000A77A66EEA77A37EE277AD7ED046AD7EDC8
:1016D000057A76EEE77AF8EE006A27EEA66AD7ED8D
:1016E000037A67EEA76AD7ED037A66EEA77AC6EEAD
:1016F000276A97ED016AD7ED027A76EE275AD7ED81
:10170000037A27EEA76AC5EE867A76EEA76AD7ED4A
:10171000007A27EEA76AD7ED007A66EE277A66EEA2
:10172000A77A77EE277AB0EE670A1C37BD465DF8D8
:10173000047B704780B500AF4FF40062064907484C
:1017400005F012F8064B1B681A68054B1B6822F05F
:1017500008021A6000BF80BDE80A00209006002041
:10176000D806002080B58EB004AF78603960954B04
:101770001B78012B40F021810A21786809F0F7F9E4
:101780000346002B00F019818F49786809F04CFA64
:101790000346002B16D039683B68181D3B68083398
:1017A0003A680C320192009303460A4687497868EA
:1017B00009F064F90346042B40F0F580844B0122C4
:1017C0009A70F0E08349786809F02EFA0346002BFE
:1017D00019D03B6803F130013B6803F134003B68EA
:1017E00038333A683C320192009303460A467A49FC
:1017F000786809F043F90346042B40F0D480744B19
:101800000122DA70CFE07549786809F00DFA0346D5
:10181000002B00F087807868FEF72AFD0246704BA7
:101820001B68134440F2FE32934200F2BC806C4BC2
:101830001B68C3F57F7303331A467968694809F05A
:10184000A3F97868FEF714FD0246654B1B68134444
:10185000634A13600A21634809F089F90346002BA3
:1018600000F0A18007F120031A465F495D4809F0A6
:10187000D8F9786249E007F1180107F11C0207F175
:101880000C03029307F11003019307F11403009373
:101890000B465649786A09F0F1F80346052B26D124
:1018A000FB69BA69396804331B010B4404331A60BD
:1018B000FB697A69396804331B010B4408331A60E9
:1018C000FB693A6939681B010B444C331A60FB69A8
:1018D000FA6839681B010B4450331A603C4B0122F3
:1018E0001A713B681B6C5A1C3B681A6405E0384B44
:1018F00001225A713E4B00221A7007F120031A464A
:101900003949002009F08DF978627B6A002BB2D149
:101910004FF480620021334809F021F9304B002256
:101920001A6040E03349786809F07EF90346002BDD
:1019300003D0274B00221A7035E02F49786809F050
:1019400073F90346002B02D002F057FA2BE02B4923
:10195000786809F069F90346002B24D12849786892
:1019600009F062F90346002B1DD12649786809F079
:101970005BF90346002B03D0154B01225A7012E08D
:101980002149786809F050F90346002B0BD0104B21
:1019900000225A700E4B00221A710D4B0022DA7091
:1019A0000B4B00229A70074B00221A70174B1B88B2
:1019B0001A460021786809F0D2F800BF2837BD46E2
:1019C00080BD00BFE8120020D8DE0008E0DE00087D
:1019D0004C0700200CDF000814DF00083CDF000883
:1019E000701700207417002044DF000848DF00084B
:1019F0006E1300207CDF000884DF00088CDF000805
:101A000090DF000894DF00089CDF0008EA12002045
:101A100080B582B000AF78600B467B807B681B6826
:101A20000B4A93420FD10B4A7B8813800A4B012249
:101A30001A700A490A48FFF795FE4FF400620849F8
:101A4000786804F091FE00BF0837BD4680BD00BF36
:101A500000100140EA120020E81200207407002064
:101A6000E80A002080B400AF204B214A5A611F4B86
:101A7000204ADA611D4B4FF000021A631B4B4FF0F6
:101A800000021A64194B1C4A1A61184B4FF47A72FF
:101A90009A62164B194ADA62144B194A9A64134B2C
:101AA000184ADA64184B194A5A61174B4FF0000272
:101AB000DA61154B4FF000021A63134B4FF000022E
:101AC0001A64114B0C4A1A610F4B4FF47A729A62E6
:101AD0000D4B0A4ADA620C4B094A9A640A4B094ACE
:101AE000DA6400BFBD465DF8047B7047D013002068
:101AF0000000484200007A430AD7233C18FCFFFF4D
:101B000000007A4400007AC4201400200000204124
:101B100080B52DED028B82B002AF1448FFF784FA36
:101B2000134B93ED118A114BD3E908231046194644
:101B3000FFF75AF8034600EE903AB0EE480A0D4817
:101B4000FFF783FC0B4BD3ED117AFDEEE77A0C2304
:101B50000093082317EE902A07490848FFF76FFB08
:101B600000BFBD46BDEC028B80BD00BF70130020DE
:101B700020140020D0130020B8050020B813002046
:101B800080B52DED028B00AF0D4B93ED008A022145
:101B90000C48FFF7D7FA53EC102B10461946FFF705
:101BA00023F8034600EE903AB0EE480A0648FFF7E5
:101BB0004CFCFFF7ADFF00BFBD46BDEC028B80BD06
:101BC00064070020701300202014002080B400AFB0
:101BD000204B214A5A611F4B204ADA611D4B4FF0BE
:101BE00000021A631B4B4FF000021A64194B1C4A87
:101BF0001A61184B4FF47A729A62164B194ADA62DC
:101C0000144B194A9A64134B184ADA64184B194A50
:101C10005A61174B4FF00002DA61154B4FF000028A
:101C20001A63134B4FF000021A64114B0C4A1A61ED
:101C30000F4B4FF47A729A620D4B0A4ADA620C4BE0
:101C4000094A9A640A4B094ADA6400BFBD465DF846
:101C5000047B7047D01400200000484200007A4303
:101C60000AD7233C18FCFFFF00007A4400007AC426
:101C7000201500200000204180B52DED028B82B0A0
:101C800002AF1448FFF7D0F9134B93ED118A114BB3
:101C9000D3E9082310461946FEF7A6FF034600EED7
:101CA000903AB0EE480A0D48FFF7CFFB0B4BD3ED4F
:101CB000117AFDEEE77A0C230093082317EE902AA1
:101CC00007490848FFF7BBFA00BFBD46BDEC028BD1
:101CD00080BD00BF7014002020150020D01400200B
:101CE00028050020B814002080B52DED028B00AF30
:101CF0000F4BD3ED017A9FED0F7A37EEC78A0221A1
:101D00000D48FFF71FFA53EC102B10461946FEF74B
:101D10006BFF034600EE903AB0EE480A0748FFF723
:101D200094FBFFF7A9FF00BFBD46BDEC028B80BD51
:101D30006407002000003B437014002020150020A1
:101D400080B400AF204B214A5A611F4B204ADA6110
:101D50001D4B4FF000021A631B4B4FF000021A6438
:101D6000194B1C4A1A61184B4FF47A729A62164B3F
:101D7000194ADA62144B194A9A64134B184ADA6406
:101D8000184B194A5A61174B4FF00002DA61154B94
:101D90004FF000021A63134B4FF000021A64114B0C
:101DA0000C4A1A610F4B4FF47A729A620D4B0A4A31
:101DB000DA620C4B094A9A640A4B094ADA6400BF9A
:101DC000BD465DF8047B7047D015002000004842F6
:101DD000000096430AD7233C18FCFFFF00007A441A
:101DE00000007AC4201600200000204180B52DEDAF
:101DF000028B82B002AF1448FFF716F9134B93ED34
:101E0000118A114BD3E9082310461946FEF7ECFE60
:101E1000034600EE903AB0EE480A0D48FFF715FB76
:101E20000B4BD3ED117AFDEEE77A042300930023E8
:101E300017EE902A07490848FFF701FA00BFBD4690
:101E4000BDEC028B80BD00BF701500202016002065
:101E5000D015002028050020B815002080B52DEDF4
:101E6000028B00AF0F4BD3ED027A9FED0F7A37EE66
:101E7000878A02210D48FFF765F953EC102B1046B5
:101E80001946FEF7B1FE034600EE903AB0EE480A5E
:101E90000748FFF7DAFAFFF7A9FF00BFBD46BDEC20
:101EA000028B80BD640700200000074370150020EE
:101EB0002016002080B400AF204B214A5A611F4BEE
:101EC000204ADA611D4B4FF000021A631B4B4FF0A2
:101ED00000021A64194B1C4A1A61184B4FF47A72AB
:101EE0009A62164B194ADA62144B194A9A64134BD8
:101EF000184ADA64184B194A5A61174B4FF000021E
:101F0000DA61154B4FF000021A63134B4FF00002D9
:101F10001A64114B0C4A1A610F4B4FF47A729A6291
:101F20000D4B0A4ADA620C4B094A9A640A4B094A79
:101F3000DA6400BFBD465DF8047B7047D016002010
:101F40000000484200007A430AD7233C18FCFFFFF8
:101F500000007A4400007AC42017002000002041CD
:101F600080B52DED028B82B002AF1448FFF75CF80C
:101F7000134B93ED118A114BD3E9082310461946F0
:101F8000FEF732FE034600EE903AB0EE480A0D48E6
:101F9000FFF75BFA0B4BD3ED117AFDEEE77A0423E2
:101FA0000093002317EE902A07490848FFF747F9E6
:101FB00000BFBD46BDEC028B80BD00BF7016002087
:101FC00020170020D016002000060020B8160020A0
:101FD00080B52DED028B00AF0F4BD3ED037A9FED53
:101FE0000F7A37EEC78A02210D48FFF7ABF853ECA2
:101FF000102B10461946FEF7F7FD034600EE903A07
:10200000B0EE480A0748FFF720FAFFF7A9FF00BF24
:10201000BD46BDEC028B80BD640700200000B442C9
:102020007016002020170020B0B5A4B000AF01F05A
:10203000A9FD00F005F900F09DFC00F07BFC00F02C
:1020400067F900F065FA00F0BBF900F00DFA00F056
:10205000D9FA00F02BFB00F0B9FB00F041FC00F0D6
:1020600005FC0021604803F05DFA04215E4803F09E
:1020700059FA08215C4803F055FA0C215A4803F03C
:1020800051FA0021594803F04DFA0421574803F052
:1020900049FA0821564803F045FA0C21544803F048
:1020A00041FA544803F07EF93C21534803F0A8FB61
:1020B0003C21524803F0A4FB3C21514803F0A0FB13
:1020C0003C21504803F09CFB9FED450B41F6263226
:1020D00049494D48FEF78CFF9FED410B40F6B24257
:1020E00046494A48FEF784FF9FED3D0B41F68A3290
:1020F00043494748FEF77CFF9FED390B40F6944279
:1021000040494448FEF774FFFFF7ACFCFFF75EFD63
:10211000FFF716FEFFF7CEFEFFF70CFB3E4B07F175
:1021200074041D460FCD0FC495E8070084E807002E
:1021300007F174030021184605F01FFC0346374AD7
:102140001360374B07F158041D460FCD0FC495E8B7
:10215000070084E8070007F158030021184605F03E
:102160000CFC03462F4A13602F4B07F13C041D461D
:102170000FCD0FC495E8070084E8070007F13C0382
:102180000021184605F0F9FB0346284A1360284B46
:1021900007F120041D460FCD0FC495E8070084E821
:1021A000070007F120030021184605F0E6FB03466F
:1021B000204A1360204B3C1D1D460FCD0FC495E8EF
:1021C000070084E807003B1D0021184605F0D5FBF9
:1021D00003461A4A136005F0C9FBFEE7AFF300801F
:1021E0007B14AE47E17A843F2805002000060020DA
:1021F000B805002048060020500400209804002064
:10220000E0040020700500207013002070140020EE
:102210007015002070160020B8DF00083807002075
:10222000E0DF00083C07002008E00008400700202D
:1022300034E00008440700205CE000084807002064
:1022400080B594B000AF07F120033022002118467A
:1022500008F085FC07F10C0300221A605A609A60AE
:10226000DA601A610023BB60274B1B6C264A43F0DF
:1022700080531364244B1B6C03F08053BB60BB681A
:1022800000237B60214B1B68204A43F4804313608A
:102290001E4B1B6803F480437B607B6802233B6218
:1022A0000123FB6210233B630223BB630023FB6318
:1022B00008233B6448237B640223BB640423FB6440
:1022C00007F12003184602F053FB0346002B01D010
:1022D00000F0AEFF0F23FB6002233B6100237B6114
:1022E0004FF48053BB610023FB6107F10C03022113
:1022F000184602F0B5FD0346002B01D000F098FF10
:1023000000BF5037BD4680BD00380240007000401D
:1023100080B58CB000AF07F10C03242200211846D1
:1023200008F01DFC3B1D00221A605A60224B234A14
:102330001A60214B00225A601F4B00229A601E4BEC
:102340004FF6FF72DA601C4B00221A611A4B002212
:102350005A61194B00229A610323FB6000233B6101
:1023600001237B610023BB610023FB6100233B62EF
:1023700001237B620023BB620023FB6207F10C0395
:1023800019460D4803F096F90346002B01D000F0E2
:102390004FFF00237B600023BB603B1D19460648AE
:1023A00004F07AF80346002B01D000F041FF00BF93
:1023B0003037BD4680BD00BF500400200000014002
:1023C00080B58CB000AF07F10C0324220021184621
:1023D00008F0C5FB3B1D00221A605A60214B4FF0EC
:1023E00080421A601F4B00225A601E4B00229A60E6
:1023F0001C4B4FF0FF32DA601A4B00221A61194B66
:1024000000229A610123FB6000233B6101237B6171
:102410000023BB610023FB6100233B6201237B623D
:102420000023BB620023FB6207F10C0319460D4831
:1024300003F040F90346002B01D000F0F9FE002321
:102440007B600023BB603B1D1946064804F024F85E
:102450000346002B01D000F0EBFE00BF3037BD4635
:1024600080BD00BF9804002080B58CB000AF07F19C
:102470000C0324220021184608F071FB3B1D0022AA
:102480001A605A60204B214A1A601F4B00225A6082
:102490001D4B00229A601C4B4FF6FF72DA601A4BFC
:1024A00000221A61184B00229A610323FB6000236B
:1024B0003B6101237B610023BB610023FB6100239F
:1024C0003B6201237B620023BB620023FB6207F1B6
:1024D0000C0319460C4803F0EDF80346002B01D01D
:1024E00000F0A6FE00237B600023BB603B1D194665
:1024F000054803F0D1FF0346002B01D000F098FE01
:1025000000BF3037BD4680BDE0040020000400401D
:1025100080B58AB000AF07F1200300221A605A602C
:102520003B1D00221A605A609A60DA601A615A6193
:102530009A61324B324A1A60304B06225A602F4B56
:1025400000229A602D4B40F2E732DA602B4B0022DA
:102550001A612A4B00229A61284802F093FF034631
:10256000002B01D000F064FE00233B6200237B625D
:1025700007F120031946214803F08EFF0346002B84
:1025800001D000F055FE60237B600023BB60002378
:10259000FB6000237B613B1D00221946174803F0B6
:1025A000ADFA0346002B01D000F042FE3B1D042291
:1025B0001946124803F0A2FA0346002B01D000F09E
:1025C00037FE3B1D082219460C4803F097FA0346D4
:1025D000002B01D000F02CFE3B1D0C2219460748B1
:1025E00003F08CFA0346002B01D000F021FE0348D3
:1025F00000F0E8FF00BF2837BD4680BD2805002059
:102600000008004080B58CB000AF07F10C03242215
:102610000021184608F0A3FA3B1D00221A605A60F8
:10262000204B214A1A601F4B00225A601D4B00228A
:102630009A601C4B4FF0FF32DA601A4B00221A618D
:10264000184B00229A610323FB6000233B610123A6
:102650007B610023BB610023FB6100233B620123FC
:102660007B620023BB620023FB6207F10C03194667
:102670000C4803F01FF80346002B01D000F0D8FDF2
:1026800000237B600023BB603B1D1946054803F017
:1026900003FF0346002B01D000F0CAFD00BF303716
:1026A000BD4680BD70050020000C004080B592B092
:1026B00000AF07F1400300221A605A6007F12403BB
:1026C00000221A605A609A60DA601A615A619A614F
:1026D0003B1D20220021184608F041FA394B3A4AA6
:1026E0001A60384B06225A60364B00229A60354BEE
:1026F00040F2E732DA60334B00221A61314B00229C
:102700005A61304B00229A612E4802F0BBFE03460C
:10271000002B01D000F08CFD00233B6400237B6480
:1027200007F140031946274803F0B6FE0346002B85
:1027300001D000F07DFD60237B620023BB6200239B
:10274000FB6200233B6300237B630023BB63002306
:10275000FB6307F12403082219461A4803F0CEF957
:102760000346002B01D000F063FD07F124030C2287
:102770001946144803F0C2F90346002B01D000F0BB
:1027800057FD00237B600023BB600023FB60002318
:102790003B6100237B614FF40053BB6100233B622C
:1027A0003B1D1946074803F0F3FE0346002B01D0FA
:1027B00000F03EFD034800F005FF00BF4837BD466E
:1027C00080BD00BFB80500200004014080B588B07E
:1027D00000AF3B1D00221A605A609A60DA601A61ED
:1027E0005A619A611F4B204A1A601E4B06225A609A
:1027F0001C4B00229A601B4B40F2E732DA60194B07
:1028000000221A61174B00229A61164802F03AFE24
:102810000346002B01D000F00BFD60237B600023FA
:10282000BB600023FB6000237B613B1D0022194637
:102830000C4803F063F90346002B01D000F0F8FCCC
:102840003B1D04221946074803F058F90346002BA4
:1028500001D000F0EDFC034800F0B4FE00BF2037CB
:10286000BD4680BD000600200040014080B584B018
:1028700000AF3B4600221A605A609A60DA60164B3D
:10288000164A1A60144B47225A60134B00229A6072
:10289000114B40F2E732DA600F4B00221A610E4B07
:1028A00000229A610C4802F02DFD0346002B01D056
:1028B00000F0BEFC4FF480533B603B46194606488F
:1028C00003F0DEF90346002B01D000F0B1FC00BF9D
:1028D0001037BD4680BD00BF4806002000180040EC
:1028E00080B500AF114B124A1A60104B4FF41652CC
:1028F0005A600E4B00229A600C4B0022DA600B4BA0
:1029000000221A61094B0C225A61084B00229A617D
:10291000064B0022DA61054803F0A0FE0346002BB7
:1029200001D000F085FC00BF80BD00BF90060020F4
:102930000010014080B582B000AF00237B600C4BDB
:102940001B6B0B4A43F480031363094B1B6B03F4AB
:1029500080037B607B68002205213A2001F023FA86
:102960003A2001F03CFA00BF0837BD4680BD00BFE9
:102970000038024080B58AB000AF07F1140300228E
:102980001A605A609A60DA601A6100233B61304B2A
:102990001B6B2F4A43F0800313632D4B1B6B03F01B
:1029A00080033B613B690023FB60294B1B6B284A7A
:1029B00043F001031363264B1B6B03F00103FB6021
:1029C000FB680023BB60224B1B6B214A43F00803CA
:1029D00013631F4B1B6B03F00803BB60BB68002332
:1029E0007B601B4B1B6B1A4A43F004031363184BA9
:1029F0001B6B03F004037B607B6800233B60144B7C
:102A00001B6B134A43F002031363114B1B6B03F060
:102A100002033B603B6830237B610023BB610123E1
:102A2000FB6107F1140319460A4801F0EDFDC023CC
:102A30007B610023BB610123FB6107F1140319468D
:102A4000054801F0E1FD00BF2837BD4680BD00BF4D
:102A500000380240000002400008024080B582B009
:102A600000AF7860294B5B79012B4AD1284B1B784A
:102A70001A46284B1B6C9A4243DA254B1B78254A91
:102A800004331B01134404331B68224A1360204B98
:102A90001B78204A04331B01134408331B681D4A6A
:102AA00053601B4B1B781B4A1B0113444C331B68A0
:102AB000184A9360164B1B78164A1B011344503377
:102AC0001B68144AD36041F2883004F0A2FF114B16
:102AD0001B6B104A13600F4B5B6B0E4A53600D4B20
:102AE0009B6B0C4A93600B4BDB6B0A4AD36041F241
:102AF000883004F08EFF064B1B780133DAB2044BAA
:102B00001A700A2004F085FFACE700BF4C070020D4
:102B10006E1300207407002080B584B002AF786087
:102B20004021A64801F00CFF03465AB2A44B1A708C
:102B30008021A24801F004FF03465AB2A04B5A700C
:102B40001021A04801F0FCFE03465AB29C4B9A703B
:102B500020219C4801F0F4FE03465AB2984BDA70EB
:102B6000994B1B78002B21D1984B00221A70974B60
:102B700000225A70954B00229A70944B0022DA7012
:102B8000914B00225A70924B4FF670621A80904B14
:102B90004FF4C8725A808E4B4FF6D4629A808C4B99
:102BA0004FF49672DA80884B01221A70864B5B785C
:102BB000002B40F0FF80854B1B78002B67D1402114
:102BC0007E4801F0BDFE0346012B1CD1012004F01C
:102BD00020FF4021794801F0B3FE0346012B56D176
:102BE00001217C48FEF714FB794B00221A80774BB9
:102BF00001221A70784B4FF000021A60774B4FF0A9
:102C000000021A6243E002217248FEF79BFA51EC7F
:102C1000100B4FF00002724BFDF77EFF0346002BB6
:102C20000ED06B4BB3F90030002B09DD684BB3F9C4
:102C300000309BB25B429BB21AB2654B1A801BE01C
:102C400002216448FEF77EFA51EC100B4FF00002AF
:102C5000644BFDF743FF0346002B0DD05C4BB3F9EB
:102C60000030002B08DA5A4BB3F900309BB25B42BC
:102C70009BB21AB2564B1A80554BB3F900301A4624
:102C80000C230093082358495848FEF7D8FA4F4BB5
:102C90005B78002B2CD18021484801F051FE03467F
:102CA000012B1AD1012004F0B4FE8021434801F029
:102CB00047FE0346012B1BD101214D48FEF7A8FA20
:102CC000434B00225A80414B01225A70424B494AE1
:102CD0005A60424B474A5A620AE03D4BB3F9023010
:102CE0001A460C230093082343494448FEF7A7FAE9
:102CF000364B9B78002B2CD11021324801F020FE5E
:102D00000346002B1AD1012004F083FE10212D4828
:102D100001F016FE0346002B1BD101213848FEF7B7
:102D200077FA2A4B01229A70294B00229A802A4B6B
:102D3000344A9A60294B334A9A620AE0244BB3F929
:102D400004301A460423009300232B492E48FEF733
:102D500076FA1E4BDB78002B2CD12021194801F08C
:102D6000EFFD0346002B1AD1012004F052FE202172
:102D7000144801F0E5FD0346002B1BD10121234837
:102D8000FEF746FA124B0022DA80104B0122DA706D
:102D9000114B1F4ADA60114B1D4ADA620AE00C4BF4
:102DA000B3F906301A4604230093002319491A4840
:102DB000FEF745FA0A2004F02CFEB1E600080240B6
:102DC00060070020000002404C0700205C07002044
:102DD00054070020701300206407002074070020AF
:102DE00000805640008056C0B8050020B81300206F
:102DF0007014002000003B4328050020B814002078
:102E000070150020000007C3B815002070160020C0
:102E10000000B44200060020B816002080B582B041
:102E200000AF78600D4B1B78012B01D1FEF7A8FE97
:102E30000A4B5B78012B01D1FEF756FF074B9B78BD
:102E4000012B01D1FFF70AF8044BDB78012B01D1EC
:102E5000FFF7BEF80A2004F0DCFDE3E75C07002082
:102E600080B582B000AF7860AE4B5B78012B40F04C
:102E70005481AD4B1B78042B00F24E8101A252F815
:102E800023F000BF992E0008092F0008792F0008B1
:102E9000E92F000859300008A44B93ED007AA44BA9
:102EA000D3ED007AB4EEE77AF1EE10FA28D59F4B15
:102EB000D3ED007AB1EE047A77EE877A9B4BC3EDBF
:102EC000007A9C4BD3ED087A9A4B93ED007A984B9D
:102ED000D3ED006A954B93ED006AF0EE462A9FED24
:102EE000962ADFED951AB0EE661AF0EE470AB0EEBC
:102EF000670AFEF7A7FBF0EE407A904BC3ED007A2D
:102F0000894B01221A7008E18D4B93ED007A884BB2
:102F1000D3ED007AB4EEE77AF1EE10FA28D5884BBB
:102F2000D3ED007AB1EE047A77EE877A844BC3ED65
:102F3000007A804BD3ED097A7E4B93ED017A7C4B7E
:102F4000D3ED006A7E4B93ED006AF0EE462A9FEDCA
:102F50007A2ADFED791AB0EE661AF0EE470AB0EE83
:102F6000670AFEF76FFBF0EE407A744BC3ED017A0F
:102F70006D4B02221A70D0E0724B93ED007A6C4BCD
:102F8000D3ED007AB4EEE77AF1EE10FA28D56D4B66
:102F9000D3ED007AB1EE047A77EE877A694BC3ED10
:102FA000007A644BD3ED0A7A624B93ED027A604B60
:102FB000D3ED006A634B93ED006AF0EE462A9FED75
:102FC0005E2ADFED5D1AB0EE661AF0EE470AB0EE4B
:102FD000670AFEF737FBF0EE407A584BC3ED027AF2
:102FE000514B03221A7098E0574B93ED007A504BE7
:102FF000D3ED007AB4EEE77AF1EE10FA28D5524B11
:10300000D3ED007AB1EE047A77EE877A4E4BC3EDBA
:10301000007A484BD3ED0B7A464B93ED037A444B41
:10302000D3ED006A484B93ED006AF0EE462A9FED1F
:10303000422ADFED411AB0EE661AF0EE470AB0EE12
:10304000670AFEF7FFFAF0EE407A3C4BC3ED037AD5
:10305000354B04221A7060E0364B93ED007A354B05
:10306000D3ED047AB4EE677AF1EE10FA0BD02F4B61
:103070004FF000021A60314B1B682E4A13622D4B31
:103080001B682C4A13612B4B93ED017A294BD3ED2E
:10309000057AB4EE677AF1EE10FA0BD0284B4FF0B8
:1030A00000021A60254B5B68224A5362214B5B6821
:1030B000204A53611F4B93ED027A1E4BD3ED067AE3
:1030C000B4EE677AF1EE10FA0BD01E4B4FF000020F
:1030D0001A601A4B9B68174A9362164B9B68154AF5
:1030E0009361144B93ED037A124BD3ED077AB4EE50
:1030F000677AF1EE10FA0BD0134B4FF000021A6012
:103100000E4BDB680B4AD3620A4BDB68094AD3617A
:10311000054B00221A7000E000BF012004F079FC8A
:10312000A2E600BF4C070020741B0020D80A002034
:103130000000002074070020000000006407002049
:10314000DC0A0020E00A0020E40A002080B582B0FA
:1031500000AF78600A2004F05CFCFBE72DE9B04F7B
:1031600088B006AF78607B681B68294A934201D11A
:1031700000F02AFD7B681B68264A934242D1264B09
:103180005B78012B3ED1254B1B8801339AB2234B30
:103190001A80224B1B88C72B34D9214B1B68184639
:1031A000FDF7D2F982468B461D4B5B681846FDF74A
:1031B000CBF904460D461A4B9B681846FDF7C4F937
:1031C00080468946164BDB681846FDF7BDF9024676
:1031D0000B46CDE90423CDE90289CDE900455246ED
:1031E0005B461049104807F029FC0F48FDF740F8EE
:1031F00003469BB21A460C490C4803F07FFA074B72
:1032000000221A8000BF0837BD46BDE8B08F00BF5E
:1032100000200040001800404C0700206C130020E4
:103220006407002078E00008EC12002090060020DF
:1032300080B400AF72B600BFFEE7000080B582B078
:1032400000AF00237B60124B5B6C114A43F4804358
:1032500053640F4B5B6C03F480437B607B680023FB
:103260003B600B4B1B6C0A4A43F080531364084BC2
:103270001B6C03F080533B603B6800220F216FF012
:10328000010000F090FD00BF0837BD4680BD00BFC3
:103290000038024080B590B000AF786007F12C0391
:1032A00000221A605A609A60DA601A617B681B68B3
:1032B000784A934235D10023BB62774B5B6C764AE8
:1032C00043F001035364744B5B6C03F00103BB6276
:1032D000BB6A00237B62704B1B6B6F4A43F0010398
:1032E00013636D4B1B6B03F001037B627B6A4FF42E
:1032F0004073FB6202233B6300237B630023BB63B9
:103300000123FB6307F12C031946644801F07CF9A3
:1033100000220521182000F046FD182000F05FFD76
:10332000B3E07B681B68B3F1804F4BD100233B6255
:10333000594B1B6C584A43F001031364564B1B6CEA
:1033400003F001033B623B6A0023FB61524B1B6BA2
:10335000514A43F0010313634F4B1B6B03F001030E
:10336000FB61FB690023BB614B4B1B6B4A4A43F07B
:1033700002031363484B1B6B03F00203BB61BB6981
:103380004FF40043FB6202233B6300237B63002373
:10339000BB630123FB6307F12C0319463F4801F08F
:1033A00033F90823FB6202233B6300237B63002382
:1033B000BB630123FB6307F12C031946384801F076
:1033C00023F962E07B681B68364A93422CD10023C4
:1033D0007B61314B1B6C304A43F0020313642E4B6C
:1033E0001B6C03F002037B617B6900233B612A4B6A
:1033F0001B6B294A43F001031363274B1B6B03F03C
:1034000001033B613B69C023FB6202233B63002352
:103410007B630023BB630223FB6307F12C03194684
:103420001E4801F0F1F830E07B681B681E4A9342A9
:103430002BD10023FB60184B1B6C174A43F0080389
:103440001364154B1B6C03F00803FB60FB6800233F
:10345000BB60114B1B6B104A43F0010313630E4B0F
:103460001B6B03F00103BB60BB680323FB620223F9
:103470003B6300237B630023BB630223FB6307F1F1
:103480002C031946054801F0BFF800BF4037BD4680
:1034900080BD00BF00000140003802400000024033
:1034A0000004024000040040000C004080B586B0DB
:1034B00000AF78607B681B682A4A93420ED10023D4
:1034C0007B61294B1B6C284A43F004031364264B91
:1034D0001B6C03F004037B617B693EE07B681B6827
:1034E000224A93421ED100233B611F4B5B6C1E4A54
:1034F00043F0020353641C4B5B6C03F002033B611B
:103500003B69002205212B2000F04DFC2B2000F010
:1035100066FC00220F212D2000F045FC2D2000F03C
:103520005EFC1AE07B681B68114A934215D10023A8
:10353000FB600D4B5B6C0C4A43F4803353640A4BC5
:103540005B6C03F48033FB60FB68002205211820CC
:1035500000F029FC182000F042FC00BF1837BD46DF
:1035600080BD00BF00080040003802400004014058
:103570000040014080B584B000AF78607B681B6874
:103580000E4A934215D10023FB600D4B1B6C0C4A75
:1035900043F0400313640A4B1B6C03F04003FB60D1
:1035A000FB68002205212B2000F0FDFB2B2000F002
:1035B00016FC00BF1037BD4680BD00BF001800409C
:1035C0000038024080B58AB000AF786007F114037C
:1035D00000221A605A609A60DA601A617B681B6880
:1035E000374A93421FD100233B61364B1B6B354A50
:1035F00043F008031363334B1B6B03F008033B6179
:103600003B694FF470437B610223BB610023FB6184
:1036100000233B6202237B6207F1140319462A4808
:1036200000F0F2FF47E07B681B68284A93421FD1F5
:103630000023FB60234B1B6B224A43F004031363FC
:10364000204B1B6B03F00403FB60FB684FF44073DB
:103650007B610223BB610023FB6100233B620323E8
:103660007B6207F114031946194800F0CDFF22E0F0
:103670007B681B68174A93421DD10023BB60114B26
:103680001B6B104A43F0010313630E4B1B6B03F0DB
:103690000103BB60BB680C237B610223BB61002379
:1036A000FB6100233B6203237B6207F1140319468D
:1036B000094800F0A9FF00BF2837BD4680BD00BF04
:1036C0000008004000380240000C024000040140A5
:1036D00000080240004001400000024080B58AB06E
:1036E00000AF786007F1140300221A605A609A60F4
:1036F000DA601A617B681B68344A934262D1002306
:103700003B61334B5B6C324A43F010035364304BE4
:103710005B6C03F010033B613B690023FB602C4BA7
:103720001B6B2B4A43F002031363294B1B6B03F003
:103730000203FB60FB68C0237B610223BB610023A3
:10374000FB6103233B6207237B6207F114031946E5
:10375000204800F059FF204B204A1A601E4B4FF0C2
:1037600000625A601C4B00229A601B4B0022DA60F8
:10377000194B4FF480621A61174B00225A61164BA5
:1037800000229A61144B0022DA61134B4FF480320D
:103790001A62114B00225A620F4800F033FB0346B5
:1037A000002B01D0FFF744FD7B680B4ADA630A4A1D
:1037B0007B68936300220521252000F0F4FA252080
:1037C00000F00DFB00BF2837BD4680BD0010014052
:1037D0000038024000040240D80600204064024045
:1037E00080B58EB000AF78600023FB620023BB621F
:1037F0000023FB60334B1B6C324A43F48073136429
:10380000304B1B6C03F48073FB60FB6807F1100204
:1038100007F114031146184601F042FD3B6AFB62B2
:10382000FB6A002B03D101F013FD786304E001F083
:103830000FFD03465B007B637B6B234AA2FB0323E4
:103840009B0C013BBB62214B214A1A601F4B40F28B
:10385000E732DA601D4ABB6A53601C4B00221A61D2
:103860001A4B00229A60194B00229A61174801F006
:1038700049FD034687F8333097F83330002B1BD1CE
:10388000124801F08FFD034687F8333097F8333044
:10389000002B11D12D2000F0A2FA7B680F2B08D845
:1038A000002279682D2000F07EFA0A4A7B681360B6
:1038B00002E0012387F8333097F833301846383761
:1038C000BD4680BD0038024083DE1B43781B0020CC
:1038D000002000400800002080B400AFFEE780B464
:1038E00000AFFEE780B400AFFEE780B400AFFEE7B4
:1038F00080B400AFFEE780B400AF00BFBD465DF806
:10390000047B704780B500AF034802F007F8034816
:1039100002F004F800BF80BD500400200006002023
:1039200080B500AF024802F07DFF00BF80BD00BF40
:103930009006002080B500AF034801F0EFFF034878
:1039400001F0ECFF00BF80BDB80500204806002054
:1039500080B500AF034801F0E1FF034801F0DEFF4E
:1039600000BF80BDB8050020781B002080B500AFE7
:10397000024800F0DFFB00BF80BD00BFD80600207A
:1039800080B400AF01231846BD465DF8047B704744
:1039900080B582B000AF7860396007F0B5F90346B2
:1039A00016221A604FF0FF3318460837BD4680BD17
:1039B00080B582B000AF78604FF0FF317868FFF7D4
:1039C000E7FFFEE780B586B000AFF860B9607A60C7
:1039D00000237B610AE0AFF300800146BB685A1CFC
:1039E000BA60CAB21A707B6901337B617A697B68FD
:1039F0009A42F0DB7B6818461837BD4680BD80B51B
:103A000086B000AFF860B9607A6000237B6109E09E
:103A1000BB685A1CBA601B781846AFF300807B69FC
:103A200001337B617A697B689A42F1DB7B681846D7
:103A30001837BD4680BD80B483B000AF78604FF0CA
:103A4000FF3318460C37BD465DF8047B704780B4E1
:103A500083B000AF786039603B684FF400525A6021
:103A6000002318460C37BD465DF8047B704780B4D0
:103A700083B000AF7860012318460C37BD465DF86F
:103A8000047B704780B485B000AFF860B9607A609D
:103A9000002318461437BD465DF8047B70470000CC
:103AA00080B586B000AF7860144A154BD31A7B619D
:103AB0007B693B61134B1B68002B02D1114B124AEF
:103AC0001A60104B1A687B6813443A699A4207D20D
:103AD00007F01AF903460C221A604FF0FF3309E091
:103AE000084B1B68FB60074B1A687B681344054A48
:103AF0001360FB6818461837BD4680BD00000220E1
:103B000000040000C01B0020685A002080B400AFF1
:103B1000064BD3F88830054A43F47003C2F8883066
:103B200000BFBD465DF8047B704700BF00ED00E0BC
:103B3000DFF834D0FFF7EAFF0C480D490D4A0023A7
:103B400002E0D458C4500433C4188C42F9D30A4A52
:103B50000A4C002301E013600432A242FBD307F0B9
:103B6000D9F8FEF761FA704700000220000000203B
:103B7000DC01002024E50008E0010020685A002054
:103B8000FEE7000080B500AF0E4B1B680D4A43F402
:103B9000007313600B4B1B680A4A43F48063136085
:103BA000084B1B68074A43F480731360032000F03E
:103BB000EFF80F20FFF714FEFFF740FB0023184635
:103BC00080BD00BF003C024080B400AF064B1B78B4
:103BD0001A46064B1B681344044A136000BFBD46D7
:103BE0005DF8047B704700BF0C000020C41B002060
:103BF00080B400AF034B1B681846BD465DF8047BDC
:103C0000704700BFC41B002080B485B000AF78604F
:103C10007B6803F00703FB600C4BDB68BB60BA6892
:103C20004FF6FF031340BB60FB681A02BB681343E7
:103C300043F0BF6343F40033BB60044ABB68D36006
:103C400000BF1437BD465DF8047B704700ED00E00F
:103C500080B400AF044BDB681B0A03F0070318466F
:103C6000BD465DF8047B704700ED00E080B483B092
:103C700000AF0346FB7197F90730002B0BDBFB7994
:103C800003F01F02074997F907305B09012000FA8A
:103C900002F241F8232000BF0C37BD465DF8047BDB
:103CA000704700BF00E100E080B483B000AF03467E
:103CB0003960FB7197F90730002B0ADB3B68DAB2F9
:103CC0000C4997F907301201D2B20B4483F8002354
:103CD0000AE03B68DAB20849FB7903F00F03043BC2
:103CE0001201D2B20B441A7600BF0C37BD465DF804
:103CF000047B704700E100E000ED00E080B489B093
:103D000000AFF860B9607A60FB6803F00703FB61FD
:103D1000FB69C3F10703042B28BF0423BB61FB69C4
:103D20000433062B02D9FB69033B00E000237B61CF
:103D30004FF0FF32BB6902FA03F3DA43BB681A4063
:103D40007B699A404FF0FF317B6901FA03F3D94355
:103D50007B680B40134318462437BD465DF8047B4F
:103D60007047000080B400AFBFF34F8F00BF064B19
:103D7000DB6803F4E0620449044B1343CB60BFF3F8
:103D80004F8F00BF00BFFDE700ED00E00400FA0523
:103D900080B582B000AF78607868FFF735FF00BF6C
:103DA0000837BD4680BD80B586B000AF0346B96018
:103DB0007A60FB7300237B61FFF74AFF78617A68C2
:103DC000B9687869FFF79AFF024697F90F301146F4
:103DD0001846FFF769FF00BF1837BD4680BD80B5A4
:103DE00082B000AF0346FB7197F907301846FFF722
:103DF0003DFF00BF0837BD4680BD80B500AFFFF76F
:103E0000B1FF000080B586B000AF786000237B6111
:103E1000FFF7EEFE38617B68002B01D1012399E0AA
:103E20007B68022283F835207B68002283F83420E7
:103E30007B681B681A687B681B6822F001021A60A5
:103E40000FE0FFF7D5FE02463B69D31A052B08D9D0
:103E50007B6820225A657B68032283F83520032380
:103E600078E07B681B681B6803F00103002BE8D136
:103E70007B681B681B687B617A69384B13407B61E8
:103E80007B685A687B689B681A437B68DB681A43C7
:103E90007B681B691A437B685B691A437B689B6973
:103EA0001A437B68DB691A437B681B6A13437A6990
:103EB00013437B617B685B6A042B07D17B68DA6AFA
:103EC0007B681B6B13437A6913437B617B681B68B8
:103ED0007A691A607B681B685B697B617B6923F088
:103EE00007037B617B685B6A7A6913437B617B684C
:103EF0005B6A042B17D17B689B6A7A6913437B61E9
:103F00007B68DB6A002B0ED0786800F001FB03466B
:103F1000002B08D07B6840225A657B68012283F819
:103F20003520012316E07B681B687A695A6178683E
:103F300000F0B8FA0346FB607B68DB6D3F229A40D5
:103F4000FB689A607B6800225A657B68012283F8CF
:103F50003520002318461837BD4680BD3F8010F03D
:103F600080B586B000AFF860B9607A603B6000232E
:103F7000FB75FB689B6D3B61FB6893F83430012B4C
:103F800001D1022340E0FB68012283F83420FB6862
:103F900093F83530DBB2012B2FD1FB68022283F876
:103FA0003520FB6800225A653B687A68B968F86872
:103FB00000F04AFAFB68DB6D3F229A403B699A6049
:103FC000FB681B681A68FB681B6842F016021A60DF
:103FD000FB681B6C002B07D0FB681B681A68FB682A
:103FE0001B6842F008021A60FB681B681A68FB68CD
:103FF0001B6842F001021A6005E0FB68002283F8AA
:1040000034200223FB75FB7D18461837BD4680BD62
:1040100080B584B000AF78607B689B6DFB60FFF774
:10402000E7FDB8607B6893F83530DBB2022B08D02F
:104030007B6880225A657B68002283F83420012344
:1040400052E07B681B681A687B681B6822F01602C6
:104050001A607B681B685A697B681B6822F08002C3
:104060005A617B681B6C002B03D17B689B6C002B17
:1040700007D07B681B681A687B681B6822F00802FF
:104080001A607B681B681A687B681B6822F0010253
:104090001A6013E0FFF7ACFD0246BB68D31A052B8C
:1040A0000CD97B6820225A657B68032283F835206F
:1040B0007B68002283F83420032315E07B681B68AB
:1040C0001B6803F00103002BE4D17B68DB6D3F220A
:1040D0009A40FB689A607B68012283F835207B68F0
:1040E000002283F83420002318461037BD4680BDD7
:1040F00080B483B000AF78607B6893F83530DBB272
:10410000022B04D07B6880225A6501230CE07B6877
:10411000052283F835207B681B681A687B681B685A
:1041200022F001021A60002318460C37BD465DF8E4
:10413000047B704780B586B000AF78600023BB6019
:104140008E4B1B688E4AA2FB03239B0A7B617B6814
:104150009B6D3B613B691B68FB607B68DB6D0822E4
:104160009A40FB681340002B1AD07B681B681B68C1
:1041700003F00403002B13D07B681B681A687B686C
:104180001B6822F004021A607B68DB6D08229A40EB
:104190003B699A607B685B6D43F001027B685A65FE
:1041A0007B68DB6D01229A40FB681340002B12D024
:1041B0007B681B685B6903F08003002B0BD07B6876
:1041C000DB6D01229A403B699A607B685B6D43F02E
:1041D00002027B685A657B68DB6D04229A40FB68AB
:1041E0001340002B12D07B681B681B6803F002038E
:1041F000002B0BD07B68DB6D04229A403B699A60F0
:104200007B685B6D43F004027B685A657B68DB6DFD
:1042100010229A40FB681340002B43D07B681B6838
:104220001B6803F00803002B3CD07B68DB6D102279
:104230009A403B699A607B681B681B6803F4802383
:10424000002B18D07B681B681B6803F40023002B2D
:1042500008D17B681B6C002B24D07B681B6C7868B2
:1042600098471FE07B689B6C002B1BD07B689B6C86
:104270007868984716E07B681B681B6803F48073B6
:10428000002B07D17B681B681A687B681B6822F0CB
:1042900008021A607B681B6C002B03D07B681B6CC8
:1042A000786898477B68DB6D20229A40FB68134052
:1042B000002B00F08F807B681B681B6803F01003E5
:1042C000002B00F087807B68DB6D20229A403B69E1
:1042D0009A607B6893F83530DBB2052B36D17B686A
:1042E0001B681A687B681B6822F016021A607B68DC
:1042F0001B685A697B681B6822F080025A617B68E0
:104300001B6C002B03D17B689B6C002B07D07B6858
:104310001B681A687B681B6822F008021A607B68B9
:10432000DB6D3F229A403B699A607B68012283F8EB
:1043300035207B68002283F834207B681B6D002BBE
:104340007ED07B681B6D7868984779E07B681B6836
:104350001B6803F48023002B1DD07B681B681B683F
:1043600003F40023002B0DD17B685B6C002B31D054
:104370007B685B6C786898472CE000BF04000020E5
:10438000B5814E1B7B68DB6B002B23D07B68DB6B1E
:10439000786898471EE07B681B681B6803F480738D
:1043A000002B0FD17B681B681A687B681B6822F0A2
:1043B00010021A607B68012283F835207B68002296
:1043C00083F834207B68DB6B002B03D07B68DB6BCE
:1043D000786898477B685B6D002B32D07B685B6D9B
:1043E00003F00103002B22D07B68052283F83520DF
:1043F0007B681B681A687B681B6822F001021A60E0
:10440000BB680133BB607A699A4207D37B681B683B
:104410001B6803F00103002BF2D100E000BF7B68B2
:10442000012283F835207B68002283F834207B68E2
:10443000DB6C002B05D07B68DB6C7868984700E06C
:1044400000BF1837BD4680BD80B485B000AFF860AE
:10445000B9607A603B60FB681B681A68FB681B6880
:1044600022F480221A60FB681B683A685A60FB6875
:104470009B68402B08D1FB681B687A689A60FB68D0
:104480001B68BA68DA6007E0FB681B68BA689A6064
:10449000FB681B687A68DA6000BF1437BD465DF8B8
:1044A000047B704780B485B000AF78607B681B6880
:1044B000DBB2103B144AA2FB03231B09FB60134A27
:1044C000FB6813441B781A467B68DA65FB68032B8C
:1044D00009D97B681B6823F47F7323F003031A1D3B
:1044E0007B689A6507E07B681B6823F47F7323F081
:1044F00003037A6893657B689B6D18461437BD4645
:104500005DF8047B704700BFABAAAAAAC8E0000808
:1045100080B485B000AF78600023FB737B689B6A32
:10452000BB607B689B69002B1FD1BB68032B56D8EF
:1045300001A252F823F000BF494500085B4500087E
:1045400049450008DF4500087B68DB6A03F080739B
:10455000002B46D00123FB7343E07B68DB6AB3F199
:10456000C07F40D10123FB733DE07B689B69B3F5BD
:10457000005F21D1BB68032B37D801A252F823F08A
:10458000914500089745000891450008A945000895
:104590000123FB7330E07B68DB6A03F08073002B40
:1045A00025D00123FB7322E07B68DB6AB3F1C07F77
:1045B0001FD10123FB731CE0BB68022B03D9BB682E
:1045C000032B03D018E00123FB7315E07B68DB6A43
:1045D00003F08073002B0ED00123FB730BE000BFB0
:1045E0000AE000BF08E000BF06E000BF04E000BF33
:1045F00002E000BF00E000BFFB7B18461437BD4659
:104600005DF8047B704700BF80B489B000AF78606C
:10461000396000237B6100233B610023BB610023E1
:10462000FB616BE10122FB6902FA03F37B613B68EA
:104630001B687A6913403B613A697B699A4240F092
:104640005A813B685B6803F00303012B05D03B688C
:104650005B6803F00303022B30D17B689B68BB616E
:10466000FB695B00032202FA03F3DB43BA691340E0
:10467000BB613B68DA68FB695B0002FA03F3BA6965
:104680001343BB617B68BA699A607B685B68BB61F6
:104690000122FB6902FA03F3DB43BA691340BB61F1
:1046A0003B685B681B0903F00102FB6902FA03F334
:1046B000BA691343BB617B68BA695A603B685B683F
:1046C00003F00303032B17D07B68DB68BB61FB6936
:1046D0005B00032202FA03F3DB43BA691340BB61B8
:1046E0003B689A68FB695B0002FA03F3BA691343FB
:1046F000BB617B68BA69DA603B685B6803F00303FF
:10470000022B23D1FB69DA087B68083253F8223088
:10471000BB61FB6903F007039B000F2202FA03F35E
:10472000DB43BA691340BB613B681A69FB6903F05C
:1047300007039B0002FA03F3BA691343BB61FB69E9
:10474000DA087B680832B96943F822107B681B6875
:10475000BB61FB695B00032202FA03F3DB43BA6926
:104760001340BB613B685B6803F00302FB695B00BD
:1047700002FA03F3BA691343BB617B68BA691A6032
:104780003B685B6803F44033002B00F0B4800023E7
:10479000FB60604B5B6C5F4A43F4804353645D4B4A
:1047A0005B6C03F48043FB60FB685B4AFB699B081E
:1047B000023352F82330BB61FB6903F003039B0013
:1047C0000F2202FA03F3DB43BA691340BB617B6833
:1047D000524A93422BD07B68514A934225D07B6842
:1047E000504A93421FD07B684F4A934219D07B684E
:1047F0004E4A934213D07B684D4A93420DD07B685A
:104800004C4A934207D07B684B4A934201D107231D
:104810000EE008230CE006230AE0052308E0042349
:1048200006E0032304E0022302E0012300E000236A
:10483000FA6902F0030292009340BA691343BB6124
:104840003549FB699B080233BA6941F823203B4B89
:104850009B68BB613B69DB43BA691340BB613B6842
:104860005B6803F48013002B03D0BA693B691343E0
:10487000BB61324ABB699360304BDB68BB613B690B
:10488000DB43BA691340BB613B685B6803F4001308
:10489000002B03D0BA693B691343BB61274ABB694C
:1048A000D360264B5B68BB613B69DB43BA6913404D
:1048B000BB613B685B6803F40033002B03D0BA692B
:1048C0003B691343BB611D4ABB6953601B4B1B68AB
:1048D000BB613B69DB43BA691340BB613B685B6802
:1048E00003F48033002B03D0BA693B691343BB61E7
:1048F000124ABB691360FB690133FB61FB690F2B33
:104900007FF690AE00BF00BF2437BD465DF8047B44
:10491000704700BF003802400038014000000240EC
:104920000004024000080240000C02400010024057
:104930000014024000180240001C0240003C0140EC
:1049400080B485B000AF78600B467B807B681A69C5
:104950007B881340002B02D00123FB7301E000236E
:10496000FB73FB7B18461437BD465DF8047B70472C
:1049700080B586B000AF78607B68002B01D1012341
:1049800067E27B681B6803F00103002B75D0884B3E
:104990009B6803F00C03042B0CD0854B9B6803F041
:1049A0000C03082B12D1824B5B6803F48003B3F530
:1049B000800F0BD17E4B1B6803F40033002B5BD0C0
:1049C0007B685B68002B57D1012342E27B685B6800
:1049D000B3F5803F06D1764B1B68754A43F48033AC
:1049E00013601DE07B685B68B3F5A02F0CD1704BA2
:1049F0001B686F4A43F4802313606D4B1B686C4A3D
:104A000043F4803313600BE0694B1B68684A23F45E
:104A100080331360664B1B68654A23F48023136060
:104A20007B685B68002B13D0FFF7E2F8386108E081
:104A3000FFF7DEF802463B69D31A642B01D9032342
:104A400007E25B4B1B6803F40033002BF0D014E04B
:104A5000FFF7CEF8386108E0FFF7CAF802463B6975
:104A6000D31A642B01D90323F3E1514B1B6803F4E0
:104A70000033002BF0D100E000BF7B681B6803F01F
:104A80000203002B63D04A4B9B6803F00C03002BFE
:104A90000BD0474B9B6803F00C03082B1CD1444BF5
:104AA0005B6803F48003002B16D1414B1B6803F0B5
:104AB0000203002B05D07B68DB68012B01D00123AA
:104AC000C7E13B4B1B6823F0F8027B681B69DB00E6
:104AD000374913430B603AE07B68DB68002B20D03A
:104AE000344B01221A60FFF783F8386108E0FFF7C2
:104AF0007FF802463B69D31A022B01D90323A8E1B0
:104B00002B4B1B6803F00203002BF0D0284B1B68D3
:104B100023F0F8027B681B69DB00254913430B6017
:104B200015E0244B00221A60FFF762F8386108E0B4
:104B3000FFF75EF802463B69D31A022B01D9032323
:104B400087E11B4B1B6803F00203002BF0D17B684D
:104B50001B6803F00803002B36D07B685B69002BD1
:104B600016D0154B01221A60FFF742F8386108E0B1
:104B7000FFF73EF802463B69D31A022B01D9032303
:104B800067E10B4B5B6F03F00203002BF0D01BE0DF
:104B9000094B00221A60FFF72BF838610EE0FFF78F
:104BA00027F802463B69D31A022B07D9032350E1A9
:104BB0000038024000004742800E4742884B5B6F3E
:104BC00003F00203002BEAD17B681B6803F00403A7
:104BD000002B00F097800023FB75814B1B6C03F0CA
:104BE0008053002B0FD10023BB607D4B1B6C7C4A94
:104BF00043F0805313647A4B1B6C03F08053BB600B
:104C0000BB680123FB75774B1B6803F48073002B93
:104C100018D1744B1B68734A43F480731360FEF71A
:104C2000E7FF386108E0FEF7E3FF02463B69D31A6D
:104C3000022B01D903230CE16A4B1B6803F4807338
:104C4000002BF0D07B689B68012B06D1644B1B6F57
:104C5000634A43F0010313671CE07B689B68052BE4
:104C60000CD15F4B1B6F5E4A43F0040313675C4B30
:104C70001B6F5B4A43F0010313670BE0584B1B6F3C
:104C8000574A23F001031367554B1B6F544A23F017
:104C9000040313677B689B68002B15D0FEF7A8FF01
:104CA00038610AE0FEF7A4FF02463B69D31A41F2DD
:104CB0008832934201D90323CBE0494B1B6F03F0A9
:104CC0000203002BEED014E0FEF792FF38610AE0F9
:104CD000FEF78EFF02463B69D31A41F288329342B7
:104CE00001D90323B5E03E4B1B6F03F00203002BF9
:104CF000EED1FB7D012B05D1394B1B6C384A23F0DB
:104D0000805313647B689B69002B00F0A180344BB7
:104D10009B6803F00C03082B5CD07B689B69022B1B
:104D200041D1314B00221A60FEF762FF386108E082
:104D3000FEF75EFF02463B69D31A022B01D903231B
:104D400087E0274B1B6803F00073002BF0D17B68D2
:104D5000DA697B681B6A1A437B685B6A9B011A43AA
:104D60007B689B6A5B08013B1B041A437B68DB6A18
:104D70001B061B4913434B601B4B01221A60FEF7B5
:104D800037FF386108E0FEF733FF02463B69D31A6C
:104D9000022B01D903235CE0114B1B6803F0007365
:104DA000002BF0D054E0104B00221A60FEF720FFD9
:104DB000386108E0FEF71CFF02463B69D31A022B5C
:104DC00001D9032345E0064B1B6803F00073002B59
:104DD000F0D13DE07B689B69012B07D1012338E0CE
:104DE0000038024000700040600047421B4B5B6887
:104DF000FB607B689B69012B28D0FB6803F4800271
:104E00007B68DB699A4221D1FB6803F03F027B6833
:104E10001B6A9A421AD1FA6847F6C07313407A683F
:104E2000526A9201934211D1FB6803F440327B68CD
:104E30009B6A5B08013B1B049A4207D1FB6803F0A5
:104E400070627B68DB6A1B069A4201D0012300E096
:104E5000002318461837BD4680BD00BF0038024009
:104E600080B584B000AF786039607B68002B01D1D9
:104E70000123CCE0684B1B6803F007033A689A42B1
:104E80000CD9654B3A68D2B21A70634B1B6803F0B9
:104E900007033A689A4201D00123B8E07B681B6897
:104EA00003F00203002B20D07B681B6803F004038F
:104EB000002B05D0594B9B68584A43F4E05393604C
:104EC0007B681B6803F00803002B05D0534B9B68DD
:104ED000524A43F460439360504B9B6823F0F002C6
:104EE0007B689B684D4913438B607B681B6803F0AC
:104EF0000103002B44D07B685B68012B07D1474B33
:104F00001B6803F40033002B19D101237FE07B6879
:104F10005B68022B03D07B685B68032B07D13F4B98
:104F20001B6803F00073002B09D101236FE03B4B9A
:104F30001B6803F00203002B01D1012367E0374B0C
:104F40009B6823F003027B685B68344913438B60E2
:104F5000FEF74EFEF8600AE0FEF74AFE0246FB68E6
:104F6000D31A41F28832934201D903234FE02B4BED
:104F70009B6803F00C027B685B689B009A42EBD154
:104F8000254B1B6803F007033A689A420CD2224B68
:104F90003A68D2B21A70204B1B6803F007033A68D4
:104FA0009A4201D0012332E07B681B6803F00403BE
:104FB000002B08D0194B9B6823F4E0527B68DB6818
:104FC000164913438B607B681B6803F00803002BB2
:104FD00009D0124B9B6823F460427B681B69DB009D
:104FE0000E4913438B6000F021F802460B4B9B687F
:104FF0001B0903F00F030A49CB5C22FA03F3094AA9
:105000001360094B1B681846FEF7EAFB002318469D
:105010001037BD4680BD00BF003C02400038024052
:10502000B0E0000804000020080000202DE9B04F87
:1050300094B000AF00237B640023FB6400233B6437
:105040000023BB64794B9B6803F00C03082B0DD045
:10505000082B00F2E180002B02D0042B03D0DBE010
:10506000734BBB64DBE0734BBB64D8E06F4B5B6896
:1050700003F03F037B646D4B5B6803F48003002BFC
:1050800063D06A4B5B689B090022BB63FA63BB6B0E
:10509000C3F308033B6300237B63D7E90C45224637
:1050A0002B464FF000004FF00001590141EAD26158
:1050B000500102460B462146511A3961294663EBDD
:1050C00001037B614FF000024FF00003D7E904AB0E
:1050D00059468B01514643EA916351468A01514634
:1050E000B2EB0108594663EB01094FF000024FF0A3
:1050F00000034FEAC90343EA58734FEAC8029046D7
:105100009946234618EB0303BB602B4649EB030388
:10511000FB604FF000024FF00003D7E9024529463B
:105120004B02214643EAD15321464A021046194612
:105130007B6C0022BB62FA62D7E90A23FBF7A4FD6D
:1051400002460B461346FB6458E0384B5B689B09EC
:10515000002218461146C0F308033B6200237B621D
:10516000D7E9088942464B464FF000004FF0000156
:10517000590141EAD261500102460B464146B2EB69
:10518000010A494663EB010B4FF000024FF00003A8
:105190004FEA8B1343EA9A634FEA8A12B2EB0A048E
:1051A00063EB0B054FF000024FF00003EB0043EA06
:1051B0005473E20014461D464346E3183B604B46D9
:1051C00045EB03037B604FF000024FF00003D7E98B
:1051D000004529468B02214643EA915321468A0223
:1051E000104619467B6C0022BB61FA61D7E90623A1
:1051F000FBF74AFD02460B461346FB640B4B5B680C
:105200001B0C03F0030301335B003B64FA6C3B6C43
:10521000B2FBF3F3BB6402E0054BBB6400BFBB6CA5
:1052200018465037BD46BDE8B08F00BF0038024079
:105230000024F40000127A0080B400AF034B1B6816
:105240001846BD465DF8047B704700BF040000208F
:1052500080B500AFFFF7F0FF0246054B9B689B0A45
:1052600003F007030349CB5C22FA03F3184680BD21
:1052700000380240C0E0000880B500AFFFF7DCFF57
:105280000246054B9B685B0B03F007030349CB5CAD
:1052900022FA03F3184680BD00380240C0E000083F
:1052A00080B483B000AF786039607B680F221A60E9
:1052B000124B9B6803F003027B685A600F4B9B689C
:1052C00003F0F0027B689A600C4B9B6803F4E05299
:1052D0007B68DA60094B9B68DB0803F4E0527B686B
:1052E0001A61074B1B6803F007023B681A6000BF96
:1052F0000C37BD465DF8047B704700BF00380240A4
:10530000003C024080B582B000AF78607B68002B23
:1053100001D1012341E07B6893F83D30DBB2002BE3
:1053200006D17B68002283F83C207868FEF722F9DA
:105330007B68022283F83D207B681A687B6804330F
:105340001946104600F08CFD7B68012283F8462048
:105350007B68012283F83E207B68012283F83F208E
:105360007B68012283F840207B68012283F841207A
:105370007B68012283F842207B68012283F8432066
:105380007B68012283F844207B68012283F8452052
:105390007B68012283F83D20002318460837BD466C
:1053A00080BD000080B485B000AF78607B6893F862
:1053B0003D30DBB2012B01D001234EE07B6802229D
:1053C00083F83D207B681B68DA687B681B6842F0C5
:1053D0000102DA607B681B68234A934222D07B6813
:1053E0001B68B3F1804F1DD07B681B681F4A934236
:1053F00018D07B681B681E4A934213D07B681B68D9
:105400001C4A93420ED07B681B681B4A934209D00A
:105410007B681B68194A934204D07B681B68184A52
:10542000934211D17B681B689B6803F00703FB6004
:10543000FB68062B10D07B681B681A687B681B68AA
:1054400042F001021A6007E07B681B681A687B68FB
:105450001B6842F001021A60002318461437BD464B
:105460005DF8047B704700BF00000140000400406D
:1054700000080040000C00400004014000400140D2
:105480000018004080B582B000AF78607B68002BC8
:1054900001D1012341E07B6893F83D30DBB2002B62
:1054A00006D17B68002283F83C207868FDF7FEFF78
:1054B0007B68022283F83D207B681A687B6804338E
:1054C0001946104600F0CCFC7B68012283F8462088
:1054D0007B68012283F83E207B68012283F83F200D
:1054E0007B68012283F840207B68012283F84120F9
:1054F0007B68012283F842207B68012283F84320E5
:105500007B68012283F844207B68012283F84520D0
:105510007B68012283F83D20002318460837BD46EA
:1055200080BD000080B584B000AF786039603B6812
:10553000002B09D17B6893F83E30DBB2012B14BFFE
:1055400001230023DBB222E03B68042B09D17B68F6
:1055500093F83F30DBB2012B14BF01230023DBB2F1
:1055600015E03B68082B09D17B6893F84030DBB22B
:10557000012B14BF01230023DBB208E07B6893F802
:105580004130DBB2012B14BF01230023DBB2002B1F
:1055900001D001237CE03B68002B04D17B68022210
:1055A00083F83E2013E03B68042B04D17B68022281
:1055B00083F83F200BE03B68082B04D17B68022274
:1055C00083F8402003E07B68022283F841207B6857
:1055D0001B6801223968184600F038FF7B681B6899
:1055E0002D4A934204D07B681B682C4A934201D118
:1055F000012300E00023002B07D07B681B685A6C56
:105600007B681B6842F400425A647B681B68224A2C
:10561000934222D07B681B68B3F1804F1DD07B681A
:105620001B681F4A934218D07B681B681D4A93422F
:1056300013D07B681B681C4A93420ED07B681B68A2
:10564000164A934209D07B681B68184A934204D0DB
:105650007B681B68164A934211D17B681B689B6864
:1056600003F00703FB60FB68062B10D07B681B6808
:105670001A687B681B6842F001021A6007E07B68C9
:105680001B681A687B681B6842F001021A600023DD
:1056900018461037BD4680BD00000140000401409F
:1056A0000004004000080040000C004000400140A1
:1056B0000018004080B586B000AF786039607B6824
:1056C000002B01D1012397E07B6893F83D30DBB2DA
:1056D000002B06D17B68002283F83C207868FDF718
:1056E000D9FD7B68022283F83D207B681B689B689C
:1056F0007A68126823F4804323F0070393607B6881
:105700001A687B6804331946104600F0A9FB7B68D1
:105710001B689B687B617B681B689B693B617B683E
:105720001B681B6AFB603B681B687A6913437B61DB
:105730003B6923F4407323F003033B613B689A68A1
:105740003B689B691B0213433A6913433B613B6906
:1057500023F4406323F00C033B613B6923F4704363
:1057600023F0F0033B613B68DA683B68DB691B02AE
:1057700013433A6913433B613B681B691A013B6859
:105780001B6A1B0313433A6913433B61FB6823F015
:105790002203FB60FB6823F08803FB603B685A68C8
:1057A0003B685B691B011343FA681343FB607B682A
:1057B0001B687A699A607B681B683A699A617B68A2
:1057C0001B68FA681A627B68012283F846207B68AE
:1057D000012283F83E207B68012283F83F207B680A
:1057E000012283F842207B68012283F843207B68F2
:1057F000012283F83D20002318461837BD4680BD9E
:1058000080B584B000AF786039607B6893F83E3033
:10581000FB737B6893F83F30BB737B6893F842302F
:105820007B737B6893F843303B733B68002B10D14C
:10583000FB7B012B02D17B7B012B01D0012369E093
:105840007B68022283F83E207B68022283F8422094
:1058500031E03B68042B10D1BB7B012B02D13B7B99
:10586000012B01D0012355E07B68022283F83F2001
:105870007B68022283F843201DE0FB7B012B08D1CB
:10588000BB7B012B05D17B7B012B02D13B7B012B09
:1058900001D001233EE07B68022283F83E207B6832
:1058A000022283F83F207B68022283F842207B6833
:1058B000022283F843203B68002B03D03B68042B73
:1058C00008D00FE07B681B6801220021184600F019
:1058D000BDFD16E07B681B6801220421184600F01C
:1058E000B5FD0EE07B681B6801220021184600F020
:1058F000ADFD7B681B6801220421184600F0A6FD5F
:1059000000BF7B681B681A687B681B6842F0010255
:105910001A60002318461037BD4680BD80B584B09C
:1059200000AF78607B681B68DB68FB607B681B6886
:105930001B69BB60BB6803F00203002B20D0FB682F
:1059400003F00203002B1BD07B681B686FF0020280
:105950001A617B6801221A777B681B689B6903F0D8
:105960000303002B03D0786800F05BFA05E0786849
:1059700000F04DFA786800F05EFA7B6800221A7732
:10598000BB6803F00403002B20D0FB6803F0040382
:10599000002B1BD07B681B686FF004021A617B68C8
:1059A00002221A777B681B689B6903F44073002B03
:1059B00003D0786800F035FA05E0786800F027FA3F
:1059C000786800F038FA7B6800221A77BB6803F029
:1059D0000803002B20D0FB6803F00803002B1BD02A
:1059E0007B681B686FF008021A617B6804221A77D3
:1059F0007B681B68DB6903F00303002B03D0786826
:105A000000F00FFA05E0786800F001FA786800F01D
:105A100012FA7B6800221A77BB6803F01003002B90
:105A200020D0FB6803F01003002B1BD07B681B68A1
:105A30006FF010021A617B6808221A777B681B6876
:105A4000DB6903F44073002B03D0786800F0E9F9B8
:105A500005E0786800F0DBF9786800F0ECF97B6825
:105A600000221A77BB6803F00103002B0CD0FB68FF
:105A700003F00103002B07D07B681B686FF0010265
:105A80001A617868FDF76AFBBB6803F08003002B9E
:105A90000CD0FB6803F08003002B07D07B681B68E9
:105AA0006FF080021A61786800F0CEFDBB6803F0E9
:105AB0004003002B0CD0FB6803F04003002B07D001
:105AC0007B681B686FF040021A61786800F0BDF9CE
:105AD000BB6803F02003002B0CD0FB6803F020030D
